:100000000C9417010C943F010C943F010C943F0198
:100010000C943F010C943F010C943F010C949312FB
:100020000C943F010C9471050C943F010C947307E0
:100030000C943F010C943F010C943F010C943F0140
:100040000C9426140C943F010C9408120C94E211A9
:100050000C943F010C943F010C943F010C943F0120
:100060000C942D080C943F01500157015E0165016D
:100070006C018301730183017A01670B6D0B730BB4
:10008000790B7F0B850B8B0B4E414E494E495459D2
:10009000494E46CDCCCC3D0AD7233C17B7D1387753
:1000A000CC2B329595E6241FB14F0A000020410069
:1000B00000C84200401C4620BCBE4CCA1B0E5AAEB3
:1000C000C59D746364696E6F70737578585B0000CA
:1000D000000000250028002B0002005EBCE2613F0A
:1000E000DD83C29C7E20A3FD1F419DC3217FFCA216
:1000F000401E5F01E3BD3E6082DC237D9FC1421C48
:10010000FEA0E1BF5D0380DE3C62BEE0025CDF81F9
:10011000633D7C22C09E1D43A1FF4618FAA42779A7
:100120009BC584DA3866E5BB5907DB856739BAE4D5
:1001300006581947A5FB7826C49A653BD987045A07
:10014000B8E6A7F91B45C6987A24F8A6441A99C7B9
:10015000257B3A6486D85B05E7B98CD2306EEDB367
:10016000510F4E10F2AC2F7193CD114FADF3702E95
:10017000CC92D38D6F31B2EC0E50AFF1134DCE90C7
:10018000722C6D33D18F0C52B0EE326C8ED0530D79
:10019000EFB1F0AE4C1291CF2D73CA947628ABF527
:1001A00017490856B4EA6937D58B5709EBB5366855
:1001B0008AD495CB2977F4AA4816E9B7550B88D687
:1001C000346A2B7597C94A14F6A8742AC896154B39
:1001D000A9F7B6E80A54D7896B350000000024005F
:1001E00027002A00000000080002010000030407A5
:1001F00000000000000000000000000023002600B6
:100200002900040404040404040402020202020299
:1002100003030303030301020408102040800102CA
:1002200004081020010204081020022CF22B1124D3
:100230001FBECFEFD8E0DEBFCDBF12E0A0E0B1E03F
:10024000E0E4F4E702C005900D92A031B107D9F7C0
:1002500027E0A0E1B2E001C01D92A63CB207E1F7A1
:1002600011E0C6E1D1E004C02197FE010E94BD3437
:10027000C531D107C9F70E9490190C94133A0C9418
:1002800000000F931F93DC011296EC910E2F10E0EB
:1002900009301105C0F5F801EC5CFF4F0C94BD343A
:1002A000DC01ED91FC910084F185E02D29C0DC0199
:1002B000ED91FC910284F385E02D22C0DC01ED91EB
:1002C000FC910484F585E02D1BC0DC01ED91FC91CF
:1002D0000684F785E02D14C0DC01ED91FC910088C7
:1002E000F189E02D0DC0DC01ED91FC910288F389CC
:1002F000E02D06C0DC01ED91FC910488F589E02D2C
:100300001F910F9109941F910F91089585ED80938E
:10031000BC008091BC0084FDFCCF10923702089590
:100320004091F202262F30E0240F311D2132310599
:10033000DCF4209137022430C9F4FC0180E090E025
:10034000861758F43091F2022191DC01A053BD4F81
:10035000A30FB11D2C930196F3CF8091F202680F89
:100360006093F20280E0089581E0089582E00895AC
:10037000089581E090E030913B0220913A023217DB
:1003800010F480E090E09195819591090895809115
:100390003B0290913A02891730F48F5F80933B02C1
:1003A00080E090E008958FEF9FEF089580913A02EA
:1003B00090E020913B02821B91090895CF92DF9239
:1003C000EF92FF920F931F93CF93DF937C01262F21
:1003D000972F8A0180913B03882391F0C62FD72F56
:1003E0006E01C40ED51ECC15DD0571F06991D701E3
:1003F000ED91FC910190F081E02DC7010995F3CFBB
:10040000642F822F0E949001C801DF91CF911F912C
:100410000F91FF90EF90DF90CF900895CF93DF93EF
:100420001F92CDB7DEB7698320913B032223D1F021
:1004300020913802203240F021E030E0FC0133838B
:10044000228380E090E015C080913902E82FF0E02F
:10045000E45CFC4F998190838F5F80933902809395
:10046000380205C061E0CE0101960E94900181E052
:1004700090E00F90DF91CF910895CF92DF92EF92AD
:10048000FF920F931F93CF93DF93FC0122812430BF
:1004900041F0283031F0233031F0263021F012E0E5
:1004A00003C014E001C013E0EC012796E12CF12C0D
:1004B000C62ED12C01E0C6010E2C02C09595879561
:1004C0000A94E2F7688180FD6027FE0134978081FD
:1004D0000E946312FFEFEF1AFF0A2196E11658F30C
:1004E000DF91CF911F910F91FF90EF90DF90CF9010
:1004F00008954F925F926F927F92AF92BF92CF9288
:10050000DF92EF92FF920F931F93CF93DF93EC0153
:100510005A018B012B893C894D895E89B501C8013F
:100520000E945031882309F451C0CF88D88CE98CBF
:10053000FA8C2601370177FA709477F87094A3014A
:100540009201B501C8010E94503187FD0BC0A7017F
:100550009601B501C8010E94343418162CF06501CB
:10056000780102C07301620120E030E0A901C701F7
:10057000B6010E945031811105C01BA21CA21DA210
:100580001EA220C0A701960160E074E284E799E40E
:100590000E948C339F770E9405346BA37CA38DA3AC
:1005A0009EA35E0183E4A80EB11C11E020E030E0C0
:1005B000A901C701B6010E94343418160CF010E0EE
:1005C000F5011083CB8ADC8AED8AFE8ADF91CF9118
:1005D0001F910F91FF90EF90DF90CF90BF90AF9061
:1005E0007F906F905F904F9008952F923F924F921F
:1005F0005F926F927F928F929F92AF92BF92CF92B3
:10060000DF92EF92FF920F931F93CF93DF9300D06F
:1006100000D0CDB7DEB71C01FC0187849088A1888B
:10062000B28883859485A585B685881A990AAA0A11
:10063000BB0A63897489858996899B01AC010E94F4
:10064000B6316B017C01F101638D748D858D968DC2
:100650009B01AC010E9420339B01AC01C701B60194
:100660000E948C330E94FE3381149104A104B104D2
:10067000A1F462307105810591050CF07CC0F10197
:1006800013A214A215A216A2138A148A158A168A16
:1006900013AA14AA15AA16AA03C1F10103A914A941
:1006A00025A936A9ED5BFF4F181419041A041B0481
:1006B000FCF410161106120613064CF468157905A1
:1006C0008A059B054CF52081211155C025C00115D7
:1006D00011052105310509F44EC0681579058A0513
:1006E0009B050CF048C08081882309F444C037C0C2
:1006F0001016110612061306F4F4002711279801AC
:10070000081919092A093B0960177107820793071D
:100710001CF42081222379F19B01AC0188279927C1
:10072000DC01821B930BA40BB50BF10183AB94ABE3
:10073000A5ABB6AB20C00115110521053105D9F0D7
:10074000CC24DD247601C818D908EA08FB086C150A
:100750007D058E059F057CF4808181110CC030954C
:100760002095109501951F4F2F4F3F4FF10103AB7F
:1007700014AB25AB36ABF101C3A8D4A8E5A8F6A805
:1007800081010D5B1F4FC114D104E104F10491F408
:1007900087A990ADA1ADB2AD83AF94AFA5AFB6AF11
:1007A00081E0181419041A041B040CF080E0F8010D
:1007B000808340C0F10183AC94ACA5ACB6ACA5017C
:1007C0009401C501B4010E9420332B013C01C701F3
:1007D000B6010E94573120E030E040E850E40E942A
:1007E000B63120E030E040E85FE30E9420339B0117
:1007F000AC01C301B2010E948C339B01AC01C50165
:10080000B4010E941F334B015C01F101FF9640804F
:100810005180628073809201A3010E9434341816C3
:1008200014F042015301A401B501F10143AF54AFEB
:1008300065AF76AFFFEFCF1ADF0AEF0AFF0AF101CB
:10084000C3AAD4AAE5AAF6AA23AD34AD45AD56ADE8
:10085000CA01B90129833A834B835C830E94053422
:10086000F10163A374A385A396A329813A814B81E7
:100870005C8160E074E284E799E40E948C33F101CA
:10088000638B748B858B968BF8012081211108C0B6
:10089000DC01CB01B058F101838B948BA58BB68B17
:1008A0000F900F900F900F90DF91CF911F910F91AC
:1008B000FF90EF90DF90CF90BF90AF909F908F9080
:1008C0007F906F905F904F903F902F900895CF92C0
:1008D000DF92EF92FF920F931F93CF93DF93EC0180
:1008E0006A017B019A01AB016F89788D898D9A8DA0
:1008F0000E945031882309F446C0CF8AD88EE98EF1
:10090000FA8E8E01015C1F4FA701960160E074E230
:1009100084E799E40E948C33F801608371838283B9
:1009200093838BA99CA9ADA9BEA9181619061A060E
:100930001B064CF56B897C898D899E899B01AC01D6
:100940000E94B6316B017C016B8D7C8D8D8D9E8DEF
:100950009B01AC010E9420339B01AC01C701B60191
:100960000E948C330E94FE336BAB7CAB8DAB9EAB95
:10097000CE01DF91CF911F910F91FF90EF90DF900B
:10098000CF900C94F502DF91CF911F910F91FF90C2
:10099000EF90DF90CF9008950F931F93FC01038594
:1009A000148525853685400F511F621F731F0785EB
:1009B000108921893289041715072607370741F066
:1009C0004787508B618B728B1F910F910C94F502AE
:1009D0001F910F910895CF93FC01C0818FEF8C0F71
:1009E0008B3098F520E437E0DB010E94C33424EB20
:1009F00030E040E050E00E948D32DA01C901805EB3
:100A00009D4FAF4FBF4F8032F2E09F0744F09C01F3
:100A1000213689E038072CF020E639E002C020E2D8
:100A200032E028503109EC2FF0E0C901880F892FFE
:100A3000881F990BAF01440F551FE40FF51FE45BAE
:100A4000FD4F8183220F20952283CF9108950F932C
:100A50001F93CF938C01C62F80915F03811123C018
:100A600080E090E03BE027E5FC01E45BFD4F348350
:100A70002583039681329105B9F78BE180934D026E
:100A800010925E0310925D03109270001092B000FD
:100A900082E08093B1001092B20081E087BB809326
:100AA000700080935F03D8018C918823A1F061E0EE
:100AB0008C2F0E941513D801EC91F0E0CF01880F24
:100AC000991FE80FF91FE45BFD4FCF718081807E95
:100AD000C82BC062C083F8018081CF911F910F9114
:100AE00008951F920F920FB60F9211242F933F93E8
:100AF0004F935F936F937F938F939F93AF93BF9326
:100B0000EF93FF9380915D038F5F80935D0320914E
:100B10005D0380915E0390E0FC01EE0FFF1F8E0FDE
:100B20009F1FFC01E45BFD4F818128130FC0809162
:100B30005E0390E0FC01EE0FFF1F8E0F9F1FFC0174
:100B4000E45BFD4F82818093B20065C020915D031C
:100B500080915E0390E0FC01EE0FFF1F8E0F9F1F40
:100B6000FC01E45BFD4F8181821708F054C0809145
:100B70005E0390E0FC01EE0FFF1F8E0F9F1FFC0134
:100B8000E45BFD4F808185FF10C080915E0390E0A3
:100B9000FC01EE0FFF1F8E0F9F1FFC01E45BFD4F5A
:100BA000808160E08F710E94631280915E038F5F8D
:100BB00080935E0310925D031092B20080915E03F9
:100BC000882319F180915E038C30F8F480915E03E4
:100BD00090E0FC01EE0FFF1F8E0F9F1FFC01E45BF6
:100BE000FD4F808185FF17C080915E0390E0FC017E
:100BF000EE0FFF1F8E0F9F1FFC01E45BFD4F8081F6
:100C000061E08F710E94631206C080915E038C3098
:100C100010F010925E03FF91EF91BF91AF919F9101
:100C20008F917F916F915F914F913F912F910F9095
:100C30000FBE0F901F9018952F923F924F925F9288
:100C40006F927F928F929F92AF92BF92CF92DF92DC
:100C5000EF92FF920F931F93CF93DF9300D0CDB706
:100C6000DEB78C0149832A83660F771FF801EA5AA1
:100C7000FF4FE080F180EE0CFF1CF801CF01801BDC
:100C8000910B8E159F0514F41192F8CF8981F8010C
:100C9000E60FF71F81838A818083580184E5A80EBF
:100CA000B11C60E0F50180810E946312E00EF11E2C
:100CB0004801F2E58F0E911C380180E5680E711C29
:100CC000C701801B910B1816190624F5F701C29075
:100CD0007F01F4013080F301208087E0482E512C01
:100CE000D12CB601042C02C0759567950A94E2F7E1
:100CF00061707727822D0E94631261E0832D0E942C
:100D0000631260E0832D0E946312F1E04F1A5108D4
:100D100040F7D6CF61E0F50180810F900F90DF9111
:100D2000CF911F910F91FF90EF90DF90CF90BF90E8
:100D3000AF909F908F907F906F905F904F903F907B
:100D40002F900C946312CF92DF92EF92FF920F9349
:100D50001F93CF93DF9377FD23C0FC01EA5AFF4F27
:100D60002081318162177307DCF4EB017C016B0198
:100D700083E0CC0CDD1C8A95E1F701E010E0F8017E
:100D8000EC0DFD1DEE0DFF1D178620E0402FBE016E
:100D9000C7010E941C060F5F1F4F0930110579F72C
:100DA000DF91CF911F910F91FF90EF90DF90CF9047
:100DB0000895CF93FC01C48121E020933B03C093AD
:100DC0005C0310923902109238028385682B86E00A
:100DD00094E00E940E0280913802813208F046C0F1
:100DE000909137029111FCCF92E09093370291E0FD
:100DF000909336029FEF90933A03109239038093B9
:100E00003803ACE3B3E028E133E0F9019E2F921BF5
:100E1000981718F49D919193F9CF10921703809130
:100E20001703CC0FC82BC093170380913502813074
:100E300061F410923502809117038093BB0080917A
:100E4000BC0083FDF8CF85EC01C085EE8093BC002B
:100E5000809137028230E1F380913A038F3F31F085
:100E600080913A03803211F080913A031092390256
:100E70001092380210923B03CF9108950F931F9365
:100E8000CF938C01C62F0E94D9066C2F6061C801D8
:100E90000E94D9066C2F6F7EC8010E94D90683EC90
:100EA00090E00197F1F7CF911F910F9108950F9363
:100EB0001F93CF93DF938C01D62FC42F62956F7051
:100EC000642B0E943E076D2F6F706C2BC801DF9161
:100ED000CF911F910F910C943E0740E40E94570759
:100EE00080E090E008951F920F920FB60F921124A8
:100EF0002F933F934F935F936F937F938F939F9322
:100F0000AF93BF93EF93FF93809193050E943A12A2
:100F100020919705309198052F5F3F4F30939805AA
:100F20002093970590919605953618F096E090934A
:100F30009205909192059430C9F128F4923069F0AD
:100F40009330D1F05EC0953009F451C0963009F06D
:100F500058C091E09093630651C0811152C0209116
:100F60009705309198052436310508F442C0109257
:100F70006306109296051CC0813009F042C0E091D2
:100F8000960591E09E0F90939605F0E020919705CD
:100F900030919805EE0FFF1FEE56FA4F30872783EA
:100FA000109298051092970594E029C0811117C0FE
:100FB000E091960591E09E0F90939605F0E02091C8
:100FC000970530919805EE0FFF1FEE56FA4F3087C8
:100FD0002783109298051092970593E010C02091F6
:100FE0009705309198052536310558F007C08111D5
:100FF00008C0109298051092970503C095E0909351
:101000009205909195059923B9F081110AC08091BC
:101010009405882321F08091940561E009C02D9A00
:101020000BC080919405882331F08091940560E095
:101030000E94631201C02D98FF91EF91BF91AF9173
:101040009F918F917F916F915F914F913F912F91E0
:101050000F900FBE0F901F9018951F920F920FB612
:101060000F9211242F933F934F935F936F937F932E
:101070008F939F93AF93BF93EF93FF938091B900AA
:10108000887F803609F49CC068F5883209F45BC01B
:1010900090F4803109F454C038F4882309F4F6C080
:1010A000883009F44DC0F6C0883109F44CC0803254
:1010B00009F45DC0EFC0803409F468C048F480339F
:1010C00009F455C0883309F0E5C080933A03D8C0CD
:1010D000803509F44FC0883509F45DC0883409F0C3
:1010E000D9C0D6C0883909F4C7C0A8F4883709F434
:1010F00067C038F4883609F463C0803709F460C0EB
:10110000C9C0883809F4B8C0803909F45FC0803894
:1011100009F0C0C05BC0803B09F486C038F4803A57
:1011200009F466C0883A09F47FC0B4C0803C09F471
:10113000A7C0883C09F4A4C0883B09F48AC0AAC0AF
:101140008091170310C0909139038091380398174C
:1011500070F5E091390381E08E0F80933903F0E060
:10116000E85EFC4F80818093BB0085EC86C0809355
:101170003A038EC0E091390381E08E0F80933903EA
:101180008091BB00F0E0E85EFC4F808390913903D2
:10119000809138036EC0E091390381E08E0F809317
:1011A00039038091BB00F0E0E85EFC4F80838091C2
:1011B000360281116DC081E08093350284EA61C0FE
:1011C00083E08093370210921603CFCF80911603ED
:1011D000803208F051C0E091160381E08E0F8093B9
:1011E00016038091BB00F0E0EA50FD4F8083BDCF35
:1011F00085EC8093BC0010923702809116038032F8
:1012000030F4E0911603F0E0EA50FD4F1082609157
:10121000160370E0E091F402F091F50286EF92E09F
:1012200009951092160336C084E08093370210921D
:10123000F3021092F202E091F002F091F1020995AE
:101240008091F202811105C081E08093F202109238
:10125000D002E091F30281E08E0F8093F302F0E080
:10126000E053FD4F80818093BB009091F302809109
:10127000F202981708F479CF85E88093BC000AC081
:1012800085EC8093BC001092370204C010923A03A0
:101290000E948601FF91EF91BF91AF919F918F9135
:1012A0007F916F915F914F913F912F910F900FBE62
:1012B0000F901F9018950F931F93CF93DF930CE31C
:1012C00012E0C0E0D0E0F80161918F01CE010E94F0
:1012D0007F322196C031D105B1F7DF91CF911F91B7
:1012E0000F9108958FEC91E00E94F31583ED91E04A
:1012F0000C94F315CF92DF92EF92FF920F931F930E
:10130000CF93DF93CDB7DEB72E970FB6F894DEBF3D
:101310000FBECDBF6A016D877E870E94F31586EAF6
:1013200091E00E94F3156D857E856E3071050CF499
:1013300054C06E5071094AE0CE0107960E94981180
:101340001A8219821C821B821E821D8261E070E05B
:10135000CE0101960E945F11811105C0CE01019658
:101360000E9486110AC081E090E09E838D8364EE26
:1013700071E089819A810E94E3368B859C850F817B
:101380001885ED80FE800115110509F465C00097F0
:10139000A9F0E80EF91EB701CE0101960E945F1177
:1013A000882309F459C029813A818D819E81B80131
:1013B000820F931F0E94E336FE82ED824D815E8193
:1013C00069817A8189E693E00E943D1089819A8142
:1013D0000E9473358F8198850FC04AE0CE01019637
:1013E0000E9498114D815E8169817A8189E693E03E
:1013F0000E943D1089819A810E94733586EA91E0AE
:101400000E94F3150D2C000CEE08FF08F7FE0CC02F
:101410008DE20E94E81566277727CB016C197D09BC
:101420008E099F094AE003C04AE0C701B6010E9445
:10143000A71581EE91E00E9495152E960FB6F894AF
:10144000DEBF0FBECDBFDF91CF911F910F91FF90F7
:10145000EF90DF90CF900895CE0101960E94861103
:10146000ADCF0F931F93CF93DF93C8E1D2E0FE017E
:1014700031978081882359F1813049F488810E9415
:101480003A12688170E0AC0183E791E01EC08230BF
:1014900049F488810E94B013688170E0AC0186E74E
:1014A00091E013C0833021F4088110E0B80106C038
:1014B000843069F4088110E0698170E0C8010E94FD
:1014C000F515AC01B80186EE91E00E947A092396E9
:1014D00082E0C633D80759F6DF91CF911F910F9163
:1014E0000895CF93DF93EB01FC0160816134E1F457
:1014F0003F932F935F934F93DF93CF932BEE31E086
:101500003F932F939F938F930E94EA36888199810E
:101510000E96998388838DB79EB70A960FB6F89476
:101520009EBF0FBE8DBF16C03F932F935F934F9307
:10153000DF93CF9323E831E03F932F939F938F93D3
:101540000E94EA368DB79EB70A960FB6F8949EBFF2
:101550000FBE8DBFDF91CF910895CF93DF93EB0145
:10156000FC0120812134D1F45F934F93DF936F937B
:1015700026EF31E03F932F939F938F930E94EA369B
:10158000888199810E96998388838DB79EB7089636
:101590000FB6F8949EBF0FBE8DBF14C05F934F93DC
:1015A000DF936F9326E831E03F932F939F938F93C0
:1015B0000E94EA368DB79EB708960FB6F8949EBF84
:1015C0000FBE8DBFDF91CF910895CF93DF93EB01D5
:1015D000FC012081213481F4DF936F932EEF31E001
:1015E0003F932F939F938F930E94EA36888199812E
:1015F0000E96998388830AC0DF936F9329E831E0C0
:101600003F932F939F938F930E94EA360F900F90F2
:101610000F900F900F900F90DF91CF910895089544
:10162000CF93DF93C0EDD4E02DEC3CEC4CEC5DE3CC
:10163000688179818A819B810E94203368837983C4
:101640008A839B832DEC3CEC4CEC5DE36C817D81CB
:101650008E819F810E9420336C837D838E839F8344
:101660002DEC3CEC4CEC5DE3688579858A859B85A7
:101670000E942033688779878A879B872DEC3CEC12
:101680004CEC5DE36C857D858E859F850E942033C3
:101690006C877D878E879F87DF91CF910895CF9349
:1016A000DF934770552766277727FA013197EC01BA
:1016B000A881B981E730F10520F4E35CFF4F0C9479
:1016C000BD341496ED91FC91159761E029C01496F4
:1016D000ED91FC91159765E023C01496ED91FC9176
:1016E000159764E01DC01496ED91FC91159766E086
:1016F00017C01496ED91FC91159762E011C01496F5
:10170000ED91FC9115976AE00BC01496ED91FC9158
:10171000159768E005C01496ED91FC91159769E066
:10172000DF91CF910994CF93DF93EC01CB01BA0104
:1017300026E030E040E050E00E948D3262307105DA
:101740008105910559F18CF46115710581059105AB
:10175000F1F06130710581059105C1F5E881F981EC
:101760000480F581E02D65E02DC0643071058105B0
:10177000910511F1D4F0653071058105910531F5C0
:10178000E881F9810480F581E02D66E01BC0E881E5
:10179000F9810480F581E02D64E014C0E881F981CD
:1017A0000480F581E02D61E00DC0E881F9810480BD
:1017B000F581E02D63E006C0E881F9810480F581C0
:1017C000E02D62E0CE01DF91CF910994DF91CF91BE
:1017D00008954370552766277727DC01ED91FC912A
:1017E0000480F581E02D423051056105710571F0ED
:1017F000433051056105710559F0413051056105CE
:10180000710511F065E005C066E003C06AE001C043
:1018100069E00994CF93DF93EC01CB01BA0123E097
:1018200030E040E050E00E948D326130710581056A
:10183000910581F0623071058105910591F0672B6A
:10184000682B692BC1F4E881F9810480F581E02DD2
:1018500064E00DC0E881F9810480F581E02D61E04C
:1018600006C0E881F9810480F581E02D62E0CE01B7
:10187000DF91CF910994DF91CF910895437055275F
:1018800066277727DC01ED91FC910480F581E02D3E
:10189000423051056105710571F043305105610514
:1018A000710559F0413051056105710511F062E093
:1018B00005C063E003C061E001C060E009940F93DC
:1018C0001F93CF93DF93EC01E881F9810480F581C8
:1018D000E02D8C010D5B1F4FD8018C91811102C04E
:1018E00060E001C062E0CE010995E881F9810480E1
:1018F000F581E02DD8018C91811102C061E001C019
:1019000063E0CE010995EBA5FCA5E230F10538F0C6
:10191000EE0FFF1FEE0FFF1F35973197F1F7E881AC
:10192000F9810480F581E02DD8018C91811102C0EC
:1019300060E001C062E0CE01DF91CF911F910F9175
:101940000994CF93DF93EC0120E030E0A9016B898B
:101950007C898D899E890E94343418161CF4EFA569
:10196000F8A902C0E9A9FAA9DF91CF910994CF9310
:10197000DF93FC012281222359F1EC0161E0838194
:101980000E94151361E08C810E9415138A818430B6
:1019900011F0883039F461E08D810E94151361E007
:1019A0008E8106C0833011F0863021F461E08D8194
:1019B0000E9415138EA58F3F59F061E00E94151308
:1019C0006DA581E068278EA5DF91CF910C946312FD
:1019D000DF91CF910895CF93DF93FC0122812223E1
:1019E000A9F0EC010190F081E02D0480F581E02D5B
:1019F00060E009958EA58F3F49F061E00E941513C4
:101A00006DA58EA5DF91CF910C946312DF91CF91DC
:101A10000895FC0190810180F281E02DF89481818C
:101A2000892B81832281892F809528232283A7E017
:101A3000B0E01197F1F7218182238183A3E2B0E026
:101A40001197F1F780817894EFECF0E03197F1F79E
:101A5000982381E009F480E00895FC0190810180E1
:101A6000F281E02D892F809560FF12C0F8942281C9
:101A7000822382838181892B8183A3E2B0E0119745
:101A8000F1F78281982B9283789487ED90E011C0D2
:101A9000F8942281822382838181892B8183AFEF15
:101AA000B0E01197F1F78281982B928378948FE0C0
:101AB00090E00197F1F70895CF92DF92EF92FF92B5
:101AC0000F931F93CF93DF931F92CDB7DEB76C01B7
:101AD000E62E08E010E0FF24F39461E08F2D8E21C4
:101AE00009F460E0C60149830E942D0DFF0C0150EE
:101AF000110949810115110581F7411115C0F894AB
:101B0000D6011196ED91FC91129791818C9180955F
:101B1000892381831196ED91FC91129792818C918A
:101B200080958923828378940F90DF91CF911F91C4
:101B30000F91FF90EF90DF90CF900895FC0190817E
:101B40000180F281E02DF8948181292F2095822354
:101B5000818378948DE743E050E0815021F1DA01F0
:101B60001197F1F730813923C1F3F89482818223F0
:101B700082838181892B81837894ABE7B7E01197C9
:101B8000F1F7F894818128232183A3E1B1E0119733
:101B9000F1F78081982381E009F080E07894E3E612
:101BA000F6E03197F1F70895EF92FF920F931F93AC
:101BB000CF93DF9300D0CDB7DEB77C018A01FC0163
:101BC0008481958169837A830E949E0D69817A81DF
:101BD000F701848195810E94121540E06EEBF701B8
:101BE000848195810E945C0DF701848195810E941A
:101BF0003F15F8018083F701848195810E943F158C
:101C0000F8018183F701848195810E943F15F801D5
:101C10008283F701848195810E943F15F8018383B7
:101C2000F701848195810E943F15F8018483F701B3
:101C3000848195810E943F15F8018583F701848195
:101C400095810E943F15F8018683F7018481958173
:101C50000E943F15F8018783F701848195810E94D6
:101C60003F15F8018087F701848195810F900F90CF
:101C7000DF91CF911F910F91FF90EF900C949E0DEB
:101C80001F93CF93DF93EC01162F8981882331F0C6
:101C90008E8187FD03C060E00E9415131E83898139
:101CA000882341F061E0812F0E94151360E0812FAD
:101CB0000E946312812F90E0FC01EE5FFD4FE491E2
:101CC000F0E0EE0FFF1FE153FF4F259134913B8B66
:101CD0002A8BFC01EA5EFD4FE491EC8BDF91CF9102
:101CE0001F9108954F925F926F927F928F929F9271
:101CF000AF92BF92EF92FF920F931F93CF93DF9318
:101D00002FB7F8948090650390906603A0906703C6
:101D1000B09068032FBFEC018C01085F1F4F7C015E
:101D20008EEBE80EF11C8881882309F43FC04D85B5
:101D30005E856F85788924013501441A550A660A43
:101D4000770A49815A816B817C8144165506660663
:101D50007706E8F0813019F0823029F00FC0E9856C
:101D6000FA8509950BC061E0F8018081811160E07E
:101D7000F8016083319780810E9463128D869E8670
:101D8000AF86B88A89899A8901969A8B898B8D81C9
:101D90009E8197FD0BC029893A892817390734F0AD
:101DA0001882EB85FC85309709F0099563960D5EE6
:101DB0001F4FCE15DF0509F0B6CFDF91CF911F91F0
:101DC0000F91FF90EF90BF90AF909F908F907F907A
:101DD0006F905F904F9008954F925F926F927F92B5
:101DE0008F929F92AF92BF92CF92DF92EF92FF922B
:101DF000CF93DF93EC016A017B018B8C9C8CAD8CC3
:101E0000BE8C9A01AB01C501B4010E9450318823F8
:101E100009F449C06BA97CA98DA99EA90E945731DC
:101E20002B013C01A7019601C501B4010E948C332E
:101E30009B01AC01C301B2010E94B6310E94FE3386
:101E40006BAB7CAB8DAB9EABA701960160E070E005
:101E500080E090E40E948C330E943F3426E53EE00F
:101E60004DE25FE30E94B63120E034E244E759E4FA
:101E70000E94B6316FAB78AF89AF9AAFCB8EDC8E54
:101E8000ED8EFE8ECE01DF91CF91FF90EF90DF902F
:101E9000CF90BF90AF909F908F907F906F905F900A
:101EA0004F900C94F502DF91CF91FF90EF90DF906F
:101EB000CF90BF90AF909F908F907F906F905F90EA
:101EC0004F900895CF92DF92EF92FF92CF93DF93DE
:101ED000EC010E94C7136B017C018FA198A5A9A5F5
:101EE000BAA5B701A601481B590B6A0B7B0B8BA146
:101EF0009CA1ADA1BEA1481759076A077B0730F125
:101F0000FE01ED5BFF4F20818B859C85AD85BE85F5
:101F1000222321F00196A11DB11D03C00197A10943
:101F2000B1098B879C87AD87BE87E881F9814B8596
:101F30005C856D857E850680F781E02DCE01099553
:101F4000CFA2D8A6E9A6FAA681E001C080E0DF9181
:101F5000CF91FF90EF90DF90CF9008958F929F9256
:101F6000AF92BF92CF92DF92EF92FF92CF93DF9327
:101F7000EC018B889C88AD88BE8820E030E0A90108
:101F8000C501B4010E945031882309F43FC0A50166
:101F90009401C501B4010E94B6316B017C016B8DC7
:101FA0007C8D8D8D9E8D9B01AC010E9420339B0109
:101FB000AC01C701B6010E948C330E94FE336B0155
:101FC0007C012FEFC21AD20AE20AF20A20E030E0C6
:101FD000A901C501B4010E94343418161CF4B701DC
:101FE000A60107C044275527BA014C195D096E099F
:101FF0007F09CE01DF91CF91FF90EF90DF90CF90DE
:10200000BF90AF909F908F900C94CC04DF91CF91B4
:10201000FF90EF90DF90CF90BF90AF909F908F9008
:1020200008950F931F93FC01078510892189328938
:102030004385548565857685041715072607370778
:10204000C1F0ED5BFF4F40175107620773071CF4A7
:1020500021E0208301C01082FC0143A154A165A1AD
:1020600076A1452B462B472B21F01F910F910C9405
:10207000620F80E01F910F910895CF92DF92EF924F
:10208000FF920F931F93CF93DF936C017A018B0123
:10209000C0E0D0E0CE15DF0589F0D8016D918D014B
:1020A000D601ED91FC910190F081E02DC6010995DA
:1020B000892B11F47E0102C02196ECCFC701DF917C
:1020C000CF911F910F91FF90EF90DF90CF900895E7
:1020D000FC01918D828D981761F0828DDF01A80F30
:1020E000B11D5D968C91928D9F5F9F73928F90E052
:1020F00008958FEF9FEF0895FC01918D828D9817C1
:1021000031F0828DE80FF11D858D90E008958FEFFD
:102110009FEF0895FC01918D228D892F90E0805CC6
:102120009F4F821B91098F739927089589E693E049
:102130000E948A1021E0892B09F420E0822F089563
:10214000FC01848DDF01A80FB11DA35ABF4F2C9154
:10215000848D90E001968F739927848FA689B78923
:102160002C93A089B1898C9180648C93938D848DFC
:10217000981306C00288F389E02D80818F7D8083CB
:102180000895EF92FF920F931F93CF93DF93EC018B
:1021900081E0888F9B8D8C8D981305C0E889F98923
:1021A000808185FD24C0F62E0B8D10E00F5F1F4F40
:1021B0000F731127E02E8C8DE8120CC00FB607FCB0
:1021C000FACFE889F989808185FFF5CFCE010E9499
:1021D000A010F1CF8B8DFE01E80FF11DE35AFF4FE8
:1021E000F0820B8FEA89FB898081806207C0EE89CB
:1021F000FF896083E889F98980818064808381E038
:1022000090E0DF91CF911F910F91FF90EF90089593
:10221000CF93DF93EC01888D8823C9F0EA89FB898D
:10222000808185FD05C0A889B9898C9186FD0FC084
:102230000FB607FCF5CF808185FFF2CFA889B98959
:102240008C9185FFEDCFCE010E94A010E7CFDF91EA
:10225000CF91089580E090E0892B29F00E9496109C
:1022600081110C9400000895833081F028F48130AE
:1022700099F08230A1F008958730A9F08830B9F044
:102280008430D1F4809180008F7D03C080918000E4
:102290008F7780938000089584B58F7702C084B5CE
:1022A0008F7D84BD08958091B0008F7703C08091A9
:1022B000B0008F7D8093B00008950E94D5360F93B3
:1022C0001F93CF93DF93EC0188819981009729F0C8
:1022D0002A813B812617370788F48B016F5F7F4F78
:1022E0000E940B36009761F0998388831B830A83D1
:1022F0002C813D81232B11F4FC01108281E001C06F
:1023000080E0DF91CF911F910F910895CF93DF93DC
:10231000EC0188819981009711F00E947335198230
:1023200018821D821C821B821A82DF91CF91089530
:10233000CF92DF92EF92FF920F931F93CF93DF9391
:10234000CDB7DEB762970FB6F894DEBF0FBECDBF34
:102350008C01CB01F8011182108213821282158246
:10236000148250E09E012F5F3F4F6901B9010E9426
:102370008A2FF60101900020E9F731977F01EC18D0
:10238000FD08B701C8010E945F11811104C0C80196
:102390000E94861108C0F801F582E482B6018081AE
:1023A00091810E94E33662960FB6F894DEBF0FBEAD
:1023B000CDBFDF91CF911F910F91FF90EF90DF90F4
:1023C000CF9008951F920F920FB60F9211242F9362
:1023D0003F934F935F936F937F938F939F93AF93AD
:1023E000BF93EF93FF9389E693E00E94A010FF91C3
:1023F000EF91BF91AF919F918F917F916F915F917D
:102400004F913F912F910F900FBE0F901F901895F5
:102410001F920F920FB60F9211242F938F939F93B9
:10242000EF93FF93E0917903F0917A038081E0913B
:102430007F03F091800382FD12C09081809182031E
:102440008F5F8F7320918303821751F0E091820395
:10245000F0E0E759FC4F958F8093820301C08081A3
:10246000FF91EF919F918F912F910F900FBE0F9041
:102470001F901895CF93DF93282F30E0F901EC518E
:10248000FE4F8491F901EA5EFD4FD491F901EE5FB0
:10249000FD4FC491CC2391F081110E943411EC2F97
:1024A000F0E0EE0FFF1FE850FE4FA591B491EC91C4
:1024B000ED2381E090E021F480E002C080E090E034
:1024C000DF91CF9108951F93CF93DF93282F30E0B2
:1024D000F901EC51FE4F8491F901EA5EFD4FD49170
:1024E000F901EE5FFD4FC491CC23C9F0162F811185
:1024F0000E943411EC2FF0E0EE0FFF1FE153FF4F6D
:10250000A591B4918FB7F894111105C09C91ED2F4E
:10251000E095E92302C0EC91ED2BEC938FBFDF91A6
:10252000CF911F9108951F920F920FB60F92112411
:102530002F933F934F935F936F937F938F939F93CB
:10254000AF93BF93EF93FF93809113029091140286
:10255000A0911502B0911602892B8A2B8B2B59F171
:1025600080911002E0911102F0911202908189276E
:1025700080838091130290911402A0911502B09172
:102580001602181619061A061B060CF03DC080919B
:10259000130290911402A0911502B09116020197B6
:1025A000A109B1098093130290931402A09315021C
:1025B000B093160229C080910001E9EDF0E0E491AA
:1025C0009FEF90930001E130B9F098F0E230C9F448
:1025D000909170009D7F9093700091E09093B00077
:1025E0009091B100987F94609093B1001092B300E5
:1025F00008C010926E0005C090916F009D7F90936F
:102600006F0060E00E946312FF91EF91BF91AF9164
:102610009F918F917F916F915F914F913F912F91FA
:102620000F900FBE0F901F901895CF93DF9390E0FF
:10263000FC01EA5EFD4F2491FC01EE5FFD4F8491A9
:10264000882361F190E0880F991FFC01E652FE4F4C
:10265000C591D491FC01E153FF4FA591B491611153
:1026600009C09FB7F8948881209582238883EC91D4
:102670002E230BC0623061F49FB7F8943881822F0B
:10268000809583238883EC912E2B2C939FBF06C0CB
:102690008FB7F894E8812E2B28838FBFDF91CF91DD
:1026A00008951F93CF93DF93182FEB0161E00E94F1
:1026B0001513209711F460E004C0CF3FD10539F421
:1026C00061E0812FDF91CF911F910C946312E12F74
:1026D000F0E0EC51FE4FE491E330F9F048F4E130E2
:1026E000B9F0E230A1F584B5806284BDC8BD34C0C4
:1026F000E730E9F0E83019F1E43049F580918000E5
:10270000806280938000D0938B00C0938A0024C0A5
:1027100084B5806884BDC7BD1FC08091800080687B
:1027200080938000D0938900C093880015C0809169
:10273000B00080688093B000C093B3000DC080915A
:10274000B00080628093B000C093B40005C0C03870
:10275000D1050CF0B5CFAFCFDF91CF911F91089588
:102760008E3008F08E508770806480937C0080915A
:102770007A00806480937A0080917A0086FDFCCF95
:10278000809178002091790090E0922B08953FB7D6
:10279000F8948091610390916203A0916303B091DA
:1027A000640326B5A89B05C02F3F19F00196A11D13
:1027B000B11D3FBFBA2FA92F982F8827820F911DD7
:1027C000A11DB11DBC01CD0142E0660F771F881F1E
:1027D000991F4A95D1F708958F929F92AF92BF9219
:1027E000CF92DF92EF92FF926B017C010E94C713A0
:1027F0004B015C01C114D104E104F104F1F00E9429
:10280000C713DC01CB0188199909AA09BB09883EC5
:102810009340A105B10570F321E0C21AD108E10887
:10282000F10888EE880E83E0981EA11CB11CC1142B
:10283000D104E104F10419F7DDCFFF90EF90DF90B0
:10284000CF90BF90AF909F908F9008951F920F925E
:102850000FB60F9211242F933F938F939F93AF93B3
:10286000BF938091650390916603A0916703B09137
:1028700068033091600323E0230F2D3720F4019685
:10288000A11DB11D05C026E8230F0296A11DB11D93
:10289000209360038093650390936603A09367037E
:1028A000B09368038091610390916203A0916303E8
:1028B000B09164030196A11DB11D809361039093B3
:1028C0006203A0936303B0936403BF91AF919F91A0
:1028D0008F913F912F910F900FBE0F901F901895E1
:1028E000DC01E0E0615038F08D91E827F0E0E6523D
:1028F000FF4FE491F7CF8E2F0895AF92BF92CF9202
:10290000DF92EF92FF920F931F93CF93DF931F926B
:10291000CDB7DEB75C01E62ED72EFC01858581118F
:102920005DC0C5010E949E0D811105C0F501138691
:10293000158614866BC040E060EFC5010E945C0DF7
:1029400001E0F12CC12C11E0C5010E94090D682F96
:10295000C50169830E94090D6981613019F48130D4
:10296000B9F433C04F2D50E068131BC0F5018385C7
:10297000181730F4E40FF51F8381802349F402C057
:10298000181731F060E0193058F4F501148708C0C9
:10299000F501EF0DF11D8381802B838361E009C078
:1029A000C12EF501E40FF51F9381802F80958923B7
:1029B0008383C5010E942D0D1F5F000F11F4F39456
:1029C00001E0F7E0FF1508F0BFCF113438F0F50152
:1029D000C386C11015C081E0858712C0F50113863A
:1029E0001586148680E0D5011396EE2DFD2D9501F8
:1029F000255F3F4F9D919193A217B307D9F706C06A
:102A0000F5018381882351F381E0EDCF0F90DF91B1
:102A1000CF911F910F91FF90EF90DF90CF90BF90DB
:102A2000AF900895CF92DF92EF92FF920F931F9392
:102A3000CF93DF931F92CDB7DEB78C01F62E40E027
:102A400065E579830E945C0DCF2C7981D72E7601C4
:102A500088E0E80EF11CF60161916F0140E0C801C9
:102A60000E945C0DCE14DF04B1F70F90DF91CF917F
:102A70001F910F91FF90EF90DF90CF900895EF920C
:102A8000FF920F931F93CF93DF937C0108E010E038
:102A9000C0E0D1E0C7010E94090D8111CD2BDD0FEF
:102AA00001501109B9F78C2FDF91CF911F910F9130
:102AB000FF90EF900895DC0120E030E04C9141114F
:102AC0002CC0E3E1E29FA001E39F500D1124FC0123
:102AD000E40FF51F81E0808384E690E0A0E0B0E0A1
:102AE00081839283A383B4838FEF9FEF9683858343
:102AF000728761873FB7F894809165039091660370
:102B0000A0916703B09168033FBF85879687A78729
:102B1000B08B128A118A822F08952F5F3F4F5396F0
:102B20002A30310559F68FEF0895009769F0FC01BE
:102B300001900020E9F73197AF01481B590BBC0108
:102B400089E693E00C943D1080E090E008958F9228
:102B50009F92AF92BF920F931F93CF93DF93CDB706
:102B6000DEB7A1970FB6F894DEBF0FBECDBF19A296
:102B7000423008F44AE08E010F5D1F4F842E912CE5
:102B8000A12CB12CA50194010E94EE32E62FB901CF
:102B9000CA0101501109EA3014F4E05D01C0E95C9A
:102BA000D801EC93232B242B252B61F7C8010E941D
:102BB0009515A1960FB6F894DEBF0FBECDBFDF917D
:102BC000CF911F910F91BF90AF909F908F900895DC
:102BD000E0916903F0916A030190F081E02D682F84
:102BE00089E693E009940C9495150F931F93CF9366
:102BF000DF93182FEB0161E00E94151360E0812F35
:102C00000E94631283E090E00197F1F761E0812F69
:102C10000E94631283E290E00197F1F760E0812F58
:102C20000E94631260E08C2F0E941513DD27FE01C5
:102C3000EA5EFD4F6491FE01EE5FFD4FE491F0E02E
:102C4000EE0FFF1FE850FE4F8591949100E412E4CF
:102C50002FE030E0462F0E944B1961157105810568
:102C6000910539F0DC01CB010196A11DB11DBF70AA
:102C700003C080E090E0DC016AE370E00E94A934C8
:102C8000CB01009711F487EE93E0DF91CF911F9174
:102C90000F9108954F925F926F927F928F929F92C1
:102CA000AF92BF92CF92DF92EF92FF926B017C01C5
:102CB0009B01AC010E947F34882319F083E092E0ED
:102CC0001AC046015701E894B7F82FEF3FEF4FE7DE
:102CD0005FE7C501B4010E947F34811110C02FEF5E
:102CE0003FEF4FE75FE7C501B4010E94503118166E
:102CF00034F487E092E00E9495157C017FC02FEFAD
:102D00003FEF4FE75FE4C701B6010E943434181665
:102D10001CF48BE092E0EFCF2FEF3FEF4FE75FEC3B
:102D2000C701B6010E94503187FDF3CF20E030E0AB
:102D3000A901C701B6010E94503187FF09C08DE289
:102D40000E94E8155C01F7FAF094F7F8F09402C0DD
:102D5000A12CB12C2AE037ED43EA5BE3C701B601B1
:102D60000E9420332B013C010E9405346B017C0141
:102D70000E9455319B01AC01C301B2010E941F3377
:102D80002B013C014AE0C701B6010E94A7157C0156
:102D9000EA0CFB1C8EE20E94E815E80EF91E20E00A
:102DA00030E040E251E4C301B2010E94B6312B0190
:102DB0003C010E9405344B01A12CB12C4AE0C50115
:102DC000B4010E94A715E80EF91EC501B4010E94C6
:102DD00055319B01AC01C301B2010E941F3320E0B9
:102DE00030E040E251E40E94B6310E94053480E0B8
:102DF00090E04AE00E94A715E80EF91E81EE91E0EE
:102E00000E9495158E0D9F1DFF90EF90DF90CF9043
:102E1000BF90AF909F908F907F906F905F904F90FA
:102E20000895DC019091E704992361F0699FB00156
:102E30001124672F499FA0011124452F299F90013C
:102E40001124232F3091ED048091EA04E091E804ED
:102E5000F091E904381308C0CD01880F991F8A0F3B
:102E60009B1F8E0F9F1F0BC0CD01880F991F880FCE
:102E7000991F8E0F9F1FFC01E30FF11D10823091EF
:102E8000EA04FC01E30FF11D60833091EB04FC01C7
:102E9000E30FF11D40833091EC04FC01E30FF11DC1
:102EA00020830895CF93DF930E949515EC0181EE66
:102EB00091E00E9495158C0F9D1FDF91CF91089591
:102EC0002F923F924F925F926F927F928F929F923A
:102ED000AF92BF92CF92DF92EF92FF920F931F9328
:102EE000CF93DF9300D000D0CDB7DEB7FB017901DF
:102EF00010926C0610926D0610926E0610926F067C
:102F0000092E000CAA0BBB0B0091760610917706D8
:102F10002091780630917906800F911FA21FB31F70
:102F20008093760690937706A0937806B0937906FF
:102F3000052E000C660B770B80917A0690917B062C
:102F4000A0917C06B0917D06480F591F6A1F7B1F18
:102F500040937A0650937B0660937C0670937D06BF
:102F6000BF01FF0F880B990B0E945731AB01BC01C9
:102F70008EE495E00E946704B701FF0C880B990B63
:102F80000E945731AB01BC018AE095E00E946704C2
:102F90008090090546E7E42E46E0F42E55EF252EF5
:102FA00054E0352E912C10E000E0B12CA12C9814A7
:102FB000B9F1F70181919191A191B1917F01F10155
:102FC000C190D1901F01F6014384548465847684B6
:102FD000BC01CD01641975098609970997FF07C0DF
:102FE00090958095709561957F4F8F4F9F4F0E9470
:102FF0005731F6012789308D418D528D0E948C33D7
:103000003B016C01212F302F4B2D5A2D0E9434345F
:10301000181624F4162D072DBC2CAD2C9394C7CF75
:1030200020E030E0A901612F702F8B2D9A2D0E9496
:10303000343418160CF054C0D12C80910905D816E0
:1030400008F04EC08D2D90E0FC01EE0FFF1FEE0F3B
:10305000FF1FEA58F94F40805180628073804C0115
:10306000880C991CF401EB50FB4FE080F180F701D4
:1030700083859485A585B685A3019201281B390B0C
:103080004A0B5B0BCA01B9010E945731212F302F27
:103090004B2D5A2D0E948C33AB01BC01F701878563
:1030A0009089A189B28984159505A605B70579F09F
:1030B0004786508A618A728AC70149835A836B8323
:1030C0007C830E94F5027C816B815A814981F401E5
:1030D000EB50FB4F808191810E947902D394ADCF58
:1030E00080E0F12C90910905F91620F5EF2DF0E024
:1030F000EE0FFF1FEB50FB4F0190F081E02D078595
:103100001089218932894385548565857685041720
:1031100015072607370761F083A194A1A5A1B6A1E1
:10312000892B8A2B8B2B19F0CF010E94620F81E033
:10313000F394D8CF8111D4CF8EE495E00E94EB0CAC
:103140008AE095E00F900F900F900F90DF91CF9154
:103150001F910F91FF90EF90DF90CF90BF90AF90B5
:103160009F908F907F906F905F904F903F902F90A7
:103170000C94EB0C0F931F93CF93DF9304EA17E0AB
:1031800061E0F80181810E941513C3ECD0E0CE010B
:103190000197F1F760E0F80180810E941513CE01DC
:1031A0000197F1F760E0F80181810E9415132197E2
:1031B000F1F7DF91CF911F910F910895EF92FF9258
:1031C0000F931F93CF93DF93082F18E083ECE82E23
:1031D000F12C61E08091A4070E941513C7010197AB
:1031E000F1F700FF02C060E001C061E08091A50737
:1031F0000E941513C3ECD0E0C7010197F1F760E01E
:103200008091A4070E941513C7010197F1F7069555
:103210001150F9F661E08091A4070E94151360E057
:103220008091A5070E941513CE010197F1F760E088
:103230008091A4070E9415132197F1F78091A507AB
:103240000E943A12182F811105C061E08091A507F4
:103250000E941513C3ECD0E0CE010197F1F761E0B5
:103260008091A4070E9415132197F1F781E01111B5
:1032700001C080E0DF91CF911F910F91FF90EF90FF
:10328000089561E08091A5070E94151383EC90E0FA
:103290000197F1F70895CF92DF92EF92FF920F938B
:1032A0001F93E82FF92F05C0015011092109310999
:1032B00061F1908196239417B9F305C0015011096B
:1032C0002109310911F1908196239413F7CFC12C74
:1032D000D12CE12CF12C0AC08FEFC81AD80AE80AC9
:1032E000F80A0C151D052E053F0579F0808186230F
:1032F000841791F36C2D7D2D8E2D9F2D1F910F9195
:10330000FF90EF90DF90CF90089560E070E080E054
:1033100090E01F910F91FF90EF90DF90CF90089574
:10332000CF93DF93CDB7DEB7C255D1090FB6F8946E
:10333000DEBF0FBECDBF789484B5826084BD84B5F6
:10334000816084BD85B5826085BD85B5816085BDA0
:1033500080916E00816080936E0010928100809158
:1033600081008260809381008091810081608093E0
:103370008100809180008160809380008091B10005
:1033800084608093B1008091B00081608093B00030
:1033900080917A00846080937A0080917A008260C4
:1033A00080937A0080917A00816080937A00809186
:1033B0007A00806880937A001092C100E0917903CE
:1033C000F0917A0382E08083E0917503F0917603B7
:1033D0001082E0917703F091780380E1808310926E
:1033E0008103E0917D03F0917E0386E08083E0918C
:1033F0007B03F0917C03808180618083E0917B037B
:10340000F0917C03808188608083E0917B03F09160
:103410007C03808180688083E0917B03F0917C0352
:1034200080818F7D80838EE1E7E1F2E0DF011D92F4
:103430008A95E9F70E9472098FE08093A607809130
:10344000A2079091A3071816190644F421E04CE056
:1034500060E070E08CE497E00E941C068091A20777
:103460009091A3071816190644F428E04AE060E09A
:1034700070E08CE497E00E941C0660E070E08CE451
:1034800097E00E94A3066CE3E62E62E0F62E00E0D1
:1034900010E0C8010E947732F70181937F010F5F2E
:1034A0001F4F00311105A9F780913C0290913D0218
:1034B000823D9440D9F080E1ECE3F2E0DF011D921F
:1034C0008A95E9F782ED94E090933D0280933C0267
:1034D00080E090E0A0E8BFE380933E0290933F023B
:1034E000A0934002B09341020E945B0961E087E033
:1034F0000E94151360E087E00E94631261E088E09B
:103500000E94151360E088E00E94631261E37AE094
:103510008EE896E00E945B151E01BAE22B0E311C6C
:1035200089E693E00E948A10892B11F40C940329F8
:1035300089E693E00E946810A091CF02E1E0EA0FD3
:10354000E093CF020A2E000CBB0BA157BD4F8C930A
:103550008A3011F00C94F9280E2E000CFF0BE15765
:10356000FD4F108280918F028D3411F00C94EC2865
:1035700080E992E00E94452F8C01AE014A5C5F4FCA
:1035800066EA71E080E992E00E94632F0D36110532
:1035900009F42BC60CF06AC00830110509F4CDC33C
:1035A000C4F50330110509F462C174F4013011054A
:1035B00009F440C10CF04BC1012B11F00C94EC2824
:1035C0000E9472090C94EC280530110509F485C19C
:1035D0000CF461C10630110509F497C107301105DB
:1035E00011F00C94EC28AE014F5F5F4FBE016D5E91
:1035F0007F4F8EA99FA90E94AD0A6B897C898EEBB3
:1036000097E00E94270569817A818EEB97E00C9400
:1036100062260436110509F42BC5C4F40A301105DD
:1036200009F4CBC40CF4ADC30D30110509F4DEC4AC
:103630000E30110511F00C94EC288EE1E7E1F2E078
:10364000DF011D928A95E9F70C94EC2806361105E6
:1036500009F4D5C00CF44EC50A36110509F47EC52F
:103660000C36110509F484C50C94EC280F3C1105A7
:1036700011F40C9482230CF092C00A3C110509F459
:10368000C7C60CF050C00037110509F489C634F4E0
:103690000F36110509F44FC60C94EC28083C1105AF
:1036A00009F494C6093C110511F00C94EC288EA97C
:1036B0009FA91C8A1B8A1A821982AE014F5F5F4F35
:1036C000BE016D5E7F4F0E94AD0AEB88FC880981C8
:1036D0001A81B701601B710B072E000C880B990B28
:1036E0000E94573120913E0230913F0240914002AA
:1036F000509141020E94B6310E94FE3321E0209396
:103700006C0620936D0610926E0610926F060E0DD9
:103710001F1D1093650600936406709367066093FF
:1037200066060C94EC280C3C110509F4B1C60CF4A7
:1037300096C60D3C110509F4D8C60E3C110511F0D2
:103740000C94EC289E012D5E3F4FA101BE016F5DE0
:103750007F4F8EA99FA90E94710A9AA589A1809383
:10376000A4079093A50760E00E94151360E0809184
:10377000A5070E94151360E08091A4070E946312C0
:1037800060E08091A5070E9463122B893C890FE1BC
:1037900011E0FE013196DD24D39440E066C7043D7C
:1037A000110511F40C943826A4F4013D110511F40F
:1037B0000C94642414F40C94C123023D110511F4FB
:1037C0000C947324033D110511F40C9480240C9483
:1037D000EC28063D110511F40C946C2614F40C949D
:1037E0006526073D110511F40C94F827073E134098
:1037F00011F00C94EC280C9400000C94EC2810921E
:103800006506109264061092670610926606109282
:1038100069061092680610926B0610926A0660E0C4
:1038200070E085E00E94511360E070E086E00E9445
:10383000511325C6AE014F5F5F4FBE016D5E7F4FD6
:103840008EA99FA90E94AD0A69818B8906C4AE0129
:103850004F5F5F4FBE016D5E7F4F8EA99FA90E9493
:10386000AD0A69818B890E9463120C94EC28BE0119
:103870006F5F7F4F8EA99FA90E94E50A60E0898152
:103880000E94151389810E943A1269817A81AC01E4
:1038900083E791E036C0AE014F5F5F4FBE016D5EC2
:1038A0007F4F8EA99FA90E94AD0A8B899C89833086
:1038B000910569F09C01255031092230310538F01D
:1038C000245031092330310510F00C94EC28698123
:1038D0007A810E9451130C94EC28BE016F5F7F4FD8
:1038E0008EA99FA90E94E50A89810E94B01369816F
:1038F0007A816E30710514F40C94EC28AC0186E7E3
:1039000091E00E947A090C94EC289E012F5F3F4FB2
:10391000AE014D5E5F4FBE016F5D7F4F8EA99FA9C7
:103920000E94710A29813A8121963FAF2EAF2197DB
:103930004B895C892D965FAF4EAF2D9789A19AA1D7
:1039400020910001281304C0E9EDF0E0149182C039
:103950002F3F11F00C94EC2880930001E9EDF0E08A
:1039600014911F3F11F40C94EC28113029F11230FE
:1039700009F449C011116EC014BC15BC24B52260F5
:1039800024BD25B5216025BD9C013327F901EE5FDB
:10399000FD4FE491F0E0EE0FFF1FE153FF4F459123
:1039A00054915093750240937402F901EA5EFD4F01
:1039B000E491E093730252C0109280001092810053
:1039C0002091810028602093810020918100216056
:1039D000209381009C013327F901EE5FFD4FE491B4
:1039E000F0E0EE0FFF1FE153FF4F459154915093CC
:1039F000720240937102F901EA5EFD4FE491E09397
:103A0000700211E02BC01092B0001092B100209112
:103A1000B00022602093B0002091B100216020937B
:103A2000B1009C013327F901EE5FFD4FE491F0E016
:103A3000EE0FFF1FE153FF4F459154915093120237
:103A400040931102F901EA5EFD4FE491E093100208
:103A500012E004C017FF02C00C94EC2821962EAD92
:103A60003FAD2197032E000C440B550B2B962CAF2A
:103A70003DAF4EAF5FAF2B9761E00E9415132D96BF
:103A80004EAD5FAD2D974A01A12CB12C812F8D7FBA
:103A900009F0BBC060E072E18AE790E0A501940103
:103AA0000E948D3229013A0169017A0151E0C51A5B
:103AB000D108E108F1088FEFC816D104E104F10440
:103AC00009F008F44EC060E472E48FE090E0A501D4
:103AD00094010E948D3269017A0191E0C91AD108DE
:103AE000E108F108123009F5AFEFCA16D104E1047C
:103AF000F10409F010F40C94E72B60E970ED83E019
:103B000090E0A50194010E948D3269017A01B1E033
:103B1000CB1AD108E108F108EFEFCE16D104E10489
:103B2000F10409F0D0F583E069C0FFEFCF16D104AE
:103B3000E104F104C1F0B8F068E478EE81E090E0CF
:103B4000A50194010E948D3269017A0181E0C81AB1
:103B5000D108E108F108112311F40C94C22B0C9444
:103B6000B82B81E001C082E0111148C011C0D3011F
:103B7000C2012AE0B595A795979587952A95D1F723
:103B80006C017D0151E0C51AD108E108F10885E01A
:103B900095B5987F892B85BD75C068E478EE81E086
:103BA00090E0A50194010E948D3269017A0181E0C3
:103BB000C81AD108E108F1089FEFC916D104E10441
:103BC000F10409F010F40C94852B64E274EF80E0AA
:103BD00090E0A50194010E948D3269017A0191E083
:103BE000C91AD108E108F108AFEFCA16D104E104FF
:103BF000F10419F010F00C94882B85E09091B1003D
:103C0000987F892B8093B1003DC060E072E18AE724
:103C100090E0A50194010E948D3269017A01F1E0E2
:103C2000CF1AD108E108F108C114D10421E0E2065D
:103C3000F10488F068E478EE81E090E0A501940159
:103C40000E948D3269017A0181E0C81AD108E10829
:103C5000F10893E001C091E01130A1F4809181005E
:103C6000887F892B809381002B962CAD3DAD4EAD86
:103C70005FAD2B97232B242B252B71F42FEF3FEFD8
:103C8000A90137C02B968CAD9DADAEADBFAD2B97C6
:103C9000892B8A2B8B2B99F02D962EAD3FAD2D972E
:103CA000220F331F2196AEADBFAD21970E94C334C2
:103CB00028EE33E040E050E00E94EE3203C02FEFE8
:103CC0003FEFA9011130A9F0123031F111110C941C
:103CD000EC28C7BC20937A0230937B0240937C028D
:103CE00050937D0280916E00826080936E000C94F0
:103CF000EC28D0928900C0928800209376023093FD
:103D00007702409378025093790280916F0082602D
:103D100080936F000C94EC28C092B30020931302A0
:103D20003093140240931502509316028091700054
:103D30008260809370000C94EC2885E10E94B0139F
:103D40008C0189E791E00E94F31586EA91E00E94D8
:103D5000F315B801110F880B990B0E94573120E021
:103D600030E040E85AE30E94B63126E636E646EAFD
:103D700050E40E94B6319B01AC010E9420330C94A8
:103D8000F527EEA9FFA9A081AE014D5E5F4FBE01F0
:103D90006F5F7F4F9E012F5D3F4FCE01C296A134D2
:103DA000C1F47F936F935F934F933F932F933F9211
:103DB0002F929F938F938CE791E09F938F93FF9324
:103DC000EF930E94EA368AA99BA90E969BAB8AAB19
:103DD00012C07F936F935F934F933F932F933F92C4
:103DE0002F929F938F938DE791E09F938F93FF93F3
:103DF000EF930E94EA360FB6F894DEBF0FBECDBF38
:103E0000F9800B8919A1CAA4DBA46AA980EE94E009
:103E10000E94400EC114D104B9F4C12CD12C809160
:103E2000E2049091E304C816D90630F42F2D402FF8
:103E3000612FC6010E941117FFEFCF1ADF0A20E1A0
:103E4000C216D10461F70EC0C60101972091E204A9
:103E50003091E3048217930728F42F2D402F612F10
:103E60000E9411178091E8049091E904892B11F4C4
:103E70000C94EC280E94C7130091EE041091EF04FB
:103E80002091F0043091F104DC01CB01801B910BF7
:103E9000A20BB30BC297A105B10560F3F894809112
:103EA000E4049091E5049DAB8CABE091E804F091C3
:103EB000E904DF01119680818EAF9091E004E091DA
:103EC000F204F091F3048091F404992309F42EC0D4
:103ED0009081982B9DAF9081809589238CAF8CAD7C
:103EE00089AF88E088AF3DAD4CAD6EAD58AD29AD22
:103EF0008CA99DA9308367FD232F5A952083242FF9
:103F000039F0661F00C000004083000000C0F2CFFF
:103F100058E06D9140830000019761F7F093F3043E
:103F2000E093F2046EAF58AF29AF38C09081982B60
:103F30009DAF9081809589238CAF8CAD8BAF88E04D
:103F40008AAF3DAD4CAD6EAD5AAD2BAD8CA99DA9E0
:103F5000308367FD232F00C000C0208300C000C055
:103F600000C000C000C040830000242F5A9541F0DB
:103F7000661F000000C000C000C000C000C0E8CF45
:103F800058E06D9100C0408300C0019709F7F0939D
:103F9000F304E093F2046EAF5AAF2BAF9DAB8CAB42
:103FA00078940E94C7136093EE047093EF0480939B
:103FB000F0049093F1040C94EC28BE016F5F7F4FE6
:103FC0008EA99FA90E94E50A60E089810E941513CD
:103FD00089810E943A1241E050E0892B11F040E0C3
:103FE00050E069817A818DE891E08BCC9E012F5F52
:103FF0003F4FAE014F5D5F4FBE016D5E7F4F8EA99B
:104000009FA90E94710A2B893C89A7E1B2E0E0E0F8
:10401000F0E08C91811113C029A13AA1CF01880F42
:10402000991FE80FF91FE95EFD4F20838B8981837B
:104030002430310561F4898182830C94EC28119637
:104040008C91119790E08217930759F4E5CF2130B6
:10405000310511F00C94EC2860E00E9415130C94CB
:10406000EC2831961396EA30F10599F60C94EC2879
:104070008EA89FA89A82898270E9A72EBB24B39448
:10408000E0E9EE2EFF24F394C12CD12C00E010E0E7
:10409000892861F1AE014F5F5F4F66EA71E080E011
:1040A00090E00E94632F4C01FC0180818C3431F43C
:1040B000C40101960E94452F8C01EACF823531F46C
:1040C000C40101960E94452F6C01E2CF813431F486
:1040D000C40101960E94452F7C01DACF8234C1F6DB
:1040E000C40101960E94452F5C01D2CF9501A60123
:1040F000B7012BC0CEA8DFA8DA82C982E12CF12C4F
:1041000000E010E0CD28E1F0AE014F5F5F4F66EABE
:1041100071E080E090E00E94632F6C01DC018C91E3
:104120008C3431F4C60101960E94452F8C01EACFF0
:10413000823541F7C60101960E94452F7C01E2CFEE
:1041400024EF31E0A70164EF71E0C8010E9460171D
:1041500081E991E00E9452170C94EC288EE495E0DE
:104160000E94AE0F8AE095E00E94AE0F0C94EC28FE
:10417000CE0101969F938F9342969F938F930E96B5
:104180009F938F933F922F9280E891E09F938F931C
:104190008FA98F938EA98F930E94EA3629813A8145
:1041A0004B895C8969A17AA1E1E00FB6F894DEBF82
:1041B0000FBECDBF8AA59BA5892B09F4E0E0E09353
:1041C0006C0681E0672B09F480E080936D0681E046
:1041D000452B09F480E080936E0681E0232B09F4DF
:1041E00080E080936F060C94EC282EA93FA91AA2B8
:1041F00019A21C8A1B8A1A821982CE0101969F93EA
:104200008F9342969F938F930E969F938F9383E8FD
:1042100091E09F938F933F932F930E94EA3669A179
:104220007AA1072E000C880B990B0E94573123EFBF
:1042300034E045E35FE30E948C330E94FE336B0160
:104240007C016B897C89072E000C880B990B0E94DE
:10425000573123EF34E045E35FE30E948C330E9443
:10426000FE33AB014C0D5D1DFB01EC19FD0922274E
:1042700033272C193D09D901A61BB70BC61AD70A3B
:1042800029813A81E20FF31FCD01820F931FC20EE5
:10429000D31E240F351F0FB6F894DEBF0FBECDBF5F
:1042A0002F3F310519F014F02FEF30E0EF3FF1050B
:1042B00019F014F0EFEFF0E08F3F910519F014F0D2
:1042C0008FEF90E0B6016F3F710519F014F06FEFBA
:1042D00070E041E040936C0640936D0640936E069B
:1042E00040936F062130BFEF3B0714F421E03FEF0E
:1042F0003093650620936406E1302FEFF20714F443
:10430000E1E0FFEFF0936706E093660681303FEF50
:10431000930714F481E09FEF9093690680936806F9
:10432000CB0161307F4F14F481E09FEF90936B06D7
:1043300080936A0651C78EA99FA91A821982BE016D
:104340006F5F7F4F0E94E50AE981FA81EE0FFF1F40
:10435000EE0FFF1FE053FB4FC080D180E280F3805F
:1043600086E991E00E94F31589809A80092C000C5F
:10437000AA08BB08B7FE0CC08DE20E94E8156627AC
:104380007727CB01681979098A099B094AE003C09C
:104390004AE0C501B4010E94A71586EA91E05AC01F
:1043A0008EA99FA91A821982BE016F5F7F4F0E945A
:1043B000E50AE981FA81EE0FFF1FEE0FFF1FE053C0
:1043C000FB4F108211821282138206C78EA99FA909
:1043D0001C8A1B8A1A821982AE014F5F5F4FBE0191
:1043E0006D5E7F4F0E94AD0A29813A818B899C893D
:1043F000FC01EC59F94F4085411102C041E0408772
:10440000880F991FFC01EC59F94F31832083E4C6D2
:104410008EA99FA92FEF3FEF3A832983AE014F5F0B
:104420005F4FBE016D5E7F4F0E94AD0A69817A8148
:104430008B899C896331710508F0BC010E94F515D8
:10444000BC01990F880B990B0E9457316B017C01BD
:104450008CE991E00E94F315C701B601C6C560E082
:1044600070E089E00E94511368EC70E08AE00E94DD
:1044700051136CE271E080E090E00E94EC1360E088
:1044800070E089E00E94511360E070E08AE021CA88
:10449000BE016F5F7F4F8EA99FA90E94E50A8981A7
:1044A0008093930580919305F8941092800089E0A1
:1044B0008093810080E293E090938900809388004C
:1044C000109285001092840082E080936F007894AF
:1044D00080939205109296058091930560E00E946A
:1044E000151381E08093B30777C60EA91FA98091A9
:1044F0007E0281119EC010923B0210923A021092ED
:104500003902109238021092370281E0809336020D
:104510001092350261E082E10E94631261E083E162
:104520000E9463128091B9008E7F8093B9008091C0
:10453000B9008D7F8093B90088E48093B80085E44A
:104540008093BC001092AC078091B107823018F0C4
:1045500098E09093AC078093AF078BE39DE00197C1
:10456000F1F76091B20787EA97E00E94D90668EEFA
:1045700073E080E090E00E94EC1363E087EA97E04C
:104580000E943E078BE4E82E86E4F82EC7010197CF
:10459000F1F763E087EA97E00E943E07C7010197C1
:1045A000F1F763E087EA97E00E943E0783E592E037
:1045B0000197F1F762E087EA97E00E943E07609179
:1045C000AC07606240E087EA97E00E94570784E00A
:1045D0008093AD0740E06CE087EA97E00E945707C0
:1045E00040E061E087EA97E00E9457079BE3E92EED
:1045F0009FE1F92EC7010197F1F782E08093AE07A2
:1046000040E066E087EA97E00E94570740E062E0FA
:1046100087EA97E00E945707C7010197F1F71092C8
:10462000B20760E087EA97E00E94D90681E08093B4
:104630007E0240E061E087EA97E00E9457078BE343
:104640009FE10197F1F77801D7016D917D01662314
:1046500009F4C2C56D3009F4BFC56A3009F4BCC5A0
:1046600087EA97E00E946D07EFCFD801FE90EE90A9
:104670008D01C901B7010E94A9346115710529F4A2
:10468000DD20A1F04330A1F411C0A62FAF70B0E03F
:10469000A95FBE4F5C916E9DC0016F9D900D7E9D88
:1046A000900D1124281B390BD12C03C05FE301C0EE
:1046B00050E051934F5F4430C1F60E94411980E4AD
:1046C0000E94DE180E94BA180E94411980EC0E94D4
:1046D000DE1889810E94DE188A810E94DE188B8193
:1046E0000E94DE188C810E94DE180E94BA180E9477
:1046F00041198091A6078F7080580E94DE180E9491
:10470000BA186AC59E012F5F3F4FAE014D5E5F4FE5
:10471000BE016F5D7F4F8EA99FA90E94710A2981FA
:104720003A8169A17AA14B895C898091A207909115
:10473000A307181619060CF04FC54830510508F0AC
:104740004BC56830710508F047C580E890E002C0AD
:10475000959587956A95E2F7FA01E45BF84F232B6C
:1047600019F09089892B03C0809590898923808BCB
:104770004F5F208960E070E08CE497E00E941C06A7
:104780002BC59E012F5F3F4FAE014D5E5F4FBE01B7
:104790006F5D7F4F8EA99FA90E94710A89819A81BE
:1047A0002B893C8919A10AA110939C0700939D07AE
:1047B00030939F0720939E079093A1078093A007B3
:1047C000E1E0F0E0F093A307E093A20761E0812F1E
:1047D0000E94151361E080919E070E94151361E00D
:1047E0008091A0070E94151361E08091A0070E94AC
:1047F000631210939C0700939D07ECE5F7E011927C
:1048000027E0EC39F207D9F700E010E08091A20729
:104810009091A30708171907B4F520E04FE0B801FD
:104820008CE497E00E941C0617FD0EC08091A20741
:104830009091A307081719073CF427E04BE0B80153
:104840008CE497E00E941C0620E049E0B8018CE46B
:1048500097E00E941C06B8018CE497E00E94A30632
:1048600017FD0EC08091A2079091A30708171907A2
:104870003CF420E04CE0B8018CE497E00E941C0678
:104880000F5F1F4FC3CF1816190644F421E04CE008
:1048900060E070E08CE497E00E941C068091A20723
:1048A0009091A3071816190644F428E04AE060E046
:1048B00070E08CE497E00E941C0660E070E08CE4FD
:1048C00097E00E94A30688C48EA99FA90E94412F49
:1048D00060933E0270933F028093400290934102A6
:1048E0000E945B0979C482EA91E00E94F31560910D
:1048F0003E0270913F02809140029091410275C347
:10490000CE0101969F938F9342969F938F9386E853
:1049100091E09F938F938FA98F938EA98F930E947D
:10492000EA366B897C89072E000C880B990B0E9454
:10493000573120E030E048EC52E40E948C3323965B
:104940006CAF7DAF8EAF9FAF23979B01AC016AE048
:1049500077ED83EA9CE30E948C336B017C016981D3
:104960007A81072E000C880B990B0E94573120E0AA
:1049700030E044E353E40E948C332BED3FE049E404
:1049800050E40E94B6312B966CAF7DAF8EAF9FAFD7
:104990002B9723962CAD3DAD4EAD5FAD23976FE8C1
:1049A00072EC85E79DE30E948C332F966CAF7DAF50
:1049B0008EAF9FAF2F9780907E0690907F06A0903D
:1049C0008006B09081069B01AC0160E070E080E859
:1049D0009FE30E941F339B01AC01C701B6010E94F7
:1049E000B631A50194010E94B6312B013C0120E0B3
:1049F00030E040E85FE32F966CAD7DAD8EAD9FADAE
:104A00002F970E9420339B01AC01C701B6010E9481
:104A1000B631A50194010E94B6316B017C012FE8EB
:104A200032EC45E75DE323966CAD7DAD8EAD9FAD79
:104A300023970E941F339B01AC012B966CAD7DAD7B
:104A40008EAD9FAD2B970E94B631A50194010E94B7
:104A5000B6312F966CAF7DAF8EAF9FAF2F972B9651
:104A60008CAD9DADAEADBFAD2B97B0582B968CAF36
:104A70009DAFAEAFBFAF2B972FE832EC45E75DE3BC
:104A800023966CAD7DAD8EAD9FAD23970E942033F4
:104A90009B01AC012B966CAD7DAD8EAD9FAD2B9780
:104AA0000E94B631A50194010E94B63123966CAFE5
:104AB0007DAF8EAF9FAF23970FB6F894DEBF0FBECA
:104AC000CDBF20E030E0A901C301B2010E9434341F
:104AD00053014201181624F0B7FAB094B7F8B09415
:104AE00020E030E0A901C701B6010E943434A701DB
:104AF000960118160CF46EC65058C501B4010E94F8
:104B0000343418160CF520E030E0A901C301B201DD
:104B10000E94343418165CF420E030E04AEF53E48D
:104B2000C301B2010E94343418165CF00DC020E0BD
:104B300030E04AEF53ECC301B2010E94503187FFCD
:104B400003C0A301920120C020E030E0A901C70109
:104B5000B6010E94343418165CF420E030E04AEFCD
:104B600053E4C701B6010E94343418165CF024C027
:104B700020E030E04AEF53ECC701B6010E9450310B
:104B800087FF1AC0A701960160E070E08AEF93E406
:104B90000E948C334B015C019B01AC01C301B2014B
:104BA0000E94B6312B013C01A5019401C701B60159
:104BB0000E94B6316B017C012F966CAD7DAD8EAD40
:104BC0009FAD2F970E94FE33AB01BC018EE495E0B0
:104BD0000E94CC04B301A2018EE495E00E94790208
:104BE00023966CAD7DAD8EAD9FAD23970E94FE33B5
:104BF000AB01BC018AE095E00E94CC04B701A6019C
:104C00008AE095E00E94790240915D0550915E0531
:104C100060915F05709160058091590590915A05EA
:104C2000A0915B05B0915C05481759076A077B079F
:104C300049F08EE495E00E9411108AE095E00E9410
:104C40001110E2CF4091190550911A0560911B0592
:104C500070911C058091150590911605A09117057E
:104C6000B0911805481759076A077B0711F7B4C2B6
:104C7000AE014F5F5F4FBE016D5E7F4F8EA99FA952
:104C80000E94AD0A4B895C89CA018C54984FFC0183
:104C9000208130E0F901EE0FFF1F2E0F3F1FF901B9
:104CA000E45BFD4F208125FD07C0FA01E15EFE4F68
:104CB000608170E00E94270569817A818B899C89D7
:104CC0008C54984F0E94EB0487C2BE016F5F7F4FE8
:104CD0008EA99FA90E94E50ABE016E5C7F4F8EA936
:104CE0009FA90E94E50A0AA91BA960E0802F0E94E3
:104CF00015131127F801EA5EFD4FE491EB8BF801E3
:104D0000EE5FFD4FE491F0E0EE0FFF1FE850FE4F25
:104D1000859194919D8B8C8B1E8E18A21F8EFE0107
:104D20007E96CE014696DF011E92A817B907E1F7DD
:104D30002FE03BE03A8B298B9E012D5E3F4F3E8357
:104D40002D831C8219822FE130E03B832A8312924B
:104D5000E817F907E1F711E0B1018D819E810E940A
:104D60007D14882309F442C067E0C1010E947014D9
:104D700099A98913F1CF898181111BC08D819E81F1
:104D80000E949E0DB1018D819E810E94121540E00E
:104D900064EB8D819E810E945C0D8D819E810E94BD
:104DA000090D082F8D819E810E949E0D002309F41C
:104DB00048C4AE014F5D5F4FB101CE0101960E9424
:104DC000D40D8AA5803129F42FE730E03B832A8374
:104DD00009C08DA190E02A813B812817390714F47E
:104DE0009B838A838C818F5F8C83B6CF8D819E81DC
:104DF0000E949E0D40E06CEC8D819E810E945C0DB6
:104E0000498164E48D819E810E945C0D8A819B8131
:104E10008F33910551F08F35910561F04F9779F4FB
:104E20006EE570E080E090E00EC06CEB70E080E03A
:104E300090E009C067E771E080E090E004C06EEEAA
:104E400072E080E090E00E94EC13ED81FE81138619
:104E500015861486DF011B96CF0103961E92A817B4
:104E6000B907E1F7B101CF010E947D14882321F039
:104E700067E0C1010E947014AE014F5D5F4FB10148
:104E8000CE0101960E94D40D68E0CE0181960E9469
:104E9000701499A5891392C06AA170E0762F6627D5
:104EA00089A1682B8AA58232B1F18832A1F18031C3
:104EB00009F089C018A575956795072E000C880B19
:104EC000990B0E94573120E030E040E85EE30E94F9
:104ED0001F336B017C01612F70E08FA1681B71098A
:104EE000072E000C880B990B0E9457314B015C0177
:104EF000612F70E080E090E00E9455319B01AC0191
:104F0000C501B4010E948C339B01AC01C701B601FD
:104F10000E94203343C08DA18F3381F198F48F31EB
:104F200009F051C0E3E075956795EA95E1F7072E22
:104F3000000C880B990B0E94573120E030E040E0D4
:104F40005FE32AC08F3569F08F37E9F5072E000C33
:104F5000880B990B0E94573120E030E040E85DE378
:104F60001BC075956795072E000C880B990B0E9446
:104F7000573120E030E040E05EE30EC07595679564
:104F800075956795072E000C880B990B0E94573179
:104F900020E030E040E85EE30E94B63124966FAF37
:104FA000249725967FAF259726968FAF269727962D
:104FB0009FAF2797362F272F982F0EC030E020E085
:104FC0009EEF82EC0CC024963FAD249725962FAD22
:104FD000259726969FAD269727968FAD2797432F27
:104FE000522F692F782FCB01BA010E944A16F4C0C4
:104FF000BE016D5E7F4F8EA99FA90E94E50A88E0E1
:1050000090E00E94DE347C011B8919821A821B8287
:105010001C821D8261E0812F0E94151360E0812FA8
:105020000E94631262E170E080E090E00E94EC1365
:1050300061E0812F0E9463128BE990E00197F1F704
:1050400060E0812F0E94151341E1C42E47E2D42E67
:10505000812F0E943A12892B29F431E0C31AD1081A
:10506000B9F774C031E1C32E37E2D32E812F0E94ED
:105070003A12019729F441E0C41AD108B9F766C081
:1050800028E2C22ED12C07E0B12C91E1892E97E2C3
:10509000992E812F0E943A12892B29F451E0851A0A
:1050A0009108B9F753C00E94C7132B013C0181E15D
:1050B000882E87E2982E812F0E943A12019729F4B8
:1050C00081E0881A9108B9F741C00E94C713DC013A
:1050D000CB0184199509A609B7098997A105B105DE
:1050E00080F0E1E0F0E0EC0FFD1FEB0DF11D208101
:1050F00081E090E0002E01C0880F0A94EAF7822B2D
:105100008083011103C0B39407E001C0015091E016
:10511000C91AD10809F0B9CF8981A82FB0E06396E8
:10512000BFAFAEAF63972B81E22FF0E06196FFAF88
:10513000EEAF6197280F81E090E03D81321302C00D
:1051400080E090E091958195910902C08EEF9FEFEC
:105150008F3FFFEF9F0729F0892B31F488EA91E018
:1051600005C08BEA91E002C08AEB91E00E945217E1
:1051700063962EAD3FAD6397B901330F880B990B42
:105180000E9457314B015C01D7016D937D938D9344
:105190009C9313976196EEADFFAD6197BF01FF0F32
:1051A000880B990B0E945731D70114966D937D930C
:1051B0008D939C931797C501B4010E944A16F7017D
:1051C00064817581868197810E944A16E114F104F9
:1051D00019F0C7010E94733588EA91E00E945217C6
:1051E00080E4EFE8F2E0DF011D928A95E9F7109282
:1051F000CF028091CF02803414F40C94901A109254
:10520000CF020C94901A8091B307882309F4ECC064
:1052100089E995E090938A028093890280919605AE
:10522000E82FF0E02196FFAFEEAF2197F0938C02CC
:10523000E0938B028091630690E090938E028093BE
:105240008D0280919205853009F0CEC080919B053A
:1052500090919C05885891098D35910588F480912D
:105260009605843041F480919D0590919E0580972C
:10527000479708F401C280919605843408F0E3C191
:1052800021964EAD5FAD2197463051050CF4A7C075
:105290000FE915E083E090E029969FAF8EAF299744
:1052A000B5ECCB2EBDE9DB2EBCE1EB2EB1E8FB2E3D
:1052B00029962EAD3FAD299721964EAD5FAD219732
:1052C000241735070CF057C0D8016D917C91F80177
:1052D0003497A080B18080E090E00E9455312B018E
:1052E0003C01B50180E090E00E9455314B015C012A
:1052F0002DEC3CEC4CE45FE30E94B6319B01AC0129
:10530000C301B2010E94503187FD17C02DEC3CEC67
:105310004CE45FE3C301B2010E94B6319B01AC01D2
:10532000C501B4010E945031E82F880FFF0BEE2712
:10533000FF0FEE1FFF27319602C0E0E0F0E0A7016B
:10534000960163E971E080E091E00E9499346F0179
:10535000FF0FEE08FF08C626D726E826F92629966D
:10536000EEADFFAD299731962996FFAFEEAF2997A5
:105370000E5F1F4F9DCFC0928302D0928402E092B5
:105380008502F092860280E290E0909388028093FA
:1053900087028FEF9FEF9093800280937F0280912E
:1053A000830290918402A0918502B09186028F3F82
:1053B0009F4FAF4FBF4F99F089EC91E00E94F315DA
:1053C000609183027091840280918502909186029F
:1053D00040E10E94A71581EE91E00E94951582E0C0
:1053E00080939205109296050E94C7130091700653
:1053F000109171062091720630917306DC01CB0189
:10540000801B910BA20BB30B85369105A105B1054D
:1054100008F40BC10E94C713609370067093710665
:10542000809372069093730680916C068823C1F076
:10543000809164069091650697FF03C091958195D0
:10544000910920917406309175062817390741F4A7
:1054500060E085E00E94631260E086E00E946312D3
:1054600080916D068823C1F0809166069091670651
:1054700097FF03C091958195910920917406309111
:1054800075062817390741F460E089E00E9463122D
:1054900060E08AE00E94631280916E068823C1F06A
:1054A000809168069091690697FF03C09195819558
:1054B000910920917406309175062817390741F437
:1054C00060E087E00E94631260E088E00E9463125F
:1054D00080916F068823C1F080916A0690916B06D7
:1054E00097FF03C0919581959109209174063091A1
:1054F00075062817390741F460E08CE00E946312BA
:1055000060E08DE00E9463128091740690917506B0
:10551000019690937506809374068F3F91050CF465
:1055200084C080916C06882341F060E085E00E9491
:10553000631260E086E00E94631280916D0688230A
:1055400041F060E089E00E94631260E08AE00E941E
:10555000631280916E06882341F060E087E00E942C
:10556000631260E088E00E94631280916F068823D6
:1055700041F060E08CE00E94631260E08DE00E94E8
:105580006312109275061092740680916C0688233F
:1055900081F08091640690916506181619061CF436
:1055A00061E085E004C0892B21F061E086E00E9483
:1055B000631280916D06882381F080916606909138
:1055C0006706181619061CF461E089E004C0892BEF
:1055D00021F061E08AE00E94631280916E068823C8
:1055E00081F08091680690916906181619061CF4DE
:1055F00061E087E004C0892B21F061E088E00E942F
:10560000631280916F06882381F080916A069091E1
:105610006B06181619061CF461E08CE004C0892B97
:1056200021F061E08DE00E94631282E194E00E942B
:10563000720E8EE896E00E94720E0E942A110C945F
:10564000901A1983B6CB80919D0590919E05825446
:1056500091098E9708F014CE80E090E040E050E091
:10566000BA01FC01E156FA4F2081318129503109FC
:1056700029303105C8F004CE80919F059091A00596
:105680000997099708F0F7CD1092880210928702C7
:105690002FEF3FEFA90120938302309384024093C0
:1056A00085025093860221C0FC01EF55FA4F2081FC
:1056B00031812751310922313105D0F4440F551F72
:1056C000661F771F416004968038910551F680E28D
:1056D00090E09093880280938702409383025093D6
:1056E0008402609385027093860283E090E053CE3B
:1056F00020813181265031092730310508F0C0CD95
:10570000440F551F661F771FDECF84E00C94FE1DEB
:1057100062E17AE780E090E0A50194010E948D3279
:1057200069017A01A1E0CA1AD108E108F108BFEFC6
:10573000CB16D104E104F104C1F0B8F0D301C201E9
:105740000AE0B595A795979587950A95D1F76C01CD
:105750007D01E1E0CE1AD108E108F108112311F42E
:105760000C94C71D87E00C94FE1D86E00C94B41DBC
:10577000EFEFCE16D104E104F10409F048F684E01D
:105780000C94B41D3FEFC316D104E104F104E1F021
:10579000D8F062E17AE780E090E0A50194010E94F0
:1057A0008D3269017A01F1E0CF1AD108E108F108E0
:1057B0002FEFC216D104E104F10419F010F00C949B
:1057C000B71D84E00C94C81D83E00C94C81D82E0D2
:1057D0000C94FE1DC501B4010E94343418160CF45B
:1057E00092C9BBC98091E8049091E904009711F037
:1057F0000E9473358091E60487FD03C060E00C943D
:1058000015130895AF92BF92CF92DF92EF92FF925D
:105810000F931F93CF93DF9310926C0310926B033F
:1058200088EE93E0A0E0B0E080936D0390936E0368
:10583000A0936F03B093700385E391E090936A03A4
:105840008093690385EC90E09093760380937503D1
:1058500084EC90E0909378038093770380EC90E061
:1058600090937A038093790381EC90E090937C038A
:1058700080937B0382EC90E090937E0380937D0382
:1058800086EC90E09093800380937F0310928203D4
:1058900010928303109284031092850325E4A22EB4
:1058A00021E0B22EB0924F05A0924E05D4E0D093E5
:1058B00050051092590510925A0510925B051092EE
:1058C0005C0510925D0510925E0510925F051092C6
:1058D00060051092610510926205109263051092A6
:1058E0006405C12CD12C30E8E32E3FE3F32EC092A7
:1058F0006505D0926605E0926705F0926805109202
:10590000690510926A0510926B0510926C05C092A1
:105910006D05D0926E05E0926F05F09270051092C1
:10592000710510927205109273051092740501E0D2
:1059300010E010937A0500937905CFEFC0937C05B2
:1059400010927505109276051092770510927805E1
:1059500085E08093510589E08093520586E080932D
:1059600053058AE0809354051092810510928205B8
:105970001092830510928405109285051092860579
:1059800010928705109288051092890510928A0559
:1059900010928B0510928C05C0928D05D0928E05C9
:1059A000E0928F05F09290051092910510925505A6
:1059B0001092560510925705109258058EE495E006
:1059C0000E94B70CB701A6018EE495E00E94EC0E90
:1059D000B0920B05A0920A05D0930C051092150504
:1059E00010921605109217051092180510921905BD
:1059F00010921A0510921B0510921C0510921D059D
:105A000010921E0510921F0510922005C0922105CC
:105A1000D0922205E0922305F092240510922505EC
:105A2000109226051092270510922805C09229058C
:105A3000D0922A05E0922B05F0922C0510922D05AC
:105A400010922E0510922F051092300510933605F6
:105A500000933505C0933805109231051092320538
:105A6000109233051092340587E080930D058CE089
:105A700080930E0588E080930F058DE080931005DC
:105A800010923D0510923E0510923F051092400580
:105A90001092410510924205109243051092440560
:105AA0001092450510924605109247051092480540
:105AB000C0924905D0924A05E0924B05F0924C0500
:105AC00010924D05109211051092120510921305B7
:105AD000109214058AE095E00E94B70CB701A60168
