:100000000C9414010C943C010C943C010C943C01A4
:100010000C943C010C943C010C943C010C94B10EEA
:100020000C943C010C9461050C943C010C94630706
:100030000C943C010C943C010C943C010C943C014C
:100040000C9496100C943C010C94260E0C94000E0B
:100050000C943C010C943C010C943C010C943C012C
:100060000C941D080C943C01A501AC01B301BA012C
:10007000C101D801C801D801CF01280C2E0C340CC5
:100080003A0C400C460C4C0C4E414E494E495459CA
:10009000494E46CDCCCC3D0AD7233C17B7D1387753
:1000A000CC2B329595E6241FB14F0A000020410069
:1000B00000C84200401C4620BCBE4CCA1B0E5AAEB3
:1000C000C59D7400407A10F35A00A0724E180900C2
:1000D00010A5D4E80000E87648170000E40B5402AD
:1000E0000000CA9A3B000000E1F5050000809698E8
:1000F00000000040420F000000A086010000001038
:100100002700000000E80300000000640000000079
:10011000000A00000000000100000000002C76D85A
:1001200088DC674F0823DFC1DFAE59E1B1B796E540
:10013000E3E453C63AE651997696E8E6C28426EBA4
:10014000898C9B62ED407C6FFCEFBC9C9F40F2BAB7
:10015000A56FA5F490055A2AF75C936B6CF9676D4F
:10016000C11BFCE0E40D47FEF520E6B500D0ED90A4
:100170002E0300943577050080841E080000204E71
:100180000A000000C80C333333330F986E1283110A
:1001900041EF8D2114893BE65516CFFEE6DB18D1E1
:1001A000844B381BF77C1D901DA4BBE424203284B3
:1001B000725E228100C9F124ECA1E53D27636469E8
:1001C0006E6F70737578585B000000000025002882
:1001D000002B000200000000240027002A0000007D
:1001E00000080002010000030407000000000000F6
:1001F000000000000000230026002900040404047D
:1002000004040404020202020202030303030303C0
:10021000010204081020408001020408102001029D
:1002200004081020A222922211241FBECFEFD8E092
:10023000DEBFCDBF11E0A0E0B1E0E4E0F6E602C031
:1002400005900D92A83EB107D9F726E0A8EEB1E0DF
:1002500001C01D92AB3BB207E1F711E0C3E1D1E071
:1002600004C02197FE010E949F2DC231D107C9F71A
:100270000E945A150C94F5320C9400000F931F93B2
:10028000CF93DF93EC01E881F9810480F581E02DC3
:100290008C010D5B1F4FD8018C91811102C060E071
:1002A00001C062E0CE010995E881F9810480F58101
:1002B000E02DD8018C91811102C061E001C063E0A2
:1002C000CE010995EBA5FCA5E230F10538F0EE0F63
:1002D000FF1FEE0FFF1F35973197F1F7E881F98186
:1002E0000480F581E02DD8018C91811102C060E07D
:1002F00001C062E0CE01DF91CF911F910F9109946F
:10030000CF93DF93EC0120E030E0A9016B897C8979
:100310008D899E890E94162D18161CF4EFA5F8A948
:1003200002C0E9A9FAA9DF91CF9109940F931F9315
:10033000DC011296EC910E2F10E009301105C0F58A
:10034000F801EC5CFF4F0C949F2DDC01ED91FC91CA
:100350000084F185E02D29C0DC01ED91FC9102843F
:10036000F385E02D22C0DC01ED91FC910484F5853C
:10037000E02D1BC0DC01ED91FC910684F785E02D9A
:1003800014C0DC01ED91FC910088F189E02D0DC0D5
:10039000DC01ED91FC910288F389E02D06C0DC01BF
:1003A000ED91FC910488F589E02D1F910F9109943E
:1003B0001F910F91089585ED8093BC008091BC0042
:1003C00084FDFCCF1092050208954091C402262FAF
:1003D00030E0240F311D21323105DCF4209105027B
:1003E0002430C9F4FC0180E090E0861758F4309185
:1003F000C4022191DC01AE55BD4FA30FB11D2C935A
:100400000196F3CF8091C402680F6093C40280E02C
:10041000089581E0089582E00895089581E090E0D4
:100420003091090220910802321710F480E090E028
:100430009195819591090895809109029091080202
:10044000891730F48F5F8093090280E090E008956F
:100450008FEF9FEF08958091080290E020910902AC
:10046000821B91090895CF92DF92EF92FF920F9332
:100470001F93CF93DF937C01262F972F8A018091C2
:100480000D03882391F0C62FD72F6E01C40ED51E01
:10049000CC15DD0571F06991D701ED91FC910190CA
:1004A000F081E02DC7010995F3CF642F822F0E94C0
:1004B000E501C801DF91CF911F910F91FF90EF905F
:1004C000DF90CF900895CF93DF931F92CDB7DEB723
:1004D000698320910D032223D1F02091060220325E
:1004E00040F021E030E0FC013383228380E090E0A3
:1004F00015C080910702E82FF0E0E25FFC4F998180
:1005000090838F5F809307028093060205C061E0AD
:10051000CE0101960E94E50181E090E00F90DF910D
:10052000CF910895CF92DF92EF92FF920F931F9396
:10053000CF93DF93FC012281243041F0283031F049
:10054000233031F0263021F012E003C014E001C066
:1005500013E0EC012796E12CF12CC62ED12C01E002
:10056000C6010E2C02C0959587950A94E2F7688122
:1005700080FD6027FE01349780810E94810EFFEF8D
:10058000EF1AFF0A2196E11658F3DF91CF911F91E0
:100590000F91FF90EF90DF90CF9008954F925F9270
:1005A0006F927F92AF92BF92CF92DF92EF92FF92C3
:1005B0000F931F93CF93DF93EC015A018B012B898B
:1005C0003C894D895E89B501C8010E94322A882381
:1005D00009F451C0CF88D88CE98CFA8C26013701F8
:1005E00077FA709477F87094A3019201B501C8016D
:1005F0000E94322A87FD0BC0A7019601B501C801F0
:100600000E94162D18162CF06501780102C07301A6
:10061000620120E030E0A901C701B6010E94322A40
:10062000811105C01BA21CA21DA21EA220C0A701F1
:10063000960160E074E284E799E40E946E2C9F7753
:100640000E94E72C6BA37CA38DA39EA35E0183E491
:10065000A80EB11C11E020E030E0A901C701B601ED
:100660000E94162D18160CF010E0F5011083CB8AAD
:10067000DC8AED8AFE8ADF91CF911F910F91FF9066
:10068000EF90DF90CF90BF90AF907F906F905F9092
:100690004F9008952F923F924F925F926F927F9268
:1006A0008F929F92AF92BF92CF92DF92EF92FF9282
:1006B0000F931F93CF93DF9300D000D0CDB7DEB759
:1006C0001C01FC0187849088A188B2888385948569
:1006D000A585B685881A990AAA0ABB0A638974890E
:1006E000858996899B01AC010E94982A6B017C0147
:1006F000F101638D748D858D968D9B01AC010E94F7
:10070000022C9B01AC01C701B6010E946E2C0E9415
:10071000E02C81149104A104B104A1F462307105AC
:10072000810591050CF07CC0F10113A214A215A261
:1007300016A2138A148A158A168A13AA14AA15AA4D
:1007400016AA03C1F10103A914A925A936A9ED5BD5
:10075000FF4F181419041A041B04FCF41016110698
:10076000120613064CF4681579058A059B054CF5AD
:100770002081211155C025C0011511052105310524
:1007800009F44EC0681579058A059B050CF048C030
:100790008081882309F444C037C010161106120660
:1007A0001306F4F4002711279801081919092A09DA
:1007B0003B0960177107820793071CF420812223ED
:1007C00079F19B01AC0188279927DC01821B930BEF
:1007D000A40BB50BF10183AB94ABA5ABB6AB20C0BA
:1007E0000115110521053105D9F0CC24DD24760150
:1007F000C818D908EA08FB086C157D058E059F0509
:100800007CF4808181110CC0309520951095019564
:100810001F4F2F4F3F4FF10103AB14AB25AB36AB4E
:10082000F101C3A8D4A8E5A8F6A881010D5B1F4F6C
:10083000C114D104E104F10491F487A990ADA1ADF4
:10084000B2AD83AF94AFA5AFB6AF81E01814190471
:100850001A041B040CF080E0F801808340C0F10111
:1008600083AC94ACA5ACB6ACA5019401C501B401B0
:100870000E94022C2B013C01C701B6010E94392ABB
:1008800020E030E040E850E40E94982A20E030E088
:1008900040E85FE30E94022C9B01AC01C301B2015E
:1008A0000E946E2C9B01AC01C501B4010E94012C79
:1008B0004B015C01F101FF964080518062807380A2
:1008C0009201A3010E94162D181614F04201530143
:1008D000A401B501F10143AF54AF65AF76AFFFEFAF
:1008E000CF1ADF0AEF0AFF0AF101C3AAD4AAE5AAC8
:1008F000F6AA23AD34AD45AD56ADCA01B901298381
:100900003A834B835C830E94E72CF10163A374A3B9
:1009100085A396A329813A814B815C8160E074E2D2
:1009200084E799E40E946E2CF101638B748B858BB4
:10093000968BF8012081211108C0DC01CB01B05851
:10094000F101838B948BA58BB68B0F900F900F903A
:100950000F90DF91CF911F910F91FF90EF90DF905B
:10096000CF90BF90AF909F908F907F906F905F904F
:100970004F903F902F9008950F931F93FC01038594
:10098000148525853685400F511F621F731F07850B
:10099000108921893289041715072607370741F086
:1009A0004787508B618B728B1F910F910C944A0378
:1009B0001F910F910895CF93FC01C0818FEF8C0F91
:1009C0008B3098F520E437E0DB010E94A52D24EB65
:1009D00030E040E050E00E946F2BDA01C901805EF8
:1009E0009D4FAF4FBF4F8032F2E09F0744F09C0114
:1009F000213689E038072CF020E639E002C020E2F9
:100A000032E028503109EC2FF0E0C901880F892F1E
:100A1000881F990BAF01440F551FE40FF51FE65EC9
:100A2000FD4F8183220F20952283CF9108950F934C
:100A30001F93CF938C01C62F80913103811123C066
:100A400080E090E03BE027E5FC01E65EFD4F34836B
:100A50002583039681329105B9F78BE180931B02C0
:100A60001092300310922F03109270001092B00079
:100A700082E08093B1001092B20081E087BB809346
:100A8000700080933103D8018C918823A1F061E03C
:100A90008C2F0E94330FD801EC91F0E0CF01880F2A
:100AA000991FE80FF91FE65EFD4FCF718081807EB0
:100AB000C82BC062C083F8018081CF911F910F9134
:100AC00008951F920F920FB60F9211242F933F9308
:100AD0004F935F936F937F938F939F93AF93BF9346
:100AE000EF93FF9380912F038F5F80932F032091CB
:100AF0002F038091300390E0FC01EE0FFF1F8E0F5B
:100B00009F1FFC01E65EFD4F818128130FC080917D
:100B1000300390E0FC01EE0FFF1F8E0F9F1FFC01C2
:100B2000E65EFD4F82818093B20065C020912F0365
:100B30008091300390E0FC01EE0FFF1F8E0F9F1F8E
:100B4000FC01E65EFD4F8181821708F054C0809160
:100B5000300390E0FC01EE0FFF1F8E0F9F1FFC0182
:100B6000E65EFD4F808185FF10C08091300390E0EC
:100B7000FC01EE0FFF1F8E0F9F1FFC01E65EFD4F75
:100B8000808160E08F710E94810E809130038F5FC1
:100B90008093300310922F031092B20080913003A3
:100BA000882319F1809130038C30F8F48091300360
:100BB00090E0FC01EE0FFF1F8E0F9F1FFC01E65E11
:100BC000FD4F808185FF17C08091300390E0FC01CC
:100BD000EE0FFF1F8E0F9F1FFC01E65EFD4F808111
:100BE00061E08F710E94810E06C0809130038C30CD
:100BF00010F010923003FF91EF91BF91AF919F9150
:100C00008F917F916F915F914F913F912F910F90B5
:100C10000FBE0F901F9018952F923F924F925F92A8
:100C20006F927F928F929F92AF92BF92CF92DF92FC
:100C3000EF92FF920F931F93CF93DF9300D0CDB726
:100C4000DEB78C0149832A83660F771FF801EA5AC1
:100C5000FF4FE080F180EE0CFF1CF801CF01801BFC
:100C6000910B8E159F0514F41192F8CF8981F8012C
:100C7000E60FF71F81838A818083580184E5A80EDF
:100C8000B11C60E0F50180810E94810EE00EF11E32
:100C90004801F2E58F0E911C380180E5680E711C49
:100CA000C701801B910B1816190624F5F701C29095
:100CB0007F01F4013080F301208087E0482E512C21
:100CC000D12CB601042C02C0759567950A94E2F701
:100CD00061707727822D0E94810E61E0832D0E9432
:100CE000810E60E0832D0E94810EF1E04F1A5108C1
:100CF00040F7D6CF61E0F50180810F900F90DF9132
:100D0000CF911F910F91FF90EF90DF90CF90BF9008
:100D1000AF909F908F907F906F905F904F903F909B
:100D20002F900C94810ECF92DF92EF92FF920F934F
:100D30001F93CF93DF9377FD23C0FC01EA5AFF4F47
:100D40002081318162177307DCF4EB017C016B01B8
:100D500083E0CC0CDD1C8A95E1F701E010E0F8019E
:100D6000EC0DFD1DEE0DFF1D178620E0402FBE018E
:100D7000C7010E940C060F5F1F4F0930110579F75C
:100D8000DF91CF911F910F91FF90EF90DF90CF9067
:100D90000895CF93FC01C48121E020930D03C093FB
:100DA0002E0310920702109206028385682B84EDB1
:100DB00093E00E94630280910602813208F046C0EF
:100DC000909105029111FCCF92E09093050291E081
:100DD000909304029FEF90930C0310920B03809367
:100DE0000A03AEE0B3E02AEE32E0F9019E2F921B37
:100DF000981718F49D919193F9CF1092E902809180
:100E0000E902CC0FC82BC093E90280910302813024
:100E100061F4109203028091E9028093BB008091FB
:100E2000BC0083FDF8CF85EC01C085EE8093BC004B
:100E3000809105028230E1F380910C038F3F31F005
:100E400080910C03803211F080910C031092070204
:100E50001092060210920D03CF9108950F931F93E5
:100E6000CF938C01C62F0E94C9066C2F6061C80108
:100E70000E94C9066C2F6F7EC8010E94C90683ECD0
:100E800090E00197F1F7CF911F910F9108950F9383
:100E90001F93CF93DF938C01D62FC42F62956F7071
:100EA000642B0E942E076D2F6F706C2BC801DF9191
:100EB000CF911F910F910C942E0740E40E94470799
:100EC00080E090E008951F920F920FB60F921124C8
:100ED0002F933F934F935F936F937F938F939F9342
:100EE000AF93BF93EF93FF93809169040E94580ED4
:100EF00020916D0430916E042F5F3F4F30936E044C
:100F000020936D0490916C04953618F096E09093C0
:100F10006804909168049430C9F128F4923069F023
:100F20009330D1F05EC0953009F451C0963009F08D
:100F300058C091E09093390551C0811152C0209161
:100F40006D0430916E042436310508F442C01092CD
:100F5000390510926C041CC0813009F042C0E09148
:100F60006C0491E09E0F90936C04F0E020916D046E
:100F700030916E04EE0FFF1FE859FB4F3087278337
:100F800010926E0410926D0494E029C0811117C074
:100F9000E0916C0491E09E0F90936C04F0E020913E
:100FA0006D0430916E04EE0FFF1FE859FB4F308740
:100FB000278310926E0410926D0493E010C020916C
:100FC0006D0430916E042536310558F007C081114B
:100FD00008C010926E0410926D0403C095E09093C7
:100FE000680490916B049923B9F081110AC0809133
:100FF0006A04882321F080916A0461E009C02D9A77
:101000000BC080916A04882331F080916A0460E00B
:101010000E94810E01C02D98FF91EF91BF91AF9179
:101020009F918F917F916F915F914F913F912F9100
:101030000F900FBE0F901F9018951F920F920FB632
:101040000F9211242F933F934F935F936F937F934E
:101050008F939F93AF93BF93EF93FF938091B900CA
:10106000887F803609F49CC068F5883209F45BC03B
:1010700090F4803109F454C038F4882309F4F6C0A0
:10108000883009F44DC0F6C0883109F44CC0803274
:1010900009F45DC0EFC0803409F468C048F48033BF
:1010A00009F455C0883309F0E5C080930C03D8C01B
:1010B000803509F44FC0883509F45DC0883409F0E3
:1010C000D9C0D6C0883909F4C7C0A8F4883709F454
:1010D00067C038F4883609F463C0803709F460C00B
:1010E000C9C0883809F4B8C0803909F45FC08038B5
:1010F00009F0C0C05BC0803B09F486C038F4803A78
:1011000009F466C0883A09F47FC0B4C0803C09F491
:10111000A7C0883C09F4A4C0883B09F48AC0AAC0CF
:101120008091E90210C090910B0380910A039817F7
:1011300070F5E0910B0381E08E0F80930B03F0E0DC
:10114000E651FD4F80818093BB0085EC86C0809383
:101150000C038EC0E0910B0381E08E0F80930B0394
:101160008091BB00F0E0E651FD4F808390910B032E
:1011700080910A036EC0E0910B0381E08E0F809393
:101180000B038091BB00F0E0E651FD4F808380911E
:10119000040281116DC081E08093030284EA61C082
:1011A00083E0809305021092E802CFCF8091E8029D
:1011B000803208F051C0E091E80281E08E0F809308
:1011C000E8028091BB00F0E0E853FD4F8083BDCF83
:1011D00085EC8093BC00109205028091E802803279
:1011E00030F4E091E802F0E0E853FD4F10826091A6
:1011F000E80270E0E091C602F091C70288EC92E04C
:1012000009951092E80236C084E08093050210929E
:10121000C5021092C402E091C202F091C302099586
:101220008091C402811105C081E08093C4021092B4
:10123000A202E091C50281E08E0F8093C502F0E02A
:10124000EE55FD4F80818093BB009091C502809147
:10125000C402981708F479CF85E88093BC000AC0CF
:1012600085EC8093BC001092050204C010920C0320
:101270000E94DB01FF91EF91BF91AF919F918F9100
:101280007F916F915F914F913F912F910F900FBE82
:101290000F901F9018950F931F93CF93DF930AE041
:1012A00012E0C0E0D0E0F80161918F01CE010E9410
:1012B000612B2196C031D105B1F7DF91CF911F91FC
:1012C0000F91089587EA91E00E94C2128BEA91E0A3
:1012D0000C94C212CF92DF92EF92FF920F931F9362
:1012E000CF93DF93CDB7DEB72C970FB6F894DEBF60
:1012F0000FBECDBF8B016A01BC01CE0101960E94D9
:10130000EB0D18861F821A8619861C861B8669813A
:101310007A816115710531F04D815E81CE010796AC
:101320000E948D0DEB84FC848FEFE81AF80AB70158
:10133000CE0107960E94220D882309F477C02F81E1
:1013400038858B859C8567E971E0820F931F0E9429
:10135000C52FFC86EB86CE0107960E94B912CE01FE
:1013600007960E94AE0DCE0101960E94AE0D0E3082
:101370001105F4F0B8016E5071094AE0CE010796EC
:101380000E94B30D6CEB71E0CE0101960E94EB0D53
:10139000BE01695F7F4FCE0101960E945B0D0E94E6
:1013A000B912CE0101960E94AE0DCE0107960CC077
:1013B0004AE0B801CE0101960E94B30DCE0101961C
:1013C0000E94B912CE0101960E94AE0D4AE0B6010C
:1013D000CE0107960E94B30D67E971E0CE01019638
:1013E0000E94EB0DBE01695F7F4FCE0101960E9406
:1013F0005B0D0E94B91289EB91E00E94C212CE01EE
:1014000001960E94AE0DCE0107960E94AE0D2C965D
:101410000FB6F894DEBF0FBECDBFDF91CF911F9105
:101420000F91FF90EF90DF90CF900895CE01079637
:101430000E94490D90CFCF93DF93C0EFD1E0FE0122
:1014400031978081882331F1813049F488810E946D
:10145000580E688170E0AC0183E791E019C08230DA
:1014600049F488810E942010688170E0AC0186E711
:1014700091E00EC0833071F4888190E00E94D41214
:101480000E94E02C288130E0AB01B9018EEB91E0A5
:101490000E946A09229682E0C430D80781F6DF9163
:1014A000CF910895CF93DF93EB01FC01608161340C
:1014B000E1F43F932F935F934F93DF93CF9323EC0C
:1014C00031E03F932F939F938F930E94CC2F88817D
:1014D00099810E96998388838DB79EB70A960FB629
:1014E000F8949EBF0FBE8DBF16C03F932F935F939E
:1014F0004F93DF93CF9323E831E03F932F939F9354
:101500008F930E94CC2F8DB79EB70A960FB6F89492
:101510009EBF0FBE8DBFDF91CF910895CF93DF9314
:10152000EB01FC0120812134D1F45F934F93DF93D1
:101530006F932EEC31E03F932F939F938F930E94F4
:10154000CC2F888199810E96998388838DB79EB719
:1015500008960FB6F8949EBF0FBE8DBF14C05F9360
:101560004F93DF936F9326E831E03F932F939F9340
:101570008F930E94CC2F8DB79EB708960FB6F89424
:101580009EBF0FBE8DBFDF91CF910895CF93DF93A4
:10159000EB01FC012081213481F4DF936F9326ED70
:1015A00031E03F932F939F938F930E94CC2F88819C
:1015B00099810E96998388830AC0DF936F9329E8F7
:1015C00031E03F932F939F938F930E94CC2F0F90E6
:1015D0000F900F900F900F900F90DF91CF91089583
:1015E000CF92DF92EF92FF920F931F93CF93DF93EF
:1015F0006C017A018B01C0E0D0E0CE15DF0589F0E7
:10160000D8016D918D01D601ED91FC910190F08191
:10161000E02DC6010995892B11F47E0102C02196A7
:10162000ECCFC701DF91CF911F910F91FF90EF9009
:10163000DF90CF900895FC01918D828D981761F015
:10164000828DDF01A80FB11D5D968C91928D9F5FF9
:101650009F73928F90E008958FEF9FEF0895FC01A4
:10166000918D828D981731F0828DE80FF11D858D57
:1016700090E008958FEF9FEF0895FC01918D228DEA
:10168000892F90E0805C9F4F821B91098F7399276F
:10169000089587E393E00E943D0B21E0892B09F434
:1016A00020E0822F0895FC01848DDF01A80FB11D79
:1016B000A35ABF4F2C91848D90E001968F73992788
:1016C000848FA689B7892C93A089B1898C91806475
:1016D0008C93938D848D981306C00288F389E02D36
:1016E00080818F7D80830895EF92FF920F931F93E7
:1016F000CF93DF93EC0181E0888F9B8D8C8D9813C5
:1017000005C0E889F989808185FD24C0F62E0B8DFE
:1017100010E00F5F1F4F0F731127E02E8C8DE81222
:101720000CC00FB607FCFACFE889F989808185FFE4
:10173000F5CFCE010E94530BF1CF8B8DFE01E80F48
:10174000F11DE35AFF4FF0820B8FEA89FB898081FC
:10175000806207C0EE89FF896083E889F98980810A
:101760008064808381E090E0DF91CF911F910F91A1
:10177000FF90EF900895CF93DF93EC01888D88233D
:10178000C9F0EA89FB89808185FD05C0A889B989EE
:101790008C9186FD0FC00FB607FCF5CF808185FFC9
:1017A000F2CFA889B9898C9185FFEDCFCE010E9437
:1017B000530BE7CFDF91CF91089580E090E0892B24
:1017C00029F00E94490B81110C9400000895833088
:1017D00081F028F4813099F08230A1F008958730AB
:1017E000A9F08830B9F08430D1F4809180008F7DE9
:1017F00003C0809180008F7780938000089584B526
:101800008F7702C084B58F7D84BD08958091B0002C
:101810008F7703C08091B0008F7D8093B0000895D2
:10182000CF93DF934770552766277727FA013197C3
:10183000EC01A881B981E730F10520F4E35CFF4FAA
:101840000C949F2D1496ED91FC91159761E029C0A1
:101850001496ED91FC91159765E023C01496ED91D7
:10186000FC91159764E01DC01496ED91FC911597BD
:1018700066E017C01496ED91FC91159762E011C0D7
:101880001496ED91FC9115976AE00BC01496ED91BA
:10189000FC91159768E005C01496ED91FC911597A1
:1018A00069E0DF91CF910994CF93DF93EC01CB01F5
:1018B000BA0126E030E040E050E00E946F2B623039
:1018C00071058105910559F18CF46115710581054A
:1018D0009105F1F06130710581059105C1F5E8814F
:1018E000F9810480F581E02D65E02DC0643071053B
:1018F0008105910511F1D4F06530710581059105DF
:1019000031F5E881F9810480F581E02D66E01BC0A6
:10191000E881F9810480F581E02D64E014C0E8815C
:10192000F9810480F581E02D61E00DC0E881F98145
:101930000480F581E02D63E006C0E881F981048030
:10194000F581E02D62E0CE01DF91CF910994DF9126
:10195000CF9108954370552766277727DC01ED91D5
:10196000FC910480F581E02D42305105610571053F
:1019700071F0433051056105710559F04130510551
:101980006105710511F065E005C066E003C06AE01D
:1019900001C069E00994CF93DF93EC01CB01BA0158
:1019A00023E030E040E050E00E946F2B6130710591
:1019B0008105910581F0623071058105910591F0F5
:1019C000672B682B692BC1F4E881F9810480F581CC
:1019D000E02D64E00DC0E881F9810480F581E02DFF
:1019E00061E006C0E881F9810480F581E02D62E0C4
:1019F000CE01DF91CF910994DF91CF91089543708B
:101A0000552766277727DC01ED91FC910480F5814D
:101A1000E02D423051056105710571F043305105EB
:101A20006105710559F0413051056105710511F0ED
:101A300062E005C063E003C061E001C060E00994BA
:101A40000E94B72F0F931F93CF93DF93EC018881F0
:101A50009981009729F02A813B812617370788F45E
:101A60008B016F5F7F4F0E94ED2E009761F099838D
:101A700088831B830A832C813D81232B11F4FC0175
:101A8000108281E001C080E0DF91CF911F910F9122
:101A90000895CF93DF93EC0188819981009711F02D
:101AA0000E94552E198218821D821C821B821A8266
:101AB000DF91CF910895EF92FF920F931F93CF93F1
:101AC000DF93EC01FB0184819581E080F1800C8142
:101AD0001D81E114F104B1F00097B9F0080F191F4E
:101AE000B801CE010E94220D882361F0288139813E
:101AF0008C819D81B701820F931F0E94C52F1D838A
:101B00000C8303C0CE010E94490DCE01DF91CF911D
:101B10001F910F91FF90EF900895EF92FF920F9316
:101B20001F93CF93DF93EC017B018A01BA010E94DE
:101B3000220D811104C0CE010E94490D07C01D83F2
:101B40000C83B701888199810E94C52FCE01DF9156
:101B5000CF911F910F91FF90EF900895FC0180812C
:101B600091810C94552EEF92FF920F931F93CF9378
:101B7000DF93CDB7DEB762970FB6F894DEBF0FBE26
:101B8000CDBF8C01CB01F801118210821382128229
:101B90001582148250E09E012F5F3F4F7901B901F9
:101BA0000E940626F70101900020E9F73197AF0166
:101BB0004E195F09B701C8010E948D0D62960FB6DC
:101BC000F894DEBF0FBECDBFDF91CF911F910F9173
:101BD000FF90EF900895FC0111821082138212820F
:101BE000158214826115710551F0FB0101900020EE
:101BF000E9F73197AF01461B570B0C948D0D0895F3
:101C00001F920F920FB60F9211242F933F934F9371
:101C10005F936F937F938F939F93AF93BF93EF9354
:101C2000FF9387E393E00E94530BFF91EF91BF91E5
:101C3000AF919F918F917F916F915F914F913F9164
:101C40002F910F900FBE0F901F9018951F920F921B
:101C50000FB60F9211242F938F939F93EF93FF93BF
:101C6000E0914703F09148038081E0914D03F091AA
:101C70004E0382FD12C09081809150038F5F8F735D
:101C800020915103821751F0E0915003F0E0E95C9C
:101C9000FC4F958F8093500301C08081FF91EF919D
:101CA0009F918F912F910F900FBE0F901F901895BD
:101CB000CF93DF93282F30E0F901E252FE4F849159
:101CC000F901E05FFD4FD491F901E450FE4FC4915A
:101CD000CC2391F081110E94E70BEC2FF0E0EE0F86
:101CE000FF1FEE50FE4FA591B491EC91ED2381E0E2
:101CF00090E021F480E002C080E090E0DF91CF919D
:101D000008951F93CF93DF93282F30E0F901E2521B
:101D1000FE4F8491F901E05FFD4FD491F901E45049
:101D2000FE4FC491CC23C9F0162F81110E94E70BFE
:101D3000EC2FF0E0EE0FFF1FE753FE4FA591B4919B
:101D40008FB7F894111105C09C91ED2FE095E92310
:101D500002C0EC91ED2BEC938FBFDF91CF911F91DF
:101D600008951F920F920FB60F9211242F933F9355
:101D70004F935F936F937F938F939F93AF93BF9393
:101D8000EF93FF938091EB019091EC01A091ED0115
:101D9000B091EE01892B8A2B8B2B59F18091E801B0
:101DA000E091E901F091EA01908189278083809197
:101DB000EB019091EC01A091ED01B091EE011816AC
:101DC00019061A061B060CF03DC08091EB0190919C
:101DD000EC01A091ED01B091EE010197A109B109CB
:101DE0008093EB019093EC01A093ED01B093EE0191
:101DF00029C080910001E3EDF1E0E4919FEF909321
:101E00000001E130B9F098F0E230C9F4909170002F
:101E10009D7F9093700091E09093B0009091B100FD
:101E2000987F94609093B1001092B30008C0109214
:101E30006E0005C090916F009D7F90936F0060E0F1
:101E40000E94810EFF91EF91BF91AF919F918F9171
:101E50007F916F915F914F913F912F910F900FBEA6
:101E60000F901F901895CF93DF9390E0FC01E05FF7
:101E7000FD4F2491FC01E450FE4F8491882361F1D1
:101E800090E0880F991FFC01EC52FE4FC591D49150
:101E9000FC01E753FE4FA591B491611109C09FB7B2
:101EA000F8948881209582238883EC912E230BC09F
:101EB000623061F49FB7F8943881822F8095832334
:101EC0008883EC912E2B2C939FBF06C08FB7F8947C
:101ED000E8812E2B28838FBFDF91CF910895CF9378
:101EE000DF93FC012281222359F1EC0161E083811F
:101EF0000E94330F61E08C810E94330F8A8184300D
:101F000011F0883039F461E08D810E94330F61E077
:101F10008E8106C0833011F0863021F461E08D811E
:101F20000E94330F8EA58F3F59F061E00E94330F5E
:101F30006DA581E068278EA5DF91CF910C94810E6D
:101F4000DF91CF910895CF93DF93FC01228122236B
:101F5000A9F0EC010190F081E02D0480F581E02DE5
:101F600060E009958EA58F3F49F061E00E94330F34
:101F70006DA58EA5DF91CF910C94810EDF91CF914D
:101F800008951F93CF93DF93182FEB0161E00E9418
:101F9000330F209711F460E004C0CF3FD10539F42E
:101FA00061E0812FDF91CF911F910C94810EE12F81
:101FB000F0E0E252FE4FE491E330F9F048F4E13012
:101FC000B9F0E230A1F584B5806284BDC8BD34C0EB
:101FD000E730E9F0E83019F1E43049F5809180000C
:101FE000806280938000D0938B00C0938A0024C0CD
:101FF00084B5806884BDC7BD1FC0809180008068A3
:1020000080938000D0938900C093880015C0809190
:10201000B00080688093B000C093B3000DC0809181
:10202000B00080628093B000C093B40005C0C03897
:10203000D1050CF0B5CFAFCFDF91CF911F910895AF
:102040008E3008F08E508770806480937C00809181
:102050007A00806480937A0080917A0086FDFCCFBC
:10206000809178002091790090E0922B08953FB7FD
:10207000F8948091330390913403A0913503B0918B
:10208000360326B5A89B05C02F3F19F00196A11D68
:10209000B11D3FBFBA2FA92F982F8827820F911DFE
:1020A000A11DB11DBC01CD0142E0660F771F881F45
:1020B000991F4A95D1F708958F929F92AF92BF9240
:1020C000CF92DF92EF92FF926B017C010E9437105A
:1020D0004B015C01C114D104E104F104F1F00E9450
:1020E0003710DC01CB0188199909AA09BB09883E80
:1020F0009340A105B10570F321E0C21AD108E108AF
:10210000F10888EE880E83E0981EA11CB11CC11452
:10211000D104E104F10419F7DDCFFF90EF90DF90D7
:10212000CF90BF90AF909F908F9008951F920F9285
:102130000FB60F9211242F933F938F939F93AF93DA
:10214000BF9380913E0290913F02A0914002B091D6
:1021500041023091320323E0230F2D3720F4019602
:10216000A11DB11D05C026E8230F0296A11DB11DBA
:102170002093320380933E0290933F02A09340024B
:10218000B09341028091330390913403A0913503C1
:10219000B09136030196A11DB11D80933303909336
:1021A0003403A0933503B0933603BF91AF919F9151
:1021B0008F913F912F910F900FBE0F901F90189508
:1021C0001F93CF93DF93EC01162F8981882331F081
:1021D0008E8187FD03C060E00E94330F1E838981DA
:1021E000882341F061E0812F0E94330F60E0812F4E
:1021F0000E94810E812F90E0FC01E450FE4FE4919B
:10220000F0E0EE0FFF1FE753FE4F259134913B8B1B
:102210002A8BFC01E05FFD4FE491EC8BDF91CF91C5
:102220001F9108954F925F926F927F928F929F922B
:10223000AF92BF92CF92DF92EF92FF92CF93DF9354
:10224000EC016A017B018B8C9C8CAD8CBE8C9A015D
:10225000AB01C501B4010E94322A882309F449C0A8
:102260006BA97CA98DA99EA90E94392A2B013C014A
:10227000A7019601C501B4010E946E2C9B01AC011F
:10228000C301B2010E94982A0E94E02C6BAB7CAB88
:102290008DAB9EABA701960160E070E080E090E41A
:1022A0000E946E2C0E94212D26E53EE04DE25FE368
:1022B0000E94982A20E034E244E759E40E94982AD8
:1022C0006FAB78AF89AF9AAFCB8EDC8EED8EFE8E82
:1022D000CE01DF91CF91FF90EF90DF90CF90BF9034
:1022E000AF909F908F907F906F905F904F900C94E5
:1022F0004A03DF91CF91FF90EF90DF90CF90BF9096
:10230000AF909F908F907F906F905F904F900895C7
:102310008F929F92AF92BF92CF92DF92EF92FF92F5
:10232000CF93DF93EC018B889C88AD88BE8820E03A
:1023300030E0A901C501B4010E94322A882309F4C2
:102340003FC0A5019401C501B4010E94982A6B0108
:102350007C016B8D7C8D8D8D9E8D9B01AC010E94CF
:10236000022C9B01AC01C701B6010E946E2C0E9499
:10237000E02C6B017C012FEFC21AD20AE20AF20AAA
:1023800020E030E0A901C501B4010E94162D181605
:102390001CF4B701A60107C044275527BA014C1900
:1023A0005D096E097F09CE01DF91CF91FF90EF901B
:1023B000DF90CF90BF90AF909F908F900C94BC0413
:1023C000DF91CF91FF90EF90DF90CF90BF90AF90D3
:1023D0009F908F900895CF92DF92EF92FF920F938C
:1023E0001F93CF93DF93EC014F85588969897A89D0
:1023F0008B859C85AD85BE85481759076A077B0785
:1024000011F480E050C08E010D5B1F4F84179507BB
:10241000A607B70724F481E0F801808302C0F80121
:1024200010828BA19CA1ADA1BEA1892B8A2B8B2BE5
:1024300041F30E9437106B017C018FA198A5A9A5DB
:10244000BAA5B701A601481B590B6A0B7B0B8BA1E0
:102450009CA1ADA1BEA1481759076A077B0788F266
:10246000F80120818B859C85AD85BE85222321F0D6
:102470000196A11DB11D03C00197A109B1098B8768
:102480009C87AD87BE87E881F9814B855C856D852A
:102490007E850680F781E02DCE010995CFA2D8A6D2
:1024A000E9A6FAA681E0DF91CF911F910F91FF90ED
:1024B000EF90DF90CF900895CF92DF92EF92FF924E
:1024C000CF93DF93EC0120E030E046E154E46F89E4
:1024D000788D898D9A8D0E94322A882309F442C012
:1024E00080E090E0A6E1B4E48F8B988FA98FBA8F3B
:1024F00085E595E5A0EDB4E4FE01FF968083918328
:10250000A283B3838BA99CA9ADA9BEA918161906ED
:102510001A061B063CF56B897C898D899E899B0177
:10252000AC010E94982A6B017C016B8D7C8D8D8D96
:102530009E8D9B01AC010E94022C9B01AC01C70146
:10254000B6010E946E2C0E94E02C6BAB7CAB8DAB75
:102550009EABCE01DF91CF91FF90EF90DF90CF90B7
:102560000C944A03DF91CF91FF90EF90DF90CF90D2
:102570000895FC01448155816081718187E393E076
:102580000C94F00A009769F0FC0101900020E9F733
:102590003197AF01481B590BBC0187E393E00C94C2
:1025A000F00A80E090E008950F931F93CF93DF939C
:1025B000EC0161E00E94330F61E08C2F0E94810EDC
:1025C00083E290E00197F1F760E08C2F0E94330FD7
:1025D000DD27FE01E05FFD4F6491FE01E450FE4FF8
:1025E000E491F0E0EE0FFF1FEE50FE4F85919491C5
:1025F00000E412E42FE030E0462F0E94151561152B
:1026000071058105910539F0DC01CB010196A11D11
:10261000B11DBF7003C080E090E0DC01BC0180E030
:1026200090E00E94372A2DEC3CEC48E652E40E94F0
:102630006E2CDF91CF911F910F910895DC01909145
:102640008606992361F0699FB0011124672F499F85
:10265000A0011124452F299F90011124232F30918F
:102660008C0680918906E0918706F09188063813E0
:1026700008C0CD01880F991F8A0F9B1F8E0F9F1FC7
:102680000BC0CD01880F991F880F991F8E0F9F1FB8
:10269000FC01E30FF11D108230918906FC01E30F6C
:1026A000F11D608330918A06FC01E30FF11D408328
:1026B00030918B06FC01E30FF11D208308958F926A
:1026C0009F92AF92BF920F931F93CF93DF93CDB79B
:1026D000DEB7A1970FB6F894DEBF0FBECDBF19A22B
:1026E000423008F44AE08E010F5D1F4F842E912C7A
:1026F000A12CB12CA50194010E94D02BE62FB90189
:10270000CA0101501109EA3014F4E05D01C0E95C2E
:10271000D801EC93232B242B252B61F7C8010E94B1
:10272000C212A1960FB6F894DEBF0FBECDBFDF91E7
:10273000CF911F910F91BF90AF909F908F90089570
:102740004F925F926F927F928F929F92AF92BF92C1
:10275000CF92DF92EF92FF926B017C01B42E9B012E
:10276000AC010E94612D882319F08BED91E027C008
:1027700026013701E89477F82FEF3FEF4FE75FE747
:10278000C301B2010E94612D81110DC02FEF3FEFF7
:102790004FE75FE7C301B2010E94322A18161CF40A
:1027A0008FED91E00CC02FEF3FEF4FE75FE4C701E3
:1027B000B6010E94162D181684F483EE91E0FF9066
:1027C000EF90DF90CF90BF90AF909F908F907F90D1
:1027D0006F905F904F900C94C2122FEF3FEF4FE736
:1027E0005FECC701B6010E94322A87FDE6CF20E0E8
:1027F00030E0A901C701B6010E94322A87FF11C04B
:10280000E0913703F09138030190F081E02D6DE203
:1028100087E393E009954C01F7FAF094F7F8F09408
:1028200002C0812C912CA12C60E070E080E09FE33D
:10283000AB1441F020E030E040E251E40E946E2C05
:10284000A394F6CF9B01AC01C701B6010E94022CF4
:102850002B013C010E94E72C6B017C010E94372A6E
:102860009B01AC01C301B2010E94012C2B013C0170
:102870004AE0C701B6010E945F137C01E80CF91C15
:10288000BB2069F0E0913703F09138030190F081AB
:10289000E02D6EE287E393E00995E80EF91EDB2C4C
:1028A000DD2021F120E030E040E251E4C301B2013B
:1028B0000E94982A2B013C010E94E72C4B01A12C7D
:1028C000B12C4AE0C501B4010E945F13E80EF91E65
:1028D000C501B4010E94372A9B01AC01C301B201BA
:1028E0000E94012C2B013C01DA94DACFC701FF9042
:1028F000EF90DF90CF90BF90AF909F908F907F90A0
:102900006F905F904F9008950F931F93CF93DF9335
:102910000FE616E061E0F80181810E94330FC3ECFD
:10292000D0E0CE010197F1F760E0F80180810E94CC
:10293000330FCE010197F1F760E0F80181810E9429
:10294000330F2197F1F7DF91CF911F910F910895E8
:10295000EF92FF920F931F93CF93DF93082F18E00E
:1029600083ECE82EF12C61E080916F060E94330F1A
:10297000C7010197F1F700FF02C060E001C061E00C
:10298000809170060E94330FC3ECD0E0C70101971D
:10299000F1F760E080916F060E94330FC701019745
:1029A000F1F706951150F9F661E080916F060E94EB
:1029B000330F60E0809170060E94330FCE010197C3
:1029C000F1F760E080916F060E94330F2197F1F7D5
:1029D000809170060E94580E182F811105C061E089
:1029E000809170060E94330FC3ECD0E0CE010197B6
:1029F000F1F761E080916F060E94330F2197F1F7A4
:102A000081E0111101C080E0DF91CF911F910F9102
:102A1000FF90EF90089561E0809170060E94330F5F
:102A200083EC90E00197F1F70895CF92DF92EF9257
:102A3000FF920F931F93E82FF92F05C00150110942
:102A40002109310961F1908196239417B9F305C0EA
:102A5000015011092109310911F190819623941334
:102A6000F7CFC12CD12CE12CF12C0AC08FEFC81A62
:102A7000D80AE80AF80A0C151D052E053F0579F05D
:102A800080818623841791F36C2D7D2D8E2D9F2DB3
:102A90001F910F91FF90EF90DF90CF90089560E02D
:102AA00070E080E090E01F910F91FF90EF90DF9039
:102AB000CF900895CF93DF93CDB7DEB7C854D10937
:102AC0000FB6F894DEBF0FBECDBF789484B5826098
:102AD00084BD84B5816084BD85B5826085BD85B5C2
:102AE000816085BD80916E00816080936E00109240
:102AF00081008091810082608093810080918100BB
:102B0000816080938100809180008160809380004B
:102B10008091B10084608093B1008091B0008160A9
:102B20008093B00080917A00846080937A008091D5
:102B30007A00826080937A0080917A00816080932D
:102B40007A0080917A00806880937A001092C100A8
:102B5000E0914703F091480382E08083E0914303D2
:102B6000F09144031082E0914503F091460380E127
:102B7000808310924F03E0914B03F0914C0386E069
:102B80008083E0914903F0914A03808180618083D2
:102B9000E0914903F0914A03808188608083E0914D
:102BA0004903F0914A03808180688083E091490362
:102BB000F0914A0380818F7D808384E1EFEEF1E024
:102BC000DF011D928A95E9F70E94620980918506CE
:102BD00087FD08C061E00E94330F60E080918506A8
:102BE0000E94810E81E0809380068FE080937106C1
:102BF00080916D0690916E061816190644F421E036
:102C00004CE060E070E087E196E00E940C06809165
:102C10006D0690916E061816190644F428E04AE0F5
:102C200060E070E087E196E00E940C0660E070E0F2
:102C300087E196E00E9493068AE0E82E82E0F82E73
:102C400000E010E0C8010E94592BF70181937F0139
:102C50000F5F1F4F00311105A9F780910A02909173
:102C60000B02823D9440D9F080E1EAE0F2E0DF011E
:102C70001D928A95E9F782ED94E090930B02809380
:102C80000A0280E090E0A0E8BFE380930C029093FA
:102C90000D02A0930E02B0930F020E944B09E9E5CA
:102CA000F5E080E090E0208121112CC023E1289FF5
:102CB000F001299FF00D1124E75AFA4F81E080833B
:102CC00084E690E0A0E0B0E081839283A383B483A4
:102CD0008FEF9FEF968385838BE19AE092878187C0
:102CE0002FB7F89480913E0290913F02A09140024C
:102CF000B09141022FBF85879687A787B08B128A34
:102D0000118A26C0019673968A30910561F620C01B
:102D100087E393E00E943D0B892B11F40C94421F32
:102D200087E393E00E941B0BA091A102E1E0EA0F70
:102D3000E093A1020A2E000CBB0BAF59BD4F8C9340
:102D40008A30E1F08091A102803414F31092A10244
:102D50003E01B2E26B0E711CFE01BA96FAAFE9AF0A
:102D60002E01F8E24F0E511C9E012F5F3F4F1901BB
:102D7000AE01425D5F4F5CAF4BAFCACF0E2E000C71
:102D8000FF0BEF59FD4F1082809161028D3411F0DD
:102D90000C942F1F82E692E00E94C1258C01AE01A7
:102DA000405D5F4F67E971E082E692E00E94DF25B7
:102DB0000636110509F4ADC00CF058C006301105F7
:102DC00009F4F2C074F50230110509F4B8C0ACF48E
:102DD0000115110509F4AFC00130110511F00C9473
:102DE0002F1FA101B30188A999A90E948E0A6981A8
:102DF0008AA10E94330F0C942F1F88A999A904302F
:102E0000110509F4A7C00CF0BDC0B1010E94C60AAB
:102E100089810E94580E69817A81AC0183E791E033
:102E2000C0C00D30110509F44BC464F4083011051D
:102E300009F4DEC20CF4CBC20930110509F430C329
:102E40000C942F1F0436110509F45EC40CF0C9C49C
:102E50000E30110511F00C942F1F84E1EFEEF1E01C
:102E6000DF011D928A95E9F70C942F1F0E3C110586
:102E700009F44DC684F50A3C110509F446C564F40D
:102E8000083C110509F4FEC40CF011C50A36110501
:102E900009F4EFC40C942F1F0C3C110509F44CC528
:102EA0000CF075C560E070E089E00E94C10F68EC2D
:102EB00070E08AE00E94C10F6CE271E080E090E077
:102EC0000E945C1060E070E089E00E94C10F60E049
:102ED00070E08AE02EC5023D110509F470C74CF47C
:102EE00088A999A9003D110509F4C1C60CF488C64A
:102EF00059C7043D110511F40C94071F0CF473C756
:102F0000073E134011F00C942F1F0C9400000C94FA
:102F10002F1F10923B0510923A0510923D0510921A
:102F20003C0510923F0510923E051092410510920B
:102F300040050C942F1F0E9462090C942F1FA101C1
:102F4000B30188A999A90E948E0A69818AA10E9469
:102F5000810E85C7A101B3010E948E0A8AA19BA19F
:102F60008330910561F09C012550310922303105F3
:102F700030F0245031092330310508F070C76981E1
:102F80007A81D7C4B1010E94C60A89810E942010AB
:102F900069817A816E3071050CF461C7AC0186E7F6
:102FA00091E00E946A095BC79101A301B20188A95F
:102FB00099A90E94520AE981FA812396FFAFEEAFE8
:102FC00023972AA13BA129963FAF2EAF299788A529
:102FD00099A520910001281304C0E3EDF1E01491BC
:102FE00080C02F3F09F03BC780930001E3EDF1E083
:102FF00014911F3F09F433C7113029F1123009F43D
:1030000049C011116EC014BC15BC24B5226024BD8A
:1030100025B5216025BD9C013327F901E450FE4F01
:10302000E491F0E0EE0FFF1FE753FE4F45915491FE
:103030005093470240934602F901E05FFD4FE4914F
:10304000E093450250C010928000109281002091C0
:1030500081002860209381002091810021602093CD
:1030600081009C013327F901E450FE4FE491F0E028
:10307000EE0FFF1FE753FE4F4591549150934402CA
:1030800040934302F901E05FFD4FE491E093420277
:1030900011E029C01092B0001092B1002091B00050
:1030A00022602093B0002091B10021602093B100F4
:1030B0009C013327F901E450FE4FE491F0E0EE0F5C
:1030C000FF1FE753FE4F459154915093EA014093FF
:1030D000E901F901E05FFD4FE491E093E80112E0BE
:1030E00002C017FDBCC623962EAD3FAD2397032E1D
:1030F000000C440B550B27962CAF3DAF4EAF5FAF86
:10310000279761E00E94330F29964EAD5FAD299756
:103110004A01A12CB12C812F8D7F09F0C4C060E041
:1031200072E18AE790E0A50194010E946F2B21963D
:103130002CAF3DAF4EAF5FAF219769017A0151E0EF
:10314000C51AD108E108F1088FEFC816D104E104CF
:10315000F10409F008F44FC060E472E48FE090E0FD
:10316000A50194010E946F2B69017A0191E0C91AAF
:10317000D108E108F108123011F5AFEFCA16D104F9
:10318000E104F10409F010F40C948F2260E970ED71
:1031900083E090E0A50194010E946F2B69017A0100
:1031A000B1E0CB1AD108E108F108EFEFCE16D10457
:1031B000E104F10411F008F03EC083E06DC0FFEFC0
:1031C000CF16D104E104F104C1F0B8F068E478EE60
:1031D00081E090E0A50194010E946F2B69017A01C2
:1031E00081E0C81AD108E108F108112311F40C9408
:1031F0006A220C94602281E001C082E011114CC06F
:1032000015C021968CAD9DADAEADBFAD21972AE026
:10321000B595A795979587952A95D1F76C017D016E
:1032200041E0C41AD108E108F10885E095B5987F1E
:10323000892B85BD75C068E478EE81E090E0A5013A
:1032400094010E946F2B69017A01F1E0CF1AD10835
:10325000E108F1082FEFC216D104E104F10409F0EE
:1032600010F40C94292264E274EF80E090E0A50150
:1032700094010E946F2B69017A0191E0C91AD1086B
:10328000E108F108AFEFCA16D104E104F10419F026
:1032900010F00C942C2285E09091B100987F892B3E
:1032A0008093B1003DC060E072E18AE790E0A50143
:1032B00094010E946F2B69017A01F1E0CF1AD108C5
:1032C000E108F108C114D10421E0E206F10488F01C
:1032D00068E478EE81E090E0A50194010E946F2BF4
:1032E00069017A0181E0C81AD108E108F10893E088
:1032F00001C091E01130A1F480918100887F892B79
:103300008093810027962CAD3DAD4EAD5FAD2797E4
:10331000232B242B252B71F42FEF3FEFA90135C070
:1033200027968CAD9DADAEADBFAD2797892B8A2B6F
:103330008B2B99F029962EAD3FAD2997220F331F85
:103340002396AEADBFAD23970E94A52D28EE33E0A6
:1033500040E050E00E94D02B03C02FEF3FEFA901C7
:10336000113099F0123019F1111179C5C7BC2093B1
:103370004C0230934D0240934E0250934F02809185
:103380006E00826080936E006AC5D0928900C09200
:103390008800209348023093490240934A02509398
:1033A0004B0280916F00826080936F0058C5C0927D
:1033B000B3002093EB013093EC014093ED01509367
:1033C000EE018091700082608093700048C5A10179
:1033D000B30188A999A90E948E0A6AA17BA18EE9EE
:1033E00096E00E94170569817A818EE996E035C5DD
:1033F00085E10E9420108C0169E771E0C1010E9403
:10340000EB0DC1010E94B912C1010E94AE0D1BA2B9
:103410001AA21DA21CA21FA21EA2B801110F880B86
:10342000990B0E94392A20E030E040E85AE30E94DC
:10343000982A26E636E646EA50E40E94982A9B013E
:10344000AC010E94022C810122E044E00E949D25F3
:10345000009769F0FC0101900020E9F73197AF0176
:10346000481B590BBC01C3010E948D0D03C0C30151
:103470000E94490D67E971E0C1010E94EB0DB301A3
:10348000C1010E945B0D0E94B91289EB91E00E947C
:10349000C212C1010E94AE0DC3010E94AE0DDFC475
:1034A000E8A9F9A980818134E1F43F922F927F92BB
:1034B0006F925F924F929AAD9F93A9ADAF93BCADBF
:1034C000BF932BAD2F938CE791E09F938F93FF9346
:1034D000EF930E94CC2F8EA59FA50E969FA78EA737
:1034E00016C03F922F927F926F925F924F925AAD89
:1034F0005F9389AD8F939CAD9F93ABADAF938DE7F9
:1035000091E09F938F93FF93EF930E94CC2F0FB680
:10351000F894DEBF0FBECDBF6EA58FE796E00E9488
:10352000E0108AA59BA50097A9F400E010E029818E
:103530004AA168A580918106909182060817190713
:1035400018F4C8010E941E130F5F1F4F00311105B0
:1035500071F70DC029814AA168A50197E091810604
:10356000F09182068E179F0710F40E941E1380911F
:10357000870690918806892B09F471C40E94371040
:1035800000918D0610918E0620918F063091900645
:10359000DC01CB01801B910BA20BB30BC297A105E1
:1035A000B10560F3F89480918306909184069DA7FD
:1035B0008CA7E0918706F0918806DF011196808143
:1035C00088AF90917F06E0919106F09192068091EC
:1035D0009306992309F42EC09081982B9FAB90817C
:1035E000809589238EAB8EA98BAB88E08AAB3FA9EF
:1035F0004EA968AD5AA92BA98CA59DA5308367FD5E
:10360000232F5A952083242F39F0661F00C0000015
:103610004083000000C0F2CF58E06D91408300006D
:10362000019761F7F0939206E093910668AF5AAB69
:103630002BAB38C09081982B9FAB908180958923CC
:103640008EAB8EA98DAB88E08CAB3FA94EA968AD3F
:103650005CA92DA98CA59DA5308367FD232F00C0F3
:1036600000C0208300C000C000C000C000C0408374
:103670000000242F5A9541F0661F000000C000C0D2
:1036800000C000C000C0E8CF58E06D9100C040838A
:1036900000C0019709F7F0939206E093910668AF96
:1036A0005CAB2DAB9DA78CA778940E9437106093DC
:1036B0008D0670938E0680938F0690939006CFC3ED
:1036C000A101B30188A999A90E948E0A4AA15BA110
:1036D000EFEEF1E080E090E0208121110AC0880F38
:1036E000991FFC01E151FE4F898180838AA181836A
:1036F000B6C3218130E02417350789F3019632964D
:103700008A30910549F7ABC388A899A89A82898223
:1037100030E9C32EDD24D39440E9A42EBB24B39416
:1037200000E010E0E12CF12C892851F1A10167E9BA
:1037300071E080E090E00E94DF254C01FC01808177
:103740008C3431F4C40101960E94C1257C01ECCF78
:10375000823531F4C40101960E94C1258C01E4CF69
:10376000813431F4C40101960E94C1255C01DCCF93
:103770008234D1F6C40101960E94C1256C01D4CFD8
:10378000A701FF0C660B770B84E294E00E94BC0457
:10379000B5010B2C000C880B990B0E94392AAB0148
:1037A000BC0184E294E00E94CE02A801110F660BD6
:1037B000770B80EE93E00E94BC04B6010D2C000C48
:1037C000880B990B0E94392AAB01BC0180EE93E073
:1037D0000E94CE02AB2809F048C0CD2809F045C0B0
:1037E00048C0C8A8D9A8DA82C98200E010E0E12C5C
:1037F000F12CCD28D1F0A10167E971E080E090E0E3
:103800000E94DF256C01DC018C918C3431F4C601FF
:1038100001960E94C1257C01ECCF823551F7C6018B
:1038200001960E94C1258C01E4CFA701FF0C660B15
:10383000770B84E294E00E94BC0440E050E066E133
:1038400074E484E294E00E94CE02A801110F660B9A
:10385000770B80EE93E00E94BC0440E050E066E10C
:1038600074E480EE93E00E94CE0281E080934205F2
:10387000F6C284E294E00E94881180EE93E00E94F8
:103880008811EDC288A999A91BA21AA21A821982CD
:10389000A101B3010E948E0AEAA1FBA1EE0FFF1F56
:1038A000E65CFA4F89819A8191838083D8C288A986
:1038B00099A91BA21AA21A821982A101B3010E941E
:1038C0008E0AEAA0FBA009811A81B701601B710B67
:1038D000072E000C880B990B0E94392A20910C02AC
:1038E00030910D0240910E0250910F020E94982AD1
:1038F0000E94E02C0E0D1F1D10933B0500933A050E
:1039000070933D0560933C05AAC2A101B30188A94B
:1039100099A90E948E0A8AA19BA10E94D4126B01D0
:103920007C018DE891E00E94C21242E0C701B6011D
:1039300053C20E94C10F93C2B10188A999A90E94E4
:10394000C60A89818093690480916904F894109271
:10395000800089E08093810080E293E09093890069
:1039600080938800109285001092840082E08093FA
:103970006F0078948093680410926C0480916904BD
:1039800060E00E94330F81E080937E0668C208A940
:1039900019A98091500281119EC0109209021092C3
:1039A000080210920702109206021092050281E0AE
:1039B000809304021092030261E082E10E94810E72
:1039C00061E083E10E94810E8091B9008E7F809337
:1039D000B9008091B9008D7F8093B90088E480930D
:1039E000B80085E48093BC001092770680917C0635
:1039F000823018F098E09093770680937A068BE3F4
:103A00009DE00197F1F760917D0682E796E00E94C4
:103A1000C90668EE73E080E090E00E945C1063E00D
:103A200082E796E00E942E078BE4E82E86E4F82ECB
:103A3000C7010197F1F763E082E796E00E942E0745
:103A4000C7010197F1F763E082E796E00E942E0735
:103A500083E592E00197F1F762E082E796E00E9449
:103A60002E0760917706606240E082E796E00E9450
:103A7000470784E08093780640E06CE082E796E0B8
:103A80000E94470740E061E082E796E00E94470716
:103A90009BE3E92E9FE1F92EC7010197F1F782E040
:103AA0008093790640E066E082E796E00E9447074F
:103AB00040E062E082E796E00E944707C701019775
:103AC000F1F710927D0660E082E796E00E94C90659
:103AD00081E08093500240E061E082E796E00E943E
:103AE00047078BE39FE10197F1F77801F7016191B7
:103AF0007F01662309F4B3C16D3009F4B0C16A30A7
:103B000009F4ADC182E796E00E945D07EFCF930113
:103B1000AE01465D5F4FB20188A999A90E94520A81
:103B20009AA588A580936F069093700660E00E9426
:103B3000330F60E0809170060E94330F60E0809147
:103B40006F060E94810E60E0809170060E94810ED7
:103B50002AA13BA1BFE1EB2EB1E0FB2E8101E1E008
:103B600040E0D701DE90CE907D01C901B6010E94F0
:103B70008B2D6115710529F4EE23A1F04330A1F4DA
:103B800011C0E62FEF70F0E0E95FFE4F50816C9DB1
:103B9000C0016D9D900D7C9D900D1124281B390B4B
:103BA000E0E003C05FE301C050E0D8015D938D0108
:103BB0004F5F4430B1F60E940B1580E40E94A814B8
:103BC0000E9484140E940B1580EC0E94A814898125
:103BD0000E94A8148A810E94A8148B810E94A814B4
:103BE0008C810E94A8140E9484140E940B1580915D
:103BF00071068F7080580E94A8140E9484142FC1EF
:103C00009101A301B2010E94520A29813A8168A55B
:103C100079A54AA15BA180916D0690916E06181658
:103C200019060CF01CC14830510508F018C1683065
:103C3000710508F014C180E890E002C09595879561
:103C40006A95E2F7FA01E95EF94F232B19F09089A2
:103C5000892B03C0809590898923808B4F5F2089B1
:103C600060E070E087E196E00E940C06F8C09101E8
:103C7000A301B2010E94520A89819A812AA13BA123
:103C800018A509A5109367060093680630936A0685
:103C90002093690690936C0680936B0681E090E018
:103CA00090936E0680936D0661E0812F0E94330F22
:103CB00061E0809169060E94330F61E080916B069C
:103CC0000E94330F61E080916B060E94810E109379
:103CD000670600936806E7E2F6E01192B6E0E73681
:103CE000FB07D9F700E010E080916D0690916E0619
:103CF00008171907B4F520E04FE0B80187E196E016
:103D00000E940C0617FD0EC080916D0690916E0604
:103D1000081719073CF427E04BE0B80187E196E06B
:103D20000E940C0620E049E0B80187E196E00E947D
:103D30000C06B80187E196E00E94930617FD0EC0BD
:103D400080916D0690916E06081719073CF420E0EB
:103D50004CE0B80187E196E00E940C060F5F1F4F10
:103D6000C3CF1816190644F421E04CE060E070E07F
:103D700087E196E00E940C0680916D0690916E0698
:103D80001816190644F428E04AE060E070E087E184
:103D900096E00E940C0660E070E087E196E00E94E9
:103DA00093065DC00E94BD2560930C0270930D02C6
:103DB00080930E0290930F020E944B0950C083E93A
:103DC00091E00E94C21260910C0270910D028091EC
:103DD0000E0290910F0242E00E94A01389EB91E045
:103DE0000E94C2123CC07F926F923F922F9286E84F
:103DF00091E09F938F9389A98F9388A98F930E94B5
:103E0000CC2F0FB6F894DEBF0FBECDBF28C0A101E6
:103E1000B30188A999A90E948E0A4AA15BA1CA018F
:103E20008C56994FDC012C9130E0F901EE0FFF1F09
:103E30002E0F3F1FF901E65EFD4F208125FD07C0D3
:103E4000FA01E15EFE4F608170E00E941705698112
:103E50007A818AA19BA18C56994F0E94DB0489E943
:103E600091E00E94C21289EB91E00E94C21280E4AC
:103E7000E1E6F2E0DF011D928A95E9F71092A102D6
:103E80000C94A21680917E06882309F418C18FE64F
:103E900094E090935C0280935B0280916C04282EE6
:103EA000312C30925E0220925D028091390590E0C3
:103EB0009093600280935F0280916804853009F0DE
:103EC000FEC08091710490917204885891098D35DB
:103ED000910588F480916C04843041F480917304DE
:103EE000909174048097479708F416C180916C04F0
:103EF000843408F07DC056E0251631040CF4DAC095
:103F000005E714E083E090E09EAF8DAFE5ECCE2EA8
:103F1000EDE9DE2EECE1EE2EE1E8FE2E2DAD3EAD1C
:103F2000221533050CF053C0D8016D917C91F80136
:103F30003497A080B18080E090E00E94372A2B0166
:103F40003C01B50180E090E00E94372A4B015C0102
:103F50002DEC3CEC4CE45FE30E94982A9B01AC0101
:103F6000C301B2010E94322A87FD17C02DEC3CEC40
:103F70004CE45FE3C301B2010E94982A9B01AC01AB
:103F8000C501B4010E94322AE82F880FFF0BEE27EB
:103F9000FF0FEE1FFF27319602C0E0E0F0E0A7011F
:103FA000960163E971E080E091E00E947B2D6F0152
:103FB000FF0FEE08FF08C626D726E826F926EDAD46
:103FC000FEAD3196FEAFEDAF0E5F1F4FA7CFC09293
:103FD0005502D0925602E0925702F092580280E2C7
:103FE00090E090935A02809359028FEF9FEF3EC06A
:103FF0008091730490917404825491098E9708F013
:104000007ACF20E030E080E090E0DC01F901EB586D
:10401000FB4F40815181495051094930510508F009
:104020006ACFF901E958FB4F40815181475151094D
:104030004231510508F088C0880F991FAA1FBB1F85
:1040400081602C5F3F4F2038310501F720E230E0DE
:1040500030935A022093590280935502909356024E
:10406000A0935702B093580283E090E090935202DD
:10407000809351028091550290915602A09157026F
:10408000B09158028F3F9F4FAF4FBF4F99F08CE9CF
:1040900091E00E94C2126091550270915602809187
:1040A00057029091580240E10E945F1389EB91E022
:1040B0000E94C21282E08093680410926C044091C6
:1040C000330450913404609135047091360480912A
:1040D0002F0490913004A0913104B091320448171C
:1040E00059076A077B0709F0ABC14091EF03509174
:1040F000F0036091F1037091F2038091EB039091D2
:10410000EC03A091ED03B091EE03481759076A073D
:104110007B0709F095C125C08091750490917604C4
:104120000997099708F0E2CE10925A0210925902AC
:104130002FEF3FEFA9012093550230935602409391
:1041400057025093580290CF4081518146505109F7
:104150004730510508F0CFCE880F991FAA1FBB1F0B
:1041600070CF80914205882351F01092420582EA77
:1041700091E00E94C21289EB91E00E94C2120E945B
:104180003710009143051091440520914505309169
:104190004605DC01CB01801B910BA20BB30B893CC4
:1041A0009105A105B10508F4DBC00E9437106093AA
:1041B000430570934405809345059093460580918F
:1041C0003A0590913B0597FF03C091958195910920
:1041D00020914705309148052817390741F460E0E0
:1041E00085E00E94810E60E086E00E94810E809151
:1041F0003C0590913D0597FF03C0919581959109EC
:1042000020914705309148052817390741F460E0AF
:1042100089E00E94810E60E08AE00E94810E809118
:104220003E0590913F0597FF03C0919581959109B7
:1042300020914705309148052817390741F460E07F
:1042400087E00E94810E60E088E00E94810E8091EC
:1042500040059091410597FF03C091958195910983
:1042600020914705309148052817390741F460E04F
:104270008CE00E94810E60E08DE00E94810E8091B2
:10428000470590914805019690934805809347050E
:104290008F3F91050CF464C060E085E00E94810EC0
:1042A00060E086E00E94810E60E089E00E94810E5D
:1042B00060E08AE00E94810E60E087E00E94810E4B
:1042C00060E088E00E94810E60E08CE00E94810E38
:1042D00060E08DE00E94810E109248051092470523
:1042E00080913A0590913B05181619061CF461E07F
:1042F00085E004C0892B21F061E086E00E94810EF8
:1043000080913C0590913D05181619061CF461E05A
:1043100089E004C0892B21F061E08AE00E94810ECF
:1043200080913E0590913F05181619061CF461E036
:1043300087E004C0892B21F061E088E00E94810EB3
:104340008091400590914105181619061CF461E012
:104350008CE004C0892B21F061E08DE00E94810E89
:104360008FB7F89480903E0290903F02A090400258
:10437000B09041028FBF61E6E62E65E0F62E09E5BA
:1043800015E0D8012C91222309F44CC01D968D9183
:104390009D910D90BC91A02DB501A401481B590B16
:1043A0006A0B7B0BF80181819281A381B48148174C
:1043B00059076A077B0700F1213019F0223031F0EC
:1043C00011C00184F285E02D09950CC061E0F70170
:1043D0008081811160E0D7016C93F7013197808172
:1043E0000E94810EF80185869686A786B08A81890B
:1043F00092890196928B818BD80115968D919C9113
:10440000169797FD0FC051962D913C915297281702
:10441000390744F01C921B96ED91FC911C97309744
:1044200009F009950D5E1F4FB3E1EB0EF11CE6E0BC
:1044300007311E0709F0A5CF0E94DD0B0C94A816CA
:1044400084E294E00E94EB1180EE93E00E94EB1175
:1044500096CE84E00C944C1962E17AE780E090E01B
:10446000A50194010E946F2B69017A0181E0C81AAD
:10447000D108E108F1089FEFC916D104E104F10465
:10448000E1F0D8F021968CAD9DADAEADBFAD2197DA
:104490007AE0B595A795979587957A95D1F76C01B0
:1044A0007D01E1E0CE1AD108E108F108112311F4F1
:1044B0000C94151987E00C944C1986E00C94FE18A6
:1044C000AFEFCA16D104E104F10409F028F684E044
:1044D0000C94FE18FFEFCF16D104E104F104E1F0D3
:1044E000D8F062E17AE780E090E0A50194010E94B3
:1044F0006F2B69017A01B1E0CB1AD108E108F1080C
:10450000EFEFCE16D104E104F10419F010F00C9491
:10451000011984E00C94161983E00C94161982E0BA
:104520000C944C198091870690918806009711F0A1
:104530000E94552E8091850687FD03C060E00C9493
:10454000330F08956F927F928F929F92AF92BF9296
:10455000CF92DF92EF92FF920F931F93CF93DF934F
:1045600010923A031092390328EE822E23E0922E05
:10457000A12CB12C80923B0390923C03A0923D036E
:10458000B0923E0385E391E0909338038093370324
:1045900085EC90E0909344038093430384EC90E097
:1045A000909346038093450380EC90E090934803FA
:1045B0008093470381EC90E090934A0380934903F2
:1045C00082EC90E090934C0380934B0386EC90E058
:1045D00090934E0380934D03109250031092510319
:1045E000109252031092530305E411E01093250436
:1045F0000093240434E0632E6092260410922F046A
:10460000109230041092310410923204109233044C
:10461000109234041092350410923604109237042C
:10462000109238041092390410923A04C12CD12C03
:1046300040E8E42E4FE3F42EC0923B04D0923C04B9
:10464000E0923D04F0923E0410923F041092400428
:104650001092410410924204C0924304D092440448
:10466000E0924504F09246041092470410924804E8
:104670001092490410924A04C1E0D0E0D093500453
:10468000C0934F0477247A947092520410924B0492
:1046900010924C0410924D0410924E0485E08093C9
:1046A000270489E08093280486E0809329048AE027
:1046B00080932A04109257041092580410925904BF
:1046C00010925A0410925B0410925C0410925D04E4
:1046D00010925E0410925F041092600410926104C4
:1046E00010926204C0926304D0926404E092650464
:1046F000F09266041092670410922B0410922C041E
:1047000010922D0410922E0484E294E00E946F0F08
:10471000B701A60184E294E00E9412111093E10314
:104720000093E0036092E2031092EB031092EC031B
:104730001092ED031092EE031092EF031092F0032B
:104740001092F1031092F2031092F3031092F4030B
:104750001092F5031092F603C092F703D092F8037B
:10476000E092F903F092FA031092FB031092FC031B
:104770001092FD031092FE03C092FF03D09200043A
:10478000E0920104F09202041092030410920404D7
:104790001092050410920604D0930C04C0930B04ED
:1047A00070920E04109207041092080410920904EB
:1047B00010920A0487E08093E3038CE08093E40383
:1047C00088E08093E5038DE08093E6031092130464
:1047D00010921404109215041092160410921704EB
:1047E000109218041092190410921A0410921B04CB
:1047F00010921C0410921D0410921E04C0921F04FB
:10480000D0922004E0922104F0922204109223041A
:104810001092E7031092E8031092E9031092EA0362
:1048200080EE93E00E946F0FB701A60180EE93E047
:104830000E9412111092B3061092D7031092D60361
:104840008092D8039092D903A092DA03B092DB034E
:104850008FE591E09093D5038093D4038091B406C3
:10486000E4E9F6E08B3018F48F5F808301C010829A
:10487000319696E0EF39F907A9F78093B4061092C4
:1048800080061092860610928D0610928E06109267
:104890008F061092900681E080938C0680938906A3
:1048A00010928A0692E090938B0680937F0680E3B5
:1048B00090E090938406809383060E94C02D90938D
:1048C000880680938706009761F020E3FC0111922F
:1048D0002A95E9F780E190E0909382068093810623
:1048E00008C01092840610928306109282061092DD
:1048F000810666E08FE796E00E94E0108FEF8093DC
:10490000690410926B0410927506109274068FE67B
:1049100091E090937306809372068FE380937606FE
:1049200080E180937B0682E080937C0680E8809320
:104930007D06C4E0D0E0D0936806C093670687E0A8
:1049400090E090936A068093690688E090E09093E7
:104950006C0680936B0681E090E090936E068093E6
:104960006D0661E084E00E94330F61E0809169068A
:104970000E94330F61E080916B060E94330F61E06B
:1049800080916B060E94810ED0936806C0936706E3
:10499000E7E2F6E0119286E0E736F807D9F7C0E0E3
:1049A000D0E080916D0690916E06C817D907ACF5DE
:1049B00020E04FE0BE0187E196E00E940C06D7FDA3
:1049C0000EC080916D0690916E06C817D9073CF411
:1049D00027E04BE0BE0187E196E00E940C0620E054
:1049E00049E0BE0187E196E00E940C06BE0187E126
:1049F00096E00E949306D7FD0EC080916D069091BF
:104A00006E06C817D9073CF420E04CE0BE0187E1F0
:104A100096E00E940C062196C4CFE9E5F5E01082ED
:104A2000739696E0E731F907D1F71092430510929B
:104A300044051092450510924605109248051092C3
:104A4000470588E0E9E2F1E0A1E5B5E001900D92CB
:104A50008A95E1F7C1E5D5E08E0161E089910E9478
:104A6000330F60E0F80180810E94810EF5E0C935C6
:104A7000DF0791F784E294E00E945C1240E050E08E
:104A800068E473E484E294E00E94121180EE93E003
:104A90000E945C1240E050E068E473E480EE93E032
:104AA0000E941211E091B306EA3068F481E08E0FA3
:104AB0008093B306F0E0EE0FFF1FE156F94F84E25A
:104AC00094E091838083E091B306EA3068F481E05A
:104AD0008E0F8093B306F0E0EE0FFF1FE156F94F03
:104AE00080EE93E0918380831092420580E090EB0A
:104AF000ACE5B6E48093490590934A05A0934B0535
:104B0000B0934C0583E29BEDA9EFBDE380934D0587
:104B100090934E05A0934F05B0935005DF91CF9130
:104B20001F910F91FF90EF90DF90CF90BF90AF90CB
:104B30009F908F907F906F900895EF920F931F93A7
:104B4000CF93DF93E80147FD02C034E001C034E1B8
:104B5000E42F440FFF0BF7FF03C0F195E195F10936
:104B6000E32E022F2E2FAE010E943E26CE01DF91B2
:104B7000CF911F910F91EF900895662777270C949E
:104B8000CC27FC0188279927E89421912032E9F36A
:104B9000293010F02E30C8F32B3241F02D3239F489
:104BA000689404C00E941C26820F911D21912053FD
:104BB0002A30C0F31EF4909581959F4F0895FA0115
:104BC000A191B081009719F41097E1F0CD01DC01BB
:104BD000CD010D90002011F4C00113C0FB01219103
:104BE000222319F02015D9F7F3CFFB0121912015CD
:104BF00019F41E92119606C02223C1F70D900020D1
:104C0000A1F7D001FA01A193B0830895453251056F
:104C100020F4423010F00C941126FB011082CB01DD
:104C20000895BB274A3031F4992322F4BDE29095D0
:104C300081959F4F0C9425267AE0979F902D879F12
:104C4000802D910D11240895BB27FB015527AA271C
:104C5000880F991FAA1FA41710F0A41B8395505109
:104C6000B9F7A05DAA3308F0A95DA193009779F781
:104C7000B111B1931192CB010C94222A4F925F9201
:104C80006F927F929F92AF92BF92CF92DF92EF92FC
:104C9000FF920F931F93CF93DF93CDB7DEB7299782
:104CA0000FB6F894DEBF0FBECDBF6A01122FB02E33
:104CB0002BE3201720F0FF24F394F00E02C0BCE396
:104CC000FB2E0F2D27E0AE014F5F5F4F0E94292979
:104CD000AC018981982F9970913031F0E1FC06C0C8
:104CE000E0FE06C090E205C09DE203C09BE201C069
:104CF00090E0EE2DE07183FF3CC0911102C083E093
:104D000001C084E0811718F4212F281B01C020E086
:104D1000E1110BC0F601822F30E2882319F03193A4
:104D20008150FBCFC20ED11C20E0992329F0D6017F
:104D30009C93F60131966F01C6010396E2FE0AC00C
:104D40003EE4D6013C9341E411964C9311971296A0
:104D50003C9306C03EE6F601308341E64183328350
:104D6000FC01322F40E2332309F442C04193315019
:104D7000FACF82FF44C0911102C083E001C084E0F9
:104D8000811718F4212F281B01C020E0E1110BC06E
:104D9000F601822F30E2882319F031938150FBCF46
:104DA000C20ED11C20E0992329F0D6019C93F60174
:104DB00031966F01C6010396E2FE0BC039E4D601BD
:104DC0003C933EE411963C93119736E412963C9343
:104DD00007C039E6F60130833EE6318336E632839A
:104DE000FC01322F40E2332319F041933150FBCFC5
:104DF000FC01E20FF11D10828EEF9FEFB7C0F1E0D2
:104E0000911101C0F0E06F2F70E01416150624F424
:104E10009A012F5F3F4F02C021E030E0260F371F7D
:104E2000BB2029F06B2D70E06F5F7F4F02C060E008
:104E300070E0260F371F612F70E0261737071CF42C
:104E4000121B212F01C020E03E2D387159F4D601EC
:104E5000322F60E2332319F06D933150FBCFC20E35
:104E6000D11C20E0FF2331F0D6019C93B6016F5F87
:104E70007F4F6B01E1110BC0F601922F30E39923B4
:104E800019F031939150FBCFC20ED11C20E09F2D21
:104E9000940F3A81782F7071A72E84FF03C03133AD
:104EA00009F49150191624F4993018F098E001C0D3
:104EB00091E0E42F852F57FF02C0E0E080E06E2FE5
:104EC000782FE0E0F0E0AEE29A2E3A01691A71081C
:104ED0002A01461A570A0B2D10E011950195110968
:104EE0006F3F8FEF780729F4D6019C92C601019697
:104EF0006C014617570784F0661677066CF47F013D
:104F0000E40CF51CA1E0B0E0AC0FBD1FEA0EFB1EE7
:104F1000D7011196BC9002C090E3B92E615071097F
:104F20003196C60101967C016017710724F0D60105
:104F3000BC926C01D5CF6417750741F4363320F469
:104F4000353321F4A11002C081E3B82EF601B082FE
:104F5000F701822F90E2882319F091938150FBCFC3
:104F6000F701E20FF11D108280E090E029960FB664
:104F7000F894DEBF0FBECDBFDF91CF911F910F918F
:104F8000FF90EF90DF90CF90BF90AF909F907F9079
:104F90006F905F904F900895A0E0B0E0E2EDF7E2EF
:104FA0000C949D2BEC017B016115710519F0DB015F
:104FB0008D939C938E010F5F1F4F7880872D90E01B
:104FC0000E94012A892B11F0E801F4CFBDE27B1287
:104FD00005C00F5F1F4F7980C1E008C0EBE27E1271
:104FE00004C08E010E5F1F4F7980C0E06801F1E0C0
:104FF000CF1AD10843E050E060E970E0C6010E949A
:105000000A2A892BF1F4680122E0C20ED11C45E086
:1050100050E06BE870E0C6010E940A2A892B21F457
:10502000680187E0C80ED11CE114F10419F0D70122
:10503000CD92DC92C111FFC060E070E080E89FE794
:1050400003C143E050E068E870E0C6010E940A2A0C
:10505000892B51F4E114F10409F4F2C00E5F1F4FE3
:10506000F70111830083ECC0680160E070E0CB01C0
:1050700000E010E0F601D0EDD70DDA3058F52C2F16
:105080002260622E2C2F2870C2FF05C0211128C07B
:105090000F5F1F4F25C0222311F001501109A5E019
:1050A000B0E09B01AC010E948E2B4B015C01880C8F
:1050B000991CAA1CBB1CC501B4016D0F711D811D7B
:1050C000911D6839A9E97A078A07A9E19A0740F092
:1050D000C66005C0DE3F51F4C3FD44C0C8606C2EFD
:1050E000BFEFCB1ADB0A7080C62DC4CF2D2F2F7DCA
:1050F0002531C1F540814D3211F4C06106C04B32FB
:1051000021F0319621E030E006C03296D6011196AA
:105110004C9122E030E0A0EDA40FAA3018F0E21B81
:10512000F30B20C040E050E04038BCE05B075CF48B
:105130009A01220F331F220F331F420F531F440FB8
:10514000551F4A0F511D3196DF0111972C91A0ED8B
:10515000A20FAA3048F3C4FF03C0519541955109ED
:10516000040F151FC1FF07C0E114F10421F03197AE
:10517000D701ED93FC930E94372AC370C33019F016
:105180006B017C0106C06B017C01F7FAF094F7F823
:10519000F09420E030E0A901C701B6010E94322A54
:1051A000882309F445C017FF06C011950195110920
:1051B000C7EAD0E002C0CFEBD0E05E01B8E1AB1AA5
:1051C000B1084601BE2DAF2D90E2E92EF12C0E154F
:1051D0001F0584F0FE012591359145915491B4014C
:1051E0008B2F9A2F0E94982A4B01B82FA92F0E19A6
:1051F0001F09EDCF2497F594E794CA15DB0539F71D
:105200006401EB2EFA2E8E2D880F8F2D881F8F3F75
:1052100049F020E030E0A901C701B6010E94322A1E
:10522000811106C082E290E09093B6068093B506A5
:10523000C701B60109C060E070E080E89FEF04C0DC
:1052400060E070E080EC9FE7CDB7DEB7EEE00C9455
:10525000B92B283008F027E03327DA01990F311DE8
:1052600087FD916000966105710539F432602E5F0B
:105270003D9330E32A95E1F708959F3F30F0803861
:105280007105610509F03C5F3C5F3D93913008F08A
:105290008068911DDF93CF931F930F93FF92EF923E
:1052A000192F987F9695E92F96959695E90FFF27E8
:1052B000E35EFE4F99273327EE24FF24A701E70181
:1052C00005900894079428F4360FE71EF81E491F2E
:1052D000511D660F771F881F991F0694A1F705902F
:1052E000079428F4E70EF81E491F561FC11D770FBB
:1052F000881F991F661F0694A1F70590079428F44C
:10530000F80E491F561FC71FD11D880F991F661F12
:10531000771F0694A1F70590079420F4490F561FB4
:10532000C71FD81F990F661F771F881F0694A9F7FC
:1053300084911095177041F0D695C795579547956C
:10534000F794E7941A95C1F7E3ECF0E068941590B0
:10535000159135916591959105907FE27395E118CE
:10536000F10A430B560BC90BD009C0F7E10CF11E33
:10537000431F561FC91FD01D7EF4703311F48A9548
:10538000E6CFE894015030F0080F0AF40027021726
:1053900008F4202F2395022F7A3328F079E37D93A8
:1053A0002A95E9F710C07D932A9589F6069497957A
:1053B0006795379517951794E118F10A430B560B2B
:1053C000C90BD00998F023957E9173957A3308F034
:1053D00070E37C932013B8F77E9170617D9330F079
:1053E000839571E37D9370E32A95E1F71124EF90A3
:1053F000FF900F911F91CF91DF91992787FD909595
:10540000089591110C94052B803219F08950855024
:10541000C8F70895FB01DC014150504088F08D91A0
:1054200081341CF08B350CF4805E659161341CF086
:105430006B350CF4605E861B611171F3990B089556
:10544000881BFCCFDC01FC01672F71917723E1F70A
:10545000329704C07C916D9370836291AE17BF0741
:10546000C8F308950E94742A08F481E00895E8942E
:1054700009C097FB3EF490958095709561957F4F9C
:105480008F4F9F4F9923A9F0F92F96E9BB2793954A
:10549000F695879577956795B795F111F8CFFAF45A
:1054A000BB0F11F460FF1BC06F5F7F4F8F4F9F4F8B
:1054B00016C0882311F096E911C0772321F09EE8E9
:1054C000872F762F05C0662371F096E8862F70E04F
:1054D00060E02AF09A95660F771F881FDAF7880F29
:1054E0009695879597F90895990F0008550FAA0B7F
:1054F000E0E8FEEF16161706E807F907C0F01216E7
:105500001306E407F50798F0621B730B840B950BE9
:1055100039F40A2661F0232B242B252B21F408953E
:105520000A2609F4A140A6958FEF811D811D0895DB
:105530000E94AB2A0C941F2B0E94112B38F00E9462
:10554000182B20F0952311F00C94082B0C940E2BA3
:1055500011240C94532B0E94302B70F3959FC1F3B0
:10556000950F50E0551F629FF001729FBB27F00D11
:10557000B11D639FAA27F00DB11DAA1F649F662766
:10558000B00DA11D661F829F2227B00DA11D621FB5
:10559000739FB00DA11D621F839FA00D611D221F6F
:1055A000749F3327A00D611D231F849F600D211D53
:1055B000822F762F6A2F11249F5750409AF0F1F0D6
:1055C00088234AF0EE0FFF1FBB1F661F771F881F3F
:1055D00091505040A9F79E3F510580F00C94082B44
:1055E0000C94532B5F3FE4F3983ED4F38695779564
:1055F0006795B795F795E7959F5FC1F7FE2B880FE5
:10560000911D9695879597F908959927882708956C
:1056100097F99F6780E870E060E008959FEF80EC65
:10562000089500240A941616170618060906089508
:1056300000240A9412161306140605060895092E6E
:105640000394000C11F4882352F0BB0F40F4BF2BDD
:1056500011F460FF04C06F5F7F4F8F4F9F4F08951D
:1056600057FD9058440F551F59F05F3F71F0479513
:10567000880F97FB991F61F09F3F79F087950895F8
:10568000121613061406551FF2CF4695F1DF08C017
:10569000161617061806991FF1CF86957105610534
:1056A00008940895E894BB2766277727CB0197F9DC
:1056B0000895F999FECF92BD81BDF89A992780B5DA
:1056C0000895262FF999FECF1FBA92BD81BD20BD46
:1056D0000FB6F894FA9AF99A0FBE01960895052E1E
:1056E00097FB1EF400940E94862B57FD07D00E9462
:1056F000D02B07FC03D04EF40C94862B509540958C
:10570000309521953F4F4F4F5F4F0895909580956D
:10571000709561957F4F8F4F9F4F08950E94F22B98
:10572000A59F900DB49F900DA49F800D911D1124F5
:1057300008952F923F924F925F926F927F928F9235
:105740009F92AF92BF92CF92DF92EF92FF920F9310
:105750001F93CF93DF93CDB7DEB7CA1BDB0B0FB61A
:10576000F894DEBF0FBECDBF09942A8839884888D7
:105770005F846E847D848C849B84AA84B984C8846D
:10578000DF80EE80FD800C811B81AA81B981CE0F64
:10579000D11D0FB6F894DEBF0FBECDBFED01089549
:1057A000A1E21A2EAA1BBB1BFD010DC0AA1FBB1F25
:1057B000EE1FFF1FA217B307E407F50720F0A21B97
:1057C000B30BE40BF50B661F771F881F991F1A9404
:1057D00069F760957095809590959B01AC01BD012E
:1057E000CF010895A29FB001B39FC001A39F700D88
:1057F000811D1124911DB29F700D811D1124911DD9
:1058000008955058BB27AA270E94192C0C941F2BCF
:105810000E94112B38F00E94182B20F039F49F3F82
:1058200019F426F40C940E2B0EF4E095E7FB0C947F
:10583000082BE92F0E94302B58F3BA176207730721
:105840008407950720F079F4A6F50C94522B0EF4FA
:10585000E0950B2EBA2FA02D0B01B90190010C0180
:10586000CA01A0011124FF27591B99F0593F50F498
:10587000503E68F11A16F040A22F232F342F4427F0
:10588000585FF3CF469537952795A795F0405395E8
:10589000C9F77EF41F16BA0B620B730B840BBAF0B8
:1058A0009150A1F0FF0FBB1F661F771F881FC2F723
:1058B0000EC0BA0F621F731F841F48F48795779537
:1058C0006795B795F7959E3F08F0B0CF9395880FF1
:1058D00008F09927EE0F9795879508950E94822CDE
:1058E0000C941F2B0E94182B58F00E94112B40F093
:1058F00029F45F3F29F00C94082B51110C94532B81
:105900000C940E2B0E94302B68F39923B1F355238E
:1059100091F3951B550BBB27AA27621773078407C2
:1059200038F09F5F5F4F220F331F441FAA1FA9F358
:1059300035D00E2E3AF0E0E832D091505040E69546
:10594000001CCAF72BD0FE2F29D0660F771F881FA7
:10595000BB1F261737074807AB07B0E809F0BB0B9A
:10596000802DBF01FF2793585F4F3AF09E3F5105AE
:1059700078F00C94082B0C94532B5F3FE4F3983E83
:10598000D4F3869577956795B795F7959F5FC9F797
:10599000880F911D9695879597F90895E1E0660F18
:1059A000771F881FBB1F621773078407BA0720F091
:1059B000621B730B840BBA0BEE1F88F7E0950895FA
:1059C0000E94E72C6894B1110C94532B08950E9407
:1059D000382B88F09F5798F0B92F9927B751B0F01E
:1059E000E1F0660F771F881F991F1AF0BA95C9F763
:1059F00014C0B13091F00E94522BB1E008950C9484
:105A0000522B672F782F8827B85F39F0B93FCCF336
:105A1000869577956795B395D9F73EF490958095DF
:105A2000709561957F4F8F4F9F4F08950E94742A04
:105A300008F48FEF089519F416F40C940E2B0C94BF
:105A4000662D0E94382BB8F39923C9F3B6F39F57FC
:105A5000550B87FF0E94742D0024A0E640EA9001B8
:105A600080585695979528F4805C660F771F881F9D
:105A700020F026173707480730F4621B730B840B9E
:105A8000202931294A2BA6951794079420253125E2
:105A90004A2758F7660F771F881F20F02617370709
:105AA000480730F4620B730B840B200D311D411D30
:105AB000A09581F7B901842F9158880F9695879505
:105AC00008950E94742A880B990B08959F3F31F026
:105AD000915020F4879577956795B795880F911D1C
