:100000000C9414010C943C010C943C010C943C01A4
:100010000C943C010C943C010C943C010C94850F15
:100020000C943C010C9409070C943C010C940B09B2
:100030000C943C010C943C010C943C010C943C014C
:100040000C9418110C943C010C94FA0E0C94D40EE0
:100050000C943C010C943C010C943C010C943C012C
:100060000C94C5090C943C0156015C0162016801C5
:100070006E0174017A01B502BC02C302CA02D10248
:10008000E802D802E802DF024E414E494E49545977
:10009000494E46CDCCCC3D0AD7233C17B7D1387753
:1000A000CC2B329595E6241FB14F0A000020410069
:1000B00000C84200401C4620BCBE4CCA1B0E5AAEB3
:1000C000C59D7400407A10F35A00A0724E180900C2
:1000D00010A5D4E80000E87648170000E40B5402AD
:1000E0000000CA9A3B000000E1F5050000809698E8
:1000F00000000040420F000000A086010000001038
:100100002700000000E80300000000640000000079
:10011000000A00000000000100000000002C76D85A
:1001200088DC674F0823DFC1DFAE59E1B1B796E540
:10013000E3E453C63AE651997696E8E6C28426EBA4
:10014000898C9B62ED407C6FFCEFBC9C9F40F2BAB7
:10015000A56FA5F490055A2AF75C936B6CF9676D4F
:10016000C11BFCE0E40D47FEF520E6B500D0ED90A4
:100170002E0300943577050080841E080000204E71
:100180000A000000C80C333333330F986E1283110A
:1001900041EF8D2114893BE65516CFFEE6DB18D1E1
:1001A000844B381BF77C1D901DA4BBE424203284B3
:1001B000725E228100C9F124ECA1E53D27636469E8
:1001C0006E6F70737578585B000000000025002882
:1001D000002B000200000000240027002A0000007D
:1001E00000080002010000030407000000000000F6
:1001F000000000000000230026002900040404047D
:1002000004040404020202020202030303030303C0
:10021000010204081020408001020408102001029D
:1002200004081020F225E22511241FBECFEFD8E0EC
:10023000DEBFCDBF11E0A0E0B1E0ECE2FDE602C020
:1002400005900D92AE3EB107D9F727E0AEEEB1E0D2
:1002500001C01D92AA39B207E1F711E0C3E1D1E074
:1002600004C02197FE010E943331C231D107C9F782
:100270000E947E170C9489360C940000CF93DF9374
:100280004770552766277727FA013197EC01A88137
:10029000B981E730F10520F4EC5CFF4F0C94333169
:1002A0001496ED91FC91159761E029C01496ED919B
:1002B000FC91159765E023C01496ED91FC9115977C
:1002C00064E01DC01496ED91FC91159766E017C08F
:1002D0001496ED91FC91159762E011C01496ED9182
:1002E000FC9115976AE00BC01496ED91FC9115975F
:1002F00068E005C01496ED91FC91159769E0DF91D7
:10030000CF910994CF93DF93EC01CB01BA0126E0A2
:1003100030E040E050E00E94032F6230710581051B
:10032000910559F18CF46115710581059105F1F084
:100330006130710581059105C1F5E881F98104807D
:10034000F581E02D65E02DC06430710581059105D2
:1003500011F1D4F0653071058105910531F5E88121
:10036000F9810480F581E02D66E01BC0E881F98108
:100370000480F581E02D64E014C0E881F9810480F7
:10038000F581E02D61E00DC0E881F9810480F581FF
:10039000E02D63E006C0E881F9810480F581E02D5D
:1003A00062E0CE01DF91CF910994DF91CF91089562
:1003B0004370552766277727DC01ED91FC91048077
:1003C000F581E02D423051056105710571F0433032
:1003D00051056105710559F04130510561057105FF
:1003E00011F065E005C066E003C06AE001C069E0A5
:1003F0000994CF93DF93EC01CB01BA0123E030E005
:1004000040E050E00E94032F6130710581059105A5
:1004100081F0623071058105910591F0672B682BA1
:10042000692BC1F4E881F9810480F581E02D64E055
:100430000DC0E881F9810480F581E02D61E006C0FE
:10044000E881F9810480F581E02D62E0CE01DF9141
:10045000CF910994DF91CF91089543705527662776
:100460007727DC01ED91FC910480F581E02D42308D
:1004700051056105710571F0433051056105710544
:1004800059F0413051056105710511F062E005C078
:1004900063E003C061E001C060E009940F931F9323
:1004A000CF93DF93EC01E881F9810480F581E02DA1
:1004B0008C010D5B1F4FD8018C91811102C060E04F
:1004C00001C062E0CE010995E881F9810480F581DF
:1004D000E02DD8018C91811102C061E001C063E080
:1004E000CE010995EBA5FCA5E230F10538F0EE0F41
:1004F000FF1FEE0FFF1F35973197F1F7E881F98164
:100500000480F581E02DD8018C91811102C060E05A
:1005100001C062E0CE01DF91CF911F910F9109944C
:10052000CF93DF93EC0120E030E0A9016B897C8957
:100530008D899E890E94AA3018161CF4EFA5F8A98F
:1005400002C0E9A9FAA9DF91CF9109940F931F93F3
:10055000DC011296EC910E2F10E009301105C0F568
:10056000F801E55CFF4F0C943331DC01ED91FC9117
:100570000084F185E02D29C0DC01ED91FC9102841D
:10058000F385E02D22C0DC01ED91FC910484F5851A
:10059000E02D1BC0DC01ED91FC910684F785E02D78
:1005A00014C0DC01ED91FC910088F189E02D0DC0B3
:1005B000DC01ED91FC910288F389E02D06C0DC019D
:1005C000ED91FC910488F589E02D1F910F9109941C
:1005D0001F910F91089585ED8093BC008091BC0020
:1005E00084FDFCCF10920B0208954091C602262F85
:1005F00030E0240F311D21323105DCF420910B0253
:100600002430C9F4FC0180E090E0861758F4309162
:10061000C6022191DC01AC55BD4FA30FB11D2C9337
:100620000196F3CF8091C602680F6093C60280E006
:10063000089581E0089582E00895089581E090E0B2
:1006400030910F0220910E02321710F480E090E0FA
:10065000919581959109089580910F0290910E02D4
:10066000891730F48F5F80930F0280E090E0089547
:100670008FEF9FEF089580910E0290E020910F027E
:10068000821B91090895CF92DF92EF92FF920F9310
:100690001F93CF93DF937C01262F972F8A018091A0
:1006A0000F03882391F0C62FD72F6E01C40ED51EDD
:1006B000CC15DD0571F06991D701ED91FC910190A8
:1006C000F081E02DC7010995F3CF642F822F0E949E
:1006D000F502C801DF91CF911F910F91FF90EF902C
:1006E000DF90CF900895CF93DF931F92CDB7DEB701
:1006F000698320910F032223D1F020910C02203234
:1007000040F021E030E0FC013383228380E090E080
:1007100015C080910D02E82FF0E0E05FFC4F998159
:1007200090838F5F80930D0280930C0205C061E07F
:10073000CE0101960E94F50281E090E00F90DF91DA
:10074000CF910895CF93DF93FC012281222359F1A9
:10075000EC0161E083810E94071061E08C810E94BE
:1007600007108A81843011F0883039F461E08D817E
:100770000E94071061E08E8106C0833011F0863040
:1007800021F461E08D810E9407108EA58F3F59F002
:1007900061E00E9407106DA581E068278EA5DF91BA
:1007A000CF910C94550FDF91CF910895CF93DF93A4
:1007B000FC0122812223A9F0EC010190F081E02DBF
:1007C0000480F581E02D60E009958EA58F3F49F00A
:1007D00061E00E9407106DA58EA5DF91CF910C946A
:1007E000550FDF91CF910895CF92DF92EF92FF9254
:1007F0000F931F93CF93DF93FC012281243041F0AC
:10080000283031F0233031F0263021F012E003C0DF
:1008100014E001C013E0EC012796E12CF12CC62E68
:10082000D12C01E0C6010E2C02C0959587950A9443
:10083000E2F7688180FD6027FE01349780810E9485
:10084000550FFFEFEF1AFF0A2196E11658F3DF91DB
:10085000CF911F910F91FF90EF90DF90CF9008956F
:100860004F925F926F927F92AF92BF92CF92DF9240
:10087000EF92FF920F931F93CF93DF93EC015A01F6
:100880008B012B893C894D895E89B501C8010E9485
:10089000C62D882309F451C0CF88D88CE98CFA8CF6
:1008A0002601370177FA709477F87094A3019201CA
:1008B000B501C8010E94C62D87FD0BC0A701960196
:1008C000B501C8010E94AA3018162CF06501780104
:1008D00002C07301620120E030E0A901C701B60146
:1008E0000E94C62D811105C01BA21CA21DA21EA222
:1008F00020C0A701960160E074E284E799E40E94B9
:1009000002309F770E947B306BA37CA38DA39EA3B4
:100910005E0183E4A80EB11C11E020E030E0A901E3
:10092000C701B6010E94AA3018160CF010E0F501BC
:100930001083CB8ADC8AED8AFE8ADF91CF911F91EA
:100940000F91FF90EF90DF90CF90BF90AF907F908E
:100950006F905F904F9008952F923F924F925F92C9
:100960006F927F928F929F92AF92BF92CF92DF92BF
:10097000EF92FF920F931F93CF93DF9300D000D09D
:10098000CDB7DEB71C01FC0187849088A188B288AE
:1009900083859485A585B685881A990AAA0ABB0A13
:1009A00063897489858996899B01AC010E942C2EEC
:1009B0006B017C01F101638D748D858D968D9B019A
:1009C000AC010E94962F9B01AC01C701B6010E94A9
:1009D00002300E94743081149104A104B104A1F486
:1009E00062307105810591050CF07CC0F10113A204
:1009F00014A215A216A2138A148A158A168A13AA9B
:100A000014AA15AA16AA03C1F10103A914A925A9BC
:100A100036A9ED5BFF4F181419041A041B04FCF4EB
:100A200010161106120613064CF4681579058A058E
:100A30009B054CF52081211155C025C001151105DC
:100A40002105310509F44EC0681579058A059B0515
:100A50000CF048C08081882309F444C037C01016C8
:100A6000110612061306F4F400271127980108193D
:100A700019092A093B0960177107820793071CF4BB
:100A80002081222379F19B01AC0188279927DC0181
:100A9000821B930BA40BB50BF10183AB94ABA5ABFD
:100AA000B6AB20C00115110521053105D9F0CC24C4
:100AB000DD247601C818D908EA08FB086C157D0505
:100AC0008E059F057CF4808181110CC030952095A6
:100AD000109501951F4F2F4F3F4FF10103AB14AB02
:100AE00025AB36ABF101C3A8D4A8E5A8F6A88101CF
:100AF0000D5B1F4FC114D104E104F10491F487A9E7
:100B000090ADA1ADB2AD83AF94AFA5AFB6AF81E06C
:100B1000181419041A041B040CF080E0F8018083F7
:100B200040C0F10183AC94ACA5ACB6ACA501940176
:100B3000C501B4010E94962F2B013C01C701B601EB
:100B40000E94CD2D20E030E040E850E40E942C2EA1
:100B500020E030E040E85FE30E94962F9B01AC016B
:100B6000C301B2010E9402309B01AC01C501B40176
:100B70000E94952F4B015C01F101FF96408051804E
:100B8000628073809201A3010E94AA30181614F0AB
:100B900042015301A401B501F10143AF54AF65AF68
:100BA00076AFFFEFCF1ADF0AEF0AFF0AF101C3AAFF
:100BB000D4AAE5AAF6AA23AD34AD45AD56ADCA0117
:100BC000B90129833A834B835C830E947B30F10116
:100BD00063A374A385A396A329813A814B815C8189
:100BE00060E074E284E799E40E940230F101638BD3
:100BF000748B858B968BF8012081211108C0DC0154
:100C0000CB01B058F101838B948BA58BB68B0F90E1
:100C10000F900F900F90DF91CF911F910F91FF9048
:100C2000EF90DF90CF90BF90AF909F908F907F908C
:100C30006F905F904F903F902F900895CF92DF92EA
:100C4000EF92FF920F931F93CF93DF93EC016A0112
:100C50007B019A01AB016F89788D898D9A8D0E94F5
:100C6000C62D882309F446C0CF8AD88EE98EFA8E25
:100C70008E01015C1F4FA701960160E074E284E7DA
:100C800099E40E940230F801608371838283938328
:100C90008BA99CA9ADA9BEA9181619061A061B0690
:100CA0004CF56B897C898D899E899B01AC010E94E2
:100CB0002C2E6B017C016B8D7C8D8D8D9E8D9B010F
:100CC000AC010E94962F9B01AC01C701B6010E94A6
:100CD00002300E9474306BAB7CAB8DAB9EABCE010F
:100CE000DF91CF911F910F91FF90EF90DF90CF9008
:100CF0000C94AC04DF91CF911F910F91FF90EF9076
:100D0000DF90CF900895CF93FC01C0818FEF8C0FBF
:100D10008B3098F520E437E0DB010E94393124EB79
:100D200030E040E050E00E94032FDA01C901805E0C
:100D30009D4FAF4FBF4F8032F2E09F0744F09C01C0
:100D4000213689E038072CF020E639E002C020E2A5
:100D500032E028503109EC2FF0E0C901880F892FCB
:100D6000881F990BAF01440F551FE40FF51FE05E7C
:100D7000FD4F8183220F20952283CF9108950F93F9
:100D80001F93CF938C01C62F80913303811123C011
:100D900080E090E03BE027E5FC01E05EFD4F34831E
:100DA0002583039681329105B9F78BE18093210267
:100DB0001092320310923103109270001092B00022
:100DC00082E08093B1001092B20081E087BB8093F3
:100DD000700080933303D8018C918823A1F061E0E7
:100DE0008C2F0E940710D801EC91F0E0CF01880F02
:100DF000991FE80FF91FE05EFD4FCF718081807E63
:100E0000C82BC062C083F8018081CF911F910F91E0
:100E100008951F920F920FB60F9211242F933F93B4
:100E20004F935F936F937F938F939F93AF93BF93F2
:100E3000EF93FF93809131038F5F80933103209173
:100E400031038091320390E0FC01EE0FFF1F8E0F03
:100E50009F1FFC01E05EFD4F818128130FC0809130
:100E6000320390E0FC01EE0FFF1F8E0F9F1FFC016D
:100E7000E05EFD4F82818093B20065C02091310316
:100E80008091320390E0FC01EE0FFF1F8E0F9F1F39
:100E9000FC01E05EFD4F8181821708F054C0809113
:100EA000320390E0FC01EE0FFF1F8E0F9F1FFC012D
:100EB000E05EFD4F808185FF10C08091320390E09D
:100EC000FC01EE0FFF1F8E0F9F1FFC01E05EFD4F28
:100ED000808160E08F710E94550F809132038F5F97
:100EE00080933203109231031092B200809132034A
:100EF000882319F1809132038C30F8F48091320309
:100F000090E0FC01EE0FFF1F8E0F9F1FFC01E05EC3
:100F1000FD4F808185FF17C08091320390E0FC0176
:100F2000EE0FFF1F8E0F9F1FFC01E05EFD4F8081C3
:100F300061E08F710E94550F06C0809132038C30A2
:100F400010F010923203FF91EF91BF91AF919F91FA
:100F50008F917F916F915F914F913F912F910F9062
:100F60000FBE0F901F9018952F923F924F925F9255
:100F70006F927F928F929F92AF92BF92CF92DF92A9
:100F8000EF92FF920F931F93CF93DF9300D0CDB7D3
:100F9000DEB78C0149832A83660F771FF801EA5A6E
:100FA000FF4FE080F180EE0CFF1CF801CF01801BA9
:100FB000910B8E159F0514F41192F8CF8981F801D9
:100FC000E60FF71F81838A818083580184E5A80E8C
:100FD000B11C60E0F50180810E94550FE00EF11E0A
:100FE0004801F2E58F0E911C380180E5680E711CF6
:100FF000C701801B910B1816190624F5F701C29042
:101000007F01F4013080F301208087E0482E512CCD
:10101000D12CB601042C02C0759567950A94E2F7AD
:1010200061707727822D0E94550F61E0832D0E9409
:10103000550F60E0832D0E94550FF1E04F1A5108C3
:1010400040F7D6CF61E0F50180810F900F90DF91DE
:10105000CF911F910F91FF90EF90DF90CF90BF90B5
:10106000AF909F908F907F906F905F904F903F9048
:101070002F900C94550FCF92DF92EF92FF920F9327
:101080001F93CF93DF9377FD23C0FC01EA5AFF4FF4
:101090002081318162177307DCF4EB017C016B0165
:1010A00083E0CC0CDD1C8A95E1F701E010E0F8014B
:1010B000EC0DFD1DEE0DFF1D178620E0402FBE013B
:1010C000C7010E94B4070F5F1F4F0930110579F760
:1010D000DF91CF911F910F91FF90EF90DF90CF9014
:1010E0000895CF93FC01C48121E020930F03C093A6
:1010F000300310920D0210920C028385682B8AED4A
:1011000093E00E94730380910C02813208F046C084
:1011100090910B029111FCCF92E090930B0291E021
:1011200090930A029FEF90930E0310920D03809309
:101130000C03A0E1B3E02CEE32E0F9019E2F921BEC
:10114000981718F49D919193F9CF1092EB0280912A
:10115000EB02CC0FC82BC093EB02809109028130C7
:1011600061F4109209028091EB028093BB008091A0
:10117000BC0083FDF8CF85EC01C085EE8093BC00F8
:1011800080910B028230E1F380910E038F3F31F0AA
:1011900080910E03803211F080910E0310920D02A7
:1011A00010920C0210920F03CF9108950F931F938A
:1011B000CF938C01C62F0E9471086C2F6061C8010B
:1011C0000E9471086C2F6F7EC8010E94710883EC29
:1011D00090E00197F1F7CF911F910F9108950F9330
:1011E0001F93CF93DF938C01D62FC42F62956F701E
:1011F000642B0E94D6086D2F6F706C2BC801DF9195
:10120000CF911F910F910C94D60840E40E94EF08F3
:1012100080E090E008951F920F920FB60F92112474
:101220002F933F934F935F936F937F938F939F93EE
:10123000AF93BF93EF93FF93809167050E942C0FAC
:1012400020916B0530916C052F5F3F4F30936C05FB
:1012500020936B0590916A05953618F096E090936F
:101260006605909166059430C9F128F4923069F0D2
:101270009330D1F05EC0953009F451C0963009F03A
:1012800058C091E09093370651C0811152C020910F
:101290006B0530916C052436310508F442C010927C
:1012A000370610926A051CC0813009F042C0E091F7
:1012B0006A0591E09E0F90936A05F0E020916B051E
:1012C00030916C05EE0FFF1FEA59FA4F30872783E4
:1012D00010926C0510926B0594E029C0811117C023
:1012E000E0916A0591E09E0F90936A05F0E02091ED
:1012F0006B0530916C05EE0FFF1FEA59FA4F3087EE
:10130000278310926C0510926B0593E010C020911A
:101310006B0530916C052536310558F007C08111F9
:1013200008C010926C0510926B0503C095E0909375
:101330006605909169059923B9F081110AC08091E1
:101340006805882321F08091680561E009C02D9A25
:101350000BC080916805882331F08091680560E0BA
:101360000E94550F01C02D98FF91EF91BF91AF9151
:101370009F918F917F916F915F914F913F912F91AD
:101380000F900FBE0F901F9018951F920F920FB6DF
:101390000F9211242F933F934F935F936F937F93FB
:1013A0008F939F93AF93BF93EF93FF938091B90077
:1013B000887F803609F49CC068F5883209F45BC0E8
:1013C00090F4803109F454C038F4882309F4F6C04D
:1013D000883009F44DC0F6C0883109F44CC0803221
:1013E00009F45DC0EFC0803409F468C048F480336C
:1013F00009F455C0883309F0E5C080930E03D8C0C6
:10140000803509F44FC0883509F45DC0883409F08F
:10141000D9C0D6C0883909F4C7C0A8F4883709F400
:1014200067C038F4883609F463C0803709F460C0B7
:10143000C9C0883809F4B8C0803909F45FC0803861
:1014400009F0C0C05BC0803B09F486C038F4803A24
:1014500009F466C0883A09F47FC0B4C0803C09F43E
:10146000A7C0883C09F4A4C0883B09F48AC0AAC07C
:101470008091EB0210C090910D0380910C0398179E
:1014800070F5E0910D0381E08E0F80930D03F0E085
:10149000E451FD4F80818093BB0085EC86C0809332
:1014A0000E038EC0E0910D0381E08E0F80930D033B
:1014B0008091BB00F0E0E451FD4F808390910D03DB
:1014C00080910C036EC0E0910D0381E08E0F80933C
:1014D0000D038091BB00F0E0E451FD4F80838091CB
:1014E0000A0281116DC081E08093090284EA61C023
:1014F00083E080930B021092EA02CFCF8091EA0240
:10150000803208F051C0E091EA0281E08E0F8093B2
:10151000EA028091BB00F0E0E653FD4F8083BDCF2F
:1015200085EC8093BC0010920B028091EA0280321D
:1015300030F4E091EA02F0E0E653FD4F1082609152
:10154000EA0270E0E091C802F091C9028AEC92E0F0
:1015500009951092EA0236C084E080930B02109243
:10156000C7021092C602E091C402F091C50209952B
:101570008091C602811105C081E08093C60210925D
:10158000A402E091C70281E08E0F8093C702F0E0D1
:10159000EC55FD4F80818093BB009091C7028091F4
:1015A000C602981708F479CF85E88093BC000AC07A
:1015B00085EC8093BC0010920B0204C010920E03C5
:1015C0000E94EB02FF91EF91BF91AF919F918F919C
:1015D0007F916F915F914F913F912F910F900FBE2F
:1015E0000F901F9018950F931F93CF93DF9300E1F7
:1015F00012E0C0E0D0E0F80161918F01CE010E94BD
:10160000F52E2196C031D105B1F7DF91CF911F9111
:101610000F9108958DEA91E00E943A1381EB91E0D9
:101620000C943A13CF92DF92EF92FF920F931F9395
:10163000CF93DF93CDB7DEB72C970FB6F894DEBF0C
:101640000FBECDBF8B016A01BC01CE0101960E9485
:10165000BF0E18861F821A8619861C861B86698112
:101660007A816115710531F04D815E81CE01079659
:101670000E94610EEB84FC848FEFE81AF80AB70130
:10168000CE0107960E94F60D882309F477C02F81BA
:1016900038858B859C8562EA71E0820F931F0E94DA
:1016A0005933FC86EB86CE0107960E943113CE019A
:1016B00007960E94820ECE0101960E94820E0E3085
:1016C0001105F4F0B8016E5071094AE0CE01079699
:1016D0000E94870E62EC71E0CE0101960E94BF0E5F
:1016E000BE01695F7F4FCE0101960E942F0E0E94BE
:1016F0003113CE0101960E94820ECE0107960CC0D6
:101700004AE0B801CE0101960E94870ECE010196F3
:101710000E943113CE0101960E94820E4AE0B6016A
:10172000CE0107960E94870E62EA71E0CE01019613
:101730000E94BF0EBE01695F7F4FCE0101960E94DD
:101740002F0E0E9431138FEB91E00E943A13CE01CD
:1017500001960E94820ECE0107960E94820E2C9660
:101760000FB6F894DEBF0FBECDBFDF91CF911F91B2
:101770000F91FF90EF90DF90CF900895CE010796E4
:101780000E941D0E90CFCF93DF93C6EFD1E0FE01F4
:1017900031978081882319F1813049F488810E9432
:1017A0002C0F688170E0AC0183E791E016C08230B5
:1017B00049F488810E94A210688170E0AC0186E73C
:1017C00091E00BC0833059F4888190E00E944C1363
:1017D000688170E0AC0184EC91E00E94120B2296CB
:1017E00082E0CA30D80799F6DF91CF910895CF9360
:1017F000DF93EB01FC0160816134E1F43F932F93AF
:101800005F934F93DF93CF9329EC31E03F932F9376
:101810009F938F930E946033888199810E9699835C
:1018200088838DB79EB70A960FB6F8949EBF0FBEF9
:101830008DBF16C03F932F935F934F93DF93CF934A
:1018400023E831E03F932F939F938F930E9460335F
:101850008DB79EB70A960FB6F8949EBF0FBE8DBF88
:10186000DF91CF910895CF93DF93EB01FC012081AD
:101870002134D1F45F934F93DF936F9324ED31E0E4
:101880003F932F939F938F930E9460338881998118
:101890000E96998388838DB79EB708960FB6F894F5
:1018A0009EBF0FBE8DBF14C05F934F93DF936F93A6
:1018B00026E831E03F932F939F938F930E946033EC
:1018C0008DB79EB708960FB6F8949EBF0FBE8DBF1A
:1018D000DF91CF910895CF93DF93EB01FC0120813D
:1018E000213481F4DF936F932CED31E03F932F93FC
:1018F0009F938F930E946033888199810E9699837C
:1019000088830AC0DF936F9329E831E03F932F93D8
:101910009F938F930E9460330F900F900F900F90C2
:101920000F900F90DF91CF910895CF92DF92EF92B9
:10193000FF920F931F93CF93DF936C017A018B017A
:10194000C0E0D0E0CE15DF0589F0D8016D918D01A2
:10195000D601ED91FC910190F081E02DC601099531
:10196000892B11F47E0102C02196ECCFC701DF91D3
:10197000CF911F910F91FF90EF90DF90CF9008953E
:10198000FC01918D828D981761F0828DDF01A80F87
:10199000B11D5D968C91928D9F5F9F73928F90E0A9
:1019A00008958FEF9FEF0895FC01918D828D981718
:1019B00031F0828DE80FF11D858D90E008958FEF55
:1019C0009FEF0895FC01918D228D892F90E0805C1E
:1019D0009F4F821B91098F73992708958DE393E0A0
:1019E0000E94E20C21E0892B09F420E0822F089567
:1019F000FC01848DDF01A80FB11DA35ABF4F2C91AC
:101A0000848D90E001968F739927848FA689B7897A
:101A10002C93A089B1898C9180648C93938D848D53
:101A2000981306C00288F389E02D80818F7D808322
:101A30000895EF92FF920F931F93CF93DF93EC01E2
:101A400081E0888F9B8D8C8D981305C0E889F9897A
:101A5000808185FD24C0F62E0B8D10E00F5F1F4F97
:101A60000F731127E02E8C8DE8120CC00FB607FC07
:101A7000FACFE889F989808185FFF5CFCE010E94F0
:101A8000F80CF1CF8B8DFE01E80FF11DE35AFF4FEB
:101A9000F0820B8FEA89FB898081806207C0EE8922
:101AA000FF896083E889F98980818064808381E08F
:101AB00090E0DF91CF911F910F91FF90EF900895EB
:101AC000CF93DF93EC01888D8823C9F0EA89FB89E5
:101AD000808185FD05C0A889B9898C9186FD0FC0DC
:101AE0000FB607FCF5CF808185FFF2CFA889B989B1
:101AF0008C9185FFEDCFCE010E94F80CE7CFDF91EE
:101B0000CF91089580E090E0892B29F00E94EE0C9F
:101B100081110C9400000895833081F028F4813005
:101B200099F08230A1F008958730A9F08830B9F09B
:101B30008430D1F4809180008F7D03C0809180003B
:101B40008F7780938000089584B58F7702C084B525
:101B50008F7D84BD08958091B0008F7703C0809100
:101B6000B0008F7D8093B0000895CF93DF93C4EAD7
:101B7000D4E02DEC3CEC4CEC5DE3688179818A810A
:101B80009B810E94962F688379838A839B832DECA7
:101B90003CEC4CEC5DE36C817D818E819F810E94E9
:101BA000962F6C837D838E839F832DEC3CEC4CECD5
:101BB0005DE3688579858A859B850E94962F688775
:101BC00079878A879B872DEC3CEC4CEC5DE36C8538
:101BD0007D858E859F850E94962F6C877D878E8759
:101BE0009F87DF91CF9108950E944B330F931F93EE
:101BF000CF93DF93EC0188819981009729F02A81A6
:101C00003B812617370788F48B016F5F7F4F0E9457
:101C10008132009761F0998388831B830A832C812A
:101C20003D81232B11F4FC01108281E001C080E092
:101C3000DF91CF911F910F910895CF93DF93EC0126
:101C400088819981009711F00E94E93119821882E8
:101C50001D821C821B821A82DF91CF910895EF9220
:101C6000FF920F931F93CF93DF93EC01FB018481CD
:101C70009581E080F1800C811D81E114F104B1F0C7
:101C80000097B9F0080F191FB801CE010E94F60D98
:101C9000882361F0288139818C819D81B701820F71
:101CA000931F0E9459331D830C8303C0CE010E94F1
:101CB0001D0ECE01DF91CF911F910F91FF90EF90FC
:101CC0000895EF92FF920F931F93CF93DF93EC0150
:101CD0007B018A01BA010E94F60D811104C0CE0178
:101CE0000E941D0E07C01D830C83B7018881998156
:101CF0000E945933CE01DF91CF911F910F91FF9038
:101D0000EF900895FC01808191810C94E931EF926C
:101D1000FF920F931F93CF93DF93CDB7DEB76297F8
:101D20000FB6F894DEBF0FBECDBF8C01CB01F8011A
:101D300011821082138212821582148250E09E0159
:101D40002F5F3F4F7901B9010E949A29F701019055
:101D50000020E9F73197AF014E195F09B701C801BB
:101D60000E94610E62960FB6F894DEBF0FBECDBF23
:101D7000DF91CF911F910F91FF90EF900895FC019B
:101D800011821082138212821582148261157105EC
:101D900051F0FB0101900020E9F73197AF01461B9C
:101DA000570B0C94610E08951F920F920FB60F926D
:101DB00011242F933F934F935F936F937F938F9350
:101DC0009F93AF93BF93EF93FF938DE393E00E94B4
:101DD000F80CFF91EF91BF91AF919F918F917F91FF
:101DE0006F915F914F913F912F910F900FBE0F9088
:101DF0001F9018951F920F920FB60F9211242F93D8
:101E00008F939F93EF93FF93E0914D03F0914E03D7
:101E10008081E0915303F091540382FD12C09081C0
:101E2000809156038F5F8F7320915703821751F073
:101E3000E0915603F0E0E35CFC4F958F80935603EE
:101E400001C08081FF91EF919F918F912F910F9011
:101E50000FBE0F901F901895CF93DF93282F30E07F
:101E6000F901E252FE4F8491F901E05FFD4FD491F8
:101E7000F901E450FE4FC491CC2391F081110E94EE
:101E80008C0DEC2FF0E0EE0FFF1FEE50FE4FA591F2
:101E9000B491EC91ED2381E090E021F480E002C068
:101EA00080E090E0DF91CF9108951F93CF93DF936F
:101EB000282F30E0F901E252FE4F8491F901E05FF2
:101EC000FD4FD491F901E450FE4FC491CC23C9F0E9
:101ED000162F81110E948C0DEC2FF0E0EE0FFF1FEA
:101EE000E753FE4FA591B4918FB7F894111105C037
:101EF0009C91ED2FE095E92302C0EC91ED2BEC9342
:101F00008FBFDF91CF911F9108951F920F920FB64F
:101F10000F9211242F933F934F935F936F937F936F
:101F20008F939F93AF93BF93EF93FF938091F101B2
:101F30009091F201A091F301B091F401892B8A2BC9
:101F40008B2B59F18091EE01E091EF01F091F001BE
:101F50009081892780838091F1019091F201A09175
:101F6000F301B091F401181619061A061B060CF0BD
:101F70003DC08091F1019091F201A091F301B091E7
:101F8000F4010197A109B1098093F1019093F20145
:101F9000A093F301B093F40129C080910001E3ED17
:101FA000F1E0E4919FEF90930001E130B9F098F0F7
:101FB000E230C9F4909170009D7F9093700091E0A1
:101FC0009093B0009091B100987F94609093B1008D
:101FD0001092B30008C010926E0005C090916F007F
:101FE0009D7F90936F0060E00E94550FFF91EF91ED
:101FF000BF91AF919F918F917F916F915F914F9121
:102000003F912F910F900FBE0F901F901895CF9377
:10201000DF9390E0FC01E05FFD4F2491FC01E45070
:10202000FE4F8491882361F190E0880F991FFC0195
:10203000EC52FE4FC591D491FC01E753FE4FA591A0
:10204000B491611109C09FB7F894888120958223CB
:102050008883EC912E230BC0623061F49FB7F89413
:102060003881822F809583238883EC912E2B2C93AB
:102070009FBF06C08FB7F894E8812E2B28838FBFAF
:10208000DF91CF9108951F93CF93DF93182FEB012A
:1020900061E00E940710209711F460E004C0CF3F78
:1020A000D10539F461E0812FDF91CF911F910C941C
:1020B000550FE12FF0E0E252FE4FE491E330F9F0EA
:1020C00048F4E130B9F0E230A1F584B5806284BD16
:1020D000C8BD34C0E730E9F0E83019F1E43049F523
:1020E00080918000806280938000D0938B00C093A9
:1020F0008A0024C084B5806884BDC7BD1FC080919C
:102100008000806880938000D0938900C09388000D
:1021100015C08091B00080688093B000C093B30078
:102120000DC08091B00080628093B000C093B40075
:1021300005C0C038D1050CF0B5CFAFCFDF91CF913E
:102140001F9108958E3008F08E50877080648093C0
:102150007C0080917A00806480937A0080917A007C
:1021600086FDFCCF809178002091790090E0922B41
:1021700008953FB7F8948091350390913603A0916C
:102180003703B091380326B5A89B05C02F3F19F03F
:102190000196A11DB11D3FBFBA2FA92F982F8827E7
:1021A000820F911DA11DB11DBC01CD0142E0660F42
:1021B000771F881F991F4A95D1F708958F929F9294
:1021C000AF92BF92CF92DF92EF92FF926B017C01B0
:1021D0000E94B9104B015C01C114D104E104F10467
:1021E000F1F00E94B910DC01CB0188199909AA0904
:1021F000BB09883E9340A105B10570F321E0C21AE6
:10220000D108E108F10888EE880E83E0981EA11C31
:10221000B11CC114D104E104F10419F7DDCFFF9022
:10222000EF90DF90CF90BF90AF909F908F900895E8
:102230001F920F920FB60F9211242F933F938F93FB
:102240009F93AF93BF938091390390913A03A091EC
:102250003B03B0913C033091340323E0230F2D372F
:1022600020F40196A11DB11D05C026E8230F02969A
:10227000A11DB11D209334038093390390933A0339
:10228000A0933B03B0933C038091350390913603B8
:10229000A0913703B09138030196A11DB11D809321
:1022A000350390933603A0933703B0933803BF915F
:1022B000AF919F918F913F912F910F900FBE0F90F3
:1022C0001F9018951F93CF93DF93EC01162F8981F0
:1022D000882331F08E8187FD03C060E00E940710E3
:1022E0001E838981882341F061E0812F0E940710BD
:1022F00060E0812F0E94550F812F90E0FC01E45097
:10230000FE4FE491F0E0EE0FFF1FE753FE4F2591E3
:1023100034913B8B2A8BFC01E05FFD4FE491EC8B09
:10232000DF91CF911F9108954F925F926F927F92AC
:102330008F929F92AF92BF92EF92FF920F931F9353
:10234000CF93DF932FB7F8948090390390903A039E
:10235000A0903B03B0903C032FBFEC018C01085FC1
:102360001F4F7C018EEBE80EF11C8881882309F455
:102370003FC04D855E856F85788924013501441AFB
:10238000550A660A770A49815A816B817C81441615
:10239000550666067706E8F0813019F0823029F09C
:1023A0000FC0E985FA8509950BC061E0F8018081CD
:1023B000811160E0F8016083319780810E94550FA0
:1023C0008D869E86AF86B88A89899A8901969A8B6E
:1023D000898B8D819E8197FD0BC029893A892817A9
:1023E000390734F01882EB85FC85309709F00995A0
:1023F00063960D5E1F4FCE15DF0509F0B6CFDF9156
:10240000CF911F910F91FF90EF90BF90AF909F9051
:102410008F907F906F905F904F9008954F925F9252
:102420006F927F928F929F92AF92BF92CF92DF92E4
:10243000EF92FF92CF93DF93EC016A017B018B8CCB
:102440009C8CAD8CBE8C9A01AB01C501B4010E947D
:10245000C62D882309F449C06BA97CA98DA99EA922
:102460000E94CD2D2B013C01A7019601C501B401AD
:102470000E9402309B01AC01C301B2010E942C2ECC
:102480000E9474306BAB7CAB8DAB9EABA701960109
:1024900060E070E080E090E40E9402300E94B5307D
:1024A00026E53EE04DE25FE30E942C2E20E034E280
:1024B00044E759E40E942C2E6FAB78AF89AF9AAFF6
:1024C000CB8EDC8EED8EFE8ECE01DF91CF91FF9014
:1024D000EF90DF90CF90BF90AF909F908F907F90C4
:1024E0006F905F904F900C94AC04DF91CF91FF9070
:1024F000EF90DF90CF90BF90AF909F908F907F90A4
:102500006F905F904F9008958F929F92AF92BF927D
:10251000CF92DF92EF92FF92CF93DF93EC018B8803
:102520009C88AD88BE8820E030E0A901C501B401D7
:102530000E94C62D882309F44FC0A5019401C5014E
:10254000B4010E942C2E6B017C016B8D7C8D8D8DD6
:102550009E8D9B01AC010E94962F9B01AC01C7018F
:10256000B6010E9402300E9474306B017C012FEF93
:10257000C21AD20AE20AF20A20E030E0A901C5013B
:10258000B4010E94AA304B855C856D857E858F8461
:102590009888A988BA8818162CF44C0D5D1D6E1DFC
:1025A0007F1D04C04C195D096E097F0984169506CC
:1025B000A606B70689F04F87588B698B7A8BCE01B8
:1025C000DF91CF91FF90EF90DF90CF90BF90AF90D1
:1025D0009F908F900C94AC04DF91CF91FF90EF907F
:1025E000DF90CF90BF90AF909F908F900895DC01C7
:1025F00020E030E04C9141112CC0E3E1E29FA001CA
:10260000E39F500D1124FC01E40FF51F81E080834E
:1026100084E690E0A0E0B0E081839283A383B4835A
:102620008FEF9FEF96838583728761873FB7F8941A
:102630008091390390913A03A0913B03B0913C0300
:102640003FBF85879687A787B08B128A118A822F12
:1026500008952F5F3F4F53962A30310559F68FEF7B
:102660000895FC0144815581608171818DE393E07F
:102670000C94950C009769F0FC0101900020E9F79B
:102680003197AF01481B590BBC018DE393E00C94CB
:10269000950C80E090E008950F931F93CF93DF9304
:1026A000EC0161E00E94071060E08C2F0E94550F42
:1026B00083E090E00197F1F761E08C2F0E94550FC5
:1026C00083E290E00197F1F760E08C2F0E94550FB4
:1026D00060E08C2F0E940710DD27FE01E05FFD4FB8
:1026E0006491FE01E450FE4FE491F0E0EE0FFF1F15
:1026F000EE50FE4F8591949100E412E42FE030E01B
:10270000462F0E943917611571058105910539F031
:10271000DC01CB010196A11DB11DBF7003C080E09B
:1027200090E0DC016AE370E00E941F31CB0100976A
:1027300011F487EE93E0DF91CF911F910F910895EF
:10274000DC019091BB04992361F0699FB0011124D1
:10275000672F499FA0011124452F299F9001112423
:10276000232F3091C1048091BE04E091BC04F0910C
:10277000BD04381308C0CD01880F991F8A0F9B1F15
:102780008E0F9F1F0BC0CD01880F991F880F991FB7
:102790008E0F9F1FFC01E30FF11D10823091BE04CC
:1027A000FC01E30FF11D60833091BF04FC01E30FD6
:1027B000F11D40833091C004FC01E30FF11D208323
:1027C0000895CF93DF930E943A13EC018FEB91E0D1
:1027D0000E943A138C0F9D1FDF91CF910895CF92E5
:1027E000DF92EF92FF921F93CF93DF9380E010E090
:1027F0009091DD04191708F05CC0E12FF0E0EE0FB6
:10280000FF1FE753FB4FC081D181CF84D888E9886F
:10281000FA884B855C856D857E85C416D506E606EF
:10282000F70609F444C08BA19CA1ADA1BEA1892BE0
:102830008A2B8B2BD9F10E94B9106B017C018FA1DF
:1028400098A5A9A5BAA5B701A601481B590B6A0B03
:102850007B0B8BA19CA1ADA1BEA1481759076A07AC
:102860007B0720F1FE01ED5BFF4F20818B859C856E
:10287000AD85BE85222321F00196A11DB11D03C0A7
:102880000197A109B1098B879C87AD87BE87E88135
:10289000F9814B855C856D857E850680F781E02D0D
:1028A000CE010995CFA2D8A6E9A6FAA681E01F5FBE
:1028B0009FCF81119BCFDF91CF911F91FF90EF9020
:1028C000DF90CF9008952F923F924F925F926F9238
:1028D0007F928F929F92AF92BF92CF92DF92EF92B0
:1028E000FF920F931F93CF93DF9300D000D0CDB70B
:1028F000DEB75C015090DD041C0199ECC92E94E018
:10290000D92E10E0912C00E0F12CE12C1515C1F12D
:10291000F10181919191A191B1911F01F601619015
:1029200071906F01F3012385348545855685BC017F
:10293000CD01621B730B840B950B97FF07C090951D
:102940008095709561957F4F8F4F9F4F0E94CD2D41
:10295000F3012789308D418D528D0E940230862EE1
:10296000472E3C01292D302F4F2D5E2D0E94AA307D
:10297000181624F4982C042DF62CE72C1F5FC6CFD4
:1029800020E030E0A901692D702F8F2D9E2D0E942F
:10299000AA3018160CF054C010E08091DD0418170E
:1029A00008F04EC0212F30E0F50144E0149FE00D07
:1029B000F11D11244080518062807380C9011C0187
:1029C000220C331CF101E753FB4FC080D180F6018C
:1029D00083859485A585B685A3019201281B390BB3
:1029E0004A0B5B0BCA01B9010E94CD2D292D302F56
:1029F0004F2D5E2D0E940230AB01BC01F601878590
:102A00009089A189B28984159505A605B70579F045
:102A10004786508A618A728AC60149835A836B83CA
:102A20007C830E94AC047C816B815A814981F101D5
:102A3000E753FB4F808191810E9430041F5FADCF2F
:102A40000F900F900F900F90DF91CF911F910F91EA
:102A5000FF90EF90DF90CF90BF90AF909F908F90BE
:102A60007F906F905F904F903F902F900895CF92FE
:102A7000DF92EF92FF920F931F93CF93DF93DB01CF
:102A8000E901E8E3F6E010861186128613868C01D0
:102A9000990F220B330BC288D388E488F5880C0D7C
:102AA0001D1D2E1D3F1D028B138B248B358B052E78
:102AB000000C660B770B06891789208D318D400F2E
:102AC000511F621F731F468B578B608F718FBD0123
:102AD000BB0F880B990B0E94CD2DAB01BC0182E28C
:102AE00095E00E941E06BE01DD0F880B990B0E9427
:102AF000CD2DAB01BC018EED94E00E941E068AE450
:102B000096E00E9463140E94EF1382E295E00E9417
:102B1000D6038EED94E0DF91CF911F910F91FF903E
:102B2000EF90DF90CF900C94D603E0913D03F091AD
:102B30003E030190F081E02D682F8DE393E009942E
:102B40008F929F92AF92BF920F931F93CF93DF9379
:102B5000CDB7DEB7A1970FB6F894DEBF0FBECDBFDD
:102B600019A2423008F44AE08E010F5D1F4F842EF7
:102B7000912CA12CB12CA50194010E94642FE62F69
:102B8000B901CA0101501109EA3014F4E05D01C035
:102B9000E95CD801EC93232B242B252B61F7C8018A
:102BA0000E943A13A1960FB6F894DEBF0FBECDBFB8
:102BB000DF91CF911F910F91BF90AF909F908F9019
:102BC00008954F925F926F927F928F929F92AF92F1
:102BD000BF92CF92DF92EF92FF926B017C019B013B
:102BE000AC010E94F530882319F081EE91E01AC003
:102BF00046015701E894B7F82FEF3FEF4FE75FE743
:102C0000C501B4010E94F530811110C02FEF3FEFD4
:102C10004FE75FE7C501B4010E94C62D181634F4D2
:102C200085EE91E00E943A137C017FC02FEF3FEFC9
:102C30004FE75FE4C701B6010E94AA3018161CF4E2
:102C400089EE91E0EFCF2FEF3FEF4FE75FECC70149
:102C5000B6010E94C62D87FDF3CF20E030E0A90128
:102C6000C701B6010E94C62D87FF09C08DE20E94F0
:102C700095155C01F7FAF094F7F8F09402C0A12CD6
:102C8000B12C2AE037ED43EA5BE3C701B6010E94AD
:102C9000962F2B013C010E947B306B017C010E942E
:102CA000CB2D9B01AC01C301B2010E94952F2B01DA
:102CB0003C014AE0C701B6010E94A0157C01EA0C64
:102CC000FB1C8EE20E949515E80EF91E20E030E014
:102CD00040E251E4C301B2010E942C2E2B013C01C1
:102CE0000E947B304B01A12CB12C4AE0C501B401FC
:102CF0000E94A015E80EF91EC501B4010E94CB2D5B
:102D00009B01AC01C301B2010E94952F20E030E08D
:102D100040E251E40E942C2E0E947B3080E090E043
:102D20004AE00E94A015E80EF91E8FEB91E00E9488
:102D30003A138E0D9F1DFF90EF90DF90CF90BF90C4
:102D4000AF909F908F907F906F905F904F9008957D
:102D50000F931F93CF93DF9308E717E061E0F8012B
:102D600081810E940710C3ECD0E0CE010197F1F7FA
:102D700060E0F80180810E940710CE010197F1F711
:102D800060E0F80181810E9407102197F1F7DF913F
:102D9000CF911F910F910895EF92FF920F931F9380
:102DA000CF93DF93082F18E083ECE82EF12C61E03D
:102DB000809178070E940710C7010197F1F700FF83
:102DC00002C060E001C061E0809179070E940710B5
:102DD000C3ECD0E0C7010197F1F760E0809178077C
:102DE0000E940710C7010197F1F706951150F9F6F7
:102DF00061E0809178070E94071060E08091790778
:102E00000E940710CE010197F1F760E080917807EA
:102E10000E9407102197F1F7809179070E942C0FEB
:102E2000182F811105C061E0809179070E94071079
:102E3000C3ECD0E0CE010197F1F761E08091780713
:102E40000E9407102197F1F781E0111101C080E085
:102E5000DF91CF911F910F91FF90EF90089561E066
:102E6000809179070E94071083EC90E00197F1F7B9
:102E70000895CF92DF92EF92FF920F931F93E82F66
:102E8000F92F05C0015011092109310961F1908123
:102E900096239417B9F305C001501109210931098E
:102EA00011F1908196239413F7CFC12CD12CE12CF2
:102EB000F12C0AC08FEFC81AD80AE80AF80A0C15D4
:102EC0001D052E053F0579F080818623841791F337
:102ED0006C2D7D2D8E2D9F2D1F910F91FF90EF90CA
:102EE000DF90CF90089560E070E080E090E01F9167
:102EF0000F91FF90EF90DF90CF900895CF93DF93E5
:102F0000CDB7DEB7C654D1090FB6F894DEBF0FBEF9
:102F1000CDBF789484B5826084BD84B5816084BD62
:102F200085B5826085BD85B5816085BD80916E0067
:102F3000816080936E001092810080918100826098
:102F400080938100809181008160809381008091D5
:102F500080008160809380008091B10084608093C4
:102F6000B1008091B00081608093B00080917A00C0
:102F7000846080937A0080917A00826080937A00E6
:102F800080917A00816080937A0080917A008068D5
:102F900080937A001092C100E0914D03F0914E03AE
:102FA00082E08083E0914903F0914A031082E0912E
:102FB0004B03F0914C0380E1808310925503E09124
:102FC0005103F091520386E08083E0914F03F0912A
:102FD0005003808180618083E0914F03F091500322
:102FE000808188608083E0914F03F091500380815D
:102FF00080688083E0914F03F091500380818F7D42
:10300000808384E1E5EFF1E0DF011D928A95E9F725
:103010000E940A0B8FE080937A0780917607909147
:1030200077071816190644F421E04CE060E070E0E0
:1030300080E297E00E94B40780917607909177072D
:103040001816190644F428E04AE060E070E080E2D7
:1030500097E00E94B40760E070E080E297E00E9491
:103060003B0860E1E62E62E0F62E00E010E0C801C9
:103070000E94ED2EF70181937F010F5F1F4F0031FA
:103080001105A9F78091100290911102823D9440A0
:10309000D9F080E1E0E1F2E0DF011D928A95E9F7E5
:1030A00082ED94E0909311028093100280E090E012
:1030B000A0E8BFE38093120290931302A09314023E
:1030C000B09315020E94F30A61E087E00E940710A6
:1030D00060E087E00E94550F61E088E00E940710E1
:1030E00060E088E00E94550F63EC7BE082E696E0AA
:1030F0000E94F712FE0131961F013E01F2E26F0EAF
:10310000711C2E0128E2420E511CAE01465D5F4F3C
:103110005AAF49AF8DE393E00E94E20C892B11F482
:103120000C9415238DE393E00E94C00CA091A302A0
:10313000E1E0EA0FE093A3020A2E000CBB0BAD59AD
:10314000BD4F8C938A3011F00C940B230E2E000C83
:10315000FF0BED59FD4F1082809163028D3411F009
:103160000C94FE2284E692E00E9455298C01AE0167
:10317000405D5F4F62EA71E084E692E00E9473294D
:103180000D36110509F474C50CF05CC0083011054A
:1031900009F421C3A4F50330110509F4CBC074F47C
:1031A0000130110509F4AEC00CF0B8C0012B11F0CC
:1031B0000C94FE220E940A0B0C94FE22053011058D
:1031C00009F4E1C00CF4C4C00630110509F4F1C0E3
:1031D0000730110511F00C94FE22A101B30188A95A
:1031E00099A90E94330C6AA17BA182E997E00E9411
:1031F000BF0669817A8182E997E00C94F422043653
:10320000110509F481C474F40D30110509F450C49A
:103210000E30110509F470C40930110511F00C9439
:10322000FE2231C30636110509F45AC00CF4ACC4B1
:103230000A36110509F4D9C40C36110509F4DEC4A7
:103240000C94FE220E3C110509F46EC71CF5093CD6
:10325000110509F416C674F40037110509F4DFC529
:10326000083C110509F4EFC50F36110511F00C9457
:10327000FE229EC50B3C110509F450C60CF438C65D
:103280000C3C110509F465C60D3C110509F48CC60A
:103290000C94FE22023D110511F40C94E92164F412
:1032A00088A999A9003D110511F40C94412114F449
:1032B0000C940A210C94DC21043D110511F40C94AA
:1032C000CE2214F40C94F821053D110511F40C9450
:1032D000F722073E134011F40C94FC220C94FE22BA
:1032E000109239061092380610923B0610923A0658
:1032F00010923D0610923C0610923F0610923E0638
:103300000C94FE22A101B30188A999A90E94330C53
:1033100069818AA10E9407100C94FE22A101B301C9
:1033200088A999A90E94330C69818AA10E94550F2E
:103330000C94FE22B10188A999A90E946B0C898185
:103340000E942C0F69817A81AC0183E791E02DC046
:10335000A101B30188A999A90E94330C8AA19BA15C
:103360008330910569F09C012550310922303105E7
:1033700038F0245031092330310510F00C94FE222E
:1033800069817A81E3C5B10188A999A90E946B0C72
:1033900089810E94A21069817A816E30710514F4CE
:1033A0000C94FE22AC0186E791E00E94120B0C9473
:1033B000FE229101A301B20188A999A90E94F70BED
:1033C000E981FA812196FFAFEEAF21972AA13BA1B7
:1033D00027963FAF2EAF279788A599A5209100018A
:1033E000281304C0E3EDF1E0149182C02F3F11F0E7
:1033F0000C94FE2280930001E3EDF1E014911F3F55
:1034000011F40C94FE22113029F1123009F449C054
:1034100011116EC014BC15BC24B5226024BD25B5A5
:10342000216025BD9C013327F901E450FE4FE49152
:10343000F0E0EE0FFF1FE753FE4F4591549150937C
:10344000490240934802F901E05FFD4FE491E093A7
:10345000470252C01092800010928100209181009A
:1034600028602093810020918100216020938100B9
:103470009C013327F901E450FE4FE491F0E0EE0F98
:10348000FF1FE753FE4F45915491509346024093DE
:103490004502F901E05FFD4FE491E093440211E041
:1034A0002BC01092B0001092B1002091B0002260A9
:1034B0002093B0002091B10021602093B1009C01C5
:1034C0003327F901E450FE4FE491F0E0EE0FFF1FC7
:1034D000E753FE4F459154915093F0014093EF0113
:1034E000F901E05FFD4FE491E093EE0112E004C0CA
:1034F00017FF02C00C94FE2221962EAD3FAD2197FE
:10350000032E000C440B550B25962CAF3DAF4EAF50
:103510005FAF259761E00E94071027964EAD5FAD23
:1035200027974A01A12CB12C812F8D7F09F0BFC0B4
:1035300060E072E18AE790E0A50194010E94032F08
:103540002BAF3CAF4DAF5EAF69017A0151E0C51AB8
:10355000D108E108F1086FEFC616D104E104F104C7
:1035600009F008F44EC060E472E48FE090E0A50139
:1035700094010E94032F69017A0181E0C81AD108E1
:10358000E108F108123009F59FEFC916D104E104F2
:10359000F10409F010F40C94DF2560E970ED83E08C
:1035A00090E0A50194010E94032F69017A01A1E036
:1035B000CA1AD108E108F108BFEFCB16D104E10423
:1035C000F10409F0E0F583E06BC0EFEFCE16D10413
:1035D000E104F104C1F0B8F068E478EE81E090E035
:1035E000A50194010E94032F69017A01F1E0CF1A2D
:1035F000D108E108F108112311F40C94BA250C94B8
:10360000B02581E001C082E011114AC013C08BAD2A
:103610009CADADADBEAD2AE0B595A79597958795C4
:103620002A95D1F76C017D0141E0C41AD108E10867
:10363000F10885E095B5987F892B85BD75C068E454
:1036400078EE81E090E0A50194010E94032F6901CA
:103650007A0161E0C61AD108E108F1088FEFC816B7
:10366000D104E104F10409F010F40C947B2564E228
:1036700074EF80E090E0A50194010E94032F69019E
:103680007A0161E0C61AD108E108F1088FEFC81687
:10369000D104E104F10419F010F00C947E2585E0CA
:1036A0009091B100987F892B8093B1003DC060E07C
:1036B00072E18AE790E0A50194010E94032F69015D
:1036C0007A01F1E0CF1AD108E108F108C114D10460
:1036D00021E0E206F10488F068E478EE81E090E011
:1036E000A50194010E94032F69017A0161E0C61AC5
:1036F000D108E108F10893E001C091E01130A1F494
:1037000080918100887F892B8093810025968CADE4
:103710009DADAEADBFAD2597892B8A2B8B2B71F458
:103720002FEF3FEFA90135C025962CAD3DAD4EAD35
:103730005FAD2597232B242B252B99F027962EADB3
:103740003FAD2797220F331F2196AEADBFAD219716
:103750000E94393128EE33E040E050E00E94642FAF
:1037600003C02FEF3FEFA901113099F0123019F18A
:10377000111144C7C7BC20934E0230934F024093AF
:1037800050025093510280916E00826080936E00CF
:1037900035C7D0928900C092880020934A023093A6
:1037A0004B0240934C0250934D0280916F00826017
:1037B00080936F0023C7C092B3002093F101309330
:1037C000F2014093F3015093F40180917000826004
:1037D0008093700013C785E10E94A2108C0169E7F5
:1037E00071E0C1010E94BF0EC1010E943113C101ED
:1037F0000E94820E1BA21AA21DA21CA21FA21EA220
:10380000B801110F880B990B0E94CD2D20E030E0FC
:1038100040E85AE30E942C2E26E636E646EA50E4BB
:103820000E942C2E9B01AC010E94962F810122E068
:1038300044E00E943129009769F0FC0101900020CA
:10384000E9F73197AF01481B590BBC01C3010E9436
:10385000610E03C0C3010E941D0E62EA71E0C10146
:103860000E94BF0EB301C1010E942F0E0E943113AE
:103870008FEB91E00E943A13C1010E94820EC301B6
:103880000E94820EBBC6E8A9F9A92081CE018E96BE
:103890002134D1F43F922F927F926F925F924F9298
:1038A0003AAD3F9349AD4F939F938F938CE791E04F
:1038B0009F938F93FF93EF930E9460338EA59FA5F4
:1038C0000E969FA78EA714C03F922F927F926F9261
:1038D0005F924F92AAADAF93B9ADBF939F938F9371
:1038E0008DE791E09F938F93FF93EF930E94603356
:1038F0000FB6F894DEBF0FBECDBFF9800AA118A5A0
:10390000CAA4DBA46EA584EB94E00E946211C114EA
:10391000D104B9F4C12CD12C8091B6049091B70494
:10392000C816D90630F42F2D402F612FC6010E94F2
:10393000A013FFEFCF1ADF0A20E1C216D10461F70E
:103940000EC0C60101972091B6043091B7048217CA
:10395000930728F42F2D402F612F0E94A0138091F0
:10396000BC049091BD04892B09F448C60E94B9108B
:103970000091C2041091C3042091C4043091C50485
:10398000DC01CB01801B910BA20BB30BC297A105ED
:10399000B10560F3F8948091B8049091B9049DA7A3
:1039A0008CA7E091BC04F091BD04DF0111968081E9
:1039B00088AF9091B404E091C604F091C70480915F
:1039C000C804992309F42EC09081982B9FAB908155
:1039D000809589238EAB8EA98BAB88E08AAB3FA9FB
:1039E0004EA968AD5AA92BA98CA59DA5308367FD6A
:1039F000232F5A952083242F39F0661F00C0000022
:103A00004083000000C0F2CF58E06D914083000079
:103A1000019761F7F093C704E093C60468AF5AAB0F
:103A20002BAB38C09081982B9FAB908180958923D8
:103A30008EAB8EA98DAB88E08CAB3FA94EA968AD4B
:103A40005CA92DA98CA59DA5308367FD232F00C0FF
:103A500000C0208300C000C000C000C000C0408380
:103A60000000242F5A9541F0661F000000C000C0DE
:103A700000C000C000C0E8CF58E06D9100C0408396
:103A800000C0019709F7F093C704E093C60468AF3C
:103A90005CAB2DAB9DA78CA778940E94B910609366
:103AA000C2047093C3048093C4049093C504A6C554
:103AB000A101B30188A999A90E94330C4AA15BA175
:103AC000E5EFF1E080E090E0208121110AC0880F4D
:103AD000991FFC01EB50FE4F898180838AA181836D
:103AE0008DC5218130E02417350789F30196329680
:103AF0008A30910549F782C584E1E5EFF1E0DF0105
:103B00001D928A95E9F77AC588A899A89A82898230
:103B100070E9A72EBB24B394E0E9EE2EFF24F394C2
:103B2000C12CD12C00E010E0892851F1A10162EAFA
:103B300071E080E090E00E9473294C01FC018081DB
:103B40008C3431F4C40101960E9455298C01ECCFCC
:103B5000823531F4C40101960E9455296C01E4CFED
:103B6000813431F4C40101960E9455297C01DCCFD7
:103B70008234D1F6C40101960E9455295C01D4CF4C
:103B80009501A601B70129C0C8A8D9A8DA82C982BF
:103B9000E12CF12C00E010E0CD28D1F0A10162EA87
:103BA00071E080E090E00E9473296C01DC018C914F
:103BB0008C3431F4C60101960E9455298C01ECCF5A
:103BC000823551F7C60101960E9455297C01E4CF48
:103BD00024EF31E0A70164EF71E0C8010E943715BE
:103BE0008DE891E00E94E11309C582E295E00E9410
:103BF00084128EED94E00E94841200C53F922F92B1
:103C00007F926F925F924F92BAADBF93E9ADEF93FF
:103C100080E891E09F938F9389A98F9388A98F93D0
:103C20000E94603329813A814AA15BA168A579A5E8
:103C300081E00FB6F894DEBF0FBECDBFEAA5FBA5AD
:103C4000EF2B09F480E08093400681E0672B09F4B4
:103C500080E08093410681E0452B09F480E0809369
:103C6000420681E0232B09F480E080934306C6C41A
:103C700028A939A919A618A61BA21AA21A82198264
:103C80003F922F927F926F925F924F9283E891E0E2
:103C90009F938F933F932F930E94603368A579A5DC
:103CA000072E000C880B990B0E94CD2D23EF34E0DA
:103CB00045E35FE30E9402300E9474306B017C0197
:103CC0006AA17BA1072E000C880B990B0E94CD2DB9
:103CD00023EF34E045E35FE30E9402300E9474303A
:103CE000AB014C0D5D1D9B012C193D09EE27FF27F3
:103CF000EC19FD09E61BF70BC61AD70A69817A8110
:103D0000260F371FE60FF71FC60ED71E460F571F89
:103D10000FB6F894DEBF0FBECDBF4F3F510519F06F
:103D200014F04FEF50E02F3F310519F014F02FEF52
:103D300030E0EF3FF10519F014F0EFEFF0E0C601CD
:103D40008F3F910519F014F08FEF90E061E06093E0
:103D500040066093410660934206609343064130FB
:103D6000AFEF5A0714F441E05FEF509339064093E8
:103D700038062130BFEF3B0714F421E03FEF3093CA
:103D80003B0620933A06E1302FEFF20714F4E1E00E
:103D9000FFEFF0933D06E0933C0681303FEF930741
:103DA00014F481E09FEF90933F0680933E0626C473
:103DB00088A999A91A821982B1010E946B0CE98124
:103DC000FA81EE0FFF1FEE0FFF1FEC55FB4FC08077
:103DD000D180E280F38082E991E00E943A138980E9
:103DE0009A80092C000CAA08BB08B7FE0CC08DE213
:103DF0000E94951566277727CB01681979098A09EA
:103E00009B094AE003C04AE0C501B4010E94A01525
:103E100082EA91E00E943A13C701B601E6C288A97E
:103E200099A91A821982B1010E946B0CE981FA8169
:103E3000EE0FFF1FEE0FFF1FEC55FB4F108211829C
:103E400012821382DBC388A999A91BA21AA21A8223
:103E50001982A101B3010E94330C29813A818AA100
:103E60009BA1FC01E85CF94F4085411102C041E093
:103E70004087880F991FFC01E85CF94F318320834C
:103E8000BDC388A999A91BA21AA21A821982A101ED
:103E9000B3010E94330CEAA0FBA009811A81B7018B
:103EA000601B710B072E000C880B990B0E94CD2D07
:103EB0002091120230911302409114025091150288
:103EC0000E942C2E0E94743021E020934006209303
:103ED000410610924206109243060E0D1F1D1093CC
:103EE00039060093380670933B0660933A0686C302
:103EF000A101B30188A999A90E94330C8AA19BA1B1
:103F00000E944C138C0188E991E00E943A13B80199
:103F1000110F880B990B0E94CD2D67C260E070E0F5
:103F200089E00E94431068EC70E08AE00E94431030
:103F30006CE271E080E090E00E94DE1060E070E0F2
:103F400089E00E94431060E070E08AE00E94431024
:103F500055C3B10188A999A90E946B0C89818093EE
:103F6000670580916705F8941092800089E080933E
:103F7000810080E293E09093890080938800109202
:103F800085001092840082E080936F007894809383
:103F9000660510926A058091670560E00E9407102F
:103FA00081E0809387072AC308A919A9809152024A
:103FB00081119EC010920F0210920E0210920D02FB
:103FC00010920C0210920B0281E080930A02109270
:103FD000090261E082E10E94550F61E083E10E94E5
:103FE000550F8091B9008E7F8093B9008091B90000
:103FF0008D7F8093B90088E48093B80085E4809336
:10400000BC001092800780918507823018F098E0FC
:1040100090938007809383078BE39DE00197F1F7EE
:10402000609186078BE797E00E94710868EE73E065
:1040300080E090E00E94DE1063E08BE797E00E9452
:10404000D608BBE4EB2EB6E4FB2EC7010197F1F7CF
:1040500063E08BE797E00E94D608C7010197F1F76C
:1040600063E08BE797E00E94D60883E592E0019732
:10407000F1F762E08BE797E00E94D6086091800735
:10408000606240E08BE797E00E94EF0884E0809355
:10409000810740E06CE08BE797E00E94EF0840E08A
:1040A00061E08BE797E00E94EF088BE3E82E8FE159
:1040B000F82EC7010197F1F782E08093820740E074
:1040C00066E08BE797E00E94EF0840E062E08BE754
:1040D00097E00E94EF08C7010197F1F71092860759
:1040E00060E08BE797E00E94710881E080935202C4
:1040F00040E061E08BE797E00E94EF088BE39FE1EF
:104100000197F1F77801D7016D917D01662309F4DC
:1041100075C26D3009F472C26A3009F46FC28BE760
:1041200097E00E940509EFCF9301AE01465D5F4F16
:10413000B20188A999A90E94F70B9AA588A5809336
:1041400078079093790760E00E94071060E0809103
:1041500079070E94071060E0809178070E94550F50
:1041600060E0809179070E94550F2AA13BA10FE1E1
:1041700011E0F101DD24D39440E0D801FE90EE90EF
:104180008D01C901B7010E941F316115710529F424
:10419000DD20A1F04330A1F411C0A62FAF70B0E034
:1041A000A95FBE4F5C916E9DC0016F9D900D7E9D7D
:1041B000900D1124281B390BD12C03C05FE301C0E3
:1041C00050E051934F5F4430C1F60E942F1780E4B6
:1041D0000E94CC160E94A8160E942F1780EC0E9405
:1041E000CC1689810E94CC168A810E94CC168B81C4
:1041F0000E94CC168C810E94CC160E94A8160E94A8
:104200002F1780917A078F7080580E94CC160E94D9
:10421000A816F4C19101A301B2010E94F70B2981F4
:104220003A8168A579A54AA15BA180917607909112
:104230007707181619060CF0E1C14830510508F04F
:10424000DDC16830710508F0D9C180E890E002C096
:10425000959587956A95E2F7FA01E05EF84F232B72
:1042600019F09089892B03C0809590898923808BD0
:104270004F5F208960E070E080E297E00E94B40721
:10428000BDC19101A301B2010E94F70B89819A81FE
:104290002AA13BA118A509A51093700700937107E7
:1042A0003093730720937207909375078093740778
:1042B00081E090E0909377078093760761E0812F0B
:1042C0000E94071061E0809172070E94071061E070
:1042D000809174070E94071061E0809174070E942A
:1042E000550F1093700700937107E0E3F7E0119208
:1042F000B7E0E037FB07D9F700E010E080917607E0
:104300009091770708171907B4F520E04FE0B8013E
:1043100080E297E00E94B40717FD0EC080917607F7
:1043200090917707081719073CF427E04BE0B80194
:1043300080E297E00E94B40720E049E0B80180E203
:1043400097E00E94B407B80180E297E00E943B0822
:1043500017FD0EC08091760790917707081719070F
:104360003CF420E04CE0B80180E297E00E94B40702
:104370000F5F1F4FC3CF1816190644F421E04CE01D
:1043800060E070E080E297E00E94B40780917607D9
:10439000909177071816190644F428E04AE060E087
:1043A00070E080E297E00E94B40760E070E080E295
:1043B00097E00E943B0822C10E945129609312029B
:1043C0007093130280931402909315020E94F30AD3
:1043D00015C18EE991E00E943A136091120270912A
:1043E000130280911402909115020E94E11506C1FA
:1043F0003F922F927F926F9286E891E09F938F93E6
:1044000089A98F9388A98F930E94603369817A81EB
:10441000072E000C880B990B0E94CD2D20E030E078
:1044200044EB53E40E9402306B017C016AA17BA142
:10443000072E000C880B990B0E94CD2D4B015C01BF
:1044400023E333E343EC50E40E94962F2BED3FE04F
:1044500049EC50E40E942C2E0E9474309B01AC0168
:10446000ACE2B7E30E94222F24E630E040E050E0C7
:104470000E94032FCA01B9010E94CD2DA701960108
:104480000E942C2E6BAF7CAF8DAF9EAF23E333E346
:1044900043EC50E4C501B4010E94952F2BED3FE0A1
:1044A00049EC50E40E942C2E0E9474309B01AC0118
:1044B000ACE2B7E30E94222F24E630E040E050E077
:1044C0000E94032FCA01B9010E94CD2DA7019601B8
:1044D0000E942C2E6B017C016BAD7CAD8DAD9EAD31
:1044E0000E947430CB01770FAA0BBB0B00914A06D8
:1044F00010914B0620914C0630914D06800F911F74
:10450000A21FB31F80934A0690934B06A0934C06BC
:10451000B0934D06C701B6010E94743088279927D1
:10452000861B970B092E000CAA0BBB0B40914E0665
:1045300050914F066091500670915106840F951F5F
:10454000A61FB71F80934E0690934F06A093500668
:10455000B093510640E050E06AEF73E482E295E0E8
:104560000E94300440E050E06AEF73E48EED94E086
:104570000E9430048AE496E00E9463140E94EF13C4
:1045800082E295E00E94D6038EED94E00E94D6036D
:104590000FB6F894DEBF0FBECDBF30C0A101B3018E
:1045A00088A999A90E94330C4AA15BA1CA01885726
:1045B000984FDC012C9130E0F901EE0FFF1F2E0F18
:1045C0003F1FF901E05EFD4F208125FD07C0FA0184
:1045D000E15EFE4F608170E00E94BF0669817A81D2
:1045E0008AA19BA18857984F0E94830607C0B101FA
:1045F00088A999A90E946B0C0C94000084EA91E0B0
:104600000E94E11380E4E3E6F2E0DF011D928A9567
:10461000E9F71092A3028091A302803414F40C9461
:104620008A181092A3020C947A1880918707882325
:1046300009F4D9C08DE695E090935E0280935D0207
:1046400080916A05282E312C3092600220925F0200
:104650008091370690E0909362028093610280918E
:104660006605853009F0BFC080916F059091700597
:10467000885891098D35910588F480916A058430B8
:1046800041F480917105909172058097479708F4E5
:10469000F0C180916A05843408F0D2C196E02916F1
:1046A00031040CF49BC003E715E0A3E0B0E0BCAF1D
:1046B000ABAF75ECC72E7DE9D72E7CE1E72E71E814
:1046C000F72E4BAD5CAD421553050CF053C0F8010D
:1046D000608171813497A080B18080E090E00E9479
:1046E000CB2D2B013C01B50180E090E00E94CB2D49
:1046F0004B015C012DEC3CEC4CE45FE30E942C2E62
:104700009B01AC01C301B2010E94C62D87FD17C0F9
:104710002DEC3CEC4CE45FE3C301B2010E942C2E73
:104720009B01AC01C501B4010E94C62DE82F880F82
:10473000FF0BEE27FF0FEE1FFF27319602C0E0E0D0
:10474000F0E0A701960163E971E080E091E00E944A
:104750000F316F01FF0FEE08FF08C626D726E826A7
:10476000F9262BAD3CAD2F5F3F4F3CAF2BAF0E5F1B
:104770001F4FA7CFC0925702D0925802E092590221
:10478000F0925A0280E290E090935C0280935B0288
:104790008FEF9FEF909354028093530280915702C2
:1047A00090915802A0915902B0915A028F3F9F4FA9
:1047B000AF4FBF4F99F087EA91E00E943A136091A2
:1047C0005702709158028091590290915A0240E12B
:1047D0000E94A0158FEB91E00E943A1382E0809333
:1047E000660510926A050E94B91000914406109166
:1047F00045062091460630914706DC01CB01801B1F
:10480000910BA20BB30B85369105A105B10508F4F8
:104810000BC10E94B91060934406709345068093C3
:10482000460690934706809140068823C1F0809108
:1048300038069091390697FF03C0919581959109AB
:1048400020914806309149062817390741F460E065
:1048500085E00E94550F60E086E00E94550F809130
:1048600041068823C1F080913A0690913B0697FF5C
:1048700003C0919581959109209148063091490690
:104880002817390741F460E089E00E94550F60E085
:104890008AE00E94550F809142068823C1F08091E2
:1048A0003C0690913D0697FF03C091958195910933
:1048B00020914806309149062817390741F460E0F5
:1048C00087E00E94550F60E088E00E94550F8091BC
:1048D00043068823C1F080913E0690913F0697FFE2
:1048E00003C0919581959109209148063091490620
:1048F0002817390741F460E08CE00E94550F60E012
:104900008DE00E94550F80914806909149060196CE
:1049100090934906809348068F3F91050CF484C01C
:1049200080914006882341F060E085E00E94550FA9
:1049300060E086E00E94550F80914106882341F097
:1049400060E089E00E94550F60E08AE00E94550F08
:1049500080914206882341F060E087E00E94550F75
:1049600060E088E00E94550F80914306882341F063
:1049700060E08CE00E94550F60E08DE00E94550FD2
:10498000109249061092480680914006882381F0D3
:104990008091380690913906181619061CF461E0CA
:1049A00085E004C0892B21F061E086E00E94550F6C
:1049B00080914106882381F080913A0690913B06D0
:1049C000181619061CF461E089E004C0892B21F057
:1049D00061E08AE00E94550F80914206882381F0B1
:1049E00080913C0690913D06181619061CF461E072
:1049F00087E004C0892B21F061E088E00E94550F18
:104A000080914306882381F080913E0690913F0675
:104A1000181619061CF461E08CE004C0892B21F003
:104A200061E08DE00E94550F86EE93E00E949411A4
:104A300082E696E00E9494110E94820D0C947A18EE
:104A40008091710590917205825491098E9708F0BA
:104A500025CE20E030E080E090E0DC01F901ED5867
:104A6000FA4F40815181495051094930510588F030
:104A700015CE80917305909174050997099708F0F8
:104A800008CE10925C0210925B028FEF9FEFDC0168
:104A90001AC0F901EB58FA4F408151814751510931
:104AA00042315105D8F4880F991FAA1FBB1F81609E
:104AB0002C5F3F4F2038310589F620E230E03093FB
:104AC0005C0220935B028093570290935802A0935C
:104AD0005902B0935A0283E090E05CCE408151814C
:104AE000465051094730510508F0D8CD880F991F1D
:104AF000AA1FBB1FDDCF84E00C94501B62E17AE754
:104B000080E090E0A50194010E94032F69017A01E1
:104B100091E0C91AD108E108F108AFEFCA16D10433
:104B2000E104F104D1F0C8F08BAD9CADADADBEADEC
:104B30000AE0B595A795979587950A95D1F76C01E9
:104B40007D01E1E0CE1AD108E108F108112311F44A
:104B50000C94191B87E00C94501B86E00C94041BEA
:104B6000BFEFCB16D104E104F10409F038F684E07C
:104B70000C94041B2FEFC216D104E104F104E1F000
:104B8000D8F062E17AE780E090E0A50194010E940C
:104B9000032F69017A01E1E0CE1AD108E108F1089A
:104BA000FFEFCF16D104E104F10419F010F00C94DA
:104BB000071B84E00C941A1B83E00C941A1B82E000
:104BC0000C94501B8091BC049091BD04009711F08F
:104BD0000E94E9318091BA0487FD03C060E00C9423
:104BE00007100895AF92BF92CF92DF92EF92FF929B
:104BF0000F931F93CF93DF931092400310923F03C4
:104C000088EE93E0A0E0B0E08093410390934203EC
:104C1000A0934303B093440385E391E090933E0354
:104C200080933D0385EC90E090934A038093490381
:104C300084EC90E090934C0380934B0380EC90E0E5
:104C400090934E0380934D0381EC90E0909350033A
:104C500080934F0382EC90E0909352038093510332
:104C600086EC90E090935403809353031092560384
:104C700010925703109258031092590325E4A22E64
:104C800021E0B22EB0922305A0922205D4E0D09369
:104C9000240510922D0510922E0510922F051092CA
:104CA00030051092310510923205109233051092A2
:104CB0003405109235051092360510923705109282
:104CC0003805C12CD12C30E8E32E3FE3F32EC092FF
:104CD0003905D0923A05E0923B05F0923C051092DE
:104CE0003D0510923E0510923F0510924005C0927E
:104CF0004105D0924205E0924305F092440510929E
:104D0000450510924605109247051092480501E0AE
:104D100010E010934E0500934D05CFEFC093500562
:104D20001092490510924A0510924B0510924C05BD
:104D300085E08093250589E08093260586E08093B1
:104D400027058AE080932805109255051092560594
:104D500010925705109258051092590510925A0555
:104D600010925B0510925C0510925D0510925E0535
:104D700010925F0510926005C0926105D0926205A5
:104D8000E0926305F0926405109265051092290582
:104D900010922A0510922B0510922C0582E295E0C4
:104DA0000E94A203B701A60182E295E00E940E12C2
:104DB000B092DF04A092DE04D093E0041092E904E4
:104DC0001092EA041092EB041092EC041092ED049D
:104DD0001092EE041092EF041092F0041092F1047D
:104DE0001092F2041092F3041092F404C092F504AD
:104DF000D092F604E092F704F092F8041092F904CD
:104E00001092FA041092FB041092FC04C092FD046C
:104E1000D092FE04E092FF04F0920005109201058A
:104E200010920205109203051092040510930A05D2
:104E300000930905C0930C05109205051092060514
:104E4000109207051092080587E08093E1048CE03A
:104E50008093E20488E08093E3048DE08093E4048F
:104E6000109211051092120510921305109214055C
:104E7000109215051092160510921705109218053C
:104E80001092190510921A0510921B0510921C051C
:104E9000C0921D05D0921E05E0921F05F0922005DC
:104EA000109221051092E5041092E6041092E70496
:104EB0001092E8048EED94E00E94A203B701A601CF
:104EC0008EED94E00E940E121092DD041092B50453
:104ED0001092BB041092C2041092C3041092C40436
:104EE0001092C50481E08093C1048093BE041092A7
:104EF000BF0492E09093C0048093B40480E390E0F8
:104F00009093B9048093B8040E9454319093BD04E7
:104F10008093BC04009761F020E3FC0111922A9574
:104F2000E9F780E190E09093B7048093B60408C05D
:104F30001092B9041092B8041092B7041092B604FB
:104F400066E084EB94E00E946211E6EEF3E01082EA
:104F5000739684E0E43AF807D1F71092DD031092DB
:104F6000DC0388EE93E0A0E0B0E08093DE03909352
:104F7000DF03A093E003B093E1038FE591E090930A
:104F8000DB038093DA0380919307E8E8F7E08B3046
:104F900018F48F5F808301C01082319697E0E33967
:104FA000F907A9F7809393078FEF80936705109215
:104FB000690510927E0710927D078FE691E090932D
:104FC0007C0780937B078FE380937F0780E180934A
:104FD000840782E08093850780E880938607C4E099
:104FE000D0E0D0937107C093700787E090E0909372
:104FF00073078093720788E090E090937507809321
:10500000740781E090E0909377078093760761E0E2
:1050100084E00E94071061E0809172070E940710EF
:1050200061E0809174070E94071061E0809174072D
:105030000E94550FD0937107C0937007E0E3F7E02B
:10504000119287E0E037F807D9F7C0E0D0E080910F
:10505000760790917707C817D907ACF520E04FE0A5
:10506000BE0180E297E00E94B407D7FD0EC0809198
:10507000760790917707C817D9073CF427E04BE0F3
:10508000BE0180E297E00E94B40720E049E0BE0143
:1050900080E297E00E94B407BE0180E297E00E94A0
:1050A0003B08D7FD0EC08091760790917707C8170F
:1050B000D9073CF420E04CE0BE0180E297E00E947A
:1050C000B4072196C4CFE2E6F6E01082739697E02B
:1050D000E032F907D1F7109244061092450610927B
:1050E000460610924706109249061092480688E03C
:1050F000E9E2F1E0AAE5B6E001900D928A95E1F7C8
:1051000040E050E066E174E482E295E00E941E0611
:1051100040E050E068E473E482E295E00E940E1201
:1051200040E050E066E174E48EED94E00E941E06DB
:1051300040E050E068E473E48EED94E00E940E12CB
:10514000E091DD04EA3068F481E08E0F8093DD04A5
:10515000F0E0EE0FFF1FE753FB4F82E295E09183F3
:105160008083E091DD04EA3068F481E08E0F809363
:10517000DD04F0E0EE0FFF1FE753FB4F8EED94E0F0
:10518000918380838091BA0487FD08C061E00E940A
:10519000071060E08091BA040E94550F81E080936F
:1051A000B504809341068093400610924306109206
:1051B000420680E090EBACE5B6E480935206909313
:1051C0005306A0935406B093550683E29BEDA9EFD6
:1051D000BDE38093560690935706A0935806B0936C
:1051E00059061092B0041092B1041092B2041092B9
:1051F000B3041092AC041092AD041092AE0410925D
:10520000AF041092A8041092A9041092AA0410925C
:10521000AB041092A4041092A5041092A60410925C
:10522000A704CAE5D6E08E0161E089910E940710CB
:1052300060E0F80180810E94550FF6E0C236DF077A
:1052400091F765EB7DE086EE93E0DF91CF911F91C2
:105250000F91FF90EF90DF90CF90BF90AF900C94A4
:10526000F712EF920F931F93CF93DF93E80147FD5F
:1052700002C034E001C034E1E42F440FFF0BF7FF1C
:1052800003C0F195E195F109E32E022F2E2FAE0117
:105290000E94D229CE01DF91CF911F910F91EF9003
:1052A0000895662777270C94602BFC01882799279F
:1052B000E89421912032E9F3293010F02E30C8F320
:1052C0002B3241F02D3239F4689404C00E94B02989
:1052D000820F911D219120532A30C0F31EF4909526
:1052E00081959F4F0895FA01A191B081009719F41B
:1052F0001097E1F0CD01DC01CD010D90002011F4FB
:10530000C00113C0FB012191222319F02015D9F708
:10531000F3CFFB012191201519F41E92119606C0BE
:105320002223C1F70D900020A1F7D001FA01A1932B
:10533000B08308954532510520F4423010F00C94AA
:10534000A529FB011082CB010895BB274A3031F417
:10535000992322F4BDE2909581959F4F0C94B92931
:105360007AE0979F902D879F802D910D11240895AD
:10537000BB27FB015527AA27880F991FAA1FA4172F
:1053800010F0A41B83955051B9F7A05DAA3308F023
:10539000A95DA193009779F7B111B1931192CB0157
:1053A0000C94B62D4F925F926F927F929F92AF9224
:1053B000BF92CF92DF92EF92FF920F931F93CF9302
:1053C000DF93CDB7DEB729970FB6F894DEBF0FBED7
:1053D000CDBF6A01122FB02E2BE3201720F0FF243F
:1053E000F394F00E02C0BCE3FB2E0F2D27E0AE01BC
:1053F0004F5F5F4F0E94BD2CAC018981982F99703F
:10540000913031F0E1FC06C0E0FE06C090E205C03C
:105410009DE203C09BE201C090E0EE2DE07183FFAE
:105420003CC0911102C083E001C084E0811718F4F0
:10543000212F281B01C020E0E1110BC0F601822FB3
:1054400030E2882319F031938150FBCFC20ED11C7A
:1054500020E0992329F0D6019C93F60131966F0143
:10546000C6010396E2FE0AC03EE4D6013C9341E445
:1054700011964C93119712963C9306C03EE6F601A6
:10548000308341E641833283FC01322F40E23323F3
:1054900009F442C041933150FACF82FF44C09111C8
:1054A00002C083E001C084E0811718F4212F281B7B
:1054B00001C020E0E1110BC0F601822F30E2882309
:1054C00019F031938150FBCFC20ED11C20E09923FB
:1054D00029F0D6019C93F60131966F01C60103961F
:1054E000E2FE0BC039E4D6013C933EE411963C93B6
:1054F000119736E412963C9307C039E6F6013083E3
:105500003EE6318336E63283FC01322F40E233231C
:1055100019F041933150FBCFFC01E20FF11D1082D5
:105520008EEF9FEFB7C0F1E0911101C0F0E06F2F57
:1055300070E01416150624F49A012F5F3F4F02C045
:1055400021E030E0260F371FBB2029F06B2D70E0E3
:105550006F5F7F4F02C060E070E0260F371F612F42
:1055600070E0261737071CF4121B212F01C020E022
:105570003E2D387159F4D601322F60E2332319F0F1
:105580006D933150FBCFC20ED11C20E0FF2331F0D0
:10559000D6019C93B6016F5F7F4F6B01E1110BC089
:1055A000F601922F30E3992319F031939150FBCFFC
:1055B000C20ED11C20E09F2D940F3A81782F70717C
:1055C000A72E84FF03C0313309F49150191624F437
:1055D000993018F098E001C091E0E42F852F57FF33
:1055E00002C0E0E080E06E2F782FE0E0F0E0AEE275
:1055F0009A2E3A01691A71082A01461A570A0B2D88
:1056000010E01195019511096F3F8FEF780729F48C
:10561000D6019C92C60101966C014617570784F08B
:10562000661677066CF47F01E40CF51CA1E0B0E08F
:10563000AC0FBD1FEA0EFB1ED7011196BC9002C035
:1056400090E3B92E615071093196C60101967C0133
:105650006017710724F0D601BC926C01D5CF641796
:10566000750741F4363320F4353321F4A11002C01C
:1056700081E3B82EF601B082F701822F90E28823F1
:1056800019F091938150FBCFF701E20FF11D1082C9
:1056900080E090E029960FB6F894DEBF0FBECDBF34
:1056A000DF91CF911F910F91FF90EF90DF90CF90FE
:1056B000BF90AF909F907F906F905F904F900895B4
:1056C000A0E0B0E0E6E6FBE20C94312FEC017B01B8
:1056D0006115710519F0DB018D939C938E010F5FAD
:1056E0001F4F7880872D90E00E94952D892B11F017
:1056F000E801F4CFBDE27B1205C00F5F1F4F798038
:10570000C1E008C0EBE27E1204C08E010E5F1F4FA5
:105710007980C0E06801F1E0CF1AD10843E050E0A1
:1057200060E970E0C6010E949E2D892BF1F46801AA
:1057300022E0C20ED11C45E050E06BE870E0C601EB
:105740000E949E2D892B21F4680187E0C80ED11C90
:10575000E114F10419F0D701CD92DC92C111FFC020
:1057600060E070E080E89FE703C143E050E068E854
:1057700070E0C6010E949E2D892B51F4E114F104C2
:1057800009F4F2C00E5F1F4FF70111830083ECC0D4
:10579000680160E070E0CB0100E010E0F601D0EDC0
:1057A000D70DDA3058F52C2F2260622E2C2F28705E
:1057B000C2FF05C0211128C00F5F1F4F25C0222343
:1057C00011F001501109A5E0B0E09B01AC010E946D
:1057D000222F4B015C01880C991CAA1CBB1CC50123
:1057E000B4016D0F711D811D911D6839A9E97A07FA
:1057F0008A07A9E19A0740F0C66005C0DE3F51F470
:10580000C3FD44C0C8606C2EBFEFCB1ADB0A7080AA
:10581000C62DC4CF2D2F2F7D2531C1F540814D32AE
:1058200011F4C06106C04B3221F0319621E030E026
:1058300006C03296D60111964C9122E030E0A0EDE0
:10584000A40FAA3018F0E21BF30B20C040E050E098
:105850004038BCE05B075CF49A01220F331F220F33
:10586000331F420F531F440F551F4A0F511D3196CE
:10587000DF0111972C91A0EDA20FAA3048F3C4FFCD
:1058800003C0519541955109040F151FC1FF07C071
:10589000E114F10421F03197D701ED93FC930E94BC
:1058A000CB2DC370C33019F06B017C0106C06B01B6
:1058B0007C01F7FAF094F7F8F09420E030E0A901C9
:1058C000C701B6010E94C62D882309F445C017FF01
:1058D00006C0119501951109C7EAD0E002C0CFEBCF
:1058E000D0E05E01B8E1AB1AB1084601BE2DAF2D84
:1058F00090E2E92EF12C0E151F0584F0FE01259192
:10590000359145915491B4018B2F9A2F0E942C2EE2
:105910004B01B82FA92F0E191F09EDCF2497F5942D
:10592000E794CA15DB0539F76401EB2EFA2E8E2DAC
:10593000880F8F2D881F8F3F49F020E030E0A901AC
:10594000C701B6010E94C62D811106C082E290E017
:105950009093950780939407C701B60109C060E052
:1059600070E080E89FEF04C060E070E080EC9FE7AB
:10597000CDB7DEB7EEE00C944D2F283008F027E0CD
:105980003327DA01990F311D87FD9160009661057B
:10599000710539F432602E5F3D9330E32A95E1F7CB
:1059A00008959F3F30F080387105610509F03C5F34
:1059B0003C5F3D93913008F08068911DDF93CF9359
:1059C0001F930F93FF92EF92192F987F9695E92FCF
:1059D00096959695E90FFF27E35EFE4F99273327AB
:1059E000EE24FF24A701E70105900894079428F40A
:1059F000360FE71EF81E491F511D660F771F881FBF
:105A0000991F0694A1F70590079428F4E70EF81E55
:105A1000491F561FC11D770F881F991F661F0694C7
:105A2000A1F70590079428F4F80E491F561FC71FC9
:105A3000D11D880F991F661F771F0694A1F7059047
:105A4000079420F4490F561FC71FD81F990F661FD0
:105A5000771F881F0694A9F784911095177041F05D
:105A6000D695C79557954795F794E7941A95C1F73A
:105A7000E3ECF0E06894159015913591659195915E
:105A800005907FE27395E118F10A430B560BC90BA1
:105A9000D009C0F7E10CF11E431F561FC91FD01DCE
:105AA0007EF4703311F48A95E6CFE894015030F01B
:105AB000080F0AF40027021708F4202F2395022F5D
:105AC0007A3328F079E37D932A95E9F710C07D9326
:105AD0002A9589F6069497956795379517951794A3
