:100000000C9414010C943C010C943C010C943C01A4
:100010000C943C010C943C010C943C010C94AE0EED
:100020000C943C010C9482050C943C010C948407C4
:100030000C943C010C943C010C943C010C943C014C
:100040000C9493100C943C010C94230E0C94FD0D15
:100050000C943C010C943C010C943C010C943C012C
:100060000C943E080C943C01C601CD01D401DB0187
:10007000E201F901E901F901F001460C4C0C520CC6
:10008000580C5E0C640C6A0C4E414E494E49545952
:10009000494E46CDCCCC3D0AD7233C17B7D1387753
:1000A000CC2B329595E6241FB14F0A000020410069
:1000B00000C84200401C4620BCBE4CCA1B0E5AAEB3
:1000C000C59D7400407A10F35A00A0724E180900C2
:1000D00010A5D4E80000E87648170000E40B5402AD
:1000E0000000CA9A3B000000E1F5050000809698E8
:1000F00000000040420F000000A086010000001038
:100100002700000000E80300000000640000000079
:10011000000A00000000000100000000002C76D85A
:1001200088DC674F0823DFC1DFAE59E1B1B796E540
:10013000E3E453C63AE651997696E8E6C28426EBA4
:10014000898C9B62ED407C6FFCEFBC9C9F40F2BAB7
:10015000A56FA5F490055A2AF75C936B6CF9676D4F
:10016000C11BFCE0E40D47FEF520E6B500D0ED90A4
:100170002E0300943577050080841E080000204E71
:100180000A000000C80C333333330F986E1283110A
:1001900041EF8D2114893BE65516CFFEE6DB18D1E1
:1001A000844B381BF77C1D901DA4BBE424203284B3
:1001B000725E228100C9F124ECA1E53D27636469E8
:1001C0006E6F70737578585B000000000025002882
:1001D000002B000200000000240027002A0000007D
:1001E00000080002010000030407000000000000F6
:1001F000000000000000230026002900040404047D
:1002000004040404020202020202030303030303C0
:10021000010204081020408001020408102001029D
:1002200004081020CC23BC2311241FBECFEFD8E03C
:10023000DEBFCDBF11E0A0E0B1E0EAE7F8E602C022
:1002400005900D92A83EB107D9F726E0A8EEB1E0DF
:1002500001C01D92AF3BB207E1F711E0C3E1D1E06D
:1002600004C02197FE010E94DA2EC231D107C9F7DE
:100270000E9461150C9430340C9400004370552793
:1002800066277727DC01ED91FC910480F581E02D54
:10029000423051056105710571F04330510561052A
:1002A000710559F0413051056105710511F062E0A9
:1002B00005C063E003C061E001C060E009940F93F2
:1002C0001F93CF93DF93EC01E881F9810480F581DE
:1002D000E02D8C010D5B1F4FD8018C91811102C064
:1002E00060E001C062E0CE010995E881F9810480F7
:1002F000F581E02DD8018C91811102C061E001C02F
:1003000063E0CE010995EBA5FCA5E230F10538F0DC
:10031000EE0FFF1FEE0FFF1F35973197F1F7E881C2
:10032000F9810480F581E02DD8018C91811102C002
:1003300060E001C062E0CE01DF91CF911F910F918B
:100340000994CF93DF93EC0120E030E0A9016B89A1
:100350007C898D899E890E94512E18161CF4EFA568
:10036000F8A902C0E9A9FAA9DF91CF9109940F93E6
:100370001F93DC011296EC910E2F10E0093011054D
:10038000C0F5F801EC5CFF4F0C94DA2EDC01ED9126
:10039000FC910084F185E02D29C0DC01ED91FC91F8
:1003A0000284F385E02D22C0DC01ED91FC910484F0
:1003B000F585E02D1BC0DC01ED91FC910684F785ED
:1003C000E02D14C0DC01ED91FC910088F189E02D55
:1003D0000DC0DC01ED91FC910288F389E02D06C08F
:1003E000DC01ED91FC910488F589E02D1F910F91BE
:1003F00009941F910F91089585ED8093BC00809121
:10040000BC0084FDFCCF1092050208954091C40207
:10041000262F30E0240F311D21323105DCF42091EC
:1004200005022430C9F4FC0180E090E0861758F4FE
:100430003091C4022191DC01AE55BD4FA30FB11D17
:100440002C930196F3CF8091C402680F6093C4028D
:1004500080E0089581E0089582E00895089581E0A4
:1004600090E03091090220910802321710F480E0E8
:1004700090E091958195910908958091090290915C
:100480000802891730F48F5F8093090280E090E0C2
:1004900008958FEF9FEF08958091080290E02091DA
:1004A0000902821B91090895CF92DF92EF92FF9289
:1004B0000F931F93CF93DF937C01262F972F8A01F1
:1004C00080910D03882391F0C62FD72F6E01C40EA3
:1004D000D51ECC15DD0571F06991D701ED91FC9128
:1004E0000190F081E02DC7010995F3CF642F822F91
:1004F0000E940602C801DF91CF911F910F91FF90DA
:10050000EF90DF90CF900895CF93DF931F92CDB7F8
:10051000DEB7698320910D032223D1F020910602DA
:10052000203240F021E030E0FC013383228380E080
:1005300090E015C080910702E82FF0E0E25FFC4FE9
:10054000998190838F5F809307028093060205C094
:1005500061E0CE0101960E94060281E090E00F90DA
:10056000DF91CF910895CF92DF92EF92FF920F9398
:100570001F93CF93DF93FC012281243041F0283078
:1005800031F0233031F0263021F012E003C014E0C6
:1005900001C013E0EC012796E12CF12CC62ED12CE2
:1005A00001E0C6010E2C02C0959587950A94E2F7EA
:1005B000688180FD6027FE01349780810E947E0E55
:1005C000FFEFEF1AFF0A2196E11658F3DF91CF9162
:1005D0001F910F91FF90EF90DF90CF9008954F9271
:1005E0005F926F927F92AF92BF92CF92DF92EF9223
:1005F000FF920F931F93CF93DF93EC015A018B016E
:100600002B893C894D895E89B501C8010E946D2BFB
:10061000882309F451C0CF88D88CE98CFA8C260144
:10062000370177FA709477F87094A3019201B501BD
:10063000C8010E946D2B87FD0BC0A7019601B50173
:10064000C8010E94512E18162CF06501780102C0D5
:100650007301620120E030E0A901C701B6010E94E8
:100660006D2B811105C01BA21CA21DA21EA220C0C1
:10067000A701960160E074E284E799E40E94A92D45
:100680009F770E94222E6BA37CA38DA39EA35E0165
:1006900083E4A80EB11C11E020E030E0A901C701FD
:1006A000B6010E94512E18160CF010E0F5011083CF
:1006B000CB8ADC8AED8AFE8ADF91CF911F910F9160
:1006C000FF90EF90DF90CF90BF90AF907F906F90B2
:1006D0005F904F9008952F923F924F925F926F924A
:1006E0007F928F929F92AF92BF92CF92DF92EF92C2
:1006F000FF920F931F93CF93DF9300D000D0CDB71D
:10070000DEB71C01FC0187849088A188B2888385AC
:100710009485A585B685881A990AAA0ABB0A6389B1
:100720007489858996899B01AC010E94D32B6B014A
:100730007C01F101638D748D858D968D9B01AC01DB
:100740000E943D2D9B01AC01C701B6010E94A92D5D
:100750000E941B2E81149104A104B104A1F4623003
:100760007105810591050CF07CC0F10113A214A262
:1007700015A216A2138A148A158A168A13AA14AA15
:1007800015AA16AA03C1F10103A914A925A936A91E
:10079000ED5BFF4F181419041A041B04FCF4101627
:1007A0001106120613064CF4681579058A059B0597
:1007B0004CF52081211155C025C0011511052105D9
:1007C000310509F44EC0681579058A059B050CF0C2
:1007D00048C08081882309F444C037C01016110630
:1007E00012061306F4F400271127980108191909B5
:1007F0002A093B0960177107820793071CF42081BF
:10080000222379F19B01AC0188279927DC01821B07
:10081000930BA40BB50BF10183AB94ABA5ABB6ABBB
:1008200020C00115110521053105D9F0CC24DD24A6
:100830007601C818D908EA08FB086C157D058E05F5
:100840009F057CF4808181110CC030952095109516
:1008500001951F4F2F4F3F4FF10103AB14AB25AB59
:1008600036ABF101C3A8D4A8E5A8F6A881010D5BB9
:100870001F4FC114D104E104F10491F487A990AD94
:10088000A1ADB2AD83AF94AFA5AFB6AF81E0181400
:1008900019041A041B040CF080E0F801808340C0A6
:1008A000F10183AC94ACA5ACB6ACA5019401C50133
:1008B000B4010E943D2D2B013C01C701B6010E94ED
:1008C000742B20E030E040E850E40E94D32B20E07D
:1008D00030E040E85FE30E943D2D9B01AC01C30185
:1008E000B2010E94A92D9B01AC01C501B4010E9477
:1008F0003C2D4B015C01F101FF96408051806280EC
:1009000073809201A3010E94512E181614F0420127
:100910005301A401B501F10143AF54AF65AF76AF08
:10092000FFEFCF1ADF0AEF0AFF0AF101C3AAD4AA28
:10093000E5AAF6AA23AD34AD45AD56ADCA01B9015D
:1009400029833A834B835C830E94222EF10163A3A7
:1009500074A385A396A329813A814B815C8160E0D1
:1009600074E284E799E40E94A92DF101638B748BF2
:10097000858B968BF8012081211108C0DC01CB0109
:10098000B058F101838B948BA58BB68B0F900F9091
:100990000F900F90DF91CF911F910F91FF90EF90EB
:1009A000DF90CF90BF90AF909F908F907F906F908F
:1009B0005F904F903F902F9008950F931F93FC01ED
:1009C0000385148525853685400F511F621F731FCF
:1009D00007851089218932890417150726073707EB
:1009E00041F04787508B618B728B1F910F910C9454
:1009F0006B031F910F910895CF93FC01C0818FEF7E
:100A00008C0F8B3098F520E437E0DB010E94E02E5C
:100A100024EB30E040E050E00E94AA2CDA01C9014A
:100A2000805E9D4FAF4FBF4F8032F2E09F0744F092
:100A30009C01213689E038072CF020E639E002C01D
:100A400020E232E028503109EC2FF0E0C901880F94
:100A5000892F881F990BAF01440F551FE40FF51F15
:100A6000E65EFD4F8183220F20952283CF9108956A
:100A70000F931F93CF938C01C62F80913103811167
:100A800023C080E090E03BE027E5FC01E65EFD4FFF
:100A900034832583039681329105B9F78BE18093E6
:100AA0001B021092300310922F03109270001092CC
:100AB000B00082E08093B1001092B20081E087BB69
:100AC0008093700080933103D8018C918823A1F02A
:100AD00061E08C2F0E94300FD801EC91F0E0CF0143
:100AE000880F991FE80FF91FE65EFD4FCF718081D7
:100AF000807EC82BC062C083F8018081CF911F9196
:100B00000F9108951F920F920FB60F9211242F93F9
:100B10003F934F935F936F937F938F939F93AF9385
:100B2000BF93EF93FF9380912F038F5F80932F03E9
:100B300020912F038091300390E0FC01EE0FFF1F06
:100B40008E0F9F1FFC01E65EFD4F818128130FC0B1
:100B50008091300390E0FC01EE0FFF1F8E0F9F1F6E
:100B6000FC01E65EFD4F82818093B20065C020915A
:100B70002F038091300390E0FC01EE0FFF1F8E0FDA
:100B80009F1FFC01E65EFD4F8181821708F054C073
:100B90008091300390E0FC01EE0FFF1F8E0F9F1F2E
:100BA000FC01E65EFD4F808185FF10C0809130031F
:100BB00090E0FC01EE0FFF1F8E0F9F1FFC01E65E11
:100BC000FD4F808160E08F710E947E0E8091300326
:100BD0008F5F8093300310922F031092B2008091A8
:100BE0003003882319F1809130038C30F8F4809120
:100BF000300390E0FC01EE0FFF1F8E0F9F1FFC01E2
:100C0000E65EFD4F808185FF17C08091300390E044
:100C1000FC01EE0FFF1F8E0F9F1FFC01E65EFD4FD4
:100C2000808161E08F710E947E0E06C0809130034A
:100C30008C3010F010923003FF91EF91BF91AF9183
:100C40009F918F917F916F915F914F913F912F91E4
:100C50000F900FBE0F901F9018952F923F924F92BA
:100C60005F926F927F928F929F92AF92BF92CF923C
:100C7000DF92EF92FF920F931F93CF93DF9300D0F9
:100C8000CDB7DEB78C0149832A83660F771FF80141
:100C9000EA5AFF4FE080F180EE0CFF1CF801CF0113
:100CA000801B910B8E159F0514F41192F8CF89814A
:100CB000F801E60FF71F81838A818083580184E55C
:100CC000A80EB11C60E0F50180810E947E0EE00E4E
:100CD000F11E4801F2E58F0E911C380180E5680E87
:100CE000711CC701801B910B1816190624F5F7011A
:100CF000C2907F01F4013080F301208087E0482E0C
:100D0000512CD12CB601042C02C0759567950A941C
:100D1000E2F761707727822D0E947E0E61E0832DBD
:100D20000E947E0E60E0832D0E947E0EF1E04F1A3D
:100D3000510840F7D6CF61E0F50180810F900F9008
:100D4000DF91CF911F910F91FF90EF90DF90CF90A7
:100D5000BF90AF909F908F907F906F905F904F90DB
:100D60003F902F900C947E0ECF92DF92EF92FF92E5
:100D70000F931F93CF93DF9377FD23C0FC01EA5AB3
:100D8000FF4F2081318162177307DCF4EB017C0196
:100D90006B0183E0CC0CDD1C8A95E1F701E010E0EB
:100DA000F801EC0DFD1DEE0DFF1D178620E0402F14
:100DB000BE01C7010E942D060F5F1F4F09301105AC
:100DC00079F7DF91CF911F910F91FF90EF90DF9016
:100DD000CF900895CF93FC01C48121E020930D03AF
:100DE000C0932E0310920702109206028385682B8F
:100DF00084ED93E00E94840280910602813208F023
:100E000046C0909105029111FCCF92E090930502AB
:100E100091E0909304029FEF90930C0310920B03C8
:100E200080930A03AEE0B3E02AEE32E0F9019E2F90
:100E3000921B981718F49D919193F9CF1092E902A3
:100E40008091E902CC0FC82BC093E9028091030284
:100E5000813061F4109203028091E9028093BB001B
:100E60008091BC0083FDF8CF85EC01C085EE8093B6
:100E7000BC00809105028230E1F380910C038F3F2A
:100E800031F080910C03803211F080910C031092AC
:100E900007021092060210920D03CF9108950F934E
:100EA0001F93CF938C01C62F0E94EA066C2F6061BE
:100EB000C8010E94EA066C2F6F7EC8010E94EA06F4
:100EC00083EC90E00197F1F7CF911F910F91089576
:100ED0000F931F93CF93DF938C01D62FC42F62956E
:100EE0006F70642B0E944F076D2F6F706C2BC801C1
:100EF000DF91CF911F910F910C944F0740E40E9416
:100F0000680780E090E008951F920F920FB60F924D
:100F100011242F933F934F935F936F937F938F93FE
:100F20009F93AF93BF93EF93FF93809193040E949D
:100F3000550E20919704309198042F5F3F4F3093C6
:100F400098042093970490919604953618F096E0B3
:100F500090939204909192049430C9F128F49230C5
:100F600069F09330D1F05EC0953009F451C09630ED
:100F700009F058C091E09093630551C0811152C0AF
:100F800020919704309198042436310508F442C02A
:100F900010926305109296041CC0813009F042C083
:100FA000E091960491E09E0F90939604F0E02091DA
:100FB000970430919804EE0FFF1FEE56FB4F3087D9
:100FC0002783109298041092970494E029C081110D
:100FD00017C0E091960491E09E0F90939604F0E084
:100FE0002091970430919804EE0FFF1FEE56FB4FAF
:100FF00030872783109298041092970493E010C0D2
:1010000020919704309198042536310558F007C097
:10101000811108C0109298041092970403C095E0C3
:1010200090939204909195049923B9F081110AC08C
:1010300080919404882321F08091940461E009C098
:101040002D9A0BC080919404882331F080919404F0
:1010500060E00E947E0E01C02D98FF91EF91BF913C
:10106000AF919F918F917F916F915F914F913F9140
:101070002F910F900FBE0F901F9018951F920F92F7
:101080000FB60F9211242F933F934F935F936F935B
:101090007F938F939F93AF93BF93EF93FF93809131
:1010A000B900887F803609F49CC068F5883209F45D
:1010B0005BC090F4803109F454C038F4882309F4FB
:1010C000F6C0883009F44DC0F6C0883109F44CC030
:1010D000803209F45DC0EFC0803409F468C048F480
:1010E000803309F455C0883309F0E5C080930C03C0
:1010F000D8C0803509F44FC0883509F45DC0883404
:1011000009F0D9C0D6C0883909F4C7C0A8F4883717
:1011100009F467C038F4883609F463C0803709F4ED
:1011200060C0C9C0883809F4B8C0803909F45FC00C
:10113000803809F0C0C05BC0803B09F486C038F439
:10114000803A09F466C0883A09F47FC0B4C0803C94
:1011500009F4A7C0883C09F4A4C0883B09F48AC0FC
:10116000AAC08091E90210C090910B0380910A03FC
:10117000981770F5E0910B0381E08E0F80930B03BD
:10118000F0E0E651FD4F80818093BB0085EC86C086
:1011900080930C038EC0E0910B0381E08E0F80934F
:1011A0000B038091BB00F0E0E651FD4F80839091EE
:1011B0000B0380910A036EC0E0910B0381E08E0F58
:1011C00080930B038091BB00F0E0E651FD4F8083DC
:1011D0008091040281116DC081E08093030284EA52
:1011E00061C083E0809305021092E802CFCF809126
:1011F000E802803208F051C0E091E80281E08E0FF1
:101200008093E8028091BB00F0E0E853FD4F8083BB
:10121000BDCF85EC8093BC00109205028091E8025E
:10122000803230F4E091E802F0E0E853FD4F1082A4
:101230006091E80270E0E091C602F091C70288EC8C
:1012400092E009951092E80236C084E0809305028E
:101250001092C5021092C402E091C202F091C30242
:1012600009958091C402811105C081E08093C40278
:101270001092A202E091C50281E08E0F8093C50218
:10128000F0E0EE55FD4F80818093BB009091C50248
:101290008091C402981708F479CF85E88093BC0048
:1012A0000AC085EC8093BC001092050204C0109225
:1012B0000C030E94FC01FF91EF91BF91AF919F91B0
:1012C0008F917F916F915F914F913F912F910F90EF
:1012D0000FBE0F901F9018950F931F93CF93DF931E
:1012E0000AE012E0C0E0D0E0F80161918F01CE0188
:1012F0000E949C2C2196C031D105B1F7DF91CF918E
:101300001F910F91089587EA91E00E94BF128BEA26
:1013100091E00C94BF12CF92DF92EF92FF920F9365
:101320001F93CF93DF93CDB7DEB72C970FB6F8940A
:10133000DEBF0FBECDBF8B016A01BC01CE0101969D
:101340000E94E80D18861F821A8619861C861B8645
:1013500069817A816115710531F04D815E81CE011F
:1013600007960E948A0DEB84FC848FEFE81AF80A36
:10137000B701CE0107960E941F0D882309F477C09C
:101380002F8138858B859C8567E971E0820F931FDB
:101390000E940031FC86EB86CE0107960E94B612B1
:1013A000CE0107960E94AB0DCE0101960E94AB0DB7
:1013B0000E301105F4F0B8016E5071094AE0CE010B
:1013C00007960E94B00D6CEB71E0CE0101960E9471
:1013D000E80DBE01695F7F4FCE0101960E94580D56
:1013E0000E94B612CE0101960E94AB0DCE01079667
:1013F0000CC04AE0B801CE0101960E94B00DCE01AA
:1014000001960E94B612CE0101960E94AB0D4AE0F1
:10141000B601CE0107960E94B00D67E971E0CE01DA
:1014200001960E94E80DBE01695F7F4FCE010196D3
:101430000E94580D0E94B61289EB91E00E94BF12E3
:10144000CE0101960E94AB0DCE0107960E94AB0D16
:101450002C960FB6F894DEBF0FBECDBFDF91CF91B3
:101460001F910F91FF90EF90DF90CF900895CE01E4
:1014700007960E94460D90CFCF93DF93C0EFD1E047
:10148000FE0131978081882319F1813049F48881E8
:101490000E94550E688170E0AC0183E791E016C0B0
:1014A000823049F488810E941D10688170E0AC018F
:1014B00086E791E00BC0833059F4888190E00E9468
:1014C000D112688170E0AC018EEB91E00E948B0933
:1014D000229682E0C430D80799F6DF91CF91089523
:1014E000CF93DF93EB01FC0160816134E1F43F9322
:1014F0002F935F934F93DF93CF9323EC31E03F9390
:101500002F939F938F930E940731888199810E9624
:10151000998388838DB79EB70A960FB6F8949EBFBD
:101520000FBE8DBF16C03F932F935F934F93DF93F2
:10153000CF9323E831E03F932F939F938F930E94A3
:1015400007318DB79EB70A960FB6F8949EBF0FBEAF
:101550008DBFDF91CF910895CF93DF93EB01FC0115
:1015600020812134D1F45F934F93DF936F932EEC5E
:1015700031E03F932F939F938F930E94073188818F
:1015800099810E96998388838DB79EB708960FB67A
:10159000F8949EBF0FBE8DBF14C05F934F93DF932F
:1015A0006F9326E831E03F932F939F938F930E9490
:1015B00007318DB79EB708960FB6F8949EBF0FBE41
:1015C0008DBFDF91CF910895CF93DF93EB01FC01A5
:1015D0002081213481F4DF936F9326ED31E03F9336
:1015E0002F939F938F930E940731888199810E9644
:1015F000998388830AC0DF936F9329E831E03F9392
:101600002F939F938F930E9407310F900F900F900D
:101610000F900F900F90DF91CF910895CF92DF92AE
:10162000EF92FF920F931F93CF93DF936C017A0198
:101630008B01C0E0D0E0CE15DF0589F0D8016D91B7
:101640008D01D601ED91FC910190F081E02DC60154
:101650000995892B11F47E0102C02196ECCFC701B8
:10166000DF91CF911F910F91FF90EF90DF90CF907E
:101670000895FC01918D828D981761F0828DDF01B4
:10168000A80FB11D5D968C91928D9F5F9F73928F75
:1016900090E008958FEF9FEF0895FC01918D828D6A
:1016A000981731F0828DE80FF11D858D90E0089537
:1016B0008FEF9FEF0895FC01918D228D892F90E08F
:1016C000805C9F4F821B91098F739927089587E350
:1016D00093E00E945B0B21E0892B09F420E0822F2C
:1016E0000895FC01848DDF01A80FB11DA35ABF4FDF
:1016F0002C91848D90E001968F739927848FA68911
:10170000B7892C93A089B1898C9180648C93938D37
:10171000848D981306C00288F389E02D80818F7D27
:1017200080830895EF92FF920F931F93CF93DF93DF
:10173000EC0181E0888F9B8D8C8D981305C0E88922
:10174000F989808185FD24C0F62E0B8D10E00F5F96
:101750001F4F0F731127E02E8C8DE8120CC00FB6AF
:1017600007FCFACFE889F989808185FFF5CFCE01A2
:101770000E94710BF1CF8B8DFE01E80FF11DE35A32
:10178000FF4FF0820B8FEA89FB898081806207C05E
:10179000EE89FF896083E889F9898081806480838C
:1017A00081E090E0DF91CF911F910F91FF90EF903A
:1017B0000895CF93DF93EC01888D8823C9F0EA89DF
:1017C000FB89808185FD05C0A889B9898C9186FD3A
:1017D0000FC00FB607FCF5CF808185FFF2CFA88937
:1017E000B9898C9185FFEDCFCE010E94710BE7CFB7
:1017F000DF91CF91089580E090E0892B29F00E943D
:10180000670B81110C9400000895833081F028F457
:10181000813099F08230A1F008958730A9F08830A6
:10182000B9F08430D1F4809180008F7D03C0809125
:1018300080008F7780938000089584B58F7702C0F1
:1018400084B58F7D84BD08958091B0008F7703C0EB
:101850008091B0008F7D8093B0000895CF93DF9387
:101860004770552766277727FA013197EC01A88141
:10187000B981E730F10520F4E35CFF4F0C94DA2ED8
:101880001496ED91FC91159761E029C01496ED91A5
:10189000FC91159765E023C01496ED91FC91159786
:1018A00064E01DC01496ED91FC91159766E017C099
:1018B0001496ED91FC91159762E011C01496ED918C
:1018C000FC9115976AE00BC01496ED91FC91159769
:1018D00068E005C01496ED91FC91159769E0DF91E1
:1018E000CF910994CF93DF93EC01CB01BA0126E0AD
:1018F00030E040E050E00E94AA2C62307105810582
:10190000910559F18CF46115710581059105F1F08E
:101910006130710581059105C1F5E881F981048087
:10192000F581E02D65E02DC06430710581059105DC
:1019300011F1D4F0653071058105910531F5E8812B
:10194000F9810480F581E02D66E01BC0E881F98112
:101950000480F581E02D64E014C0E881F981048001
:10196000F581E02D61E00DC0E881F9810480F58109
:10197000E02D63E006C0E881F9810480F581E02D67
:1019800062E0CE01DF91CF910994DF91CF9108956C
:101990004370552766277727DC01ED91FC91048081
:1019A000F581E02D423051056105710571F043303C
:1019B00051056105710559F0413051056105710509
:1019C00011F065E005C066E003C06AE001C069E0AF
:1019D0000994CF93DF93EC01CB01BA0123E030E00F
:1019E00040E050E00E94AA2C61307105810591050C
:1019F00081F0623071058105910591F0672B682BAC
:101A0000692BC1F4E881F9810480F581E02D64E05F
:101A10000DC0E881F9810480F581E02D61E006C008
:101A2000E881F9810480F581E02D62E0CE01DF914B
:101A3000CF910994DF91CF9108950E94F2300F93D6
:101A40001F93CF93DF93EC0188819981009729F050
:101A50002A813B812617370788F48B016F5F7F4F00
:101A60000E942830009761F0998388831B830A8342
:101A70002C813D81232B11F4FC01108281E001C0F7
:101A800080E0DF91CF911F910F910895CF93DF9365
:101A9000EC0188819981009711F00E94902F1982A2
:101AA00018821D821C821B821A82DF91CF910895B9
:101AB000EF92FF920F931F93CF93DF93EC01FB0103
:101AC00084819581E080F1800C811D81E114F10415
:101AD000B1F00097B9F0080F191FB801CE010E94AC
:101AE0001F0D882361F0288139818C819D81B70188
:101AF000820F931F0E9400311D830C8303C0CE010F
:101B00000E94460DCE01DF91CF911F910F91FF9062
:101B1000EF900895EF92FF920F931F93CF93DF936F
:101B2000EC017B018A01BA010E941F0D811104C0E2
:101B3000CE010E94460D07C01D830C83B70188812A
:101B400099810E940031CE01DF91CF911F910F91B9
:101B5000FF90EF900895FC01808191810C94902F6B
:101B6000EF92FF920F931F93CF93DF93CDB7DEB722
:101B700062970FB6F894DEBF0FBECDBF8C01CB01CC
:101B8000F80111821082138212821582148250E0B1
:101B90009E012F5F3F4F7901B9010E944127F70154
:101BA00001900020E9F73197AF014E195F09B701A5
:101BB000C8010E948A0D62960FB6F894DEBF0FBE70
:101BC000CDBFDF91CF911F910F91FF90EF900895BE
:101BD000FC01118210821382128215821482611517
:101BE000710551F0FB0101900020E9F73197AF0139
:101BF000461B570B0C948A0D08951F920F920FB637
:101C00000F9211242F933F934F935F936F937F9382
:101C10008F939F93AF93BF93EF93FF9387E393E0EB
:101C20000E94710BFF91EF91BF91AF919F918F91A6
:101C30007F916F915F914F913F912F910F900FBEC8
:101C40000F901F9018951F920F920FB60F921124AC
:101C50002F938F939F93EF93FF93E0914703F0911E
:101C600048038081E0914D03F0914E0382FD12C044
:101C70009081809150038F5F8F7320915103821761
:101C800051F0E0915003F0E0E95CFC4F958F8093B8
:101C9000500301C08081FF91EF919F918F912F910F
:101CA0000F900FBE0F901F901895CF93DF93282FA2
:101CB00030E0F901E252FE4F8491F901E05FFD4FFF
:101CC000D491F901E450FE4FC491CC2391F08111DD
:101CD0000E94050CEC2FF0E0EE0FFF1FEE50FE4FC0
:101CE000A591B491EC91ED2381E090E021F480E0A6
:101CF00002C080E090E0DF91CF9108951F93CF93D1
:101D0000DF93282F30E0F901E252FE4F8491F90170
:101D1000E05FFD4FD491F901E450FE4FC491CC2314
:101D2000C9F0162F81110E94050CEC2FF0E0EE0F88
:101D3000FF1FE753FE4FA591B4918FB7F89411118F
:101D400005C09C91ED2FE095E92302C0EC91ED2BAD
:101D5000EC938FBFDF91CF911F9108951F920F9247
:101D60000FB60F9211242F933F934F935F936F936E
:101D70007F938F939F93AF93BF93EF93FF93809144
:101D8000EB019091EC01A091ED01B091EE01892B56
:101D90008A2B8B2B59F18091E801E091E901F091B8
:101DA000EA019081892780838091EB019091EC0179
:101DB000A091ED01B091EE01181619061A061B0646
:101DC0000CF03DC08091EB019091EC01A091ED01F0
:101DD000B091EE010197A109B1098093EB019093B5
:101DE000EC01A093ED01B093EE0129C080910001B8
:101DF000E3EDF1E0E4919FEF90930001E130B9F061
:101E000098F0E230C9F4909170009D7F909370003B
:101E100091E09093B0009091B100987F946090937E
:101E2000B1001092B30008C010926E0005C09091EE
:101E30006F009D7F90936F0060E00E947E0EFF9187
:101E4000EF91BF91AF919F918F917F916F915F9132
:101E50004F913F912F910F900FBE0F901F901895AB
:101E6000CF93DF9390E0FC01E05FFD4F2491FC01F4
:101E7000E450FE4F8491882361F190E0880F991F10
:101E8000FC01EC52FE4FC591D491FC01E753FE4F8B
:101E9000A591B491611109C09FB7F89488812095EC
:101EA00082238883EC912E230BC0623061F49FB7AC
:101EB000F8943881822F809583238883EC912E2B90
:101EC0002C939FBF06C08FB7F894E8812E2B2883F0
:101ED0008FBFDF91CF910895CF93DF93FC012281D3
:101EE000222359F1EC0161E083810E94300F61E00F
:101EF0008C810E94300F8A81843011F0883039F44F
:101F000061E08D810E94300F61E08E8106C08330D8
:101F100011F0863021F461E08D810E94300F8EA592
:101F20008F3F59F061E00E94300F6DA581E0682776
:101F30008EA5DF91CF910C947E0EDF91CF91089505
:101F4000CF93DF93FC0122812223A9F0EC010190C1
:101F5000F081E02D0480F581E02D60E009958EA5EB
:101F60008F3F49F061E00E94300F6DA58EA5DF9193
:101F7000CF910C947E0EDF91CF9108951F93CF9354
:101F8000DF93182FEB0161E00E94300F209711F4CE
:101F900060E004C0CF3FD10539F461E0812FDF91CB
:101FA000CF911F910C947E0EE12FF0E0E252FE4F94
:101FB000E491E330F9F048F4E130B9F0E230A1F512
:101FC00084B5806284BDC8BD34C0E730E9F0E83034
:101FD00019F1E43049F5809180008062809380009F
:101FE000D0938B00C0938A0024C084B5806884BDE0
:101FF000C7BD1FC080918000806880938000D0930F
:102000008900C093880015C08091B00080688093DB
:10201000B000C093B3000DC08091B0008062809387
:10202000B000C093B40005C0C038D1050CF0B5CFE6
:10203000AFCFDF91CF911F9108958E3008F08E5071
:102040008770806480937C0080917A0080648093A4
:102050007A0080917A0086FDFCCF809178002091F3
:10206000790090E0922B08953FB7F8948091330364
:1020700090913403A0913503B091360326B5A89B07
:1020800005C02F3F19F00196A11DB11D3FBFBA2F0A
:10209000A92F982F8827820F911DA11DB11DBC016A
:1020A000CD0142E0660F771F881F991F4A95D1F72F
:1020B00008958F929F92AF92BF92CF92DF92EF924C
:1020C000FF926B017C010E9434104B015C01C11432
:1020D000D104E104F104F1F00E943410DC01CB01E1
:1020E00088199909AA09BB09883E9340A105B10541
:1020F00070F321E0C21AD108E108F10888EE880ED9
:1021000083E0981EA11CB11CC114D104E104F104A8
:1021100019F7DDCFFF90EF90DF90CF90BF90AF9099
:102120009F908F9008951F920F920FB60F921124D7
:102130002F933F938F939F93AF93BF9380913E02D2
:1021400090913F02A0914002B09141023091320340
:1021500023E0230F2D3720F40196A11DB11D05C0EA
:1021600026E8230F0296A11DB11D20933203809310
:102170003E0290933F02A0934002B09341028091AF
:10218000330390913403A0913503B0913603019647
:10219000A11DB11D8093330390933403A0933503A5
:1021A000B0933603BF91AF919F918F913F912F9143
:1021B0000F900FBE0F901F9018951F93CF93DF9332
:1021C000EC01162F8981882331F08E8187FD03C0B1
:1021D00060E00E94300F1E838981882341F061E016
:1021E000812F0E94300F60E0812F0E947E0E812F90
:1021F00090E0FC01E450FE4FE491F0E0EE0FFF1F91
:10220000E753FE4F259134913B8B2A8BFC01E05F15
:10221000FD4FE491EC8BDF91CF911F9108954F9288
:102220005F926F927F928F929F92AF92BF92CF9266
:10223000DF92EF92FF92CF93DF93EC016A017B0173
:102240008B8C9C8CAD8CBE8C9A01AB01C501B4010A
:102250000E946D2B882309F449C06BA97CA98DA924
:102260009EA90E94742B2B013C01A7019601C50178
:10227000B4010E94A92D9B01AC01C301B2010E94CF
:10228000D32B0E941B2E6BAB7CAB8DAB9EABA701FF
:10229000960160E070E080E090E40E94A92D0E9429
:1022A0005C2E26E53EE04DE25FE30E94D32B20E06A
:1022B00034E244E759E40E94D32B6FAB78AF89AF87
:1022C0009AAFCB8EDC8EED8EFE8ECE01DF91CF915C
:1022D000FF90EF90DF90CF90BF90AF909F908F9046
:1022E0007F906F905F904F900C946B03DF91CF9134
:1022F000FF90EF90DF90CF90BF90AF909F908F9026
:102300007F906F905F904F9008958F929F92AF92C1
:10231000BF92CF92DF92EF92FF92CF93DF93EC01C7
:102320008B889C88AD88BE8820E030E0A901C5017B
:10233000B4010E946D2B882309F43FC0A5019401CC
:10234000C501B4010E94D32B6B017C016B8D7C8D88
:102350008D8D9E8D9B01AC010E943D2D9B01AC019A
:10236000C701B6010E94A92D0E941B2E6B017C01A2
:102370002FEFC21AD20AE20AF20A20E030E0A901E5
:10238000C501B4010E94512E18161CF4B701A60114
:1023900007C044275527BA014C195D096E097F090A
:1023A000CE01DF91CF91FF90EF90DF90CF90BF9063
:1023B000AF909F908F900C94DD04DF91CF91FF90B0
:1023C000EF90DF90CF90BF90AF909F908F90089547
:1023D000CF92DF92EF92FF920F931F93CF93DF93F1
:1023E000EC014F85588969897A898B859C85AD85F3
:1023F000BE85481759076A077B0711F480E050C073
:102400008E010D5B1F4F84179507A607B70724F4AD
:1024100081E0F801808302C0F80110828BA19CA1A9
:10242000ADA1BEA1892B8A2B8B2B41F30E943410C6
:102430006B017C018FA198A5A9A5BAA5B701A6013A
:10244000481B590B6A0B7B0B8BA19CA1ADA1BEA1B4
:10245000481759076A077B0788F2F80120818B85A6
:102460009C85AD85BE85222321F00196A11DB11D5D
:1024700003C00197A109B1098B879C87AD87BE87EF
:10248000E881F9814B855C856D857E850680F781C5
:10249000E02DCE010995CFA2D8A6E9A6FAA681E043
:1024A000DF91CF911F910F91FF90EF90DF90CF9030
:1024B0000895CF92DF92EF92FF92CF93DF93EC01DA
:1024C00020E030E046E154E46F89788D898D9A8D63
:1024D0000E946D2B882309F442C080E090E0A6E1C1
:1024E000B4E48F8B988FA98FBA8F85E595E5A0ED21
:1024F000B4E4FE01FF9680839183A283B3838BA90A
:102500009CA9ADA9BEA9181619061A061B063CF50A
:102510006B897C898D899E899B01AC010E94D32B9C
:102520006B017C016B8D7C8D8D8D9E8D9B01AC0133
:102530000E943D2D9B01AC01C701B6010E94A92D4F
:102540000E941B2E6BAB7CAB8DAB9EABCE01DF91A3
:10255000CF91FF90EF90DF90CF900C946B03DF91C1
:10256000CF91FF90EF90DF90CF900895FC014481D0
:1025700055816081718187E393E00C940E0B009785
:1025800069F0FC0101900020E9F73197AF01481B89
:10259000590BBC0187E393E00C940E0B80E090E0B4
:1025A00008950F931F93CF93DF93EC0161E00E9496
:1025B000300F60E08C2F0E947E0E83E090E0019748
:1025C000F1F761E08C2F0E947E0E83E290E001978C
:1025D000F1F760E08C2F0E947E0E60E08C2F0E944D
:1025E000300FDD27FE01E05FFD4F6491FE01E450F6
:1025F000FE4FE491F0E0EE0FFF1FEE50FE4F85918D
:10260000949100E412E42FE030E0462F0E941C1564
:10261000611571058105910539F0DC01CB01019649
:10262000A11DB11DBF7003C080E090E0DC016AE332
:1026300070E00E94C62ECB01009711F487EE93E064
:10264000DF91CF911F910F910895DC019091E703E5
:10265000992361F0699FB0011124672F499FA00160
:102660001124452F299F90011124232F3091ED0330
:102670008091EA03E091E803F091E903381308C080
:10268000CD01880F991F8A0F9B1F8E0F9F1F0BC0B4
:10269000CD01880F991F880F991F8E0F9F1FFC0176
:1026A000E30FF11D10823091EA03FC01E30FF11DED
:1026B00060833091EB03FC01E30FF11D4083309107
:1026C000EC03FC01E30FF11D208308958F929F928C
:1026D000AF92BF920F931F93CF93DF93CDB7DEB727
:1026E000A1970FB6F894DEBF0FBECDBF19A242303E
:1026F00008F44AE08E010F5D1F4F842E912CA12C0F
:10270000B12CA50194010E940B2DE62FB901CA013D
:1027100001501109EA3014F4E05D01C0E95CD80110
:10272000EC93232B242B252B61F7C8010E94BF12A9
:10273000A1960FB6F894DEBF0FBECDBFDF91CF914B
:102740001F910F91BF90AF909F908F9008954F92DF
:102750005F926F927F928F929F92AF92BF92CF9231
:10276000DF92EF92FF926B017C01B42E9B01AC01D2
:102770000E949C2E882319F08BED91E027C0260142
:102780003701E89477F82FEF3FEF4FE75FE7C3019A
:10279000B2010E949C2E81110DC02FEF3FEF4FE739
:1027A0005FE7C301B2010E946D2B18161CF48FED78
:1027B00091E00CC02FEF3FEF4FE75FE4C701B60198
:1027C0000E94512E181684F483EE91E0FF90EF9052
:1027D000DF90CF90BF90AF909F908F907F906F9041
:1027E0005F904F900C94BF122FEF3FEF4FE75FECDD
:1027F000C701B6010E946D2B87FDE6CF20E030E0D7
:10280000A901C701B6010E946D2B87FF11C0E0919D
:102810003703F09138030190F081E02D6DE287E3FA
:1028200093E009954C01F7FAF094F7F8F09402C0A0
:10283000812C912CA12C60E070E080E09FE3AB1430
:1028400041F020E030E040E251E40E94A92DA39441
:10285000F6CF9B01AC01C701B6010E943D2D2B01B3
:102860003C010E94222E6B017C010E94722B9B0175
:10287000AC01C301B2010E943C2D2B013C014AE096
:10288000C701B6010E9466137C01E80CF91CBB204D
:1028900069F0E0913703F09138030190F081E02D69
:1028A0006EE287E393E00995E80EF91EDB2CDD204C
:1028B00021F120E030E040E251E4C301B2010E9486
:1028C000D32B2B013C010E94222E4B01A12CB12CB9
:1028D0004AE0C501B4010E946613E80EF91EC50165
:1028E000B4010E94722B9B01AC01C301B2010E9492
:1028F0003C2D2B013C01DA94DACFC701FF90EF9019
:10290000DF90CF90BF90AF909F908F907F906F900F
:102910005F904F9008950F931F93CF93DF930DE92E
:1029200016E061E0F80181810E94300FC3ECD0E035
:10293000CE010197F1F760E0F80180810E94300F2D
:10294000CE010197F1F760E0F80181810E94300F1C
:102950002197F1F7DF91CF911F910F910895EF9299
:10296000FF920F931F93CF93DF93082F18E083EC10
:10297000E82EF12C61E080919D060E94300FC70186
:102980000197F1F700FF02C060E001C061E08091B3
:102990009E060E94300FC3ECD0E0C7010197F1F70B
:1029A00060E080919D060E94300FC7010197F1F70A
:1029B00006951150F9F661E080919D060E94300F56
:1029C00060E080919E060E94300FCE010197F1F7E2
:1029D00060E080919D060E94300F2197F1F7809171
:1029E0009E060E94550E182F811105C061E080914E
:1029F0009E060E94300FC3ECD0E0CE010197F1F7A4
:102A000061E080919D060E94300F2197F1F781E0EF
:102A1000111101C080E0DF91CF911F910F91FF90C4
:102A2000EF90089561E080919E060E94300F83EC44
:102A300090E00197F1F70895CF92DF92EF92FF9225
:102A40000F931F93E82FF92F05C001501109210999
:102A5000310961F1908196239417B9F305C00150B3
:102A600011092109310911F1908196239413F7CFAF
:102A7000C12CD12CE12CF12C0AC08FEFC81AD80A36
:102A8000E80AF80A0C151D052E053F0579F080812E
:102A90008623841791F36C2D7D2D8E2D9F2D1F91F4
:102AA0000F91FF90EF90DF90CF90089560E070E07D
:102AB00080E090E01F910F91FF90EF90DF90CF901A
:102AC0000895CF93DF93CDB7DEB7C854D1090FB6C1
:102AD000F894DEBF0FBECDBF789484B5826084BD0C
:102AE00084B5816084BD85B5826085BD85B5816012
:102AF00085BD80916E00816080936E001092810090
:102B0000809181008260809381008091810081604A
:102B1000809381008091800081608093800080910B
:102B2000B10084608093B1008091B0008160809397
:102B3000B00080917A00846080937A0080917A005E
:102B4000826080937A0080917A00816080937A001D
:102B500080917A00806880937A001092C100E091A1
:102B60004703F091480382E08083E0914303F091B2
:102B700044031082E0914503F091460380E1808395
:102B800010924F03E0914B03F0914C0386E0808359
:102B9000E0914903F0914A03808180618083E09154
:102BA0004903F0914A03808188608083E091490362
:102BB000F0914A03808180688083E0914903F0911D
:102BC0004A0380818F7D808384E1EFEEF1E0DF01B5
:102BD0001D928A95E9F70E9483098FE080939F06F2
:102BE00080919B0690919C061816190644F421E0EA
:102BF0004CE060E070E085E496E00E942D06809154
:102C00009B0690919C061816190644F428E04AE0A9
:102C100060E070E085E496E00E942D0660E070E0E0
:102C200085E496E00E94B4068AE0E82E82E0F82E61
:102C300000E010E0C8010E94942CF70181937F010D
:102C40000F5F1F4F00311105A9F780910A02909183
:102C50000B02823D9440D9F080E1EAE0F2E0DF012E
:102C60001D928A95E9F782ED94E090930B02809390
:102C70000A0280E090E0A0E8BFE380930C0290930A
:102C80000D02A0930E02B0930F020E946C0961E046
:102C900087E00E94300F60E087E00E947E0E61E0D6
:102CA00088E00E94300F60E088E00E947E0EE7E836
:102CB000F5E080E090E0208121112CC023E1289FE5
:102CC000F001299FF00D1124E957FA4F81E080832C
:102CD00084E690E0A0E0B0E081839283A383B48394
:102CE0008FEF9FEF968385838CE39AE092878187AD
:102CF0002FB7F89480913E0290913F02A09140023C
:102D0000B09141022FBF85879687A787B08B128A23
:102D1000118A26C0019673968A30910561F620C00B
:102D200087E393E00E945B0B892B11F40C943D2008
:102D300087E393E00E94390BA091A102E1E0EA0F42
:102D4000E093A1020A2E000CBB0BAF59BD4F8C9330
:102D50008A30D9F08091A102803414F31092A1023C
:102D60003E01B2E26B0E711CFE0131961F019E0105
:102D7000285D3F4F2901AE01465D5F4F5AAF49AF15
:102D8000CE018E969CAF8BAFCBCF0E2E000CFF0BDF
:102D9000EF59FD4F1082809161028D3411F00C9437
:102DA0002A2082E692E00E94FC268C01AE01405D62
:102DB0005F4F67E971E082E692E00E941A270A36C7
:102DC000110509F49FC50CF05CC00730110509F42A
:102DD00054C3E4F40330110509F401C174F4013063
:102DE000110509F4E4C00CF0EEC0012B11F00C94B5
:102DF0002A200E9483090C942A2088A999A90530C9
:102E0000110509F413C10CF4F8C024C10E301105EA
:102E100009F4CBC4C4F40930110509F497C30CF4C8
:102E20003DC30D30110511F00C942A20A101B3010E
:102E300088A999A90E94AC0A4AA15BA1EFEEF1E032
:102E400080E090E0A5C40536110509F413C50636E7
:102E5000110509F49AC00436110511F00C942A20CA
:102E600088A899A89A82898250E9C52EDD24D39436
:102E700060E9A62EBB24B39400E010E0E12CF12C15
:102E8000ADC40D3C110509F4A7C694F5093C110524
:102E900009F430C674F40D36110509F476C5083C02
:102EA000110509F409C60C36110511F00C942A20FD
:102EB00032C50B3C110509F44BC688A999A90C3CF5
:102EC00011050CF060C6A101B3010E94AC0A8AA1F1
:102ED0009BA10E94D1128C018DE891E00E94BF124B
:102EE000B801110F880B990B0E94742B0C94E61FEC
:102EF000013D110511F40C94CB1F8CF588A999A9FB
:102F00000F3C110509F475C714F00C94301F9301A0
:102F1000AE01465D5F4FB2010E94700A9AA588A576
:102F200080939D0690939E0660E00E94300F60E0C3
:102F300080919E060E94300F60E080919D060E9465
:102F40007E0E60E080919E060E947E0E2AA13BA12B
:102F50000FE111E0F101DD24D39440E0FDC6033D13
:102F6000110511F40C94EE1F14F40C94DA1F043DB7
:102F7000110511F40C940220073E134011F00C943B
:102F80002A200C9400000C942A20109265051092BF
:102F900064051092670510926605109269051092FB
:102FA000680510926B0510926A050C942A20A10105
:102FB000B30188A999A90E94AC0A69818AA10E94DB
:102FC000300F0C942A20A101B30188A999A90E946D
:102FD000AC0A69818AA10E947E0E0C942A20B1015C
:102FE00088A999A90E94E40A89810E94550E6981E5
:102FF0007A81AC0183E791E029C0A101B3010E946D
:10300000AC0A8AA19BA18330910569F09C012550EF
:1030100031092230310538F024503109233031058F
:1030200010F00C942A2069817A81AAC5B1010E940E
:10303000E40A89810E941D1069817A816E307105D0
:1030400014F40C942A20AC0186E791E00E948B09CD
:103050000C942A209101A301B2010E94700AE98117
:10306000FA812396FFAFEEAF23972AA13BA12996C1
:103070003FAF2EAF299788A599A52091000128136D
:1030800004C0E3EDF1E0149182C02F3F11F00C94E5
:103090002A2080930001E3EDF1E014911F3F11F429
:1030A0000C942A20113029F1123009F449C0111171
:1030B0006EC014BC15BC24B5226024BD25B52160AA
:1030C00025BD9C013327F901E450FE4FE491F0E067
:1030D000EE0FFF1FE753FE4F459154915093470267
:1030E00040934602F901E05FFD4FE491E093450211
:1030F00050C01092800010928100209181002860C1
:1031000020938100209181002160209381009C0107
:103110003327F901E450FE4FE491F0E0EE0FFF1F7A
:10312000E753FE4F4591549150934402409343021C
:10313000F901E05FFD4FE491E093420211E029C004
:103140001092B0001092B1002091B0002260209344
:10315000B0002091B10021602093B1009C01332781
:10316000F901E450FE4FE491F0E0EE0FFF1FE7534A
:10317000FE4F459154915093EA014093E901F901C2
:10318000E05FFD4FE491E093E80112E002C017FD1B
:1031900061C723962EAD3FAD2397032E000C440B41
:1031A000550B27962CAF3DAF4EAF5FAF279761E031
:1031B0000E94300F29964EAD5FAD29974A01A12C90
:1031C000B12C812F8D7F09F0C4C060E072E18AE7E5
:1031D00090E0A50194010E94AA2C21962CAF3DAF4E
:1031E0004EAF5FAF219769017A0151E0C51AD1084E
:1031F000E108F1086FEFC616D104E104F10409F00B
:1032000008F44FC060E472E48FE090E0A5019401FF
:103210000E94AA2C69017A0181E0C81AD108E1084C
:10322000F108123011F59FEFC916D104E104F10441
:1032300009F010F40C94B92360E970ED83E090E09C
:10324000A50194010E94AA2C69017A01A1E0CA1A81
:10325000D108E108F108BFEFCB16D104E104F10475
:1032600011F008F03EC083E06DC0EFEFCE16D10440
:10327000E104F104C1F0B8F068E478EE81E090E098
:10328000A50194010E94AA2C69017A01F1E0CF1AEC
:10329000D108E108F108112311F40C9494230C9443
:1032A0008A2381E001C082E011114CC015C0219633
:1032B0008CAD9DADAEADBFAD21972AE0B595A7957C
:1032C000979587952A95D1F76C017D0141E0C41A45
:1032D000D108E108F10885E095B5987F892B85BD77
:1032E00075C068E478EE81E090E0A50194010E9449
:1032F000AA2C69017A01F1E0CF1AD108E108F1089E
:103300002FEFC216D104E104F10409F010F40C947B
:10331000532364E274EF80E090E0A50194010E94E1
:10332000AA2C69017A0161E0C61AD108E108F10806
:103330008FEFC816D104E104F10419F010F00C94D9
:10334000562385E09091B100987F892B8093B1003E
:103350003DC060E072E18AE790E0A50194010E941F
:10336000AA2C69017A01F1E0CF1AD108E108F1082D
:10337000C114D10421E0E206F10488F068E478EE9B
:1033800081E090E0A50194010E94AA2C69017A01D4
:1033900061E0C61AD108E108F10893E001C091E0AC
:1033A0001130A1F480918100887F892B8093810066
:1033B00027968CAD9DADAEADBFAD2797892B8A2BDF
:1033C0008B2B71F42FEF3FEFA90135C027962CAD61
:1033D0003DAD4EAD5FAD2797232B242B252B99F0C8
:1033E00029962EAD3FAD2997220F331F2396AEAD00
:1033F000BFAD23970E94E02E28EE33E040E050E07E
:103400000E940B2D03C02FEF3FEFA901113099F05F
:10341000123019F111111EC6C7BC20934C02309313
:103420004D0240934E0250934F0280916E00826095
:1034300080936E000FC6D0928900C09288002093BE
:1034400048023093490240934A0250934B028091C4
:103450006F00826080936F00FDC5C092B30020931F
:10346000EB013093EC014093ED015093EE0180911C
:103470007000826080937000EDC5A101B30188A93E
:1034800099A90E94AC0A6AA17BA187EB96E00E94F1
:10349000380569817A8187EB96E0DAC585E10E947B
:1034A0001D108C0169E771E0C1010E94E80DC101A6
:1034B0000E94B612C1010E94AB0D1BA21AA21DA24E
:1034C0001CA21FA21EA2B801110F880B990B0E940B
:1034D000742B20E030E040E85AE30E94D32B26E62C
:1034E00036E646EA50E40E94D32B9B01AC010E94D1
:1034F0003D2D810122E044E00E94D826009769F02A
:10350000FC0101900020E9F73197AF01481B590BEE
:10351000BC01C3010E948A0D03C0C3010E94460D75
:1035200067E971E0C1010E94E80DB301C1010E9489
:10353000580D0E94B61289EB91E00E94BF12C101A2
:103540000E94AB0DC3010E94AB0D84C5E8A9F9A987
:1035500080818134E1F43F922F927F926F925F924B
:103560004F923AAD3F9349AD4F935CAD5F936BADD6
:103570006F938CE791E09F938F93FF93EF930E945B
:1035800007318EA59FA50E969FA78EA716C03F92C6
:103590002F927F926F925F924F929AAD9F93A9ADB7
:1035A000AF93BCADBF932BAD2F938DE791E09F936D
:1035B0008F93FF93EF930E9407310FB6F894DEBF0D
:1035C0000FBECDBFF9800AA118A5CAA4DBA46EA5C1
:1035D00080EE93E00E94DD10C114D104B9F4C12C37
:1035E000D12C8091E2039091E303C816D90630F400
:1035F0002F2D402F612FC6010E9425135FEFC51AA2
:10360000D50A60E1C616D10461F70EC0C601019764
:103610002091E2033091E3038217930728F42F2DC2
:10362000402F612F0E9425138091E8039091E903B8
:10363000892B09F40FC50E9434100091EE031091FC
:10364000EF032091F0033091F103DC01CB01801BEB
:10365000910BA20BB30BC297A105B10560F3F894CF
:103660008091E4039091E5039DA78CA7E091E80386
:10367000F091E903DF011196808188AF9091E0031A
:10368000E091F203F091F3038091F403992309F49C
:103690002EC09081982B9FAB9081809589238EAB13
:1036A0008EA98BAB88E08AAB3FA94EA968AD5AA919
:1036B0002BA98CA59DA5308367FD232F5A952083C8
:1036C000242F39F0661F00C000004083000000C0B6
:1036D000F2CF58E06D9140830000019761F7F093BD
:1036E000F303E093F20368AF5AAB2BAB38C0908181
:1036F000982B9FAB9081809589238EAB8EA98DAB43
:1037000088E08CAB3FA94EA968AD5CA92DA98CA51A
:103710009DA5308367FD232F00C000C0208300C01B
:1037200000C000C000C000C040830000242F5A9594
:1037300041F0661F000000C000C000C000C000C013
:10374000E8CF58E06D9100C0408300C0019709F7B1
:10375000F093F303E093F20368AF5CAB2DAB9DA74E
:103760008CA778940E9434106093EE037093EF035B
:103770008093F0039093F1036DC4218130E024170E
:10378000350749F0019632968A30910509F462C4F2
:1037900020812111F2CF880F991FFC01E151FE4FCA
:1037A000898180838AA1818355C484E1EFEEF1E0B1
:1037B000DF011D928A95E9F74DC4A10167E971E027
:1037C00080E090E00E941A274C01FC0180818C343B
:1037D00041F4C40101960E94FC267C01892869F706
:1037E00018C0823531F4C40101960E94FC268C0178
:1037F000F5CF813431F4C40101960E94FC265C01AE
:10380000EDCF823459F7C40101960E94FC266C0169
:10381000E5CFA701FF0C660B770B8EE494E00E94C6
:10382000DD04B5010B2C000C880B990B0E94742B46
:10383000AB01BC018EE494E00E94EF02A801110FDD
:10384000660B770B8AE094E00E94DD04B6010D2C34
:10385000000C880B990B0E94742BAB01BC018AE011
:1038600094E00E94EF02AB2809F048C0CD2809F08F
:1038700045C048C0C8A8D9A8DA82C98200E010E0D3
:10388000E12CF12CCD28D1F0A10167E971E080E0B5
:1038900090E00E941A276C01DC018C918C3431F489
:1038A000C60101960E94FC267C01ECCF823551F7BF
:1038B000C60101960E94FC268C01E4CFA701FF0CF3
:1038C000660B770B8EE494E00E94DD0440E050E04C
:1038D00066E174E48EE494E00E94EF02A801110F07
:1038E000660B770B8AE094E00E94DD0440E050E034
:1038F00066E174E48AE094E00E94EF0281E0809344
:103900007005A8C38EE494E00E9485118AE094E0DB
:103910000E9485119FC33F922F927F926F925F9278
:103920004F92BAADBF93E9ADEF9380E891E09F93DA
:103930008F9389A98F9388A98F930E94073129813A
:103940003A814AA15BA168A579A581E00FB6F894F8
:10395000DEBF0FBECDBFEAA5FBA5EF2B09F480E0CB
:1039600080936C0581E0672B09F480E080936D05FE
:1039700081E0452B09F480E080936E0581E0232BE4
:1039800009F480E080936F0565C328A939A919A6B9
:1039900018A61BA21AA21A8219823F922F927F9216
:1039A0006F925F924F9283E891E09F938F933F9342
:1039B0002F930E94073168A579A5072E000C880B6C
:1039C000990B0E94742B23EF34E045E35FE30E94E0
:1039D000A92D0E941B2E6B017C016AA17BA1072EE1
:1039E000000C880B990B0E94742B23EF34E045E305
:1039F0005FE30E94A92D0E941B2EAB014C0D5D1DA3
:103A00009B012C193D09EE27FF27EC19FD09E61B48
:103A1000F70BC61AD70A69817A81260F371FE60F7E
:103A2000F71FC60ED71E460F571F0FB6F894DEBFFE
:103A30000FBECDBF4F3F510519F014F04FEF50E0CE
:103A40002F3F310519F014F02FEF30E0EF3FF10573
:103A500019F014F0EFEFF0E0C6018F3F910519F077
:103A600014F08FEF90E04130AFEF5A0714F441E0CB
:103A70005FEF50936505409364052130BFEF3B072E
:103A800014F421E03FEF3093670520936605E130A1
:103A90002FEFF20714F4E1E0FFEFF0936905E093F4
:103AA000680581303FEF930714F481E09FEF909316
:103AB0006B0580936A05CEC288A999A91BA21AA298
:103AC0001A821982A101B3010E94AC0A29813A81AC
:103AD0008AA19BA1FC01EC59FA4F4085411102C01B
:103AE00041E04087880F991FFC01EC59FA4F318360
:103AF0002083B0C288A999A91BA21AA21A8219828E
:103B0000A101B3010E94AC0AEAA0FBA009811A81BD
:103B1000B701601B710B072E000C880B990B0E94DC
:103B2000742B20910C0230910D0240910E025091A5
:103B30000F020E94D32B0E941B2E0E0D1F1D1093EF
:103B4000650500936405709367056093660582C2FE
:103B500060E070E089E00E94BE0F68EC70E08AE0EF
:103B60000E94BE0F6CE271E080E090E00E9459106C
:103B700060E070E089E00E94BE0F60E070E08AE0E3
:103B80000E94BE0F67C2B1010E94E40A898180933E
:103B9000930480919304F8941092800089E08093BC
:103BA000810080E293E090938900809388001092D6
:103BB00085001092840082E080936F007894809357
:103BC0009204109296048091930460E00E94300F5A
:103BD00081E08093AC063EC208A919A980915002E9
:103BE00081119EC0109209021092080210920702E1
:103BF000109206021092050281E080930402109256
:103C0000030261E082E10E947E0E61E083E10E9496
:103C10007E0E8091B9008E7F8093B9008091B900AB
:103C20008D7F8093B90088E48093B80085E4809309
:103C3000BC001092A5068091AA06823018F098E088
:103C40009093A5068093A8068BE39DE00197F1F77A
:103C50006091AB0680EA96E00E94EA0668EE73E0A7
:103C600080E090E00E94591063E080EA96E00E94B4
:103C70004F07BBE4EB2EB6E4FB2EC7010197F1F72B
:103C800063E080EA96E00E944F07C7010197F1F7D1
:103C900063E080EA96E00E944F0783E592E0019797
:103CA000F1F762E080EA96E00E944F076091A50676
:103CB000606240E080EA96E00E94680784E08093BA
:103CC000A60640E06CE080EA96E00E94680740E0CB
:103CD00061E080EA96E00E9468078BE3E82E8FE1BE
:103CE000F82EC7010197F1F782E08093A70640E024
:103CF00066E080EA96E00E94680740E062E080EAC1
:103D000096E00E946807C7010197F1F71092AB0691
:103D100060E080EA96E00E94EA0681E0809350022B
:103D200040E061E080EA96E00E9468078BE39FE153
:103D30000197F1F77801D7016D917D01662309F4B0
:103D400089C16D3009F486C16A3009F483C180EA03
:103D500096E00E947E07EFCFD801FE90EE908D0195
:103D6000C901B7010E94C62E6115710529F4DD2035
:103D7000A1F04330A1F411C0A62FAF70B0E0A95F4D
:103D8000BE4F5C916E9DC0016F9D900D7E9D900D0C
:103D90001124281B390BD12C03C05FE301C050E074
:103DA00051934F5F4430C1F60E94121580E40E9487
:103DB000AF140E948B140E94121580EC0E94AF1465
:103DC00089810E94AF148A810E94AF148B810E9466
:103DD000AF148C810E94AF140E948B140E941215A4
:103DE00080919F068F7080580E94AF140E948B14A0
:103DF00031C19101A301B2010E94700A29813A8167
:103E000068A579A54AA15BA180919B0690919C062B
:103E1000181619060CF01EC14830510508F01AC1D9
:103E20006830710508F016C180E890E002C09595F1
:103E300087956A95E2F7FA01EB5BF94F232B19F0AE
:103E40009089892B03C0809590898923808B4F5F4F
:103E5000208960E070E085E496E00E942D06FAC0BB
:103E60009101A301B2010E94700A89819A812AA15D
:103E70003BA118A509A510939506009396063093CB
:103E800098062093970690939A068093990681E06E
:103E900090E090939C0680939B0661E0812F0E94A6
:103EA000300F61E0809197060E94300F61E08091B1
:103EB00099060E94300F61E0809199060E947E0E63
:103EC0001093950600939606E5E5F6E01192B6E0AC
:103ED000E539FB07D9F700E010E080919B0690914F
:103EE0009C0608171907B4F520E04FE0B80185E4F7
:103EF00096E00E942D0617FD0EC080919B069091C2
:103F00009C06081719073CF427E04BE0B80185E44C
:103F100096E00E942D0620E049E0B80185E496E095
:103F20000E942D06B80185E496E00E94B40617FDB4
:103F30000EC080919B0690919C06081719073CF4CF
:103F400020E04CE0B80185E496E00E942D060F5F6A
:103F50001F4FC3CF1816190644F421E04CE060E06F
:103F600070E085E496E00E942D0680919B0690917A
:103F70009C061816190644F428E04AE060E070E058
:103F800085E496E00E942D0660E070E085E496E00E
:103F90000E94B4065FC088A999A90E94F826609380
:103FA0000C0270930D0280930E0290930F020E94F8
:103FB0006C0950C083E991E00E94BF1260910C022D
:103FC00070910D0280910E0290910F0242E00E94CA
:103FD000A71389EB91E00E94BF123CC07F926F92C1
:103FE0003F922F9286E891E09F938F9389A98F93B8
:103FF00088A98F930E9407310FB6F894DEBF0FBED9
:10400000CDBF28C0A101B30188A999A90E94AC0A1B
:104010004AA15BA1CA018355994FDC012C9130E084
:10402000F901EE0FFF1F2E0F3F1FF901E65EFD4F56
:10403000208125FD07C0FA01E15EFE4F608170E03E
:104040000E94380569817A818AA19BA18355994F85
:104050000E94FC0489E991E00E94BF1289EB91E083
:104060000E94BF1280E4E1E6F2E0DF011D928A9532
:10407000E9F71092A1020C94AA168091AC0688234D
:1040800009F418C189E994E090935C0280935B0283
:1040900080919604282E312C30925E0220925D028F
:1040A0008091630590E09093600280935F0280911D
:1040B0009204853009F0FEC080919B0490919C048D
:1040C000885891098D35910588F480919604843043
:1040D00041F480919D0490919E048097479708F445
:1040E00014C180919604843408F07DC096E02916AE
:1040F00031040CF4DAC00FE914E0A3E0B0E0BEAF85
:10410000ADAFE5ECCE2EEDE9DE2EECE1EE2EE1E8F2
:10411000FE2E4DAD5EAD421553050CF053C0F801B7
:10412000608171813497A080B18080E090E00E942E
:10413000722B2B013C01B50180E090E00E94722BB4
:104140004B015C012DEC3CEC4CE45FE30E94D32B73
:104150009B01AC01C301B2010E946D2B87FD17C00A
:104160002DEC3CEC4CE45FE3C301B2010E94D32B85
:104170009B01AC01C501B4010E946D2BE82F880F93
:10418000FF0BEE27FF0FEE1FFF27319602C0E0E086
:10419000F0E0A701960163E971E080E091E00E9400
:1041A000B62E6F01FF0FEE08FF08C626D726E826B9
:1041B000F9262DAD3EAD2F5F3F4F3EAF2DAF0E5FC9
:1041C0001F4FA7CFC0925502D0925602E0925702DD
:1041D000F092580280E290E090935A028093590244
:1041E0008FEF9FEF3EC080919D0490919E0482547A
:1041F00091098E9708F07ACF20E030E080E090E0DF
:10420000DC01F901E156FB4F4081518149505109D0
:104210004930510508F06ACFF901EF55FB4F408155
:104220005181475151094231510508F086C0880F2C
:10423000991FAA1FBB1F81602C5F3F4F203831059B
:1042400001F720E230E030935A0220935902809324
:10425000550290935602A0935702B093580283E000
:1042600090E0909352028093510280915502909178
:104270005602A0915702B09158028F3F9F4FAF4F07
:10428000BF4F99F08CE991E00E94BF1260915502F6
:1042900070915602809157029091580240E10E941D
:1042A000661389EB91E00E94BF1282E08093920432
:1042B0001092960440915D0450915E0460915F04F9
:1042C000709160048091590490915A04A0915B040C
:1042D000B0915C04481759076A077B07D9F54091EC
:1042E000190450911A0460911B0470911C04809170
:1042F000150490911604A0911704B0911804481762
:1043000059076A077B0731F5BEC180919F049091E0
:10431000A0040997099708F0E4CE10925A0210926F
:1043200059022FEF3FEFA901209355023093560217
:10433000409357025093580292CF4081518146508A
:1043400051094730510508F0D1CE880F991FAA1F97
:10435000BB1F72CF8EE494E00E94E8118AE094E0E3
:104360000E94E8110E9434100091710510917205AD
:104370002091730530917405DC01CB01801B910BFA
:10438000A20BB30B85369105A105B10508F40BC14D
:104390000E943410609371057093720580937305C9
:1043A0009093740580916C058823C1F08091640519
:1043B0009091650597FF03C0919581959109209192
:1043C0007505309176052817390741F460E085E0DE
:1043D0000E947E0E60E086E00E947E0E80916D0558
:1043E0008823C1F0809166059091670597FF03C00F
:1043F0009195819591092091750530917605281741
:10440000390741F460E089E00E947E0E60E08AE0B6
:104410000E947E0E80916E058823C1F08091680510
:104420009091690597FF03C091958195910920911D
:104430007505309176052817390741F460E087E06B
:104440000E947E0E60E088E00E947E0E80916F05E3
:104450008823C1F080916A0590916B0597FF03C096
:1044600091958195910920917505309176052817D0
:10447000390741F460E08CE00E947E0E60E08DE040
:104480000E947E0E8091750590917605019690931D
:104490007605809375058F3F91050CF484C080915B
:1044A0006C05882341F060E085E00E947E0E60E0AC
:1044B00086E00E947E0E80916D05882341F060E0C9
:1044C00089E00E947E0E60E08AE00E947E0E80916C
:1044D0006E05882341F060E087E00E947E0E60E078
:1044E00088E00E947E0E80916F05882341F060E095
:1044F0008CE00E947E0E60E08DE00E947E0E1092A5
:1045000076051092750580916C05882381F0809165
:10451000640590916505181619061CF461E085E0A4
:1045200004C0892B21F061E086E00E947E0E80911C
:104530006D05882381F080916605909167051816B6
:1045400019061CF461E089E004C0892B21F061E0C8
:104550008AE00E947E0E80916E05882381F0809112
:10456000680590916905181619061CF461E087E04A
:1045700004C0892B21F061E088E00E947E0E8091CA
:104580006F05882381F080916A0590916B0518165C
:1045900019061CF461E08CE004C0892B21F061E075
:1045A0008DE00E947E0E8FB7F89480903E0290902E
:1045B0003F02A0904002B09041028FBF6FE8E62E0C
:1045C00065E0F62E07E815E0D8012C91222309F4C6
:1045D0004CC01D968D919D910D90BC91A02DB50163
:1045E000A401481B590B6A0B7B0BF8018181928156
:1045F000A381B481481759076A077B0700F121306E
:1046000019F0223031F011C00184F285E02D0995B6
:104610000CC061E0F7018081811160E0D7016C93EB
:10462000F701319780810E947E0EF801858696867B
:10463000A786B08A818992890196928B818BD80155
:1046400015968D919C91169797FD0FC051962D91BF
:104650003C9152972817390744F01C921B96ED9114
:10466000FC911C97309709F009950D5E1F4FB3E13F
:10467000EB0EF11CE6E005341E0709F0A5CF0E9401
:10468000FB0B0C94B01680917005882309F46ACE58
:104690001092700582EA91E00E94BF1289EB91E0CE
:1046A0000E94BF125FCE84E00C94A21962E17AE707
:1046B00080E090E0A50194010E94AA2C69017A0192
:1046C00061E0C61AD108E108F1088FEFC816D104DD
:1046D000E104F104E1F0D8F021968CAD9DADAEADD2
:1046E000BFAD2197FAE0B595A79597958795FA956F
:1046F000D1F76C017D01E1E0CE1AD108E108F108A3
:10470000112311F40C946B1987E00C94A21986E024
:104710000C9454199FEFC916D104E104F10409F077
:1047200028F684E00C945419EFEFCE16D104E1047E
:10473000F104E1F0D8F062E17AE780E090E0A501D1
:1047400094010E94AA2C69017A01A1E0CA1AD10839
:10475000E108F108BFEFCB16D104E104F10419F030
:1047600010F00C94571984E00C946C1983E00C94AD
:104770006C1982E00C94A2198091E8039091E903EE
:10478000009711F00E94902F8091E60387FD03C0EF
:1047900060E00C94300F0895AF92BF92CF92DF92F9
:1047A000EF92FF920F931F93CF93DF9310923A03F0
:1047B0001092390388EE93E0A0E0B0E080933B03D1
:1047C00090933C03A0933D03B0933E0385E391E0B7
:1047D000909338038093370385EC90E090934403E3
:1047E0008093430384EC90E09093460380934503C9
:1047F00080EC90E0909348038093470381EC90E035
:1048000090934A038093490382EC90E090934C0389
:1048100080934B0386EC90E090934E0380934D037E
:1048200010925003109251031092520310925303AE
:1048300025E4A22E21E0B22EB0924F04A0924E04A5
:10484000D4E0D09350041092590410925A0410925C
:104850005B0410925C0410925D0410925E0410924E
:104860005F0410926004109261041092620410922E
:10487000630410926404C12CD12C30E8E32E3FE392
:10488000F32EC0926504D0926604E0926704F09221
:1048900068041092690410926A0410926B041092DA
:1048A0006C04C0926D04D0926E04E0926F04F0929A
:1048B000700410927104109272041092730410929A
:1048C000740401E010E010937A0400937904CFEFB0
:1048D000C0937C04109275041092760410927704B1
:1048E0001092780485E08093510489E0809352040B
:1048F00086E0809353048AE08093540410928104EC
:104900001092820410928304109284041092850401
:1049100010928604109287041092880410928904E1
:1049200010928A0410928B0410928C04C0928D0411
:10493000D0928E04E0928F04F09290041092910431
:104940001092550410925604109257041092580475
:104950008EE494E00E946C0FB701A6018EE494E00F
:104960000E940F11B0920B04A0920A04D0930C0481
:104970001092150410921604109217041092180445
:104980001092190410921A0410921B0410921C0425
:1049900010921D0410921E0410921F041092200405
:1049A000C0922104D0922204E0922304F0922404C5
:1049B00010922504109226041092270410922804C5
:1049C000C0922904D0922A04E0922B04F0922C0485
:1049D00010922D0410922E0410922F041092300485
:1049E0001093360400933504C093380410923104B8
:1049F00010923204109233041092340487E08093B2
:104A00000D048CE080930E0488E080930F048DE009
:104A10008093100410923D0410923E0410923F04C3
:104A200010924004109241041092420410924304E8
:104A300010924404109245041092460410924704C8
:104A400010924804C0924904D0924A04E0924B0468
:104A5000F0924C0410924D04109211041092120422
:104A600010921304109214048AE094E00E946C0FD8
:104A7000B701A6018AE094E00E940F111092090488
:104A80001092E1031092E7031092EE031092EF03ED
:104A90001092F0031092F10381E08093ED03809374
:104AA000EA031092EB0392E09093EC038093E0030F
:104AB00080E390E09093E5038093E4030E94FB2E53
:104AC0009093E9038093E803009761F020E3FC01F1
:104AD00011922A95E9F780E190E09093E3038093A7
:104AE000E20308C01092E5031092E4031092E3037E
:104AF0001092E20366E080EE93E00E94DD101092D7
:104B0000D7031092D60388EE93E0A0E0B0E0809344
:104B1000D8039093D903A093DA03B093DB038FE516
:104B200091E09093D5038093D4038091B806EDEA89
:104B3000F6E08B3018F48F5F808301C010823196CD
:104B400096E0E83BF907A9F78093B8068FEF8093CA
:104B50009304109295041092A3061092A2068FE679
:104B600091E09093A1068093A0068FE38093A40622
:104B700080E18093A90682E08093AA0680E8809372
:104B8000AB06C4E0D0E0D0939606C093950687E0CC
:104B900090E0909398068093970688E090E0909339
:104BA0009A068093990681E090E090939C0680930A
:104BB0009B0661E084E00E94300F61E080919706DF
:104BC0000E94300F61E0809199060E94300F61E0F1
:104BD000809199060E947E0ED0939606C09395060A
:104BE000E5E5F6E0119286E0E539F807D9F7C0E08F
:104BF000D0E080919B0690919C06C817D907ACF530
:104C000020E04FE0BE0185E496E00E942D06D7FD2E
:104C10000EC080919B0690919C06C817D9073CF462
:104C200027E04BE0BE0185E496E00E942D0620E0DF
:104C300049E0BE0185E496E00E942D06BE0185E4B0
:104C400096E00E94B406D7FD0EC080919B0690911D
:104C50009C06C817D9073CF420E04CE0BE0185E46F
:104C600096E00E942D062196C4CFE7E8F5E0108279
:104C7000739696E0E534F907D1F71092710510921A
:104C800072051092730510927405109276051092B9
:104C9000750588E0E9E2F1E0AFE7B5E001900D923B
:104CA0008A95E1F78EE494E00E94591240E050E0CA
:104CB00068E473E48EE494E00E940F118AE094E0CB
:104CC0000E94591240E050E068E473E48AE094E006
:104CD0000E940F11E0910904EA3068F481E08E0F20
:104CE00080930904F0E0EE0FFF1FEB50FC4F8EE4C1
:104CF00094E091838083E0910904EA3068F481E0D4
:104D00008E0F80930904F0E0EE0FFF1FEB50FC4F75
:104D10008AE094E0918380838091E60387FD08C058
:104D200061E00E94300F60E08091E6030E947E0EF9
:104D300081E08093E1031092700580936D0580936C
:104D40006C0510926F0510926E0580E090EBACE55B
:104D5000B6E48093770590937805A0937905B09396
:104D60007A0583E29BEDA9EFBDE380937B059093E9
:104D70007C05A0937D05B0937E05CFE7D5E08E013D
:104D800061E089910E94300F60E0F80180810E940B
:104D90007E0EF5E0C738DF0791F7DF91CF911F91C5
:104DA0000F91FF90EF90DF90CF90BF90AF9008955C
:104DB000EF920F931F93CF93DF93E80147FD02C05B
:104DC00034E001C034E1E42F440FFF0BF7FF03C0D0
:104DD000F195E195F109E32E022F2E2FAE010E94ED
:104DE0007927CE01DF91CF911F910F91EF90089518
:104DF000662777270C940729FC0188279927E894D0
:104E000021912032E9F3293010F02E30C8F32B32F3
:104E100041F02D3239F4689404C00E945727820F64
:104E2000911D219120532A30C0F31EF49095819555
:104E30009F4F0895FA01A191B081009719F410973E
:104E4000E1F0CD01DC01CD010D90002011F4C00195
:104E500013C0FB012191222319F02015D9F7F3CFBC
:104E6000FB012191201519F41E92119606C02223F0
:104E7000C1F70D900020A1F7D001FA01A193B083F2
:104E800008954532510520F4423010F00C944C271F
:104E9000FB011082CB010895BB274A3031F49923DE
:104EA00022F4BDE2909581959F4F0C9460277AE0A3
:104EB000979F902D879F802D910D11240895BB27DA
:104EC000FB015527AA27880F991FAA1FA41710F0C6
:104ED000A41B83955051B9F7A05DAA3308F0A95DD2
:104EE000A193009779F7B111B1931192CB010C9472
:104EF0005D2B4F925F926F927F929F92AF92BF9283
:104F0000CF92DF92EF92FF920F931F93CF93DF9395
:104F1000CDB7DEB729970FB6F894DEBF0FBECDBF71
:104F20006A01122FB02E2BE3201720F0FF24F394F8
:104F3000F00E02C0BCE3FB2E0F2D27E0AE014F5F49
:104F40005F4F0E94642AAC018981982F997091303B
:104F500031F0E1FC06C0E0FE06C090E205C09DE233
:104F600003C09BE201C090E0EE2DE07183FF3CC0E6
:104F7000911102C083E001C084E0811718F4212F51
:104F8000281B01C020E0E1110BC0F601822F30E2A6
:104F9000882319F031938150FBCFC20ED11C20E041
:104FA000992329F0D6019C93F60131966F01C60131
:104FB0000396E2FE0AC03EE4D6013C9341E411961A
:104FC0004C93119712963C9306C03EE6F60130834F
:104FD00041E641833283FC01322F40E2332309F45E
:104FE00042C041933150FACF82FF44C0911102C0B8
:104FF00083E001C084E0811718F4212F281B01C031
:1050000020E0E1110BC0F601822F30E2882319F075
:1050100031938150FBCFC20ED11C20E0992329F09F
:10502000D6019C93F60131966F01C6010396E2FE0C
:105030000BC039E4D6013C933EE411963C931197A2
:1050400036E412963C9307C039E6F60130833EE61B
:10505000318336E63283FC01322F40E2332319F0EC
:1050600041933150FBCFFC01E20FF11D10828EEF16
:105070009FEFB7C0F1E0911101C0F0E06F2F70E039
:105080001416150624F49A012F5F3F4F02C021E049
:1050900030E0260F371FBB2029F06B2D70E06F5FCB
:1050A0007F4F02C060E070E0260F371F612F70E075
:1050B000261737071CF4121B212F01C020E03E2DBC
:1050C000387159F4D601322F60E2332319F06D9311
:1050D0003150FBCFC20ED11C20E0FF2331F0D601AE
:1050E0009C93B6016F5F7F4F6B01E1110BC0F6011E
:1050F000922F30E3992319F031939150FBCFC20ED8
:10510000D11C20E09F2D940F3A81782F7071A72E2B
:1051100084FF03C0313309F49150191624F49930F7
:1051200018F098E001C091E0E42F852F57FF02C0EE
:10513000E0E080E06E2F782FE0E0F0E0AEE29A2E23
:105140003A01691A71082A01461A570A0B2D10E014
:105150001195019511096F3F8FEF780729F4D6015A
:105160009C92C60101966C014617570784F066169B
:1051700077066CF47F01E40CF51CA1E0B0E0AC0F05
:10518000BD1FEA0EFB1ED7011196BC9002C090E332
:10519000B92E615071093196C60101967C016017E4
:1051A000710724F0D601BC926C01D5CF6417750746
:1051B00041F4363320F4353321F4A11002C081E3E9
:1051C000B82EF601B082F701822F90E2882319F001
:1051D00091938150FBCFF701E20FF11D108280E027
:1051E00090E029960FB6F894DEBF0FBECDBFDF91D9
:1051F000CF911F910F91FF90EF90DF90CF90BF90D4
:10520000AF909F907F906F905F904F900895A0E037
:10521000B0E0EDE0F9E20C94D82CEC017B016115D3
:10522000710519F0DB018D939C938E010F5F1F4F69
:105230007880872D90E00E943C2B892B11F0E801AB
:10524000F4CFBDE27B1205C00F5F1F4F7980C1E034
:1052500008C0EBE27E1204C08E010E5F1F4F798002
:10526000C0E06801F1E0CF1AD10843E050E060E906
:1052700070E0C6010E94452B892BF1F4680122E001
:10528000C20ED11C45E050E06BE870E0C6010E9400
:10529000452B892B21F4680187E0C80ED11CE1144D
:1052A000F10419F0D701CD92DC92C111FFC060E08A
:1052B00070E080E89FE703C143E050E068E870E0F9
:1052C000C6010E94452B892B51F4E114F10409F425
:1052D000F2C00E5F1F4FF70111830083ECC068011D
:1052E00060E070E0CB0100E010E0F601D0EDD70DFA
:1052F000DA3058F52C2F2260622E2C2F2870C2FF36
:1053000005C0211128C00F5F1F4F25C0222311F0B7
:1053100001501109A5E0B0E09B01AC010E94C92C2D
:105320004B015C01880C991CAA1CBB1CC501B40173
:105330006D0F711D811D911D6839A9E97A078A07D2
:10534000A9E19A0740F0C66005C0DE3F51F4C3FDF5
:1053500044C0C8606C2EBFEFCB1ADB0A7080C62D2C
:10536000C4CF2D2F2F7D2531C1F540814D3211F451
:10537000C06106C04B3221F0319621E030E006C01A
:105380003296D60111964C9122E030E0A0EDA40FA8
:10539000AA3018F0E21BF30B20C040E050E0403888
:1053A000BCE05B075CF49A01220F331F220F331F0E
:1053B000420F531F440F551F4A0F511D3196DF01F5
:1053C00011972C91A0EDA20FAA3048F3C4FF03C09F
:1053D000519541955109040F151FC1FF07C0E114F4
:1053E000F10421F03197D701ED93FC930E94722BC9
:1053F000C370C33019F06B017C0106C06B017C01E6
:10540000F7FAF094F7F8F09420E030E0A901C70132
:10541000B6010E946D2B882309F445C017FF06C012
:10542000119501951109C7EAD0E002C0CFEBD0E099
:105430005E01B8E1AB1AB1084601BE2DAF2D90E276
:10544000E92EF12C0E151F0584F0FE0125913591F2
:1054500045915491B4018B2F9A2F0E94D32B4B016D
:10546000B82FA92F0E191F09EDCF2497F594E794B3
:10547000CA15DB0539F76401EB2EFA2E8E2D880F45
:105480008F2D881F8F3F49F020E030E0A901C70130
:10549000B6010E946D2B811106C082E290E09093CC
:1054A000BA068093B906C701B60109C060E070E092
:1054B00080E89FEF04C060E070E080EC9FE7CDB72C
:1054C000DEB7EEE00C94F42C283008F027E0332708
:1054D000DA01990F311D87FD916000966105710514
:1054E00039F432602E5F3D9330E32A95E1F7089559
:1054F0009F3F30F080387105610509F03C5F3C5FEB
:105500003D93913008F08068911DDF93CF931F93F6
:105510000F93FF92EF92192F987F9695E92F96950A
:105520009695E90FFF27E35EFE4F99273327EE2478
:10553000FF24A701E70105900894079428F4360F8B
:10554000E71EF81E491F511D660F771F881F991F00
:105550000694A1F70590079428F4E70EF81E491F5A
:10556000561FC11D770F881F991F661F0694A1F74C
:105570000590079428F4F80E491F561FC71FD11D28
:10558000880F991F661F771F0694A1F7059007944F
:1055900020F4490F561FC71FD81F990F661F771F8A
:1055A000881F0694A9F784911095177041F0D6953D
:1055B000C79557954795F794E7941A95C1F7E3EC8B
:1055C000F0E068941590159135916591959105904D
:1055D0007FE27395E118F10A430B560BC90BD00912
:1055E000C0F7E10CF11E431F561FC91FD01D7EF4EA
:1055F000703311F48A95E6CFE894015030F0080F2B
:105600000AF40027021708F4202F2395022F7A337B
:1056100028F079E37D932A95E9F710C07D932A95C8
:1056200089F6069497956795379517951794E1181D
:10563000F10A430B560BC90BD00998F023957E91C4
:1056400073957A3308F070E37C932013B8F77E915A
:1056500070617D9330F0839571E37D9370E32A95BB
:10566000E1F71124EF90FF900F911F91CF91DF91FF
:10567000992787FD9095089591110C94402C8032C4
:1056800019F089508550C8F70895FB01DC0141509D
:10569000504088F08D9181341CF08B350CF4805E85
:1056A000659161341CF06B350CF4605E861B6111F2
:1056B00071F3990B0895881BFCCFDC01FC01672F67
:1056C00071917723E1F7329704C07C916D937083D9
:1056D0006291AE17BF07C8F308950E94AF2B08F47C
:1056E00081E00895E89409C097FB3EF49095809579
:1056F000709561957F4F8F4F9F4F9923A9F0F92F98
:1057000096E9BB279395F695879577956795B79515
:10571000F111F8CFFAF4BB0F11F460FF1BC06F5FFB
:105720007F4F8F4F9F4F16C0882311F096E911C00D
:10573000772321F09EE8872F762F05C0662371F02E
:1057400096E8862F70E060E02AF09A95660F771F42
:10575000881FDAF7880F9695879597F90895990F1E
:105760000008550FAA0BE0E8FEEF16161706E8072B
:10577000F907C0F012161306E407F50798F0621B4C
:10578000730B840B950B39F40A2661F0232B242B21
:10579000252B21F408950A2609F4A140A6958FEF40
:1057A000811D811D08950E94E62B0C945A2C0E94A5
:1057B0004C2C38F00E94532C20F0952311F00C94BF
:1057C000432C0C94492C11240C948E2C0E946B2C8D
:1057D00070F3959FC1F3950F50E0551F629FF00144
:1057E000729FBB27F00DB11D639FAA27F00DB11D5D
:1057F000AA1F649F6627B00DA11D661F829F2227E6
:10580000B00DA11D621F739FB00DA11D621F839F6C
:10581000A00D611D221F749F3327A00D611D231F42
:10582000849F600D211D822F762F6A2F11249F5790
:1058300050409AF0F1F088234AF0EE0FFF1FBB1F93
:10584000661F771F881F91505040A9F79E3F510552
:1058500080F00C94432C0C948E2C5F3FE4F3983E24
:10586000D4F3869577956795B795F795E7959F5FFC
:10587000C1F7FE2B880F911D9695879597F908958E
:1058800099278827089597F99F6780E870E060E07E
:1058900008959FEF80EC089500240A9416161706C9
:1058A00018060906089500240A9412161306140611
:1058B00005060895092E0394000C11F4882352F074
:1058C000BB0F40F4BF2B11F460FF04C06F5F7F4F2C
:1058D0008F4F9F4F089557FD9058440F551F59F013
:1058E0005F3F71F04795880F97FB991F61F09F3FCD
:1058F00079F087950895121613061406551FF2CFF6
:105900004695F1DF08C0161617061806991FF1CF45
:1059100086957105610508940895E894BB2766276C
:105920007727CB0197F90895F999FECF92BD81BDF4
:10593000F89A992780B50895262FF999FECF1FBAB6
:1059400092BD81BD20BD0FB6F894FA9AF99A0FBEA8
:1059500001960895052E97FB1EF400940E94C12C19
:1059600057FD07D00E940B2D07FC03D04EF40C947A
:10597000C12C50954095309521953F4F4F4F5F4F2B
:10598000089590958095709561957F4F8F4F9F4FAB
:1059900008950E942D2DA59F900DB49F900DA49F5A
:1059A000800D911D112408952F923F924F925F9286
:1059B0006F927F928F929F92AF92BF92CF92DF921F
:1059C000EF92FF920F931F93CF93DF93CDB7DEB784
:1059D000CA1BDB0B0FB6F894DEBF0FBECDBF099418
:1059E0002A88398848885F846E847D848C849B846F
:1059F000AA84B984C884DF80EE80FD800C811B817D
:105A0000AA81B981CE0FD11D0FB6F894DEBF0FBEAB
:105A1000CDBFED010895A1E21A2EAA1BBB1BFD010B
:105A20000DC0AA1FBB1FEE1FFF1FA217B307E4077D
:105A3000F50720F0A21BB30BE40BF50B661F771FD5
:105A4000881F991F1A9469F76095709580959095B5
:105A50009B01AC01BD01CF010895A29FB001B39F8E
:105A6000C001A39F700D811D1124911DB29F700D67
:105A7000811D1124911D08955058BB27AA270E940B
:105A8000542D0C945A2C0E944C2C38F00E94532C0C
:105A900020F039F49F3F19F426F40C94492C0EF4AD
:105AA000E095E7FB0C94432CE92F0E946B2C58F3F4
:105AB000BA17620773078407950720F079F4A6F5F3
:105AC0000C948D2C0EF4E0950B2EBA2FA02D0B010B
:105AD000B90190010C01CA01A0011124FF27591B33
