:100000000C9497000C94BF000C94BF000C94BF009C
:100010000C94BF000C94BF000C94BF000C9400091A
:100020000C94BF000C9486110C94BF000C94CF026A
:100030000C94BF000C94BF000C94BF000C94BF0044
:100040000C94930A0C94BF000C9475080C944F0800
:100050000C94BF000C94BF000C94BF000C94BF0024
:100060000C9489030C94BF00170C1D0C230C290C55
:100070002F0C350C3B0C760D7D0D840D8B0D920DE8
:10008000A90D990DA90DA00D4E414E494E49545947
:10009000494E46CDCCCC3D0AD7233C17B7D1387753
:1000A000CC2B329595E6241FB14F0A000020410069
:1000B00000C84200401C4620BCBE4CCA1B0E5AAEB3
:1000C000C59D746364696E6F70737578585B0000CA
:1000D000000000250028002B000200000000240082
:1000E00027002A00000000080002010000030407A6
:1000F00000000000000000000000000023002600B7
:10010000290004040404040404040202020202029A
:1001100003030303030301020408102040800102CB
:1001200004081020010204081020F524E5241124FD
:100130001FBECFEFD8E0DEBFCDBF11E0A0E0B1E041
:10014000E6E2F6E602C005900D92AE3EB107D9F7A1
:1001500027E0AEEEB1E001C01D92A43AB207E1F78C
:1001600010E0C6E9D0E004C02197FE010E94B02D46
:10017000C539D107C9F70E94B2160C9406330C9406
:10018000000085ED8093BC008091BC0084FDFCCF15
:100190001092150208954091D002262F30E0240FCE
:1001A000311D21323105DCF4209115022430C9F4CF
:1001B000FC0180E090E0861758F43091D002219144
:1001C000DC01A255BD4FA30FB11D2C930196F3CFB7
:1001D0008091D002680F6093D00280E0089581E0A2
:1001E000089582E00895089581E090E03091190229
:1001F00020911802321710F480E090E091958195DB
:10020000910908958091190290911802891730F48C
:100210008F5F8093190280E090E008958FEF9FEF49
:1002200008958091180290E020911902821B910993
:100230000895CF92DF92EF92FF920F931F93CF9387
:10024000DF937C01262F972F8A0180911903882341
:1002500091F0C62FD72F6E01C40ED51ECC15DD052B
:1002600071F06991D701ED91FC910190F081E02D41
:10027000C7010995F3CF642F822F0E94CB00C801DC
:10028000DF91CF911F910F91FF90EF90DF90CF9072
:100290000895CF93DF931F92CDB7DEB76983209186
:1002A00019032223D1F020911602203240F021E0E0
:1002B00030E0FC013383228380E090E015C0809120
:1002C0001702E82FF0E0E65EFC4F998190838F5F84
:1002D000809317028093160205C061E0CE0101965B
:1002E0000E94CB0081E090E00F90DF91CF910895C4
:1002F0002F923F924F925F926F927F928F929F9236
:10030000AF92BF92CF92DF92EF92FF920F931F9323
:10031000CF93DF9300D0CDB7DEB78C0149832A831A
:10032000660F771FF801EA5AFF4FE080F180EE0C6C
:10033000FF1CF801CF01801B910B8E159F0514F453
:100340001192F8CF8981F801E60FF71F81838A8126
:100350008083580184E5A80EB11C60E0F50180811E
:100360000E94D008E00EF11E4801F2E58F0E911CAC
:10037000380180E5680E711CC701801B910B1816AF
:10038000190624F5F701C2907F01F4013080F301D2
:10039000208087E0482E512CD12CB601042C02C0BD
:1003A000759567950A94E2F761707727822D0E9410
:1003B000D00861E0832D0E94D00860E0832D0E9468
:1003C000D008F1E04F1A510840F7D6CF61E0F501AF
:1003D00080810F900F90DF91CF911F910F91FF902F
:1003E000EF90DF90CF90BF90AF909F908F907F90D5
:1003F0006F905F904F903F902F900C94D008CF92C9
:10040000DF92EF92FF920F931F93CF93DF9377FDCD
:1004100023C0FC01EA5AFF4F208131816217730724
:10042000DCF4EB017C016B0183E0CC0CDD1C8A95D4
:10043000E1F701E010E0F801EC0DFD1DEE0DFF1DF0
:10044000178620E0402FBE01C7010E9478010F5F90
:100450001F4F0930110579F7DF91CF911F910F914F
:10046000FF90EF90DF90CF900895CF93FC01C4816F
:1004700021E020931903C0933A03109217021092BF
:1004800016028385682B84EE93E00E9449018091D7
:100490001602813208F046C0909115029111FCCFEE
:1004A00092E09093150291E0909314029FEF909345
:1004B00018031092170380931603AAE1B3E026EF06
:1004C00032E0F9019E2F921B981718F49D91919399
:1004D000F9CF1092F5028091F502CC0FC82BC09392
:1004E000F50280911302813061F410921302809121
:1004F000F5028093BB008091BC0083FDF8CF85ECB2
:1005000001C085EE8093BC00809115028230E1F33A
:10051000809118038F3F31F080911803803211F0E1
:10052000809118031092170210921602109219036C
:10053000CF9108950F931F93CF938C01C62F0E94E4
:1005400035026C2F6061C8010E9435026C2F6F7EEE
:10055000C8010E94350283EC90E00197F1F7CF913A
:100560001F910F9108950F931F93CF93DF938C01E9
:10057000D62FC42F62956F70642B0E949A026D2F44
:100580006F706C2BC801DF91CF911F910F910C946C
:100590009A0240E40E94B30280E090E008951F9226
:1005A0000F920FB60F9211242F933F934F935F93A7
:1005B0006F937F938F939F93AF93BF93EF93FF932B
:1005C000809171050E94A7082091750530917605EC
:1005D0002F5F3F4F309376052093750590917405FA
:1005E000953618F096E090937005909170059430D0
:1005F000C9F128F4923069F09330D1F05EC09530A3
:1006000009F451C0963009F058C091E0909341062A
:1006100051C0811152C02091750530917605243664
:10062000310508F442C010924106109274051CC0B6
:10063000813009F042C0E091740591E09E0F9093E3
:100640007405F0E02091750530917605EE0FFF1FDF
:10065000E059FA4F3087278310927605109275057E
:1006600094E029C0811117C0E091740591E09E0FBC
:1006700090937405F0E02091750530917605EE0FAA
:10068000FF1FE059FA4F30872783109276051092AA
:10069000750593E010C020917505309176052536DB
:1006A000310558F007C0811108C0109276051092EC
:1006B000750503C095E0909370059091730599239B
:1006C000B9F081110AC080917205882321F08091D0
:1006D000720561E009C02D9A0BC0809172058823D4
:1006E00031F08091720560E00E94D00801C02D9821
:1006F000FF91EF91BF91AF919F918F917F916F91FA
:100700005F914F913F912F910F900FBE0F901F90CF
:1007100018951F920F920FB60F9211242F933F93AB
:100720004F935F936F937F938F939F93AF93BF93F9
:10073000EF93FF938091B900887F803609F49CC0C5
:1007400068F5883209F45BC090F4803109F454C034
:1007500038F4882309F4F6C0883009F44DC0F6C097
:10076000883109F44CC0803209F45DC0EFC0803498
:1007700009F468C048F4803309F455C0883309F09F
:10078000E5C080931803D8C0803509F44FC0883580
:1007900009F45DC0883409F0D9C0D6C0883909F49D
:1007A000C7C0A8F4883709F467C038F4883609F45C
:1007B00063C0803709F460C0C9C0883809F4B8C084
:1007C000803909F45FC0803809F0C0C05BC0803B4D
:1007D00009F486C038F4803A09F466C0883A09F40E
:1007E0007FC0B4C0803C09F4A7C0883C09F4A4C011
:1007F000883B09F48AC0AAC08091F50210C090918C
:10080000170380911603981770F5E091170381E0A4
:100810008E0F80931703F0E0EA50FD4F80818093A4
:10082000BB0085EC86C0809318038EC0E09117034F
:1008300081E08E0F809317038091BB00F0E0EA50B7
:10084000FD4F808390911703809116036EC0E09155
:10085000170381E08E0F809317038091BB00F0E0B7
:10086000EA50FD4F80838091140281116DC081E0B8
:100870008093130284EA61C083E080931502109292
:10088000F402CFCF8091F402803208F051C0E091A1
:10089000F40281E08E0F8093F4028091BB00F0E0BF
:1008A000EC52FD4F8083BDCF85EC8093BC0010924D
:1008B00015028091F402803230F4E091F402F0E00D
:1008C000EC52FD4F10826091F40270E0E091D20290
:1008D000F091D30284ED92E009951092F40236C0B3
:1008E00084E0809315021092D1021092D002E09120
:1008F000CE02F091CF0209958091D002811105C0FE
:1009000081E08093D0021092AE02E091D10281E0AA
:100910008E0F8093D102F0E0E255FD4F80818093ED
:10092000BB009091D1028091D002981708F479CF42
:1009300085E88093BC000AC085EC8093BC001092CF
:10094000150204C0109218030E94C100FF91EF919C
:10095000BF91AF919F918F917F916F915F914F91D7
:100960003F912F910F900FBE0F901F9018950F93EE
:100970001F93CF93DF930AE112E0C0E0D0E0F801CB
:1009800061918F01CE010E94722B2196C031D10559
:10099000B1F7DF91CF911F910F9108958DEA91E00A
:1009A0000E94C91281EB91E00C94C912CF92DF92A0
:1009B000EF92FF920F931F93CF93DF93CDB7DEB7E4
:1009C0002E970FB6F894DEBF0FBECDBF6A016D87BC
:1009D0007E870E94C91282EA91E00E94C9126D8549
:1009E0007E856E3071050CF454C06E5071094AE07A
:1009F000CE0107960E9405081A8219821C821B826A
:100A00001E821D8261E070E0CE0101960E94CC073B
:100A1000811105C0CE0101960E94F3070AC081E052
:100A200090E09E838D8362EC71E089819A810E94BF
:100A3000D62F8B859C850F811885ED80FE80011552
:100A4000110509F465C00097A9F0E80EF91EB70179
:100A5000CE0101960E94CC07882309F459C0298150
:100A60003A818D819E81B801820F931F0E94D62FFB
:100A7000FE82ED824D815E8169817A8187E493E017
:100A80000E946B0689819A810E94662E8F819885CB
:100A90000FC04AE0CE0101960E9405084D815E819B
:100AA00069817A8187E493E00E946B0689819A814B
:100AB0000E94662E82EA91E00E94C9120D2C000C61
:100AC000EE08FF08F7FE0CC08DE20E94BE126627FA
:100AD0007727CB016C197D098E099F094AE003C075
:100AE0004AE0C701B6010E947D128FEB91E00E949F
:100AF0006B122E960FB6F894DEBF0FBECDBFDF91FE
:100B0000CF911F910F91FF90EF90DF90CF900895BC
:100B1000CE0101960E94F307ADCF0F931F93CF93A1
:100B2000DF93C6EFD1E0FE0131978081882359F130
:100B3000813049F488810E94A708688170E0AC0187
:100B400083E791E01EC0823049F488810E941D0A2B
:100B5000688170E0AC0186E791E013C0833021F436
:100B6000088110E0B80106C0843069F4088110E003
:100B7000698170E0C8010E94CB12AC01B80184EC1D
:100B800091E00E94D604239682E0C431D80759F63A
:100B9000DF91CF911F910F910895CF93DF93EB01D8
:100BA000FC0160816134E1F43F932F935F934F9395
:100BB000DF93CF9329EC31E03F932F939F938F9353
:100BC0000E94DD2F888199810E96998388838DB745
:100BD0009EB70A960FB6F8949EBF0FBE8DBF16C083
:100BE0003F932F935F934F93DF93CF9323E831E0AD
:100BF0003F932F939F938F930E94DD2F8DB79EB7C6
:100C00000A960FB6F8949EBF0FBE8DBFDF91CF91AD
:100C10000895CF93DF93EB01FC0120812134D1F4BF
:100C20005F934F93DF936F9324ED31E03F932F93C6
:100C30009F938F930E94DD2F888199810E969983CF
:100C400088838DB79EB708960FB6F8949EBF0FBEE7
:100C50008DBF14C05F934F93DF936F9326E831E00D
:100C60003F932F939F938F930E94DD2F8DB79EB755
:100C700008960FB6F8949EBF0FBE8DBFDF91CF913F
:100C80000895CF93DF93EB01FC012081213481F49F
:100C9000DF936F932CED31E03F932F939F938F93CE
:100CA0000E94DD2F888199810E96998388830AC0DE
:100CB000DF936F9329E831E03F932F939F938F93B6
:100CC0000E94DD2F0F900F900F900F900F900F90BC
:100CD000DF91CF910895CF92DF92EF92FF920F9321
:100CE0001F93CF93DF936C017A018B01C0E0D0E0BA
:100CF000CE15DF0589F0D8016D918D01D601ED91FA
:100D0000FC910190F081E02DC6010995892B11F429
:100D10007E0102C02196ECCFC701DF91CF911F91D8
:100D20000F91FF90EF90DF90CF900895FC01918D8F
:100D3000828D981761F0828DDF01A80FB11D5D963D
:100D40008C91928D9F5F9F73928F90E008958FEFAB
:100D50009FEF0895FC01918D828D981731F0828D5F
:100D6000E80FF11D858D90E008958FEF9FEF0895B6
:100D7000FC01918D228D892F90E0805C9F4F821B1A
:100D800091098F739927089587E493E00E94B8062C
:100D900021E0892B09F420E0822F0895FC01848D45
:100DA000DF01A80FB11DA35ABF4F2C91848D90E095
:100DB00001968F739927848FA689B7892C93A08970
:100DC000B1898C9180648C93938D848D981306C027
:100DD0000288F389E02D80818F7D80830895EF92D2
:100DE000FF920F931F93CF93DF93EC0181E0888FE5
:100DF0009B8D8C8D981305C0E889F989808185FDCC
:100E000024C0F62E0B8D10E00F5F1F4F0F731127BC
:100E1000E02E8C8DE8120CC00FB607FCFACFE889E3
:100E2000F989808185FFF5CFCE010E94CE06F1CFF2
:100E30008B8DFE01E80FF11DE35AFF4FF0820B8FFF
:100E4000EA89FB898081806207C0EE89FF8960831F
:100E5000E889F98980818064808381E090E0DF9176
:100E6000CF911F910F91FF90EF900895CF93DF9353
:100E7000EC01888D8823C9F0EA89FB89808185FD92
:100E800005C0A889B9898C9186FD0FC00FB607FCF3
:100E9000F5CF808185FFF2CFA889B9898C9185FF34
:100EA000EDCFCE010E94CE06E7CFDF91CF9108951E
:100EB00080E090E0892B29F00E94C40681110C94F7
:100EC00000000895833081F028F4813099F0823059
:100ED000A1F008958730A9F08830B9F08430D1F4BA
:100EE000809180008F7D03C0809180008F778093F8
:100EF0008000089584B58F7702C084B58F7D84BD4E
:100F000008958091B0008F7703C08091B0008F7DED
:100F10008093B0000895CF93DF93CEEAD4E02DEC18
:100F20003CEC4CEC5DE3688179818A819B810E9475
:100F3000132C688379838A839B832DEC3CEC4CECE7
:100F40005DE36C817D818E819F810E94132C6C8377
:100F50007D838E839F832DEC3CEC4CEC5DE36885B8
:100F600079858A859B850E94132C688779878A8773
:100F70009B872DEC3CEC4CEC5DE36C857D858E8590
:100F80009F850E94132C6C877D878E879F87DF91BA
:100F9000CF9108950E94C82F0F931F93CF93DF9393
:100FA000EC0188819981009729F02A813B812617DD
:100FB000370788F48B016F5F7F4F0E94FE2E0097EA
:100FC00061F0998388831B830A832C813D81232BC5
:100FD00011F4FC01108281E001C080E0DF91CF912B
:100FE0001F910F910895CF93DF93EC018881998130
:100FF000009711F00E94662E198218821D821C82B1
:101000001B821A82DF91CF910895CF92DF92EF92E7
:10101000FF920F931F93CF93DF93CDB7DEB7629705
:101020000FB6F894DEBF0FBECDBF8C01CB01F80127
:1010300011821082138212821582148250E09E0166
:101040002F5F3F4F6901B9010E947D28F601019091
:101050000020E9F731977F01EC18FD08B701C801BE
:101060000E94CC07811104C0C8010E94F30708C088
:10107000F801F582E482B601808191810E94D62F29
:1010800062960FB6F894DEBF0FBECDBFDF91CF9151
:101090001F910F91FF90EF90DF90CF9008951F92D6
:1010A0000F920FB60F9211242F933F934F935F939C
:1010B0006F937F938F939F93AF93BF93EF93FF9320
:1010C00087E493E00E94CE06FF91EF91BF91AF912C
:1010D0009F918F917F916F915F914F913F912F9150
:1010E0000F900FBE0F901F9018951F920F920FB682
:1010F0000F9211242F938F939F93EF93FF93E0917F
:101100005703F09158038081E0915D03F0915E03F5
:1011100082FD12C09081809160038F5F8F73209158
:101120006103821751F0E0916003F0E0E95BFC4F4E
:10113000958F8093600301C08081FF91EF919F9113
:101140008F912F910F900FBE0F901F901895CF93F6
:10115000DF93282F30E0F901EC51FF4F8491F90122
:10116000EA5EFE4FD491F901EE5FFE4FC491CC23AD
:1011700091F081110E946207EC2FF0E0EE0FFF1F4B
:10118000E850FF4FA591B491EC91ED2381E090E000
:1011900021F480E002C080E090E0DF91CF910895DB
:1011A0001F93CF93DF93282F30E0F901EC51FF4FCD
:1011B0008491F901EA5EFE4FD491F901EE5FFE4F92
:1011C000C491CC23C9F0162F81110E946207EC2F25
:1011D000F0E0EE0FFF1FE153FF4FA591B4918FB7E1
:1011E000F894111105C09C91ED2FE095E92302C000
:1011F000EC91ED2BEC938FBFDF91CF911F91089570
:101200001F920F920FB60F9211242F933F934F937B
:101210005F936F937F938F939F93AF93BF93EF935E
:10122000FF938091F1019091F201A091F301B091AF
:10123000F401892B8A2B8B2B59F18091EE01E091DF
:10124000EF01F091F0019081892780838091F10175
:101250009091F201A091F301B091F40118161906D2
:101260001A061B060CF03DC08091F1019091F2012D
:10127000A091F301B091F4010197A109B109809304
:10128000F1019093F201A093F301B093F40129C00E
:1012900080910001E9EDF0E0E4919FEF909300016F
:1012A000E130B9F098F0E230C9F4909170009D7F80
:1012B0009093700091E09093B0009091B100987F6E
:1012C00094609093B1001092B30008C010926E0029
:1012D00005C090916F009D7F90936F0060E00E9429
:1012E000D008FF91EF91BF91AF919F918F917F9126
:1012F0006F915F914F913F912F910F900FBE0F9083
:101300001F901895CF93DF9390E0FC01EA5EFE4FAB
:101310002491FC01EE5FFE4F8491882361F190E0FF
:10132000880F991FFC01E652FF4FC591D491FC0133
:10133000E153FF4FA591B491611109C09FB7F89493
:101340008881209582238883EC912E230BC0623004
:1013500061F49FB7F8943881822F80958323888326
:10136000EC912E2B2C939FBF06C08FB7F894E88189
:101370002E2B28838FBFDF91CF9108951F93CF939A
:10138000DF93182FEB0161E00E948209209711F48E
:1013900060E004C0CF3FD10539F461E0812FDF91D7
:1013A000CF911F910C94D008E12FF0E0EC51FF4F4A
:1013B000E491E330F9F048F4E130B9F0E230A1F51E
:1013C00084B5806284BDC8BD34C0E730E9F0E83040
:1013D00019F1E43049F580918000806280938000AB
:1013E000D0938B00C0938A0024C084B5806884BDEC
:1013F000C7BD1FC080918000806880938000D0931B
:101400008900C093880015C08091B00080688093E7
:10141000B000C093B3000DC08091B0008062809393
:10142000B000C093B40005C0C038D1050CF0B5CFF2
:10143000AFCFDF91CF911F9108958E3008F08E507D
:101440008770806480937C0080917A0080648093B0
:101450007A0080917A0086FDFCCF809178002091FF
:10146000790090E0922B08953FB7F89480913C0367
:1014700090913D03A0913E03B0913F0326B5A89BF8
:1014800005C02F3F19F00196A11DB11D3FBFBA2F16
:10149000A92F982F8827820F911DA11DB11DBC0176
:1014A000CD0142E0660F771F881F991F4A95D1F73B
:1014B00008958F929F92AF92BF92CF92DF92EF9258
:1014C000FF926B017C010E94340A4B015C01C11444
:1014D000D104E104F104F1F00E94340ADC01CB01F3
:1014E00088199909AA09BB09883E9340A105B1054D
:1014F00070F321E0C21AD108E108F10888EE880EE5
:1015000083E0981EA11CB11CC114D104E104F104B4
:1015100019F7DDCFFF90EF90DF90CF90BF90AF90A5
:101520009F908F9008951F920F920FB60F921124E3
:101530002F933F938F939F93AF93BF9380914303D8
:1015400090914403A0914503B091460330913B0331
:1015500023E0230F2D3720F40196A11DB11D05C0F6
:1015600026E8230F0296A11DB11D20933B03809313
:10157000430390934403A0934503B09346038091A3
:101580003C0390913D03A0913E03B0913F0301962F
:10159000A11DB11D80933C0390933D03A0933E0396
:1015A000B0933F03BF91AF919F918F913F912F9146
:1015B0000F900FBE0F901F9018951F93CF93DF933E
:1015C000EC01162F8981882331F08E8187FD03C0BD
:1015D00060E00E9482091E838981882341F061E0D6
:1015E000812F0E94820960E0812F0E94D008812F04
:1015F00090E0FC01EE5FFE4FE491F0E0EE0FFF1F84
:10160000E153FF4F259134913B8B2A8BFC01EA5E1D
:10161000FE4FE491EC8BDF91CF911F9108954F9293
:101620005F926F927F928F929F92AF92BF92EF9252
:10163000FF920F931F93CF93DF932FB7F89480906F
:10164000430390904403A0904503B09046032FBFFE
:10165000EC018C01085F1F4F7C018EEBE80EF11C42
:101660008881882309F43FC04D855E856F85788920
:1016700024013501441A550A660A770A49815A81BC
:101680006B817C814416550666067706E8F081304A
:1016900019F0823029F00FC0E985FA8509950BC051
:1016A00061E0F8018081811160E0F8016083319789
:1016B00080810E94D0088D869E86AF86B88A8989EF
:1016C0009A8901969A8B898B8D819E8197FD0BC09B
:1016D00029893A892817390734F01882EB85FC8567
:1016E000309709F0099563960D5E1F4FCE15DF0503
:1016F00009F0B6CFDF91CF911F910F91FF90EF903E
:10170000BF90AF909F908F907F906F905F904F9021
:1017100008954F925F926F927F928F929F92AF92B5
:10172000BF92CF92DF92EF92FF92CF93DF93EC01C3
:101730006A017B018B8C9C8CAD8CBE8C9A01AB01B9
:10174000C501B4010E94432A882309F449C06BA94A
:101750007CA98DA99EA90E944A2A2B013C01A701C0
:101760009601C501B4010E947F2C9B01AC01C3010D
:10177000B2010E94A92A0E94F12C6BAB7CAB8DAB0D
:101780009EABA701960160E070E080E090E40E94CB
:101790007F2C0E94322D26E53EE04DE25FE30E9461
:1017A000A92A20E034E244E759E40E94A92A6FAB59
:1017B00078AF89AF9AAFCB8EDC8EED8EFE8ECE01E8
:1017C000DF91CF91FF90EF90DF90CF90BF90AF90DF
:1017D0009F908F907F906F905F904F900C94B60E7B
:1017E000DF91CF91FF90EF90DF90CF90BF90AF90BF
:1017F0009F908F907F906F905F904F900895CF93C0
:10180000DF934770552766277727FA013197EC0158
:10181000A881B981E730F10520F4EC5CFF4F0C940E
:10182000B02D1496ED91FC91159761E029C01496A6
:10183000ED91FC91159765E023C01496ED91FC9114
:10184000159764E01DC01496ED91FC91159766E024
:1018500017C01496ED91FC91159762E011C0149693
:10186000ED91FC9115976AE00BC01496ED91FC91F7
:10187000159768E005C01496ED91FC91159769E005
:10188000DF91CF910994CF93DF93EC01CB01BA01A3
:1018900026E030E040E050E00E94802B623071058D
:1018A0008105910559F18CF461157105810591054A
:1018B000F1F06130710581059105C1F5E881F9818B
:1018C0000480F581E02D65E02DC06430710581054F
:1018D000910511F1D4F0653071058105910531F55F
:1018E000E881F9810480F581E02D66E01BC0E88184
:1018F000F9810480F581E02D64E014C0E881F9816C
:101900000480F581E02D61E00DC0E881F98104805B
:10191000F581E02D63E006C0E881F9810480F5815E
:10192000E02D62E0CE01DF91CF910994DF91CF915C
:1019300008954370552766277727DC01ED91FC91C8
:101940000480F581E02D423051056105710571F08B
:10195000433051056105710559F04130510561056C
:10196000710511F065E005C066E003C06AE001C0E2
:1019700069E00994CF93DF93EC01CB01BA0123E036
:1019800030E040E050E00E94802B6130710581051D
:10199000910581F0623071058105910591F0672B09
:1019A000682B692BC1F4E881F9810480F581E02D71
:1019B00064E00DC0E881F9810480F581E02D61E0EB
:1019C00006C0E881F9810480F581E02D62E0CE0156
:1019D000DF91CF910994DF91CF91089543705527FE
:1019E00066277727DC01ED91FC910480F581E02DDD
:1019F000423051056105710571F0433051056105B3
:101A0000710559F0413051056105710511F062E031
:101A100005C063E003C061E001C060E009940F937A
:101A20001F93CF93DF93EC01E881F9810480F58166
:101A3000E02D8C010D5B1F4FD8018C91811102C0EC
:101A400060E001C062E0CE010995E881F98104807F
:101A5000F581E02DD8018C91811102C061E001C0B7
:101A600063E0CE010995EBA5FCA5E230F10538F065
:101A7000EE0FFF1FEE0FFF1F35973197F1F7E8814B
:101A8000F9810480F581E02DD8018C91811102C08B
:101A900060E001C062E0CE01DF91CF911F910F9114
:101AA0000994CF93DF93EC0120E030E0A9016B892A
:101AB0007C898D899E890E94272D18161CF4EFA51C
:101AC000F8A902C0E9A9FAA9DF91CF9109940F936F
:101AD0001F93DC011296EC910E2F10E009301105D6
:101AE000C0F5F801E55CFF4F0C94B02DDC01ED91E1
:101AF000FC910084F185E02D29C0DC01ED91FC9181
:101B00000284F385E02D22C0DC01ED91FC91048478
:101B1000F585E02D1BC0DC01ED91FC910684F78575
:101B2000E02D14C0DC01ED91FC910088F189E02DDD
:101B30000DC0DC01ED91FC910288F389E02D06C017
:101B4000DC01ED91FC910488F589E02D1F910F9146
:101B500009941F910F910895CF93DF93FC01228187
:101B6000222359F1EC0161E083810E94820961E046
:101B70008C810E9482098A81843011F0883039F486
:101B800061E08D810E94820961E08E8106C0833010
:101B900011F0863021F461E08D810E9482098EA5CA
:101BA0008F3F59F061E00E9482096DA581E06827AE
:101BB0008EA5DF91CF910C94D008DF91CF9108953D
:101BC000CF93DF93FC0122812223A9F0EC01019045
:101BD000F081E02D0480F581E02D60E009958EA56F
:101BE0008F3F49F061E00E9482096DA58EA5DF91CB
:101BF000CF910C94D008DF91CF910895CF92DF92CE
:101C0000EF92FF920F931F93CF93DF93FC012281FA
:101C1000243041F0283031F0233031F0263021F0EB
:101C200012E003C014E001C013E0EC012796E12CA0
:101C3000F12CC62ED12C01E0C6010E2C02C09595C8
:101C400087950A94E2F7688180FD6027FE0134974A
:101C500080810E94D008FFEFEF1AFF0A2196E1165B
:101C600058F3DF91CF911F910F91FF90EF90DF908C
:101C7000CF9008954F925F926F927F92AF92BF92F2
:101C8000CF92DF92EF92FF920F931F93CF93DF9348
:101C9000EC015A018B012B893C894D895E89B50184
:101CA000C8010E94432A882309F451C0CF88D88CE8
:101CB000E98CFA8C2601370177FA709477F87094E2
:101CC000A3019201B501C8010E94432A87FD0BC000
:101CD000A7019601B501C8010E94272D18162CF006
:101CE0006501780102C07301620120E030E0A901C2
:101CF000C701B6010E94432A811105C01BA21CA284
:101D00001DA21EA220C0A701960160E074E284E734
:101D100099E40E947F2C9F770E94F82C6BA37CA3F0
:101D20008DA39EA35E0183E4A80EB11C11E020E008
:101D300030E0A901C701B6010E94272D18160CF04A
:101D400010E0F5011083CB8ADC8AED8AFE8ADF91F0
:101D5000CF911F910F91FF90EF90DF90CF90BF90A8
:101D6000AF907F906F905F904F9008952F923F9229
:101D70004F925F926F927F928F929F92AF92BF929B
:101D8000CF92DF92EF92FF920F931F93CF93DF9347
:101D900000D000D0CDB7DEB71C01FC01878490884D
:101DA000A188B28883859485A585B685881A990A05
:101DB000AA0ABB0A63897489858996899B01AC014B
:101DC0000E94A92A6B017C01F101638D748D858DC0
:101DD000968D9B01AC010E94132C9B01AC01C701A5
:101DE000B6010E947F2C0E94F12C81149104A10461
:101DF000B104A1F462307105810591050CF07CC03D
:101E0000F10113A214A215A216A2138A148A158A2C
:101E1000168A13AA14AA15AA16AA03C1F10103A9C6
:101E200014A925A936A9ED5BFF4F181419041A044B
:101E30001B04FCF410161106120613064CF4681568
:101E400079058A059B054CF52081211155C025C0D7
:101E5000011511052105310509F44EC068157905F4
:101E60008A059B050CF048C08081882309F444C092
:101E700037C01016110612061306F4F400271127B6
:101E80009801081919092A093B0960177107820787
:101E900093071CF42081222379F19B01AC01882750
:101EA0009927DC01821B930BA40BB50BF10183ABCB
:101EB00094ABA5ABB6AB20C00115110521053105CA
:101EC000D9F0CC24DD247601C818D908EA08FB082B
:101ED0006C157D058E059F057CF4808181110CC0F9
:101EE00030952095109501951F4F2F4F3F4FF101D1
:101EF00003AB14AB25AB36ABF101C3A8D4A8E5A85E
:101F0000F6A881010D5B1F4FC114D104E104F10457
:101F100091F487A990ADA1ADB2AD83AF94AFA5AF59
:101F2000B6AF81E0181419041A041B040CF080E009
:101F3000F801808340C0F10183AC94ACA5ACB6AC91
:101F4000A5019401C501B4010E94132C2B013C0191
:101F5000C701B6010E944A2A20E030E040E850E480
:101F60000E94A92A20E030E040E85FE30E94132CA1
:101F70009B01AC01C301B2010E947F2C9B01AC010B
:101F8000C501B4010E94122C4B015C01F101FF96C6
:101F900040805180628073809201A3010E94272DAE
:101FA000181614F042015301A401B501F10143AF29
:101FB00054AF65AF76AFFFEFCF1ADF0AEF0AFF0A23
:101FC000F101C3AAD4AAE5AAF6AA23AD34AD45AD62
:101FD00056ADCA01B90129833A834B835C830E94C1
:101FE000F82CF10163A374A385A396A329813A81F8
:101FF0004B815C8160E074E284E799E40E947F2C6D
:10200000F101638B748B858B968BF80120812111F4
:1020100008C0DC01CB01B058F101838B948BA58BF8
:10202000B68B0F900F900F900F90DF91CF911F9173
:102030000F91FF90EF90DF90CF90BF90AF909F9067
:102040008F907F906F905F904F903F902F9008956A
:102050008F929F92AF92BF92CF92DF92EF92FF92B8
:10206000CF93DF93EC018B889C88AD88BE8820E0FD
:1020700030E0A901C501B4010E94432A882309F474
:102080004FC0A5019401C501B4010E94A92A6B01AA
:102090007C016B8D7C8D8D8D9E8D9B01AC010E9492
:1020A000132C9B01AC01C701B6010E947F2C0E943A
:1020B000F12C6B017C012FEFC21AD20AE20AF20A5C
:1020C00020E030E0A901C501B4010E94272D4B8515
:1020D0005C856D857E858F849888A988BA88181656
:1020E0002CF44C0D5D1D6E1D7F1D04C04C195D0947
:1020F0006E097F0984169506A606B70689F04F87F4
:10210000588B698B7A8BCE01DF91CF91FF90EF9046
:10211000DF90CF90BF90AF909F908F900C94B60EB1
:10212000DF91CF91FF90EF90DF90CF90BF90AF9075
:102130009F908F900895CF92DF92EF92FF920F932E
:102140001F93CF93DF93EC016A017B019A01AB01EE
:102150006F89788D898D9A8D0E94432A882309F48E
:1021600046C0CF8AD88EE98EFA8E8E01015C1F4F51
:10217000A701960160E074E284E799E40E947F2C55
:10218000F80160837183828393838BA99CA9ADA995
:10219000BEA9181619061A061B064CF56B897C8910
:1021A0008D899E899B01AC010E94A92A6B017C014B
:1021B0006B8D7C8D8D8D9E8D9B01AC010E94132CAF
:1021C0009B01AC01C701B6010E947F2C0E94F12C3B
:1021D0006BAB7CAB8DAB9EABCE01DF91CF911F91F2
:1021E0000F91FF90EF90DF90CF900C94B60EDF919F
:1021F000CF911F910F91FF90EF90DF90CF900895B6
:10220000CF93FC01C0818FEF8C0F8B3098F520E4C9
:1022100037E0DB010E94B62D24EB30E040E050E0D7
:102220000E94802BDA01C901805E9D4FAF4FBF4FE6
:102230008032F2E09F0744F09C01213689E03807A4
:102240002CF020E639E002C020E232E028503109CB
:10225000EC2FF0E0C901880F892F881F990BAF017F
:10226000440F551FE40FF51FE65DFD4F8183220FDC
:1022700020952283CF9108950F931F93CF938C01C4
:10228000C62F80914203811123C080E090E03BE0A3
:1022900027E5FC01E65DFD4F3483258303968132FB
:1022A0009105B9F78BE180932B02109241031092B4
:1022B0004003109270001092B00082E08093B10051
:1022C0001092B20081E087BB80937000809342033C
:1022D000D8018C918823A1F061E08C2F0E948209A3
:1022E000D801EC91F0E0CF01880F991FE80FF91F9A
:1022F000E65DFD4FCF718081807EC82BC062C083B8
:10230000F8018081CF911F910F9108951F920F9234
:102310000FB60F9211242F933F934F935F936F93B8
:102320007F938F939F93AF93BF93EF93FF9380918E
:1023300040038F5F809340032091400380914103CD
:1023400090E0FC01EE0FFF1F8E0F9F1FFC01E65D6A
:10235000FD4F818128130FC08091410390E0FC0163
:10236000EE0FFF1F8E0F9F1FFC01E65DFD4F828168
:102370008093B20065C0209140038091410390E0BA
:10238000FC01EE0FFF1F8E0F9F1FFC01E65DFD4F4E
:102390008181821708F054C08091410390E0FC01D4
:1023A000EE0FFF1F8E0F9F1FFC01E65DFD4F80812A
:1023B00085FF10C08091410390E0FC01EE0FFF1FEC
:1023C0008E0F9F1FFC01E65DFD4F808160E08F71E5
:1023D0000E94D008809141038F5F80934103109247
:1023E00040031092B20080914103882319F180913B
:1023F00041038C30F8F48091410390E0FC01EE0F32
:10240000FF1F8E0F9F1FFC01E65DFD4F808185FF42
:1024100017C08091410390E0FC01EE0FFF1F8E0F6B
:102420009F1FFC01E65DFD4F808161E08F710E947E
:10243000D00806C0809141038C3010F01092410307
:10244000FF91EF91BF91AF919F918F917F916F918C
:102450005F914F913F912F910F900FBE0F901F9062
:102460001895DC0120E030E04C9141112CC0E3E1F3
:10247000E29FA001E39F500D1124FC01E40FF51F22
:1024800081E0808384E690E0A0E0B0E081839283E5
:10249000A383B4838FEF9FEF9683858372876187D1
:1024A0003FB7F8948091430390914403A091450372
:1024B000B09146033FBF85879687A787B08B128A66
:1024C000118A822F08952F5F3F4F53962A3031058E
:1024D00059F68FEF0895009769F0FC0101900020F4
:1024E000E9F73197AF01481B590BBC0187E493E032
:1024F0000C946B0680E090E008958F929F92AF92CB
:10250000BF920F931F93CF93DF93CDB7DEB7A19701
:102510000FB6F894DEBF0FBECDBF19A2423008F44B
:102520004AE08E010F5D1F4F842E912CA12CB12CFF
:10253000A50194010E94E12BE62FB901CA010150C7
:102540001109EA3014F4E05D01C0E95CD801EC93B4
:10255000232B242B252B61F7C8010E946B12A19617
:102560000FB6F894DEBF0FBECDBFDF91CF911F91A4
:102570000F91BF90AF909F908F900895E091470387
:10258000F09148030190F081E02D682F87E493E0FB
:1025900009940C946B120F931F93CF93DF93182F12
:1025A000EB0161E00E94820960E0812F0E94D00867
:1025B00083E090E00197F1F761E0812F0E94D0085D
:1025C00083E290E00197F1F760E0812F0E94D0084C
:1025D00060E08C2F0E948209DD27FE01EA5EFE4F3B
:1025E0006491FE01EE5FFE4FE491F0E0EE0FFF1FFD
:1025F000E850FF4F8591949100E412E42FE030E021
:10260000462F0E946D16611571058105910539F0FF
:10261000DC01CB010196A11DB11DBF7003C080E09C
:1026200090E0DC016AE370E00E949C2DCB010097F2
:1026300011F487EE93E0DF91CF911F910F910895F0
:102640004F925F926F927F928F929F92AF92BF92C2
:10265000CF92DF92EF92FF926B017C019B01AC0164
:102660000E94722D882319F081EE91E01AC0460174
:102670005701E894B7F82FEF3FEF4FE75FE7C50149
:10268000B4010E94722D811110C02FEF3FEF4FE770
:102690005FE7C501B4010E94432A181634F485EEA1
:1026A00091E00E946B127C017FC02FEF3FEF4FE75C
:1026B0005FE4C701B6010E94272D18161CF489EEAD
:1026C00091E0EFCF2FEF3FEF4FE75FECC701B6018F
:1026D0000E94432A87FDF3CF20E030E0A901C70123
:1026E000B6010E94432A87FF09C08DE20E94BE12F4
:1026F0005C01F7FAF094F7F8F09402C0A12CB12C29
:102700002AE037ED43EA5BE3C701B6010E94132CD0
:102710002B013C010E94F82C6B017C010E94482A8D
:102720009B01AC01C301B2010E94122C2B013C01A0
:102730004AE0C701B6010E947D127C01EA0CFB1C35
:102740008EE20E94BE12E80EF91E20E030E040E268
:1027500051E4C301B2010E94A92A2B013C010E944D
:10276000F82C4B01A12CB12C4AE0C501B4010E9408
:102770007D12E80EF91EC501B4010E94482A9B0192
:10278000AC01C301B2010E94122C20E030E040E213
:1027900051E40E94A92A0E94F82C80E090E04AE0CF
:1027A0000E947D12E80EF91E8FEB91E00E946B12E1
:1027B0008E0D9F1DFF90EF90DF90CF90BF90AF9058
:1027C0009F908F907F906F905F904F900895DC0165
:1027D0009091C504992361F0699FB0011124672F7E
:1027E000499FA0011124452F299F90011124232FD7
:1027F0003091CB048091C804E091C604F091C704E5
:10280000381308C0CD01880F991F8A0F9B1F8E0FA8
:102810009F1F0BC0CD01880F991F880F991F8E0F26
:102820009F1FFC01E30FF11D10823091C804FC01D1
:10283000E30FF11D60833091C904FC01E30FF11D2A
:1028400040833091CA04FC01E30FF11D20830895F9
:10285000CF93DF930E946B12EC018FEB91E00E940B
:102860006B128C0F9D1FDF91CF910895CF92DF9255
:10287000EF92FF921F93CF93DF9380E010E090914F
:10288000E704191708F05CC0E12FF0E0EE0FFF1F1E
:10289000ED52FB4FC081D181CF84D888E988FA8876
:1028A0004B855C856D857E85C416D506E606F706E4
:1028B00009F444C08BA19CA1ADA1BEA1892B8A2B98
:1028C0008B2BD9F10E94340A6B017C018FA198A552
:1028D000A9A5BAA5B701A601481B590B6A0B7B0B2A
:1028E0008BA19CA1ADA1BEA1481759076A077B0720
:1028F00020F1FE01ED5BFF4F20818B859C85AD852E
:10290000BE85222321F00196A11DB11D03C00197B0
:10291000A109B1098B879C87AD87BE87E881F981C2
:102920004B855C856D857E850680F781E02DCE0127
:102930000995CFA2D8A6E9A6FAA681E01F5F9FCF8E
:1029400081119BCFDF91CF911F91FF90EF90DF908E
:10295000CF9008952F923F924F925F926F927F9205
:102960008F929F92AF92BF92CF92DF92EF92FF929F
:102970000F931F93CF93DF9300D000D0CDB7DEB776
:102980005C015090E7041C0193EDC92E94E0D92E10
:1029900010E0912C00E0F12CE12C1515C1F1F101B2
:1029A00081919191A191B1911F01F6016190719076
:1029B0006F01F3012385348545855685BC01CD0122
:1029C000621B730B840B950B97FF07C09095809546
:1029D000709561957F4F8F4F9F4F0E944A2AF30158
:1029E0002789308D418D528D0E947F2C862E472E57
:1029F0003C01292D302F4F2D5E2D0E94272D1816BA
:102A000024F4982C042DF62CE72C1F5FC6CF20E071
:102A100030E0A901692D702F8F2D9E2D0E94272D4A
:102A200018160CF054C010E08091E704181708F055
:102A30004EC0212F30E0F50144E0149FE00DF11D60
:102A400011244080518062807380C9011C01220CD6
:102A5000331CF101ED52FB4FC080D180F60183851C
:102A60009485A585B685A3019201281B390B4A0BD5
:102A70005B0BCA01B9010E944A2A292D302F4F2D24
:102A80005E2D0E947F2CAB01BC01F60187859089E9
:102A9000A189B28984159505A605B70579F0478601
:102AA000508A618A728AC60149835A836B837C8308
:102AB0000E94B60E7C816B815A814981F101ED52F1
:102AC000FB4F808191810E943A0E1F5FADCF0F9026
:102AD0000F900F900F90DF91CF911F910F91FF906A
:102AE000EF90DF90CF90BF90AF909F908F907F90AE
:102AF0006F905F904F903F902F900895CF92DF920C
:102B0000EF92FF920F931F93CF93DF93DB01E901C5
:102B1000E2E4F6E010861186128613868C01990F86
:102B2000220B330BC288D388E488F5880C0D1D1D59
:102B30002E1D3F1D028B138B248B358B052E000C15
:102B4000660B770B06891789208D318D400F511F39
:102B5000621F731F468B578B608F718FBD01BB0F38
:102B6000880B990B0E944A2AAB01BC018CE295E0CC
:102B70000E949B10BE01DD0F880B990B0E944A2A10
:102B8000AB01BC0188EE94E00E949B1084E596E0C6
:102B90000E94AA140E9436148CE295E00E94E00D77
:102BA00088EE94E0DF91CF911F910F91FF90EF900D
:102BB000DF90CF900C94E00D0F931F93CF93DF9392
:102BC00002E817E061E0F80181810E948209C3EC0C
:102BD000D0E0CE010197F1F760E0F80180810E941A
:102BE0008209CE010197F1F760E0F80181810E942E
:102BF00082092197F1F7DF91CF911F910F910895ED
:102C0000EF92FF920F931F93CF93DF93082F18E05B
:102C100083ECE82EF12C61E0809182070E9482090A
:102C2000C7010197F1F700FF02C060E001C061E059
:102C3000809183070E948209C3ECD0E0C70101970D
:102C4000F1F760E0809182070E948209C701019735
:102C5000F1F706951150F9F661E0809182070E9424
:102C6000820960E0809183070E948209CE0101976A
:102C7000F1F760E0809182070E9482092197F1F7C5
:102C8000809183070E94A708182F811105C061E079
:102C9000809183070E948209C3ECD0E0CE010197A6
:102CA000F1F761E0809182070E9482092197F1F794
:102CB00081E0111101C080E0DF91CF911F910F9150
:102CC000FF90EF90089561E0809183070E94820950
:102CD00083EC90E00197F1F70895CF92DF92EF92A5
:102CE000FF920F931F93E82FF92F05C00150110990
:102CF0002109310961F1908196239417B9F305C038
:102D0000015011092109310911F190819623941381
:102D1000F7CFC12CD12CE12CF12C0AC08FEFC81AAF
:102D2000D80AE80AF80A0C151D052E053F0579F0AA
:102D300080818623841791F36C2D7D2D8E2D9F2D00
:102D40001F910F91FF90EF90DF90CF90089560E07A
:102D500070E080E090E01F910F91FF90EF90DF9086
:102D6000CF900895CF93DF93CDB7DEB7A5970FB679
:102D7000F894DEBF0FBECDBF789484B5826084BD69
:102D800084B5816084BD85B5826085BD85B581606F
:102D900085BD80916E00816080936E0010928100ED
:102DA00080918100826080938100809181008160A8
:102DB0008093810080918000816080938000809169
:102DC000B10084608093B1008091B00081608093F5
:102DD000B00080917A00846080937A0080917A00BC
:102DE000826080937A0080917A00816080937A007B
:102DF00080917A00806880937A001092C100E091FF
:102E00005703F091580382E08083E0915303F091DF
:102E100054031082E0915503F091560380E18083C2
:102E200010925F03E0915B03F0915C0386E0808386
:102E3000E0915903F0915A03808180618083E09191
:102E40005903F0915A03808188608083E09159038F
:102E5000F0915A03808180688083E0915903F0915A
:102E60005A0380818F7D80838EE1E5EFF1E0DF0101
:102E70001D928A95E9F70E94CE048FE08093840723
:102E800080918007909181071816190644F421E07B
:102E90004CE060E070E08AE297E00E947801809167
:102EA0008007909181071816190644F428E04AE03B
:102EB00060E070E08AE297E00E94780160E070E0F4
:102EC0008AE297E00E94FF016AE1E62E62E0F62EB8
:102ED00000E010E0C8010E946A2BF70181937F0196
:102EE0000F5F1F4F00311105A9F780911A029091D1
:102EF0001B02823D9440D9F080E1EAE1F2E0DF017B
:102F00001D928A95E9F782ED94E090931B028093DD
:102F10001A0280E090E0A0E8BFE380931C02909347
:102F20001D02A0931E02B0931F020E94B70461E02D
:102F300087E00E94820960E087E00E94D00861E09B
:102F400088E00E94820960E088E00E94D0086DE875
:102F500075E08CE696E00E943112FE0131961F0169
:102F60003E01F5E06F0E711C2E0127E0420E511C50
:102F7000AE01475F5F4F598F488F87E493E00E940F
:102F8000B806892B11F40C94172287E493E00E9471
:102F90009606A091AD02E1E0EA0FE093AD020A2EA1
:102FA000000CBB0BA359BD4F8C938A3011F00C94CD
:102FB0000D220E2E000CFF0BE359FD4F1082809165
:102FC0006D028D3411F00C9400228EE692E00E9486
:102FD00038288C01AE01415F5F4F62EA71E08EE6F6
:102FE00092E00E9456280D36110509F438C50CF000
:102FF0005CC00830110509F40EC3A4F503301105B7
:1030000009F4CAC074F40130110509F4ADC00CF024
:10301000B7C0012B11F00C9400220E94CE040C9436
:1030200000220530110509F4E0C00CF4C3C00630DD
:10303000110509F4F0C00730110511F00C940022BD
:10304000A101B3018F8598890E9409066D817E8157
:103050008CE997E00E943C1169817A818CE997E0C4
:103060000C94F6210436110509F445C474F40D30AE
:10307000110509F408C40E30110509F434C40930EF
:10308000110511F00C940022E9C20636110509F46D
:1030900059C00CF470C40A36110509F49DC40C36ED
:1030A000110509F4A2C40C9400220E3C110509F488
:1030B0003DC71CF5093C110509F4D8C574F4003767
:1030C000110509F4A1C5083C110509F4B1C50F3675
:1030D000110511F00C94002264C50B3C110509F494
:1030E0001FC60CF4FAC50C3C110509F434C60D3C9E
:1030F000110509F45BC60C940022023D110511F480
:103100000C94EB205CF48F859889003D110511F437
:103110000C9443200CF480C70C94DE20043D110570
:1031200011F40C94D02114F40C94FA20053D1105EF
:1031300011F40C94F921073E134011F40C94FE2174
:103140000C940022109243061092420610924506FB
:1031500010924406109247061092460610924906B5
:10316000109248060C940022A101B3018F85988922
:103170000E94090669818D810E9482090C940022B7
:10318000A101B3018F8598890E94090669818D810B
:103190000E94D0080C940022B1018F8598890E946A
:1031A000410689810E94A70869817A81AC0183E781
:1031B00091E02DC0A101B3018F8598890E94090675
:1031C0008D819E818330910569F09C0125503109E4
:1031D0002230310538F0245031092330310510F008
:1031E0000C94002269817A81B3C5B1018F859889D9
:1031F0000E94410689810E941D0A69817A816E3090
:10320000710514F40C940022AC0186E791E00E9451
:10321000D6040C9400229101A301B2018F859889F4
:103220000E94CD05E981FA81FF8FEE8F2D813E81CD
:103230003DA32CA38F81988520910001281304C001
:10324000E9EDF0E0149182C02F3F11F00C940022C0
:1032500080930001E9EDF0E014911F3F11F40C940C
:103260000022113029F1123009F449C011116EC049
:1032700014BC15BC24B5226024BD25B5216025BD34
:103280009C013327F901EE5FFE4FE491F0E0EE0F71
:10329000FF1FE153FF4F45915491509353024093C8
:1032A0005202F901EA5EFE4FE491E093510252C0EE
:1032B000109280001092810020918100286020935C
:1032C0008100209181002160209381009C0133279F
:1032D000F901EE5FFE4FE491F0E0EE0FFF1FE153C6
:1032E000FF4F459154915093500240934F02F90182
:1032F000EA5EFE4FE491E0934E0211E02BC0109283
:10330000B0001092B1002091B00022602093B00074
:103310002091B10021602093B1009C013327F90175
:10332000EE5FFE4FE491F0E0EE0FFF1FE153FF4F21
:10333000459154915093F0014093EF01F901EA5EF9
:10334000FE4FE491E093EE0112E004C017FF02C0CB
:103350000C9400222E8D3F8D032E000C440B550B38
:1033600028A339A34AA35BA361E00E9482094CA170
:103370005DA14A01A12CB12C812F8D7F09F0BFC026
:1033800060E072E18AE790E0A50194010E94802B41
:103390002A8F3B8F4C8F5D8F69017A0151E0C51AEE
:1033A000D108E108F1088FEFC816D104E104F10457
:1033B00009F008F44EC060E472E48FE090E0A501EB
:1033C00094010E94802B69017A0191E0C91AD10809
:1033D000E108F108123009F5AFEFCA16D104E10493
:1033E000F10409F010F40C94E22460E970ED83E03C
:1033F00090E0A50194010E94802B69017A01B1E05F
:10340000CB1AD108E108F108EFEFCE16D104E104A0
:10341000F10409F0E0F583E06BC0FFEFCF16D104B3
:10342000E104F104C1F0B8F068E478EE81E090E0E6
:10343000A50194010E94802B69017A0181E0C81ADC
:10344000D108E108F108112311F40C94BD240C9467
:10345000B32481E001C082E011114AC013C08A8DFB
:103460009B8DAC8DBD8D2AE0B595A79597958795D9
:103470002A95D1F76C017D01F1E0CF1AD108E1085E
:10348000F10885E095B5987F892B85BD73C068E408
:1034900078EE81E090E0A50194010E94802B690103
:1034A0007A0181E0C81AD108E108F1089FEFC91636
:1034B000D104E104F10409F010F40C947E2464E2D8
:1034C00074EF80E090E0A50194010E94802B6901D7
:1034D0007A0191E0C91AD108E108F108AFEFCA16E4
:1034E000D104E104F10419F010F00C94812485E07A
:1034F0009091B100987F892B8093B1003BC060E030
:1035000072E18AE790E0A50194010E94802B690195
:103510007A01F1E0CF1AD108E108F108C114D10411
:1035200021E0E206F10488F068E478EE81E090E0C2
:10353000A50194010E94802B69017A0181E0C81ADB
:10354000D108E108F10893E001C091E0113091F455
:1035500080918100887F892B8093810028A139A1E7
:103560004AA15BA1232B242B252B61F42FEF3FEFE6
:10357000A9012FC088A199A1AAA1BBA1892B8A2B3F
:103580008B2B79F02CA13DA1220F331FAE8DBF8D67
:103590000E94B62D28EE33E040E050E00E94E12B7F
:1035A00003C02FEF3FEFA901113099F0123019F14C
:1035B000111126C7C7BC209358023093590240937B
:1035C0005A0250935B0280916E00826080936E007D
:1035D00017C7D0928900C09288002093540230937C
:1035E0005502409356025093570280916F008260BB
:1035F00080936F0005C7C092B3002093F101309310
:10360000F2014093F3015093F401809170008260C5
:1036100080937000F5C685E10E941D0A8C0189E740
:1036200091E00E94C91282EA91E00E94C912B80199
:10363000110F880B990B0E944A2A20E030E040E8E5
:103640005AE30E94A92A26E636E646EA50E40E949A
:10365000A92A9B01AC010E94132CC9C5EF85F889EA
:103660002081CE010D962134D1F43F922F927F928A
:103670006F925F924F92A98DAF93B88DBF939F9336
:103680008F938CE791E09F938F93FF93EF930E942A
:10369000DD2F8D859E850E969E878D8714C03F9267
:1036A0002F927F926F925F924F92298D2F93388D38
:1036B0003F939F938F938DE791E09F938F93FF9319
:1036C000EF930E94DD2F0FB6F894DEBF0FBECDBF83
:1036D000F9800D811F81C984DA846D858EEB94E0B9
:1036E0000E94DD0AC114D104B9F4C12CD12C8091FF
:1036F000C0049091C104C816D90630F42F2D402F74
:10370000612FC6010E94E7135FEFC51AD50A80E159
:10371000C816D10461F70EC0C60101972091C004FC
:103720003091C1048217930728F42F2D402F612F69
:103730000E94E7138091C6049091C704892B09F475
:103740005FC60E94340A0091CC041091CD042091F0
:10375000CE043091CF04DC01CB01801B910BA20B76
:10376000B30BC297A105B10560F3F8948091C20430
:103770009091C3049C878B87E091C604F091C704A5
:10378000DF01119680818F8B9091BE04E091D0046F
:10379000F091D1048091D204992309F42EC0908134
:1037A000982B9E8B9081809589238D8B8D898A8B18
:1037B00088E0898B3E894D896F8959892A898B8553
:1037C0009C85308367FD232F5A952083242F39F061
:1037D000661F00C000004083000000C0F2CF58E028
:1037E0006D9140830000019761F7F093D104E0935D
:1037F000D0046F8B598B2A8B38C09081982B9E8B6D
:103800009081809589238D8B8D898C8B88E08B8B23
:103810003E894D896F895B892C898B859C85308396
:1038200067FD232F00C000C0208300C000C000C07F
:1038300000C000C040830000242F5A9541F0661F4D
:10384000000000C000C000C000C000C0E8CF58E0C9
:103850006D9100C0408300C0019709F7F093D10437
:10386000E093D0046F8B5B8B2C8B9C878B87789439
:103870000E94340A6093CC047093CD048093CE04EC
:103880009093CF04BDC59101A201B3018F859889A2
:103890000E94CD052D813E81A5EFB1E0E0E0F0E092
:1038A0008C91811113C02F813885CF01880F991F0A
:1038B000E80FF91FEB50FE4F20838D818183243068
:1038C000310509F09DC5898182839AC511968C9135
:1038D000119790E08217930731F331961396EA30EF
:1038E000F105F1F68DC58EE1E5EFF1E0DF011D9206
:1038F0008A95E9F785C58F8498889A82898270E9CC
:10390000A72EBB24B394E0E9EE2EFF24F394C12C40
:10391000D12C00E010E0892851F1A10162EA71E0A8
:1039200080E090E00E9456284C01FC0180818C349C
:1039300031F4C40101960E9438288C01ECCF823505
:1039400031F4C40101960E9438286C01E4CF81341F
:1039500031F4C40101960E9438287C01DCCF823406
:10396000D1F6C40101960E9438285C01D4CF95019C
:10397000A601B70129C0CF84D888DA82C982E12C98
:10398000F12C00E010E0CD28D1F0A10162EA71E055
:1039900080E090E00E9456286C01DC018C918C3410
:1039A00031F4C60101960E9438288C01ECCF823593
:1039B00051F7C60101960E9438287C01E4CF24EF1C
:1039C00031E0A70164EF71E0C8010E947E158DE827
:1039D00091E00E94281414C58CE295E00E94281002
:1039E00088EE94E00E9428100BC53F922F927F92A0
:1039F0006F925F924F92B98DBF93E88DEF9380E8FD
:103A000091E09F938F9388898F938F858F930E94E6
:103A1000DD2F29813A814D815E816F817885E1E0DA
:103A20000FB6F894DEBF0FBECDBF89859A85892B6E
:103A300009F4E0E0E0934A0681E0672B09F480E0B6
:103A400080934B0681E0452B09F480E080934C067F
:103A500081E0232B09F480E080934D06D1C42F85AB
:103A6000388918861F821E821D821A8219823F920F
:103A70002F927F926F925F924F9283E891E09F9393
:103A80008F933F932F930E94DD2F6F817885072EB0
:103A9000000C880B990B0E944A2A23EF34E045E37F
:103AA0005FE30E947F2C0E94F12C6B017C016D81F1
:103AB0007E81072E000C880B990B0E944A2A23EF67
:103AC00034E045E35FE30E947F2C0E94F12CAB01C0
:103AD0004C0D5D1DFB01EC19FD09222733272C1924
:103AE0003D09D901A61BB70BC61AD70A29813A810D
:103AF000E20FF31FCD01820F931FC20ED31E240FBE
:103B0000351F0FB6F894DEBF0FBECDBF2F3F310576
:103B100019F014F02FEF30E0EF3FF10519F014F039
:103B2000EFEFF0E08F3F910519F014F08FEF90E088
:103B3000B6016F3F710519F014F06FEF70E041E0CE
:103B400040934A0640934B0640934C0640934D06E3
:103B50002130BFEF3B0714F421E03FEF30934306E1
:103B600020934206E1302FEFF20714F4E1E0FFEF7B
:103B7000F0934506E093440681303FEF930714F439
:103B800081E09FEF9093470680934606CB0161301A
:103B90007F4F14F481E09FEF90934906809348068D
:103BA0002FC48F8598891A821982B1010E9441061B
:103BB000E981FA81EE0FFF1FEE0FFF1FE255FB4F69
:103BC000C080D180E280F38082E991E00E94C91236
:103BD00089809A80092C000CAA08BB08B7FE0CC08B
:103BE0008DE20E94BE1266277727CB0168197909FA
:103BF0008A099B094AE003C04AE0C501B4010E945A
:103C00007D1282EA91E087C08F8598891A82198295
:103C1000B1010E944106E981FA81EE0FFF1FEE0F0C
:103C2000FF1FE255FB4F1082118212821382E8C3FC
:103C30008F8598891E821D821A821982A101B30183
:103C40000E94090629813A818D819E81FC01EE5BEB
:103C5000F94F4085411102C041E04087880F991F0C
:103C6000FC01EE5BF94F31832083CAC38F859889AD
:103C70001E821D821A821982A101B3010E940906C7
:103C8000ED80FE8009811A81B701601B710B072E40
:103C9000000C880B990B0E944A2A20911C0230913B
:103CA0001D0240911E0250911F020E94A92A0E94EB
:103CB000F12C21E020934A0620934B0610924C06EB
:103CC00010924D060E0D1F1D1093430600934206E1
:103CD000709345066093440693C38F8598892FEFB0
:103CE0003FEF3A832983A101B3010E94090669814C
:103CF0007A818D819E816331710508F0BC010E943B
:103D0000CB12BC01990F880B990B0E944A2A6B01B8
:103D10007C0188E991E00E94C912C701B60167C21F
:103D200060E070E089E00E94BE0968EC70E08AE023
:103D30000E94BE096CE271E080E090E00E94590AA6
:103D400060E070E089E00E94BE0960E070E08AE017
:103D50000E94BE0955C3B1018F8598890E94410612
:103D600089818093710580917105F894109280008B
:103D700089E08093810080E293E0909389008093B2
:103D80008800109285001092840082E080936F007A
:103D9000789480937005109274058091710560E0AD
:103DA0000E94820981E0809391072AC30F851889B8
:103DB00080915C0281119EC010921902109218022B
:103DC00010921702109216021092150281E0809351
:103DD00014021092130261E082E10E94D00861E0B7
:103DE00083E10E94D0088091B9008E7F8093B90052
:103DF0008091B9008D7F8093B90088E48093B800EA
:103E000085E48093BC0010928A0780918F078230EE
:103E100018F098E090938A0780938D078BE39DE0DC
:103E20000197F1F76091900785E897E00E943502CD
:103E300068EE73E080E090E00E94590A63E085E854
:103E400097E00E949A02BBE4EB2EB6E4FB2EC7017A
:103E50000197F1F763E085E897E00E949A02C701B5
:103E60000197F1F763E085E897E00E949A0283E505
:103E700092E00197F1F762E085E897E00E949A02EC
:103E800060918A07606240E085E897E00E94B30293
:103E900084E080938B0740E06CE085E897E00E9427
:103EA000B30240E061E085E897E00E94B3028BE353
:103EB000E82E8FE1F82EC7010197F1F782E0809399
:103EC0008C0740E066E085E897E00E94B30240E09E
:103ED00062E085E897E00E94B302C7010197F1F71D
:103EE0001092900760E085E897E00E94350281E03B
:103EF00080935C0240E061E085E897E00E94B302B5
:103F00008BE39FE10197F1F77801D7016D917D0176
:103F1000662309F475C26D3009F472C26A3009F47F
:103F20006FC285E897E00E94C902EFCF9301AE010E
:103F3000475F5F4FB2018F8598890E94CD059985B3
:103F40008F81809382079093830760E00E948209AB
:103F500060E0809183070E94820960E0809182077F
:103F60000E94D00860E0809183070E94D0082D81D4
:103F70003E810FE111E0F101DD24D39440E0D8014E
:103F8000FE90EE908D01C901B7010E949C2D611534
:103F9000710529F4DD20A1F04330A1F411C0A62F52
:103FA000AF70B0E0A95FBE4F5C916E9DC0016F9D88
:103FB000900D7E9D900D1124281B390BD12C03C030
:103FC0005FE301C050E051934F5F4430C1F60E945F
:103FD000631680E40E9400160E94DC150E9463169E
:103FE00080EC0E94001689810E9400168A810E943E
:103FF00000168B810E9400168C810E9400160E9480
:10400000DC150E946316809184078F7080580E948F
:1040100000160E94DC15F4C19101A301B2010E94B7
:10402000CD0529813A816F8178854D815E818091AE
:10403000800790918107181619060CF0E1C14830ED
:10404000510508F0DDC16830710508F0D9C180E87C
:1040500090E002C0959587956A95E2F7FA01E65DD2
:10406000F84F232B19F09089892B03C080959089F4
:104070008923808B4F5F208960E070E08AE297E0BF
:104080000E947801BDC19101A301B2010E94CD053A
:1040900089819A812D813E811F81088510937A073D
:1040A00000937B0730937D0720937C0790937F07D5
:1040B00080937E0781E090E0909381078093800752
:1040C00061E0812F0E94820961E080917C070E945B
:1040D000820961E080917E070E94820961E08091FF
:1040E0007E070E94D00810937A0700937B07EAE3CB
:1040F000F7E01192B7E0EA37FB07D9F700E010E0EC
:10410000809180079091810708171907B4F520E086
:104110004FE0B8018AE297E00E94780117FD0EC0D7
:104120008091800790918107081719073CF427E0D8
:104130004BE0B8018AE297E00E94780120E049E074
:10414000B8018AE297E00E947801B8018AE297E01C
:104150000E94FF0117FD0EC080918007909181079A
:10416000081719073CF420E04CE0B8018AE297E018
:104170000E9478010F5F1F4FC3CF1816190644F431
:1041800021E04CE060E070E08AE297E00E94780174
:1041900080918007909181071816190644F428E051
:1041A0004AE060E070E08AE297E00E94780160E017
:1041B00070E08AE297E00E94FF0122C10E94342849
:1041C00060931C0270931D0280931E0290931F0245
:1041D0000E94B70415C18EE991E00E94C912609156
:1041E0001C0270911D0280911E0290911F020E947C
:1041F000201306C13F922F927F926F9286E891E042
:104200009F938F9388898F938F858F930E94DD2F43
:1042100069817A81072E000C880B990B0E944A2A2B
:1042200020E030E044EB53E40E947F2C6B017C01E2
:104230006D817E81072E000C880B990B0E944A2A03
:104240004B015C0123E333E343EC50E40E94132C65
:104250002BED3FE049EC50E40E94A92A0E94F12C8A
:104260009B01AC01ACE2B7E30E949F2B24E630E057
:1042700040E050E00E94802BCA01B9010E944A2A06
:10428000A70196010E94A92A6A8F7B8F8C8F9D8F30
:1042900023E333E343EC50E4C501B4010E94122C44
:1042A0002BED3FE049EC50E40E94A92A0E94F12C3A
:1042B0009B01AC01ACE2B7E30E949F2B24E630E007
:1042C00040E050E00E94802BCA01B9010E944A2AB6
:1042D000A70196010E94A92A6B017C016A8D7B8D42
:1042E0008C8D9D8D0E94F12CCB01770FAA0BBB0BFF
:1042F00000915406109155062091560630915706AC
:10430000800F911FA21FB31F8093540690935506F0
:10431000A0935606B0935706C701B6010E94F12C30
:1043200088279927861B970B092E000CAA0BBB0B1D
:10433000409158065091590660915A0670915B065B
:10434000840F951FA61FB71F809358069093590698
:10435000A0935A06B0935B0640E050E06AEF73E426
:104360008CE295E00E943A0E40E050E06AEF73E480
:1043700088EE94E00E943A0E84E596E00E94AA142A
:104380000E9436148CE295E00E94E00D88EE94E0E5
:104390000E94E00D0FB6F894DEBF0FBECDBF30C057
:1043A000A101B3018F8598890E9409064D815E8124
:1043B000CA018E56984FDC012C9130E0F901EE0FC6
:1043C000FF1F2E0F3F1FF901E65DFD4F208125FDE8
:1043D00007C0FA01E15EFE4F608170E00E943C116F
:1043E00069817A818D819E818E56984F0E9400113D
:1043F00007C0B1018F8598890E9441060C94000086
:1044000084EA91E00E94281480E4EDE6F2E0DF0106
:104410001D928A95E9F71092AD028091AD02803429
:1044200014F40C94BD171092AD020C94AD1780914A
:104430009107882309F418C187E795E090936802F3
:104440008093670280917405282E312C30926A0285
:10445000209269028091410690E090936C028093D3
:104460006B0280917005853009F0FEC0809179055E
:1044700090917A05885891098D35910588F480913D
:104480007405843041F480917B0590917C05809780
:10449000479708F416C280917405843408F07DC0F3
:1044A00056E0251631040CF4DAC00DE715E083E080
:1044B00090E09B8F8A8F75ECC72E7DE9D72E7CE12B
:1044C000E72E71E8F72E2A8D3B8D221533050CF06F
:1044D00053C0D8016D917C91F8013497A080B180D0
:1044E00080E090E00E94482A2B013C01B50180E069
:1044F00090E00E94482A4B015C012DEC3CEC4CE41E
:104500005FE30E94A92A9B01AC01C301B2010E9492
:10451000432A87FD17C02DEC3CEC4CE45FE3C3015C
:10452000B2010E94A92A9B01AC01C501B4010E94FD
:10453000432AE82F880FFF0BEE27FF0FEE1FFF2700
:10454000319602C0E0E0F0E0A701960163E971E076
:1045500080E091E00E948C2D6F01FF0FEE08FF08B4
:10456000C626D726E826F926EA8DFB8D3196FB8FE5
:10457000EA8F0E5F1F4FA7CFC0926102D0926202F6
:10458000E0926302F092640280E290E0909366020F
:10459000809365028FEF9FEF3EC080917B059091E5
:1045A0007C05825491098E9708F07ACF20E030E0A4
:1045B00080E090E0DC01F901E358FA4F408151813D
:1045C000495051094930510508F06ACFF901E158C5
:1045D000FA4F40815181475151094231510508F04C
:1045E00080C1880F991FAA1FBB1F81602C5F3F4F9E
:1045F0002038310501F720E230E030936602209345
:1046000065028093610290936202A0936302B0936B
:10461000640283E090E090935E0280935D0280915B
:10462000610290916202A0916302B09164028F3F97
:104630009F4FAF4FBF4F99F087EA91E00E94C91298
:1046400060916102709162028091630290916402B4
:1046500040E10E947D128FEB91E00E946B1282E09C
:1046600080937005109274050E94340A00914E06E2
:1046700010914F062091500630915106DC01CB017C
:10468000801B910BA20BB30B85369105A105B105DB
:1046900008F40BC10E94340A60934E0670934F06D3
:1046A000809350069093510680914A068823C1F06A
:1046B000809142069091430697FF03C091958195A2
:1046C000910920915206309153062817390741F479
:1046D00060E085E00E94D00860E086E00E94D0089B
:1046E00080914B068823C1F0809144069091450645
:1046F00097FF03C0919581959109209152063091C1
:1047000053062817390741F460E089E00E94D00879
:1047100060E08AE00E94D00880914C068823C1F0B6
:10472000809146069091470697FF03C09195819529
:10473000910920915206309153062817390741F408
:1047400060E087E00E94D00860E088E00E94D00826
:1047500080914D068823C1F08091480690914906CA
:1047600097FF03C091958195910920915206309150
:1047700053062817390741F460E08CE00E94D00806
:1047800060E08DE00E94D00880915206909153061F
:10479000019690935306809352068F3F91050CF437
:1047A00084C080914A06882341F060E085E00E9441
:1047B000D00860E086E00E94D00880914B068823F4
:1047C00041F060E089E00E94D00860E08AE00E9449
:1047D000D00880914C06882341F060E087E00E9479
:1047E000D00860E088E00E94D00880914D068823C0
:1047F00041F060E08CE00E94D00860E08DE00E9413
:10480000D008109253061092520680914A068823CF
:1048100081F08091420690914306181619061CF407
:1048200061E085E004C0892B21F061E086E00E9410
:10483000D00880914B06882381F0809144069091A6
:104840004506181619061CF461E089E004C0892B9E
:1048500021F061E08AE00E94D00880914C06882314
:1048600081F08091460690914706181619061CF4AF
:1048700061E087E004C0892B21F061E088E00E94BC
:10488000D00880914D06882381F080914806909150
:104890004906181619061CF461E08CE004C0892B47
:1048A00021F061E08DE00E94D00880EF93E00E944B
:1048B0000F0B8CE696E00E940F0B0E9458070C9499
:1048C000AD1780917D0590917E050997099708F0B5
:1048D000E2CD10926602109265028FEF9FEFDC012D
:1048E00090CE40815181465051094730510508F022
:1048F000D7CD880F991FAA1FBB1F78CE84E00C94D8
:10490000781A62E17AE780E090E0A50194010E94C4
:10491000802B69017A01A1E0CA1AD108E108F108E7
:10492000BFEFCB16D104E104F104D1F0C8F08A8DB9
:104930009B8DAC8DBD8D0AE0B595A7959795879514
:104940000A95D1F76C017D01E1E0CE1AD108E108AA
:10495000F108112311F40C94411A87E00C94781A91
:1049600086E00C942C1AEFEFCE16D104E104F1048A
:1049700009F038F684E00C942C1A3FEFC316D104EA
:10498000E104F104E1F0D8F062E17AE780E090E040
:10499000A50194010E94802B69017A01F1E0CF1AF0
:1049A000D108E108F1082FEFC216D104E104F104A7
:1049B00019F010F00C942F1A84E00C94421A83E042
:1049C0000C94421A82E00C94781A8091C60490915B
:1049D000C704009711F00E94662E8091C40487FDE1
:1049E00003C060E00C9482090895AF92BF92CF9209
:1049F000DF92EF92FF920F931F93CF93DF9310926A
:104A00004A031092490388EE93E0A0E0B0E080935F
:104A10004B0390934C03A0934D03B0934E0385E357
:104A200091E0909348038093470385EC90E0909346
:104A300054038093530384EC90E090935603809347
:104A4000550380EC90E0909358038093570381ECDA
:104A500090E090935A038093590382EC90E09093F6
:104A60005C0380935B0386EC90E090935E038093FD
:104A70005D03109260031092610310926203109222
:104A8000630325E4A22E21E0B22EB0922D05A09260
:104A90002C05D4E0D0932E051092370510923805DE
:104AA0001092390510923A0510923B0510923C0580
:104AB00010923D0510923E0510923F051092400560
:104AC0001092410510924205C12CD12C30E8E32E02
:104AD0003FE3F32EC0924305D0924405E092450592
:104AE000F09246051092470510924805109249052C
:104AF00010924A05C0924B05D0924C05E0924D05AC
:104B0000F0924E0510924F051092500510925105EB
:104B10001092520501E010E01093580500935705DC
:104B2000CFEFC0935A05109253051092540510927E
:104B300055051092560585E080932F0589E08093F6
:104B4000300586E0809331058AE08093320510922B
:104B50005F05109260051092610510926205109237
:104B60006305109264051092650510926605109217
:104B70006705109268051092690510926A05C09247
:104B80006B05D0926C05E0926D05F0926E05109267
:104B90006F0510923305109234051092350510926E
:104BA00036058CE295E00E94AC0DB701A6018CE2BF
:104BB00095E00E94890BB092E904A092E804D0939A
:104BC000EA041092F3041092F4041092F504109287
:104BD000F6041092F7041092F8041092F90410925F
:104BE000FA041092FB041092FC041092FD0410923F
:104BF000FE04C092FF04D0920005E0920105F092FD
:104C000002051092030510920405109205051092FA
:104C10000605C0920705D0920805E0920905F092BA
:104C20000A0510920B0510920C0510920D051092BA
:104C30000E051093140500931305C09316051092EA
:104C40000F0510921005109211051092120587E0C1
:104C50008093EB048CE08093EC0488E08093ED0477
:104C60008DE08093EE0410921B0510921C051092AB
:104C70001D0510921E0510921F051092200510921E
:104C800021051092220510922305109224051092FE
:104C9000250510922605C0922705D0922805E0929E
:104CA0002905F0922A0510922B051092EF0410921C
:104CB000F0041092F1041092F20488EE94E00E9445
:104CC000AC0DB701A60188EE94E00E94890B10920A
:104CD000E7041092BF041092C5041092CC04109205
:104CE000CD041092CE041092CF0481E08093CB04C7
:104CF0008093C8041092C90492E09093CA048093F0
:104D0000BE0480E390E09093C3048093C2040E94A9
:104D1000D12D9093C7048093C604009761F020E3DF
:104D2000FC0111922A95E9F780E190E09093C1048B
:104D30008093C00408C01092C3041092C204109261
:104D4000C1041092C00466E08EEB94E00E94DD0A7C
:104D5000E0EFF3E01082739684E0EE3AF807D1F7C3
:104D60001092E7031092E60388EE93E0A0E0B0E033
:104D70008093E8039093E903A093EA03B093EB03D5
:104D80008FE591E09093E5038093E40380919D0784
:104D9000E2E9F7E08B3018F48F5F808301C0108266
:104DA000319697E0ED39F907A9F780939D078FEFCA
:104DB00080937105109273051092880710928707EF
:104DC0008FE691E090938607809385078FE3809329
:104DD000890780E180938E0782E080938F0780E8C7
:104DE00080939007C4E0D0E0D0937B07C0937A070C
:104DF00087E090E090937D0780937C0788E090E0C7
:104E000090937F0780937E0781E090E090938107E5
:104E10008093800761E084E00E94820961E08091D4
:104E20007C070E94820961E080917E070E948209CE
:104E300061E080917E070E94D008D0937B07C093E9
:104E40007A07EAE3F7E0119287E0EA37F807D9F743
:104E5000C0E0D0E08091800790918107C817D90702
:104E6000ACF520E04FE0BE018AE297E00E947801B5
:104E7000D7FD0EC08091800790918107C817D90790
:104E80003CF427E04BE0BE018AE297E00E94780103
:104E900020E049E0BE018AE297E00E947801BE016D
:104EA0008AE297E00E94FF01D7FD0EC08091800743
:104EB00090918107C817D9073CF420E04CE0BE016F
:104EC0008AE297E00E9478012196C4CFECE6F6E0F2
:104ED0001082739697E0EA32F907D1F710924E06E6
:104EE00010924F06109250061092510610925306DF
:104EF0001092520688E0E9E2F1E0A4E6B6E0019003
:104F00000D928A95E1F740E050E066E174E48CE2AE
:104F100095E00E949B1040E050E068E473E48CE26E
:104F200095E00E94890B40E050E066E174E488EE71
:104F300094E00E949B1040E050E068E473E488EE47
:104F400094E00E94890BE091E704EA3068F481E084
:104F50008E0F8093E704F0E0EE0FFF1FED52FB4F42
:104F60008CE295E091838083E091E704EA3068F475
:104F700081E08E0F8093E704F0E0EE0FFF1FED520B
:104F8000FB4F88EE94E0918380838091C40487FD79
:104F900008C061E00E94820960E08091C4040E9420
:104FA000D00881E08093BF0480934B0680934A062B
:104FB00010924D0610924C0680E090EBACE5B6E402
:104FC00080935C0690935D06A0935E06B0935F06A7
:104FD00083E29BEDA9EFBDE38093600690936106A9
:104FE000A0936206B09363061092BA041092BB04B9
:104FF0001092BC041092BD041092B6041092B70433
:105000001092B8041092B9041092B2041092B30432
:105010001092B4041092B5041092AE041092AF0432
:105020001092B0041092B104C4E6D6E08E0161E0A3
:1050300089910E94820960E0F80180810E94D00875
:10504000F6E0CC36DF0791F76BE877E080EF93E08E
:10505000DF91CF911F910F91FF90EF90DF90CF9054
:10506000BF90AF900C943112662777270C94B52827
:10507000FC0188279927E89421912032E9F329300F
:1050800010F02E30C8F32B3241F02D3239F46894F1
:1050900004C00E949328820F911D219120532A3031
:1050A000C0F31EF4909581959F4F0895FA01A19148
:1050B000B081009719F41097E1F0CD01DC01CD012A
:1050C0000D90002011F4C00113C0FB012191222397
:1050D00019F02015D9F7F3CFFB012191201519F410
:1050E0001E92119606C02223C1F70D900020A1F751
:1050F000D001FA01A193B08308954532510520F4FF
:10510000423010F00C948828FB011082CB010895E6
:10511000BB274A3031F4992322F4BDE29095819562
:105120009F4F0C949C287AE0979F902D879F802D0D
:10513000910D11240895BB27FB015527AA27880F3D
:10514000991FAA1FA41710F0A41B83955051B9F7FB
:10515000A05DAA3308F0A95DA193009779F7B1117A
:10516000B1931192CB010C94332AA0E0B0E0EBEBA9
:10517000F8E20C94AE2BEC017B016115710519F07E
:10518000DB018D939C938E010F5F1F4F7880872DDD
:1051900090E00E94122A892B11F0E801F4CFBDE2C1
:1051A0007B1205C00F5F1F4F7980C1E008C0EBE2A2
:1051B0007E1204C08E010E5F1F4F7980C0E068012F
:1051C000F1E0CF1AD10843E050E060E970E0C60199
:1051D0000E941B2A892BF1F4680122E0C20ED11C27
:1051E00045E050E06BE870E0C6010E941B2A892B65
:1051F00021F4680187E0C80ED11CE114F10419F014
:10520000D701CD92DC92C111FFC060E070E080E870
:105210009FE703C143E050E068E870E0C6010E94E8
:105220001B2A892B51F4E114F10409F4F2C00E5F3A
:105230001F4FF70111830083ECC0680160E070E04C
:10524000CB0100E010E0F601D0EDD70DDA3058F5D3
:105250002C2F2260622E2C2F2870C2FF05C0211136
:1052600028C00F5F1F4F25C0222311F001501109E4
:10527000A5E0B0E09B01AC010E949F2B4B015C01BB
:10528000880C991CAA1CBB1CC501B4016D0F711DB3
:10529000811D911D6839A9E97A078A07A9E19A0752
:1052A00040F0C66005C0DE3F51F4C3FD44C0C86095
:1052B0006C2EBFEFCB1ADB0A7080C62DC4CF2D2F0A
:1052C0002F7D2531C1F540814D3211F4C06106C0FA
:1052D0004B3221F0319621E030E006C03296D60103
:1052E00011964C9122E030E0A0EDA40FAA3018F006
:1052F000E21BF30B20C040E050E04038BCE05B070D
:105300005CF49A01220F331F220F331F420F531FE9
:10531000440F551F4A0F511D3196DF0111972C91F3
:10532000A0EDA20FAA3048F3C4FF03C051954195E8
:105330005109040F151FC1FF07C0E114F10421F04A
:105340003197D701ED93FC930E94482AC370C33074
:1053500019F06B017C0106C06B017C01F7FAF09437
:10536000F7F8F09420E030E0A901C701B6010E94EF
:10537000432A882309F445C017FF06C011950195FB
:105380001109C7EAD0E002C0CFEBD0E05E01B8E17E
:10539000AB1AB1084601BE2DAF2D90E2E92EF12CDB
:1053A0000E151F0584F0FE0125913591459154910C
:1053B000B4018B2F9A2F0E94A92A4B01B82FA92F35
:1053C0000E191F09EDCF2497F594E794CA15DB0554
:1053D00039F76401EB2EFA2E8E2D880F8F2D881F42
:1053E0008F3F49F020E030E0A901C701B6010E94DB
:1053F000432A811106C082E290E090939F07809338
:105400009E07C701B60109C060E070E080E89FEF29
:1054100004C060E070E080EC9FE7CDB7DEB7EEE05F
:105420000C94CA2B91110C94162B803219F08950D0
:105430008550C8F70895FB01DC014150504088F0C9
:105440008D9181341CF08B350CF4805E6591613454
:105450001CF06B350CF4605E861B611171F3990BC7
:105460000895881BFCCFDC01FC01672F7191772325
:10547000E1F7329704C07C916D9370836291AE170F
:10548000BF07C8F308950E94852A08F481E00895B3
:10549000E89409C097FB3EF49095809570956195CE
:1054A0007F4F8F4F9F4F9923A9F0F92F96E9BB2784
:1054B0009395F695879577956795B795F111F8CF00
:1054C000FAF4BB0F11F460FF1BC06F5F7F4F8F4F6B
:1054D0009F4F16C0882311F096E911C0772321F061
:1054E0009EE8872F762F05C0662371F096E8862FF9
:1054F00070E060E02AF09A95660F771F881FDAF750
:10550000880F9695879597F90895990F0008550F7C
:10551000AA0BE0E8FEEF16161706E807F907C0F039
:1055200012161306E407F50798F0621B730B840B41
:10553000950B39F40A2661F0232B242B252B21F41B
:1055400008950A2609F4A140A6958FEF811D811DBB
:1055500008950E94BC2A0C94302B0E94222B38F014
:105560000E94292B20F0952311F00C94192B0C94F8
:105570001F2B11240C94642B0E94412B70F3959FD8
:10558000C1F3950F50E0551F629FF001729FBB273A
:10559000F00DB11D639FAA27F00DB11DAA1F649FD6
:1055A0006627B00DA11D661F829F2227B00DA11D89
:1055B000621F739FB00DA11D621F839FA00D611D0F
:1055C000221F749F3327A00D611D231F849F600D30
:1055D000211D822F762F6A2F11249F5750409AF059
:1055E000F1F088234AF0EE0FFF1FBB1F661F771FE5
:1055F000881F91505040A9F79E3F510580F00C94B0
:10560000192B0C94642B5F3FE4F3983ED4F38695FA
:1056100077956795B795F795E7959F5FC1F7FE2B4F
:10562000880F911D9695879597F908959927882752
:10563000089597F99F6780E870E060E008959FEF14
:1056400080EC089500240A94161617061806090619
:10565000089500240A9412161306140605060895E8
:10566000092E0394000C11F4882352F0BB0F40F470
:10567000BF2B11F460FF04C06F5F7F4F8F4F9F4FB0
:10568000089557FD9058440F551F59F05F3F71F032
:105690004795880F97FB991F61F09F3F79F0879599
:1056A0000895121613061406551FF2CF4695F1DF22
:1056B00008C0161617061806991FF1CF86957105B2
:1056C000610508940895E894BB2766277727CB01E6
:1056D00097F90895F999FECF92BD81BDF89A99275F
:1056E00080B50895262FF999FECF1FBA92BD81BDCE
:1056F00020BD0FB6F894FA9AF99A0FBE0196089554
:10570000052E97FB1EF400940E94972B57FD07D09F
:105710000E94E12B07FC03D04EF40C94972B50957C
:105720004095309521953F4F4F4F5F4F089590958D
:105730008095709561957F4F8F4F9F4F08950E9480
:10574000032CA59F900DB49F900DA49F800D911DDB
:10575000112408952F923F924F925F926F927F9201
:105760008F929F92AF92BF92CF92DF92EF92FF9271
:105770000F931F93CF93DF93CDB7DEB7CA1BDB0B1D
:105780000FB6F894DEBF0FBECDBF09942A883988C2
:1057900048885F846E847D848C849B84AA84B984C9
:1057A000C884DF80EE80FD800C811B81AA81B981D5
:1057B000CE0FD11D0FB6F894DEBF0FBECDBFED01E9
:1057C0000895A1E21A2EAA1BBB1BFD010DC0AA1F42
:1057D000BB1FEE1FFF1FA217B307E407F50720F05A
:1057E000A21BB30BE40BF50B661F771F881F991FD5
:1057F0001A9469F760957095809590959B01AC011E
:10580000BD01CF010895A29FB001B39FC001A39F26
:10581000700D811D1124911DB29F700D811D1124E9
:10582000911D08955058BB27AA270E942A2C0C943A
:10583000302B0E94222B38F00E94292B20F039F4C3
:105840009F3F19F426F40C941F2B0EF4E095E7FB10
:105850000C94192BE92F0E94412B58F3BA176207B9
:1058600073078407950720F079F4A6F50C94632B51
:105870000EF4E0950B2EBA2FA02D0B01B90190016B
:105880000C01CA01A0011124FF27591B99F0593FAF
:1058900050F4503E68F11A16F040A22F232F342FF7
:1058A0004427585FF3CF469537952795A795F04045
:1058B0005395C9F77EF41F16BA0B620B730B840B5A
:1058C000BAF09150A1F0FF0FBB1F661F771F881F12
:1058D000C2F70EC0BA0F621F731F841F48F487956A
:1058E00077956795B795F7959E3F08F0B0CF93955C
:1058F000880F08F09927EE0F9795879508950E94D5
:10590000932C0C94302B0E94292B58F00E94222BB0
:1059100040F029F45F3F29F00C94192B51110C949D
:10592000642B0C941F2B0E94412B68F39923B1F335
:10593000552391F3951B550BBB27AA2762177307B5
:10594000840738F09F5F5F4F220F331F441FAA1F49
:10595000A9F335D00E2E3AF0E0E832D09150504005
:10596000E695001CCAF72BD0FE2F29D0660F771FB3
:10597000881FBB1F261737074807AB07B0E809F099
:10598000BB0B802DBF01FF2793585F4F3AF09E3F1E
:10599000510578F00C94192B0C94642B5F3FE4F3C1
:1059A000983ED4F3869577956795B795F7959F5F61
:1059B000C9F7880F911D9695879597F90895E1E0AD
:1059C000660F771F881FBB1F621773078407BA070C
:1059D00020F0621B730B840BBA0BEE1F88F7E09567
:1059E00008950E94F82C6894B1110C94642B0895CA
:1059F0000E94492B88F09F5798F0B92F9927B751EB
:105A0000B0F0E1F0660F771F881F991F1AF0BA9562
:105A1000C9F714C0B13091F00E94632BB1E0089532
:105A20000C94632B672F782F8827B85F39F0B93F24
:105A3000CCF3869577956795B395D9F73EF4909515
:105A40008095709561957F4F8F4F9F4F08950E946D
:105A5000852A08F48FEF089519F416F40C941F2B7F
:105A60000C94772D0E94492BB8F39923C9F3B6F310
:105A70009F57550B87FF0E94852D0024A0E640EA22
:105A8000900180585695979528F4805C660F771F93
:105A9000881F20F026173707480730F4621B730B66
:105AA000840B202931294A2BA69517940794202589
:105AB00031254A2758F7660F771F881F20F02617D1
:105AC0003707480730F4620B730B840B200D311D30
:105AD000411DA09581F7B901842F9158880F9695A3
