:100000000C9414010C943C010C943C010C943C01A4
:100010000C943C010C943C010C943C010C94960E05
:100020000C943C010C9459060C943C010C945B0814
:100030000C943C010C943C010C943C010C943C014C
:100040000C945D100C943C010C940B0E0C94E50D7B
:100050000C943C010C943C010C943C010C943C012C
:100060000C9415090C943C0156015C016201680175
:100070006E0174017A01B502BC02C302CA02D10248
:10008000E802D802E802DF024E414E494E49545977
:10009000494E46CDCCCC3D0AD7233C17B7D1387753
:1000A000CC2B329595E6241FB14F0A000020410069
:1000B00000C84200401C4620BCBE4CCA1B0E5AAEB3
:1000C000C59D7400407A10F35A00A0724E180900C2
:1000D00010A5D4E80000E87648170000E40B5402AD
:1000E0000000CA9A3B000000E1F5050000809698E8
:1000F00000000040420F000000A086010000001038
:100100002700000000E80300000000640000000079
:10011000000A00000000000100000000002C76D85A
:1001200088DC674F0823DFC1DFAE59E1B1B796E540
:10013000E3E453C63AE651997696E8E6C28426EBA4
:10014000898C9B62ED407C6FFCEFBC9C9F40F2BAB7
:10015000A56FA5F490055A2AF75C936B6CF9676D4F
:10016000C11BFCE0E40D47FEF520E6B500D0ED90A4
:100170002E0300943577050080841E080000204E71
:100180000A000000C80C333333330F986E1283110A
:1001900041EF8D2114893BE65516CFFEE6DB18D1E1
:1001A000844B381BF77C1D901DA4BBE424203284B3
:1001B000725E228100C9F124ECA1E53D27636469E8
:1001C0006E6F70737578585B000000000025002882
:1001D000002B000200000000240027002A0000007D
:1001E00000080002010000030407000000000000F6
:1001F000000000000000230026002900040404047D
:1002000004040404020202020202030303030303C0
:10021000010204081020408001020408102001029D
:10022000040810207324632411241FBECFEFD8E0EC
:10023000DEBFCDBF11E0A0E0B1E0E4EDF9E602C021
:1002400005900D92A83EB107D9F726E0A8EEB1E0DF
:1002500001C01D92A63CB207E1F711E0C3E1D1E075
:1002600004C02197FE010E94872FC231D107C9F730
:100270000E9482160C94DD340C940000CF93DF931F
:100280004770552766277727FA013197EC01A88137
:10029000B981E730F10520F4EC5CFF4F0C94872F17
:1002A0001496ED91FC91159761E029C01496ED919B
:1002B000FC91159765E023C01496ED91FC9115977C
:1002C00064E01DC01496ED91FC91159766E017C08F
:1002D0001496ED91FC91159762E011C01496ED9182
:1002E000FC9115976AE00BC01496ED91FC9115975F
:1002F00068E005C01496ED91FC91159769E0DF91D7
:10030000CF910994CF93DF93EC01CB01BA0126E0A2
:1003100030E040E050E00E94572D623071058105C9
:10032000910559F18CF46115710581059105F1F084
:100330006130710581059105C1F5E881F98104807D
:10034000F581E02D65E02DC06430710581059105D2
:1003500011F1D4F0653071058105910531F5E88121
:10036000F9810480F581E02D66E01BC0E881F98108
:100370000480F581E02D64E014C0E881F9810480F7
:10038000F581E02D61E00DC0E881F9810480F581FF
:10039000E02D63E006C0E881F9810480F581E02D5D
:1003A00062E0CE01DF91CF910994DF91CF91089562
:1003B0004370552766277727DC01ED91FC91048077
:1003C000F581E02D423051056105710571F0433032
:1003D00051056105710559F04130510561057105FF
:1003E00011F065E005C066E003C06AE001C069E0A5
:1003F0000994CF93DF93EC01CB01BA0123E030E005
:1004000040E050E00E94572D613071058105910553
:1004100081F0623071058105910591F0672B682BA1
:10042000692BC1F4E881F9810480F581E02D64E055
:100430000DC0E881F9810480F581E02D61E006C0FE
:10044000E881F9810480F581E02D62E0CE01DF9141
:10045000CF910994DF91CF91089543705527662776
:100460007727DC01ED91FC910480F581E02D42308D
:1004700051056105710571F0433051056105710544
:1004800059F0413051056105710511F062E005C078
:1004900063E003C061E001C060E009940F931F9323
:1004A000CF93DF93EC01E881F9810480F581E02DA1
:1004B0008C010D5B1F4FD8018C91811102C060E04F
:1004C00001C062E0CE010995E881F9810480F581DF
:1004D000E02DD8018C91811102C061E001C063E080
:1004E000CE010995EBA5FCA5E230F10538F0EE0F41
:1004F000FF1FEE0FFF1F35973197F1F7E881F98164
:100500000480F581E02DD8018C91811102C060E05A
:1005100001C062E0CE01DF91CF911F910F9109944C
:10052000CF93DF93EC0120E030E0A9016B897C8957
:100530008D899E890E94FE2E18161CF4EFA5F8A93D
:1005400002C0E9A9FAA9DF91CF9109940F931F93F3
:10055000DC011296EC910E2F10E009301105C0F568
:10056000F801E55CFF4F0C94872FDC01ED91FC91C5
:100570000084F185E02D29C0DC01ED91FC9102841D
:10058000F385E02D22C0DC01ED91FC910484F5851A
:10059000E02D1BC0DC01ED91FC910684F785E02D78
:1005A00014C0DC01ED91FC910088F189E02D0DC0B3
:1005B000DC01ED91FC910288F389E02D06C0DC019D
:1005C000ED91FC910488F589E02D1F910F9109941C
:1005D0001F910F91089585ED8093BC008091BC0020
:1005E00084FDFCCF1092050208954091C402262F8D
:1005F00030E0240F311D21323105DCF42091050259
:100600002430C9F4FC0180E090E0861758F4309162
:10061000C4022191DC01AE55BD4FA30FB11D2C9337
:100620000196F3CF8091C402680F6093C40280E00A
:10063000089581E0089582E00895089581E090E0B2
:100640003091090220910802321710F480E090E006
:1006500091958195910908958091090290910802E0
:10066000891730F48F5F8093090280E090E008954D
:100670008FEF9FEF08958091080290E0209109028A
:10068000821B91090895CF92DF92EF92FF920F9310
:100690001F93CF93DF937C01262F972F8A018091A0
:1006A0000D03882391F0C62FD72F6E01C40ED51EDF
:1006B000CC15DD0571F06991D701ED91FC910190A8
:1006C000F081E02DC7010995F3CF642F822F0E949E
:1006D000F502C801DF91CF911F910F91FF90EF902C
:1006E000DF90CF900895CF93DF931F92CDB7DEB701
:1006F000698320910D032223D1F02091060220323C
:1007000040F021E030E0FC013383228380E090E080
:1007100015C080910702E82FF0E0E25FFC4F99815D
:1007200090838F5F809307028093060205C061E08B
:10073000CE0101960E94F50281E090E00F90DF91DA
:10074000CF910895CF93DF93FC0122812223A9F05A
:10075000EC010190F081E02D0480F581E02D60E056
:1007600009958EA58F3F49F061E00E94180F6DA595
:100770008EA5DF91CF910C94660EDF91CF910895F5
:10078000CF92DF92EF92FF920F931F93CF93DF935D
:10079000FC012281243041F0283031F0233031F047
:1007A000263021F012E003C014E001C013E0EC0198
:1007B0002796E12CF12CC62ED12C01E0C6010E2C7F
:1007C00002C0959587950A94E2F7688180FD6027BD
:1007D000FE01349780810E94660EFFEFEF1AFF0A38
:1007E0002196E11658F3DF91CF911F910F91FF9061
:1007F000EF90DF90CF9008952F923F924F925F92AB
:100800006F927F928F929F92AF92BF92CF92DF9220
:10081000EF92FF920F931F93CF93DF9300D000D0FE
:10082000CDB7DEB71C01FC0187849088A188B2880F
:1008300083859485A585B685881A990AAA0ABB0A74
:1008400063897489858996899B01AC010E94802CFB
:100850006B017C01F101638D748D858D968D9B01FB
:10086000AC010E94EA2D9B01AC01C701B6010E94B8
:10087000562E0E94C82E81149104A104B104A1F443
:1008800062307105810591050CF07CC0F10113A265
:1008900014A215A216A2138A148A158A168A13AAFC
:1008A00014AA15AA16AA03C1F10103A914A925A91E
:1008B00036A9ED5BFF4F181419041A041B04FCF44D
:1008C00010161106120613064CF4681579058A05F0
:1008D0009B054CF52081211155C025C0011511053E
:1008E0002105310509F44EC0681579058A059B0577
:1008F0000CF048C08081882309F444C037C010162A
:10090000110612061306F4F400271127980108199E
:1009100019092A093B0960177107820793071CF41C
:100920002081222379F19B01AC0188279927DC01E2
:10093000821B930BA40BB50BF10183AB94ABA5AB5E
:10094000B6AB20C00115110521053105D9F0CC2425
:10095000DD247601C818D908EA08FB086C157D0566
:100960008E059F057CF4808181110CC03095209507
:10097000109501951F4F2F4F3F4FF10103AB14AB63
:1009800025AB36ABF101C3A8D4A8E5A8F6A8810130
:100990000D5B1F4FC114D104E104F10491F487A948
:1009A00090ADA1ADB2AD83AF94AFA5AFB6AF81E0CE
:1009B000181419041A041B040CF080E0F801808359
:1009C00040C0F10183AC94ACA5ACB6ACA5019401D8
:1009D000C501B4010E94EA2D2B013C01C701B601FB
:1009E0000E94212C20E030E040E850E40E94802C5E
:1009F00020E030E040E85FE30E94EA2D9B01AC017B
:100A0000C301B2010E94562E9B01AC01C501B40185
:100A10000E94E92D4B015C01F101FF96408051805D
:100A2000628073809201A3010E94FE2E181614F0BA
:100A300042015301A401B501F10143AF54AF65AFC9
:100A400076AFFFEFCF1ADF0AEF0AFF0AF101C3AA60
:100A5000D4AAE5AAF6AA23AD34AD45AD56ADCA0178
:100A6000B90129833A834B835C830E94CF2EF10125
:100A700063A374A385A396A329813A814B815C81EA
:100A800060E074E284E799E40E94562EF101638BE2
:100A9000748B858B968BF8012081211108C0DC01B5
:100AA000CB01B058F101838B948BA58BB68B0F9043
:100AB0000F900F900F90DF91CF911F910F91FF90AA
:100AC000EF90DF90CF90BF90AF909F908F907F90EE
:100AD0006F905F904F903F902F900895CF92DF924C
:100AE000EF92FF920F931F93CF93DF93EC016A0174
:100AF0007B019A01AB016F89788D898D9A8D0E9457
:100B00001A2C882309F446C0CF8AD88EE98EFA8E33
:100B10008E01015C1F4FA701960160E074E284E73B
:100B200099E40E94562EF801608371838283938337
:100B30008BA99CA9ADA9BEA9181619061A061B06F1
:100B40004CF56B897C898D899E899B01AC010E9443
:100B5000802C6B017C016B8D7C8D8D8D9E8D9B011E
:100B6000AC010E94EA2D9B01AC01C701B6010E94B5
:100B7000562E0E94C82E6BAB7CAB8DAB9EABCE01CC
:100B8000DF91CF911F910F91FF90EF90DF90CF9069
:100B90000C94FC03DF91CF911F910F91FF90EF9088
:100BA000DF90CF900895CF93FC01C0818FEF8C0F21
:100BB0008B3098F520E437E0DB010E948D2F24EB89
:100BC00030E040E050E00E94572DDA01C901805E1C
:100BD0009D4FAF4FBF4F8032F2E09F0744F09C0122
:100BE000213689E038072CF020E639E002C020E207
:100BF00032E028503109EC2FF0E0C901880F892F2D
:100C0000881F990BAF01440F551FE40FF51FE65ED7
:100C1000FD4F8183220F20952283CF9108950F935A
:100C20001F93CF938C01C62F80913103811123C074
:100C300080E090E03BE027E5FC01E65EFD4F348379
:100C40002583039681329105B9F78BE180931B02CE
:100C50001092300310922F03109270001092B00087
:100C600082E08093B1001092B20081E087BB809354
:100C7000700080933103D8018C918823A1F061E04A
:100C80008C2F0E94180FD801EC91F0E0CF01880F53
:100C9000991FE80FF91FE65EFD4FCF718081807EBE
:100CA000C82BC062C083F8018081CF911F910F9142
:100CB00008951F920F920FB60F9211242F933F9316
:100CC0004F935F936F937F938F939F93AF93BF9354
:100CD000EF93FF9380912F038F5F80932F032091D9
:100CE0002F038091300390E0FC01EE0FFF1F8E0F69
:100CF0009F1FFC01E65EFD4F818128130FC080918C
:100D0000300390E0FC01EE0FFF1F8E0F9F1FFC01D0
:100D1000E65EFD4F82818093B20065C020912F0373
:100D20008091300390E0FC01EE0FFF1F8E0F9F1F9C
:100D3000FC01E65EFD4F8181821708F054C080916E
:100D4000300390E0FC01EE0FFF1F8E0F9F1FFC0190
:100D5000E65EFD4F808185FF10C08091300390E0FA
:100D6000FC01EE0FFF1F8E0F9F1FFC01E65EFD4F83
:100D7000808160E08F710E94660E809130038F5FEA
:100D80008093300310922F031092B20080913003B1
:100D9000882319F1809130038C30F8F4809130036E
:100DA00090E0FC01EE0FFF1F8E0F9F1FFC01E65E1F
:100DB000FD4F808185FF17C08091300390E0FC01DA
:100DC000EE0FFF1F8E0F9F1FFC01E65EFD4F80811F
:100DD00061E08F710E94660E06C0809130038C30F6
:100DE00010F010923003FF91EF91BF91AF919F915E
:100DF0008F917F916F915F914F913F912F910F90C4
:100E00000FBE0F901F9018952F923F924F925F92B6
:100E10006F927F928F929F92AF92BF92CF92DF920A
:100E2000EF92FF920F931F93CF93DF9300D0CDB734
:100E3000DEB78C0149832A83660F771FF801EA5ACF
:100E4000FF4FE080F180EE0CFF1CF801CF01801B0A
:100E5000910B8E159F0514F41192F8CF8981F8013A
:100E6000E60FF71F81838A818083580184E5A80EED
:100E7000B11C60E0F50180810E94660EE00EF11E5B
:100E80004801F2E58F0E911C380180E5680E711C57
:100E9000C701801B910B1816190624F5F701C290A3
:100EA0007F01F4013080F301208087E0482E512C2F
:100EB000D12CB601042C02C0759567950A94E2F70F
:100EC00061707727822D0E94660E61E0832D0E945B
:100ED000660E60E0832D0E94660EF1E04F1A510805
:100EE00040F7D6CF61E0F50180810F900F90DF9140
:100EF000CF911F910F91FF90EF90DF90CF90BF9017
:100F0000AF909F908F907F906F905F904F903F90A9
:100F10002F900C94660ECF92DF92EF92FF920F9378
:100F20001F93CF93DF9377FD23C0FC01EA5AFF4F55
:100F30002081318162177307DCF4EB017C016B01C6
:100F400083E0CC0CDD1C8A95E1F701E010E0F801AC
:100F5000EC0DFD1DEE0DFF1D178620E0402FBE019C
:100F6000C7010E9404070F5F1F4F0930110579F771
:100F7000DF91CF911F910F91FF90EF90DF90CF9075
:100F80000895CF93FC01C48121E020930D03C09309
:100F90002E0310920702109206028385682B84EDBF
:100FA00093E00E94730380910602813208F046C0EC
:100FB000909105029111FCCF92E09093050291E08F
:100FC000909304029FEF90930C0310920B03809375
:100FD0000A03AEE0B3E02AEE32E0F9019E2F921B45
:100FE000981718F49D919193F9CF1092E90280918E
:100FF000E902CC0FC82BC093E90280910302813033
:1010000061F4109203028091E9028093BB00809109
:10101000BC0083FDF8CF85EC01C085EE8093BC0059
:10102000809105028230E1F380910C038F3F31F013
:1010300080910C03803211F080910C031092070212
:101040001092060210920D03CF9108950F931F93F3
:10105000CF938C01C62F0E94C1076C2F6061C8011D
:101060000E94C1076C2F6F7EC8010E94C10783ECEC
:1010700090E00197F1F7CF911F910F9108950F9391
:101080001F93CF93DF938C01D62FC42F62956F707F
:10109000642B0E9426086D2F6F706C2BC801DF91A6
:1010A000CF911F910F910C94260840E40E943F08B5
:1010B00080E090E008951F920F920FB60F921124D6
:1010C0002F933F934F935F936F937F938F939F9350
:1010D000AF93BF93EF93FF93809193040E943D0ED3
:1010E00020919704309198042F5F3F4F30939804DC
:1010F0002093970490919604953618F096E090937B
:101100009204909192049430C9F128F4923069F0DD
:101110009330D1F05EC0953009F451C0963009F09B
:1011200058C091E09093630551C0811152C0209145
:101130009704309198042436310508F442C0109287
:101140006305109296041CC0813009F042C0E09102
:10115000960491E09E0F90939604F0E020919704FE
:1011600030919804EE0FFF1FEE56FB4F3087278318
:10117000109298041092970494E029C0811117C02E
:10118000E091960491E09E0F90939604F0E02091F8
:10119000970430919804EE0FFF1FEE56FB4F3087F7
:1011A0002783109298041092970493E010C0209126
:1011B0009704309198042536310558F007C0811105
:1011C00008C0109298041092970403C095E0909381
:1011D0009204909195049923B9F081110AC08091ED
:1011E0009404882321F08091940461E009C02D9A31
:1011F0000BC080919404882331F08091940460E0C6
:101200000E94660E01C02D98FF91EF91BF91AF91A2
:101210009F918F917F916F915F914F913F912F910E
:101220000F900FBE0F901F9018951F920F920FB640
:101230000F9211242F933F934F935F936F937F935C
:101240008F939F93AF93BF93EF93FF938091B900D8
:10125000887F803609F49CC068F5883209F45BC049
:1012600090F4803109F454C038F4882309F4F6C0AE
:10127000883009F44DC0F6C0883109F44CC0803282
:1012800009F45DC0EFC0803409F468C048F48033CD
:1012900009F455C0883309F0E5C080930C03D8C029
:1012A000803509F44FC0883509F45DC0883409F0F1
:1012B000D9C0D6C0883909F4C7C0A8F4883709F462
:1012C00067C038F4883609F463C0803709F460C019
:1012D000C9C0883809F4B8C0803909F45FC08038C3
:1012E00009F0C0C05BC0803B09F486C038F4803A86
:1012F00009F466C0883A09F47FC0B4C0803C09F4A0
:10130000A7C0883C09F4A4C0883B09F48AC0AAC0DD
:101310008091E90210C090910B0380910A03981705
:1013200070F5E0910B0381E08E0F80930B03F0E0EA
:10133000E651FD4F80818093BB0085EC86C0809391
:101340000C038EC0E0910B0381E08E0F80930B03A2
:101350008091BB00F0E0E651FD4F808390910B033C
:1013600080910A036EC0E0910B0381E08E0F8093A1
:101370000B038091BB00F0E0E651FD4F808380912C
:10138000040281116DC081E08093030284EA61C090
:1013900083E0809305021092E802CFCF8091E802AB
:1013A000803208F051C0E091E80281E08E0F809316
:1013B000E8028091BB00F0E0E853FD4F8083BDCF91
:1013C00085EC8093BC00109205028091E802803287
:1013D00030F4E091E802F0E0E853FD4F10826091B4
:1013E000E80270E0E091C602F091C70288EC92E05A
:1013F00009951092E80236C084E0809305021092AD
:10140000C5021092C402E091C202F091C302099594
:101410008091C402811105C081E08093C4021092C2
:10142000A202E091C50281E08E0F8093C502F0E038
:10143000EE55FD4F80818093BB009091C502809155
:10144000C402981708F479CF85E88093BC000AC0DD
:1014500085EC8093BC001092050204C010920C032E
:101460000E94EB02FF91EF91BF91AF919F918F91FD
:101470007F916F915F914F913F912F910F900FBE90
:101480000F901F9018950F931F93CF93DF930AE04F
:1014900012E0C0E0D0E0F80161918F01CE010E941E
:1014A000492D2196C031D105B1F7DF91CF911F9120
:1014B0000F91089587EA91E00E94CB118BEA91E0A9
:1014C0000C94CB11CF92DF92EF92FF920F931F9368
:1014D000CF93DF93CDB7DEB72C970FB6F894DEBF6E
:1014E0000FBECDBF8B016A01BC01CE0101960E94E7
:1014F000D00D18861F821A8619861C861B86698164
:101500007A816115710531F04D815E81CE010796BA
:101510000E94720DEB84FC848FEFE81AF80AB70181
:10152000CE0107960E94070D882309F477C02F810A
:1015300038858B859C856CE971E0820F931F0E9432
:10154000AD31FC86EB86CE0107960E94C211CE011A
:1015500007960E94930DCE0101960E94930D0E30C6
:101560001105F4F0B8016E5071094AE0CE010796FA
:101570000E94980D6CEB71E0CE0101960E94D00D97
:10158000BE01695F7F4FCE0101960E94400D0E940F
:10159000C211CE0101960E94930DCE0107960CC098
:1015A0004AE0B801CE0101960E94980DCE01019645
:1015B0000E94C211CE0101960E94930D4AE0B6012D
:1015C000CE0107960E94980D6CE971E0CE0101965C
:1015D0000E94D00DBE01695F7F4FCE0101960E942F
:1015E000400D0E94C21189EB91E00E94CB11CE0107
:1015F00001960E94930DCE0107960E94930D2C96A2
:101600000FB6F894DEBF0FBECDBFDF91CF911F9113
:101610000F91FF90EF90DF90CF900895CE01079645
:101620000E942E0D90CFCF93DF93C0EFD1E0FE014B
:1016300031978081882319F1813049F488810E9493
:101640003D0E688170E0AC0183E791E016C0823006
:1016500049F488810E94E70F688170E0AC0186E759
:1016600091E00BC0833059F4888190E00E94DD1135
:10167000688170E0AC018EEB91E00E94620A2296D4
:1016800082E0C430D80799F6DF91CF910895CF93C7
:10169000DF93EB01FC0160816134E1F43F932F9310
:1016A0005F934F93DF93CF9323EC31E03F932F93DE
:1016B0009F938F930E94B431888199810E9699836C
:1016C00088838DB79EB70A960FB6F8949EBF0FBE5B
:1016D0008DBF16C03F932F935F934F93DF93CF93AC
:1016E00023E831E03F932F939F938F930E94B4316F
:1016F0008DB79EB70A960FB6F8949EBF0FBE8DBFEA
:10170000DF91CF910895CF93DF93EB01FC0120810E
:101710002134D1F45F934F93DF936F932EEC31E03C
:101720003F932F939F938F930E94B4318881998127
:101730000E96998388838DB79EB708960FB6F89456
:101740009EBF0FBE8DBF14C05F934F93DF936F9307
:1017500026E831E03F932F939F938F930E94B431FB
:101760008DB79EB708960FB6F8949EBF0FBE8DBF7B
:10177000DF91CF910895CF93DF93EB01FC0120819E
:10178000213481F4DF936F9326ED31E03F932F9363
:101790009F938F930E94B431888199810E9699838B
:1017A00088830AC0DF936F9329E831E03F932F933A
:1017B0009F938F930E94B4310F900F900F900F90D2
:1017C0000F900F90DF91CF910895CF92DF92EF921B
:1017D000FF920F931F93CF93DF936C017A018B01DC
:1017E000C0E0D0E0CE15DF0589F0D8016D918D0104
:1017F000D601ED91FC910190F081E02DC601099593
:10180000892B11F47E0102C02196ECCFC701DF9134
:10181000CF911F910F91FF90EF90DF90CF9008959F
:10182000FC01918D828D981761F0828DDF01A80FE8
:10183000B11D5D968C91928D9F5F9F73928F90E00A
:1018400008958FEF9FEF0895FC01918D828D981779
:1018500031F0828DE80FF11D858D90E008958FEFB6
:101860009FEF0895FC01918D228D892F90E0805C7F
:101870009F4F821B91098F739927089587E393E007
:101880000E94320C21E0892B09F420E0822F089578
:10189000FC01848DDF01A80FB11DA35ABF4F2C910D
:1018A000848D90E001968F739927848FA689B789DC
:1018B0002C93A089B1898C9180648C93938D848DB5
:1018C000981306C00288F389E02D80818F7D808384
:1018D0000895EF92FF920F931F93CF93DF93EC0144
:1018E00081E0888F9B8D8C8D981305C0E889F989DC
:1018F000808185FD24C0F62E0B8D10E00F5F1F4FF9
:101900000F731127E02E8C8DE8120CC00FB607FC68
:10191000FACFE889F989808185FFF5CFCE010E9451
:10192000480CF1CF8B8DFE01E80FF11DE35AFF4FFC
:10193000F0820B8FEA89FB898081806207C0EE8983
:10194000FF896083E889F98980818064808381E0F0
:1019500090E0DF91CF911F910F91FF90EF9008954C
:10196000CF93DF93EC01888D8823C9F0EA89FB8946
:10197000808185FD05C0A889B9898C9186FD0FC03D
:101980000FB607FCF5CF808185FFF2CFA889B98912
:101990008C9185FFEDCFCE010E94480CE7CFDF91FF
:1019A000CF91089580E090E0892B29F00E943E0CB1
:1019B00081110C9400000895833081F028F4813067
:1019C00099F08230A1F008958730A9F08830B9F0FD
:1019D0008430D1F4809180008F7D03C0809180009D
:1019E0008F7780938000089584B58F7702C084B587
:1019F0008F7D84BD08958091B0008F7703C0809162
:101A0000B0008F7D8093B00008950E949F310F93A6
:101A10001F93CF93DF93EC0188819981009729F080
:101A20002A813B812617370788F48B016F5F7F4F30
:101A30000E94D530009761F0998388831B830A83C5
:101A40002C813D81232B11F4FC01108281E001C027
:101A500080E0DF91CF911F910F910895CF93DF9395
:101A6000EC0188819981009711F00E943D30198224
:101A700018821D821C821B821A82DF91CF910895E9
:101A8000EF92FF920F931F93CF93DF93EC01FB0133
:101A900084819581E080F1800C811D81E114F10445
:101AA000B1F00097B9F0080F191FB801CE010E94DC
:101AB000070D882361F0288139818C819D81B701D0
:101AC000820F931F0E94AD311D830C8303C0CE0192
:101AD0000E942E0DCE01DF91CF911F910F91FF90AB
:101AE000EF900895EF92FF920F931F93CF93DF93A0
:101AF000EC017B018A01BA010E94070D811104C02B
:101B0000CE010E942E0D07C01D830C83B701888172
:101B100099810E94AD31CE01DF91CF911F910F913C
:101B2000FF90EF900895FC01808191810C943D30ED
:101B3000EF92FF920F931F93CF93DF93CDB7DEB752
:101B400062970FB6F894DEBF0FBECDBF8C01CB01FC
:101B5000F80111821082138212821582148250E0E1
:101B60009E012F5F3F4F7901B9010E94EE27F701D7
:101B700001900020E9F73197AF014E195F09B701D5
:101B8000C8010E94720D62960FB6F894DEBF0FBEB8
:101B9000CDBFDF91CF911F910F91FF90EF900895EE
:101BA000FC01118210821382128215821482611547
:101BB000710551F0FB0101900020E9F73197AF0169
:101BC000461B570B0C94720D08951F920F920FB67F
:101BD0000F9211242F933F934F935F936F937F93B3
:101BE0008F939F93AF93BF93EF93FF9387E393E01C
:101BF0000E94480CFF91EF91BF91AF919F918F91FF
:101C00007F916F915F914F913F912F910F900FBEF8
:101C10000F901F9018951F920F920FB60F921124DC
:101C20002F938F939F93EF93FF93E0914703F0914E
:101C300048038081E0914D03F0914E0382FD12C074
:101C40009081809150038F5F8F7320915103821791
:101C500051F0E0915003F0E0E95CFC4F958F8093E8
:101C6000500301C08081FF91EF919F918F912F913F
:101C70000F900FBE0F901F901895CF93DF93282FD2
:101C800030E0F901E252FE4F8491F901E05FFD4F2F
:101C9000D491F901E450FE4FC491CC2391F081110D
:101CA0000E94DC0CEC2FF0E0EE0FFF1FEE50FE4F19
:101CB000A591B491EC91ED2381E090E021F480E0D6
:101CC00002C080E090E0DF91CF9108951F93CF9301
:101CD000DF93282F30E0F901E252FE4F8491F901A1
:101CE000E05FFD4FD491F901E450FE4FC491CC2345
:101CF000C9F0162F81110E94DC0CEC2FF0E0EE0FE2
:101D0000FF1FE753FE4FA591B4918FB7F8941111BF
:101D100005C09C91ED2FE095E92302C0EC91ED2BDD
:101D2000EC938FBFDF91CF911F9108951F920F9277
:101D30000FB60F9211242F933F934F935F936F939E
:101D40007F938F939F93AF93BF93EF93FF93809174
:101D5000EB019091EC01A091ED01B091EE01892B86
:101D60008A2B8B2B59F18091E801E091E901F091E8
:101D7000EA019081892780838091EB019091EC01A9
:101D8000A091ED01B091EE01181619061A061B0676
:101D90000CF03DC08091EB019091EC01A091ED0120
:101DA000B091EE010197A109B1098093EB019093E5
:101DB000EC01A093ED01B093EE0129C080910001E8
:101DC000E3EDF1E0E4919FEF90930001E130B9F091
:101DD00098F0E230C9F4909170009D7F909370006C
:101DE00091E09093B0009091B100987F94609093AF
:101DF000B1001092B30008C010926E0005C090911F
:101E00006F009D7F90936F0060E00E94660EFF91CF
:101E1000EF91BF91AF919F918F917F916F915F9162
:101E20004F913F912F910F900FBE0F901F901895DB
:101E3000CF93DF9390E0FC01E05FFD4F2491FC0124
:101E4000E450FE4F8491882361F190E0880F991F40
:101E5000FC01EC52FE4FC591D491FC01E753FE4FBB
:101E6000A591B491611109C09FB7F894888120951C
:101E700082238883EC912E230BC0623061F49FB7DC
:101E8000F8943881822F809583238883EC912E2BC0
:101E90002C939FBF06C08FB7F894E8812E2B288320
:101EA0008FBFDF91CF910895CF93DF93FC01228103
:101EB000222359F1EC0161E083810E94180F61E057
:101EC0008C810E94180F8A81843011F0883039F497
:101ED00061E08D810E94180F61E08E8106C0833021
:101EE00011F0863021F461E08D810E94180F8EA5DB
:101EF0008F3F59F061E00E94180F6DA581E06827BF
:101F00008EA5DF91CF910C94660EDF91CF9108954D
:101F10001F93CF93DF93182FEB0161E00E94180FFE
:101F2000209711F460E004C0CF3FD10539F461E09F
:101F3000812FDF91CF911F910C94660EE12FF0E07D
:101F4000E252FE4FE491E330F9F048F4E130B9F0A9
:101F5000E230A1F584B5806284BDC8BD34C0E730ED
:101F6000E9F0E83019F1E43049F5809180008062B1
:101F700080938000D0938B00C0938A0024C084B5E6
:101F8000806884BDC7BD1FC0809180008068809339
:101F90008000D0938900C093880015C08091B00064
:101FA00080688093B000C093B3000DC08091B000F2
:101FB00080628093B000C093B40005C0C038D105E2
:101FC0000CF0B5CFAFCFDF91CF911F9108958E3038
:101FD00008F08E508770806480937C0080917A0036
:101FE000806480937A0080917A0086FDFCCF809196
:101FF00078002091790090E0922B08953FB7F894F3
:102000008091330390913403A0913503B09136034E
:1020100026B5A89B05C02F3F19F00196A11DB11D43
:102020003FBFBA2FA92F982F8827820F911DA11D7E
:10203000B11DBC01CD0142E0660F771F881F991FBB
:102040004A95D1F708958F929F92AF92BF92CF9207
:10205000DF92EF92FF926B017C010E94FE0F4B0119
:102060005C01C114D104E104F104F1F00E94FE0FFF
:10207000DC01CB0188199909AA09BB09883E934064
:10208000A105B10570F321E0C21AD108E108F108F9
:1020900088EE880E83E0981EA11CB11CC114D104E7
:1020A000E104F10419F7DDCFFF90EF90DF90CF90BE
:1020B000BF90AF909F908F9008951F920F920FB690
:1020C0000F9211242F933F938F939F93AF93BF93BE
:1020D00080913E0290913F02A0914002B091410256
:1020E0003091320323E0230F2D3720F40196A11DF8
:1020F000B11D05C026E8230F0296A11DB11D209336
:10210000320380933E0290933F02A0934002B0932B
:1021100041028091330390913403A0913503B09133
:1021200036030196A11DB11D8093330390933403B0
:10213000A0933503B0933603BF91AF919F918F91D8
:102140003F912F910F900FBE0F901F9018951F93E6
:10215000CF93DF93EC01162F8981882331F08E8194
:1021600087FD03C060E00E94180F1E8389818823C9
:1021700041F061E0812F0E94180F60E0812F0E94E2
:10218000660E812F90E0FC01E450FE4FE491F0E0F8
:10219000EE0FFF1FE753FE4F259134913B8B2A8BA7
:1021A000FC01E05FFD4FE491EC8BDF91CF911F913B
:1021B00008954F925F926F927F928F929F92AF920B
:1021C000BF92CF92DF92EF92FF92CF93DF93EC0119
:1021D0006A017B018B8C9C8CAD8CBE8C9A01AB010F
:1021E000C501B4010E941A2C882309F449C06BA9C7
:1021F0007CA98DA99EA90E94212C2B013C01A7013D
:102200009601C501B4010E94562E9B01AC01C30189
:10221000B2010E94802C0E94C82E6BAB7CAB8DABB0
:102220009EABA701960160E070E080E090E40E9420
:10223000562E0E94092F26E53EE04DE25FE30E9404
:10224000802C20E034E244E759E40E94802C6FABFC
:1022500078AF89AF9AAFCB8EDC8EED8EFE8ECE013D
:10226000DF91CF91FF90EF90DF90CF90BF90AF9034
:102270009F908F907F906F905F904F900C94FC0395
:10228000DF91CF91FF90EF90DF90CF90BF90AF9014
:102290009F908F907F906F905F904F9008958F9256
:1022A0009F92AF92BF92CF92DF92EF92FF92CF9325
:1022B000DF93EC018B889C88AD88BE8820E030E0FD
:1022C000A901C501B4010E941A2C882309F44FC04A
:1022D000A5019401C501B4010E94802C6B017C0111
:1022E0006B8D7C8D8D8D9E8D9B01AC010E94EA2DA6
:1022F0009B01AC01C701B6010E94562E0E94C82E58
:102300006B017C012FEFC21AD20AE20AF20A20E026
:1023100030E0A901C501B4010E94FE2E4B855C8509
:102320006D857E858F849888A988BA8818162CF4C4
:102330004C0D5D1D6E1D7F1D04C04C195D096E099D
:102340007F0984169506A606B70689F04F87588B35
:10235000698B7A8BCE01DF91CF91FF90EF90DF9068
:10236000CF90BF90AF909F908F900C94FC03DF9123
:10237000CF91FF90EF90DF90CF90BF90AF909F9064
:102380008F900895FC01448155816081718187E3BC
:1023900093E00C94E50B009769F0FC01019000209C
:1023A000E9F73197AF01481B590BBC0187E393E074
:1023B0000C94E50B80E090E008950F931F93CF936A
:1023C000DF93EC0161E00E94180F60E08C2F0E9407
:1023D000660E83E090E00197F1F761E08C2F0E9498
:1023E000660E83E290E00197F1F760E08C2F0E9487
:1023F000660E60E08C2F0E94180FDD27FE01E05F63
:10240000FD4F6491FE01E450FE4FE491F0E0EE0FC9
:10241000FF1FEE50FE4F8591949100E412E42FE0EF
:1024200030E0462F0E943D1661157105810591052A
:1024300039F0DC01CB010196A11DB11DBF7003C0B5
:1024400080E090E0DC016AE370E00E94732FCB0132
:10245000009711F487EE93E0DF91CF911F910F91D8
:102460000895DC019091E703992361F0699FB00121
:102470001124672F499FA0011124452F299F900106
:102480001124232F3091ED038091EA03E091E803BA
:10249000F091E903381308C0CD01880F991F8A0F06
:1024A0009B1F8E0F9F1F0BC0CD01880F991F880F98
:1024B000991F8E0F9F1FFC01E30FF11D10823091B9
:1024C000EA03FC01E30FF11D60833091EB03FC0193
:1024D000E30FF11D40833091EC03FC01E30FF11D8C
:1024E00020830895CF93DF930E94CB11EC0189EBF9
:1024F00091E00E94CB118C0F9D1FDF91CF91089529
:102500002F923F924F925F926F927F928F929F9203
:10251000AF92BF92CF92DF92EF92FF920F931F93F1
:10252000CF93DF9300D01F92CDB7DEB7FB017901C7
:1025300010926C0510926D0510926E0510926F0549
:10254000092E000CAA0BBB0B0091760510917705A4
:102550002091780530917905800F911FA21FB31F3C
:102560008093760590937705A0937805B0937905CD
:10257000052E000C660B770B80917A0590917B05F8
:10258000A0917C05B0917D05480F591F6A1F7B1FE4
:1025900040937A0550937B0560937C0570937D058D
:1025A000BF01FF0F880B990B0E94212CAB01BC01CE
:1025B0008EE494E00E946E05B701FF0C880B990B26
:1025C0000E94212CAB01BC018AE094E00E946E05C0
:1025D000A090090466E7E62E65E0F62E25EF33E0CD
:1025E0003B832A83B12C212C312C10E000E0BA145B
:1025F000C9F1F70181919191A191B1917F01EA8196
:10260000FB81C190D190FB83EA83F601438454841B
:1026100065847684BC01CD01641975098609970922
:1026200097FF07C090958095709561957F4F8F4F6C
:102630009F4F0E94212CD60157962D913D914D918F
:102640005C915A970E94562E4B016C019101412FCB
:10265000502F0E94FE2E18161CF414011C2D0D2D57
:10266000B394C5CF20E030E0A901B101812F902FB4
:102670000E94FE2E18160CF0B9C019828091090430
:102680002981281708F0B2C0B9812B2F30E0F90159
:10269000EE0FFF1FEE0FFF1FEA58FA4F40805180E8
:1026A000628073806901CC0CDD1CF601EB50FC4F9D
:1026B000E080F180F70183859485A585B685A30127
:1026C0009201281B390B4A0B5B0BCA01B9010E940E
:1026D000212C9101412F502F0E94562E4B015C015D
:1026E000F70187859089A189B28984159505A6058A
:1026F000B70539F04786508A618A728AC7010E94FD
:10270000FC03F601EB50FC4F208131813B832A838F
:10271000D90153962D913D914D915C915697B401FD
:10272000C5010E941A2C882309F45CC0EA81FB8150
:10273000C788D08CE18CF28C2601370177FA70942F
:1027400077F87094A3019201B401C5010E941A2C7C
:1027500087FD0BC0A7019601B401C5010E94FE2EA2
:1027600018162CF06401750102C07301620120E0AB
:1027700030E0A901C701B6010E941A2C811109C0DD
:10278000AA81BB8193961D921D921D921C929697D1
:1027900023C0A701960160E074E284E799E40E94F7
:1027A000562E9F770E94CF2EEA81FB8163A374A3EC
:1027B00085A396A35F01F3E4AF0EB11C9924939413
:1027C00020E030E0A901C701B6010E94FE2E1816D4
:1027D0000CF0912CD5019C92EA81FB81C38AD48AAA
:1027E000E58AF68AF981FF5FF98348CF80E010E03F
:1027F00090910904191708F06BC0E12FF0E0EE0F7B
:10280000FF1FEB50FC4FA080B180D5011F96CD90EB
:10281000DD90ED90FC9052971B964D915D916D91DE
:102820007C911E97C416D506E606F70609F44EC03D
:1028300093968D919D910D90BC91A02D892B8A2B03
:102840008B2B09F442C00E94FE0F6B017C01F50145
:1028500087A190A5A1A5B2A5B701A601481B590B58
:102860006A0B7B0B83A194A1A5A1B6A148175907B8
:102870006A077B0750F1ED5BFF4F2081F5018385EF
:102880009485A585B685222321F00196A11DB11D51
:1028900004C00197A109B109F50183879487A58731
:1028A000B687D501ED91FC9111971B964D915D91E5
:1028B0006D917C911E970680F781E02DC5010995E9
:1028C000F501C7A2D0A6E1A6F2A681E01F5F90CFD6
:1028D00081118CCF8EE494E00E94A2038AE094E000
:1028E0000F900F900F90DF91CF911F910F91FF905C
:1028F000EF90DF90CF90BF90AF909F908F907F90A0
:102900006F905F904F903F902F900C94A2038F9206
:102910009F92AF92BF920F931F93CF93DF93CDB748
:10292000DEB7A1970FB6F894DEBF0FBECDBF19A2D8
:10293000423008F44AE08E010F5D1F4F842E912C27
:10294000A12CB12CA50194010E94B82DE62FB9014C
:10295000CA0101501109EA3014F4E05D01C0E95CDC
:10296000D801EC93232B242B252B61F7C8010E945F
:10297000CB11A1960FB6F894DEBF0FBECDBFDF918D
:10298000CF911F910F91BF90AF909F908F9008951E
:102990004F925F926F927F928F929F92AF92BF926F
:1029A000CF92DF92EF92FF926B017C01B42E9B01DC
:1029B000AC010E94492F882319F08BED91E027C0CC
:1029C00026013701E89477F82FEF3FEF4FE75FE7F5
:1029D000C301B2010E94492F81110DC02FEF3FEFBB
:1029E0004FE75FE7C301B2010E941A2C18161CF4CE
:1029F0008FED91E00CC02FEF3FEF4FE75FE4C70191
:102A0000B6010E94FE2E181684F483EE91E0FF902A
:102A1000EF90DF90CF90BF90AF909F908F907F907E
:102A20006F905F904F900C94CB112FEF3FEF4FE7DB
:102A30005FECC701B6010E941A2C87FDE6CF20E0AB
:102A400030E0A901C701B6010E941A2C87FF11C00E
:102A5000E0913703F09138030190F081E02D6DE2B1
:102A600087E393E009954C01F7FAF094F7F8F094B6
:102A700002C0812C912CA12C60E070E080E09FE3EB
:102A8000AB1441F020E030E040E251E40E94562EC9
:102A9000A394F6CF9B01AC01C701B6010E94EA2DB9
:102AA0002B013C010E94CF2E6B017C010E941F2C48
:102AB0009B01AC01C301B2010E94E92D2B013C0135
:102AC0004AE0C701B6010E9487147C01E80CF91C9A
:102AD000BB2069F0E0913703F09138030190F08159
:102AE000E02D6EE287E393E00995E80EF91EDB2CFA
:102AF000DD2021F120E030E040E251E4C301B201E9
:102B00000E94802C2B013C010E94CF2E4B01A12C56
:102B1000B12C4AE0C501B4010E948714E80EF91EE9
:102B2000C501B4010E941F2C9B01AC01C301B2017D
:102B30000E94E92D2B013C01DA94DACFC701FF9006
:102B4000EF90DF90CF90BF90AF909F908F907F904D
:102B50006F905F904F9008950F931F93CF93DF93E3
:102B600004EA16E061E0F80181810E94180FC3ECCD
:102B7000D0E0CE010197F1F760E0F80180810E947A
:102B8000180FCE010197F1F760E0F80181810E94F2
:102B9000180F2197F1F7DF91CF911F910F910895B1
:102BA000EF92FF920F931F93CF93DF93082F18E0BC
:102BB00083ECE82EF12C61E08091A4060E94180FAE
:102BC000C7010197F1F700FF02C060E001C061E0BA
:102BD0008091A5060E94180FC3ECD0E0C7010197B1
:102BE000F1F760E08091A4060E94180FC7010197D9
:102BF000F1F706951150F9F661E08091A4060E9464
:102C0000180F60E08091A5060E94180FCE01019771
:102C1000F1F760E08091A4060E94180F2197F1F768
:102C20008091A5060E943D0E182F811105C061E01C
:102C30008091A5060E94180FC3ECD0E0CE01019749
:102C4000F1F761E08091A4060E94180F2197F1F737
:102C500081E0111101C080E0DF91CF911F910F91B0
:102C6000FF90EF90089561E08091A5060E94180FF3
:102C700083EC90E00197F1F70895CF92DF92EF9205
:102C8000FF920F931F93E82FF92F05C001501109F0
:102C90002109310961F1908196239417B9F305C098
:102CA000015011092109310911F1908196239413E2
:102CB000F7CFC12CD12CE12CF12C0AC08FEFC81A10
:102CC000D80AE80AF80A0C151D052E053F0579F00B
:102CD00080818623841791F36C2D7D2D8E2D9F2D61
:102CE0001F910F91FF90EF90DF90CF90089560E0DB
:102CF00070E080E090E01F910F91FF90EF90DF90E7
:102D0000CF900895CF93DF93CDB7DEB7C854D109E4
:102D10000FB6F894DEBF0FBECDBF789484B5826045
:102D200084BD84B5816084BD85B5826085BD85B56F
:102D3000816085BD80916E00816080936E001092ED
:102D40008100809181008260809381008091810068
:102D500081608093810080918000816080938000F9
:102D60008091B10084608093B1008091B000816057
:102D70008093B00080917A00846080937A00809183
:102D80007A00826080937A0080917A0081608093DB
:102D90007A0080917A00806880937A001092C10056
:102DA000E0914703F091480382E08083E091430380
:102DB000F09144031082E0914503F091460380E1D5
:102DC000808310924F03E0914B03F0914C0386E017
:102DD0008083E0914903F0914A0380818061808380
:102DE000E0914903F0914A03808188608083E091FB
:102DF0004903F0914A03808180688083E091490310
:102E0000F0914A0380818F7D808384E1EFEEF1E0D1
:102E1000DF011D928A95E9F70E945A0A8FE080939C
:102E2000A6068091A2069091A3061816190644F4EE
:102E300021E04CE060E070E08CE496E00E94040742
:102E40008091A2069091A3061816190644F428E072
:102E50004AE060E070E08CE496E00E94040760E0E5
:102E600070E08CE496E00E948B078AE0E82E82E016
:102E7000F82E00E010E0C8010E94412DF701819377
:102E80007F010F5F1F4F00311105A9F780910A02E2
:102E900090910B02823D9440D9F080E1EAE0F2E0AB
:102EA000DF011D928A95E9F782ED94E090930B0281
:102EB00080930A0280E090E0A0E8BFE380930C02D8
:102EC00090930D02A0930E02B0930F020E94430A4A
:102ED00061E087E00E94180F60E087E00E94660EC4
:102EE00061E088E00E94180F60E088E00E94660EB2
:102EF000EEE8F5E080E090E0208121112CC023E194
:102F0000289FF001299FF00D1124E257FA4F81E02C
:102F1000808384E690E0A0E0B0E081839283A38385
:102F2000B4838FEF9FEF9683858383E19BE0928745
:102F300081872FB7F89480913E0290913F02A09133
:102F40004002B09141022FBF85879687A787B08B3B
:102F5000128A118A26C0019673968A30910561F60D
:102F600020C087E393E00E94320C892B11F40C946B
:102F7000272187E393E00E94100CA091A102E1E0D9
:102F8000EA0FE093A1020A2E000CBB0BAF59BD4F14
:102F90008C938A30D9F08091A102803414F310927E
:102FA000A1023E01B2E26B0E711CFE0131961F01BF
:102FB0009E01285D3F4F2901AE01465D5F4F5AAF2C
:102FC00049AFCE018E969CAF8BAFCBCF0E2E000CAF
:102FD000FF0BEF59FD4F1082809161028D3411F08B
:102FE0000C94182182E692E00E94A9278C01AE0180
:102FF000405D5F4F6CE971E082E692E00E94C72776
:103000000A36110509F45AC50CF05CC007301105E9
:1030100009F453C3E4F40330110509F400C174F456
:103020000130110509F4E3C00CF0EDC0012B11F0E3
:103030000C9418210E945A0A0C94182188A999A965
:103040000530110509F412C10CF4F7C023C10E308C
:10305000110509F4CAC4C4F40930110509F496C372
:103060000CF43CC30D30110511F00C941821A10192
:10307000B30188A999A90E94830B4AA15BA1EFEE35
:10308000F1E080E090E0A4C40536110509F4E5C440
:103090000636110509F499C00436110511F00C9497
:1030A000182188A899A89A82898250E9A52EBB2464
:1030B000B39460E9E62EFF24F394C12CD12C00E0F8
:1030C00010E0ACC40D3C110509F474C694F5093C3C
:1030D000110509F4F4C574F40D36110509F431C570
:1030E000083C110509F4CDC50C36110511F00C94FE
:1030F0001821EDC40B3C110509F418C688A999A93B
:103100000C3C11050CF02DC6A101B3010E94830BEC
:103110008AA19BA10E94DD118C0182E991E00E94AD
:10312000CB11B801110F880B990B0E94212C0C9424
:10313000D420013D110511F40C94B92084F588A91F
:1031400099A90F3C110509F442C70CF077C7930108
:10315000AE01465D5F4FB2010E94470B9AA588A55C
:103160008093A4069093A50660E00E94180F60E08B
:103170008091A5060E94180F60E08091A4060E942D
:10318000660E60E08091A5060E94660E2AA13BA112
:103190000FE111E0F101DD24D39440E0CBC6033D03
:1031A000110511F40C94DC2014F40C94C820043D97
:1031B000110511F40C94F020073E134011F00C940B
:1031C00018210C9400000C9418211092650510929F
:1031D00064051092670510926605109269051092B9
:1031E000680510926B0510926A050C941821A101D4
:1031F000B30188A999A90E94830B69818AA10E94C1
:10320000180F0C941821A101B30188A999A90E9453
:10321000830B69818AA10E94660E0C941821B1016A
:1032200088A999A90E94BB0B89810E943D0E6981E2
:103230007A81AC0183E791E029C0A101B3010E942A
:10324000830B8AA19BA18330910569F09C012550D5
:1032500031092230310538F024503109233031054D
:1032600010F00C94182169817A8178C5B1010E940F
:10327000BB0B89810E94E70F69817A816E307105ED
:1032800014F40C941821AC0186E791E00E94620AC4
:103290000C9418219101A301B2010E94470BE9810E
:1032A000FA812396FFAFEEAF23972AA13BA129967F
:1032B0003FAF2EAF299788A599A52091000128132B
:1032C00004C0E3EDF1E0149182C02F3F11F00C94A3
:1032D000182180930001E3EDF1E014911F3F11F4F8
:1032E0000C941821113029F1123009F449C0111140
:1032F0006EC014BC15BC24B5226024BD25B5216068
:1033000025BD9C013327F901E450FE4FE491F0E024
:10331000EE0FFF1FE753FE4F459154915093470224
:1033200040934602F901E05FFD4FE491E0934502CE
:1033300050C010928000109281002091810028607E
:1033400020938100209181002160209381009C01C5
:103350003327F901E450FE4FE491F0E0EE0FFF1F38
:10336000E753FE4F459154915093440240934302DA
:10337000F901E05FFD4FE491E093420211E029C0C2
:103380001092B0001092B1002091B0002260209302
:10339000B0002091B10021602093B1009C0133273F
:1033A000F901E450FE4FE491F0E0EE0FFF1FE75308
:1033B000FE4F459154915093EA014093E901F90180
:1033C000E05FFD4FE491E093E80112E002C017FDD9
:1033D0002FC723962EAD3FAD2397032E000C440B31
:1033E000550B27962CAF3DAF4EAF5FAF279761E0EF
:1033F0000E94180F29964EAD5FAD29974A01A12C66
:10340000B12C812F8D7F09F0C4C060E072E18AE7A2
:1034100090E0A50194010E94572D21962CAF3DAF5D
:103420004EAF5FAF219769017A0151E0C51AD1080B
:10343000E108F1086FEFC616D104E104F10409F0C8
:1034400008F44FC060E472E48FE090E0A5019401BD
:103450000E94572D69017A0181E0C81AD108E1085C
:10346000F108123011F59FEFC916D104E104F104FF
:1034700009F010F40C94602460E970ED83E090E0B2
:10348000A50194010E94572D69017A01A1E0CA1A91
:10349000D108E108F108BFEFCB16D104E104F10433
:1034A00011F008F03EC083E06DC0EFEFCE16D104FE
:1034B000E104F104C1F0B8F068E478EE81E090E056
:1034C000A50194010E94572D69017A01F1E0CF1AFC
:1034D000D108E108F108112311F40C943B240C9459
:1034E000312481E001C082E011114CC015C0219649
:1034F0008CAD9DADAEADBFAD21972AE0B595A7953A
:10350000979587952A95D1F76C017D0141E0C41A02
:10351000D108E108F10885E095B5987F892B85BD34
:1035200075C068E478EE81E090E0A50194010E9406
:10353000572D69017A01F1E0CF1AD108E108F108AD
:103540002FEFC216D104E104F10409F010F40C9439
:10355000FA2364E274EF80E090E0A50194010E94F8
:10356000572D69017A0161E0C61AD108E108F10816
:103570008FEFC816D104E104F10419F010F00C9497
:10358000FD2385E09091B100987F892B8093B10055
:103590003DC060E072E18AE790E0A50194010E94DD
:1035A000572D69017A01F1E0CF1AD108E108F1083D
:1035B000C114D10421E0E206F10488F068E478EE59
:1035C00081E090E0A50194010E94572D69017A01E4
:1035D00061E0C61AD108E108F10893E001C091E06A
:1035E0001130A1F480918100887F892B8093810024
:1035F00027968CAD9DADAEADBFAD2797892B8A2B9D
:103600008B2B71F42FEF3FEFA90135C027962CAD1E
:103610003DAD4EAD5FAD2797232B242B252B99F085
:1036200029962EAD3FAD2997220F331F2396AEADBD
:10363000BFAD23970E948D2F28EE33E040E050E08D
:103640000E94B82D03C02FEF3FEFA901113099F070
:10365000123019F11111ECC5C7BC20934C02309304
:103660004D0240934E0250934F0280916E00826053
:1036700080936E00DDC5D0928900C09288002093AF
:1036800048023093490240934A0250934B02809182
:103690006F00826080936F00CBC5C092B30020930F
:1036A000EB013093EC014093ED015093EE018091DA
:1036B0007000826080937000BBC5A101B30188A92E
:1036C00099A90E94830B6AA17BA18EEB96E00E94D0
:1036D0000F0669817A818EEB96E0A8C585E10E948C
:1036E000E70F8C0169E771E0C1010E94D00DC101B3
:1036F0000E94C211C1010E94930D1BA21AA21DA219
:103700001CA21FA21EA2B801110F880B990B0E94C8
:10371000212C20E030E040E85AE30E94802C26E68D
:1037200036E646EA50E40E94802C9B01AC010E94E0
:10373000EA2D810122E044E00E948527009769F08C
:10374000FC0101900020E9F73197AF01481B590BAC
:10375000BC01C3010E94720D03C0C3010E942E0D63
:103760006CE971E0C1010E94D00DB301C1010E945A
:10377000400D0E94C21189EB91E00E94CB11C10162
:103780000E94930DC3010E94930D52C5E8A9F9A9A7
:1037900080818134E1F43F922F927F926F925F9209
:1037A0004F923AAD3F9349AD4F935CAD5F936BAD94
:1037B0006F938CE791E09F938F93FF93EF930E9419
:1037C000B4318EA59FA50E969FA78EA716C03F92D7
:1037D0002F927F926F925F924F929AAD9F93A9AD75
:1037E000AF93BCADBF932BAD2F938DE791E09F932B
:1037F0008F93FF93EF930E94B4310FB6F894DEBF1E
:103800000FBECDBFF9800AA118A5CAA4DBA46EA57E
:1038100080EE93E00E94A710C114D104B9F4C12C2A
:10382000D12C8091E2039091E303C816D90630F4BD
:103830002F2D402F612FC6010E9431125FEFC51A54
:10384000D50A60E1C616D10461F70EC0C601019722
:103850002091E2033091E3038217930728F42F2D80
:10386000402F612F0E9431128091E8039091E9036B
:10387000892B09F4DDC40E94FE0F0091EE03109124
:10388000EF032091F0033091F103DC01CB01801BA9
:10389000910BA20BB30BC297A105B10560F3F8948D
:1038A0008091E4039091E5039DA78CA7E091E80344
:1038B000F091E903DF011196808188AF9091E003D8
:1038C000E091F203F091F3038091F403992309F45A
:1038D0002EC09081982B9FAB9081809589238EABD1
:1038E0008EA98BAB88E08AAB3FA94EA968AD5AA9D7
:1038F0002BA98CA59DA5308367FD232F5A95208386
:10390000242F39F0661F00C000004083000000C073
:10391000F2CF58E06D9140830000019761F7F0937A
:10392000F303E093F20368AF5AAB2BAB38C090813E
:10393000982B9FAB9081809589238EAB8EA98DAB00
:1039400088E08CAB3FA94EA968AD5CA92DA98CA5D8
:103950009DA5308367FD232F00C000C0208300C0D9
:1039600000C000C000C000C040830000242F5A9552
:1039700041F0661F000000C000C000C000C000C0D1
:10398000E8CF58E06D9100C0408300C0019709F76F
:10399000F093F303E093F20368AF5CAB2DAB9DA70C
:1039A0008CA778940E94FE0F6093EE037093EF0350
:1039B0008093F0039093F1033BC4218130E02417FE
:1039C000350749F0019632968A30910509F430C4E2
:1039D00020812111F2CF880F991FFC01E151FE4F88
:1039E000898180838AA1818323C484E1EFEEF1E0A1
:1039F000DF011D928A95E9F71BC4A1016CE971E012
:103A000080E090E00E94C7274C01FC0180818C344B
:103A100041F4C40101960E94A9278C01892869F705
:103A200018C0823531F4C40101960E94A9276C01A7
:103A3000F5CF813431F4C40101960E94A9277C019D
:103A4000EDCF823459F7C40101960E94A9275C0189
:103A5000E5CF9501A601B70129C0C8A8D9A8DA8287
:103A6000C982E12CF12C00E010E0CD28D1F0A101B9
:103A70006CE971E080E090E00E94C7276C01DC01F6
:103A80008C918C3431F4C60101960E94A9278C01D7
:103A9000ECCF823551F7C60101960E94A9277C011F
:103AA000E4CF24EF31E0A70164EF71E0C8010E9488
:103AB00080128DE891E00E947212BAC38EE494E005
:103AC0000E944F118AE094E00E944F11B1C33F92CF
:103AD0002F927F926F925F924F92BAADBF93E9ADF2
:103AE000EF9380E891E09F938F9389A98F9388A9A2
:103AF0008F930E94B43129813A814AA15BA168A5C4
:103B000079A581E00FB6F894DEBF0FBECDBFEAA560
:103B1000FBA5EF2B09F480E080936C0581E0672B17
:103B200009F480E080936D0581E0452B09F480E085
:103B300080936E0581E0232B09F480E080936F056C
:103B400077C328A939A919A618A61BA21AA21A82F6
:103B500019823F922F927F926F925F924F9283E8E9
:103B600091E09F938F933F932F930E94B43168A568
:103B700079A5072E000C880B990B0E94212C23EFAE
:103B800034E045E35FE30E94562E0E94C82E6B018D
:103B90007C016AA17BA1072E000C880B990B0E9467
:103BA000212C23EF34E045E35FE30E94562E0E9470
:103BB000C82EAB014C0D5D1D9B012C193D09EE2754
:103BC000FF27EC19FD09E61BF70BC61AD70A698116
:103BD0007A81260F371FE60FF71FC60ED71E460F36
:103BE000571F0FB6F894DEBF0FBECDBF4F3F510534
:103BF00019F014F04FEF50E02F3F310519F014F099
:103C00002FEF30E0EF3FF10519F014F0EFEFF0E0A7
:103C1000C6018F3F910519F014F08FEF90E061E03D
:103C200060936C0560936D0560936E0560936F05FE
:103C30004130AFEF5A0714F441E05FEF5093650550
:103C4000409364052130BFEF3B0714F421E03FEFC0
:103C50003093670520936605E1302FEFF20714F4E7
:103C6000E1E0FFEFF0936905E093680581303FEFF5
:103C7000930714F481E09FEF90936B0580936A059E
:103C8000D7C288A999A91BA21AA21A821982A101D6
:103C9000B3010E94830B29813A818AA19BA1FC0177
:103CA000EC59FA4F4085411102C041E04087880F2E
:103CB000991FFC01EC59FA4F31832083B9C288A9BE
:103CC00099A91BA21AA21A821982A101B3010E940A
:103CD000830BEAA0FBA009811A81B701601B710B5D
:103CE000072E000C880B990B0E94212C20910C02AE
:103CF00030910D0240910E0250910F020E94802CD3
:103D00000E94C82E21E020936C0520936D0510922F
:103D10006E0510926F050E0D1F1D10936505009323
:103D20006405709367056093660582C260E070E089
:103D300089E00E94880F68EC70E08AE00E94880F9A
:103D40006CE271E080E090E00E94231060E070E09F
:103D500089E00E94880F60E070E08AE00E94880F8E
:103D600067C2B1010E94BB0B89818093930480914B
:103D70009304F8941092800089E08093810080E29F
:103D800093E09093890080938800109285001092B0
:103D9000840082E080936F00789480939204109264
:103DA00096048091930460E00E94180F81E0809354
:103DB000B3063EC208A919A98091500281119EC084
:103DC0001092090210920802109207021092060245
:103DD0001092050281E0809304021092030261E0D8
:103DE00082E10E94660E61E083E10E94660E80918E
:103DF000B9008E7F8093B9008091B9008D7F809348
:103E0000B90088E48093B80085E48093BC001092E8
:103E1000AC068091B106823018F098E09093AC0621
:103E20008093AF068BE39DE00197F1F76091B206B6
:103E300087EA96E00E94C10768EE73E080E090E0B8
:103E40000E94231063E087EA96E00E942608BBE404
:103E5000EB2EB6E4FB2EC7010197F1F763E087EA8A
:103E600096E00E942608C7010197F1F763E087EA10
:103E700096E00E94260883E592E00197F1F762E060
:103E800087EA96E00E9426086091AC06606240E0F6
:103E900087EA96E00E943F0884E08093AD0640E008
:103EA0006CE087EA96E00E943F0840E061E087EA24
:103EB00096E00E943F088BE3E82E8FE1F82EC701C1
:103EC0000197F1F782E08093AE0640E066E087EA72
:103ED00096E00E943F0840E062E087EA96E00E9498
:103EE0003F08C7010197F1F71092B20660E087EA38
:103EF00096E00E94C10781E08093500240E061E0BB
:103F000087EA96E00E943F088BE39FE10197F1F773
:103F10007801D7016D917D01662309F489C16D3067
:103F200009F486C16A3009F483C187EA96E00E94E9
:103F30005508EFCFD801FE90EE908D01C901B70171
:103F40000E94732F6115710529F4DD20A1F0433023
:103F5000A1F411C0A62FAF70B0E0A95FBE4F5C9175
:103F60006E9DC0016F9D900D7E9D900D1124281BAC
:103F7000390BD12C03C05FE301C050E051934F5F78
:103F80004430C1F60E94331680E40E94D0150E948E
:103F9000AC150E94331680EC0E94D01589810E94D6
:103FA000D0158A810E94D0158B810E94D0158C81FA
:103FB0000E94D0150E94AC150E9433168091A6066F
:103FC0008F7080580E94D0150E94AC1531C19101AC
:103FD000A301B2010E94470B29813A8168A579A506
:103FE0004AA15BA18091A2069091A306181619061A
:103FF0000CF01EC14830510508F01AC16830710537
:1040000008F016C180E890E002C0959587956A9502
:10401000E2F7FA01E45BF94F232B19F09089892B21
:1040200003C0809590898923808B4F5F208960E051
:1040300070E08CE496E00E940407FAC09101A301AD
:10404000B2010E94470B89819A812AA13BA118A540
:1040500009A510939C0600939D0630939F0620931C
:104060009E069093A1068093A00681E090E0909335
:10407000A3068093A20661E0812F0E94180F61E0E1
:1040800080919E060E94180F61E08091A0060E9418
:10409000180F61E08091A0060E94660E10939C06A6
:1040A00000939D06ECE5F6E01192B6E0EC39FB07D3
:1040B000D9F700E010E08091A2069091A3060817BE
:1040C0001907B4F520E04FE0B8018CE496E00E94B7
:1040D000040717FD0EC08091A2069091A306081751
:1040E00019073CF427E04BE0B8018CE496E00E940D
:1040F000040720E049E0B8018CE496E00E94040740
:10410000B8018CE496E00E948B0717FD0EC08091E9
:10411000A2069091A306081719073CF420E04CE092
:10412000B8018CE496E00E9404070F5F1F4FC3CFD5
:104130001816190644F421E04CE060E070E08CE4CD
:1041400096E00E9404078091A2069091A30618169B
:10415000190644F428E04AE060E070E08CE496E060
:104160000E94040760E070E08CE496E00E948B07F8
:104170005FC088A999A90E94A52760930C0270933B
:104180000D0280930E0290930F020E94430A50C0CA
:1041900088E991E00E94CB1160910C0270910D02B0
:1041A00080910E0290910F0242E00E94C81489EBA8
:1041B00091E00E94CB113CC07F926F923F922F9270
:1041C00086E891E09F938F9389A98F9388A98F9315
:1041D0000E94B4310FB6F894DEBF0FBECDBF28C029
:1041E000A101B30188A999A90E94830B4AA15BA1EF
:1041F000CA018C54994FDC012C9130E0F901EE0F8B
:10420000FF1F2E0F3F1FF901E65EFD4F208125FDA8
:1042100007C0FA01E15EFE4F608170E00E940F0668
:1042200069817A818AA19BA18C54994F0E94D30500
:104230008EE991E00E94721280E4E1E6F2E0DF0193
:104240001D928A95E9F71092A1020C94CB178091E8
:10425000B306882309F418C189E994E090935C02BD
:1042600080935B0280919604282E312C30925E025E
:1042700020925D028091630590E0909360028093AC
:104280005F0280919204853009F0FEC080919B040A
:1042900090919C04885891098D35910588F48091FE
:1042A0009604843041F480919D0490919E048097FF
:1042B000479708F47AC280919604843408F07DC050
:1042C00096E0291631040CF4DAC00FE914E0A3E0FB
:1042D000B0E0BEAFADAFE5ECCE2EEDE9DE2EECE109
:1042E000EE2EE1E8FE2E4DAD5EAD421553050CF00D
:1042F00053C0F801608171813497A080B18080E063
:1043000090E00E941F2C2B013C01B50180E090E061
:104310000E941F2C4B015C012DEC3CEC4CE45FE354
:104320000E94802C9B01AC01C301B2010E941A2C97
:1043300087FD17C02DEC3CEC4CE45FE3C301B201F8
:104340000E94802C9B01AC01C501B4010E941A2C73
:10435000E82F880FFF0BEE27FF0FEE1FFF27319688
:1043600002C0E0E0F0E0A701960163E971E080E0BF
:1043700091E00E94632F6F01FF0FEE08FF08C62631
:10438000D726E826F9262DAD3EAD2F5F3F4F3EAF35
:104390002DAF0E5F1F4FA7CFC0925502D09256028D
:1043A000E0925702F092580280E290E090935A0215
:1043B000809359028FEF9FEF3EC080919D049091B2
:1043C0009E04825491098E9708F07ACF20E030E065
:1043D00080E090E0DC01F901E156FB4F4081518122
:1043E000495051094930510508F06ACFF901EF559C
:1043F000FB4F40815181475151094231510508F02D
:10440000ECC1880F991FAA1FBB1F81602C5F3F4F13
:104410002038310501F720E230E030935A02209332
:1044200059028093550290935602A0935702B0937D
:10443000580283E090E09093520280935102809161
:10444000550290915602A0915702B09158028F3FA9
:104450009F4FAF4FBF4F99F081EA91E00E94CB117F
:1044600060915502709156028091570290915802C6
:1044700040E10E94871489EB91E00E94CB1182E019
:1044800080939204109296040E94FE0F0091700592
:10449000109171052091720530917305DC01CB01FB
:1044A000801B910BA20BB30B85369105A105B105BD
:1044B00008F40BC10E94FE0F6093700570937105A4
:1044C000809372059093730580916C058823C1F0E9
:1044D000809164059091650597FF03C09195819542
:1044E000910920917405309175052817390741F419
:1044F00060E085E00E94660E60E086E00E94660E45
:1045000080916D058823C1F08091660590916705C3
:1045100097FF03C091958195910920917405309181
:1045200075052817390741F460E089E00E94660E9E
:1045300060E08AE00E94660E80916E058823C1F0DB
:10454000809168059091690597FF03C091958195C9
:10455000910920917405309175052817390741F4A8
:1045600060E087E00E94660E60E088E00E94660ED0
:1045700080916F058823C1F080916A0590916B0549
:1045800097FF03C091958195910920917405309111
:1045900075052817390741F460E08CE00E94660E2B
:1045A00060E08DE00E94660E809174059091750523
:1045B000019690937505809374058F3F91050CF4D7
:1045C00084C080916C05882341F060E085E00E9402
:1045D000660E60E086E00E94660E80916D0588237D
:1045E00041F060E089E00E94660E60E08AE00E948F
:1045F000660E80916E05882341F060E087E00E949E
:10460000660E60E088E00E94660E80916F05882348
:1046100041F060E08CE00E94660E60E08DE00E9458
:10462000660E109275051092740580916C058823B2
:1046300081F08091640590916505181619061CF4A7
:1046400061E085E004C0892B21F061E086E00E94F2
:10465000660E80916D05882381F0809166059091AA
:104660006705181619061CF461E089E004C0892B5F
:1046700021F061E08AE00E94660E80916E05882339
:1046800081F08091680590916905181619061CF44F
:1046900061E087E004C0892B21F061E088E00E949E
:1046A000660E80916F05882381F080916A05909154
:1046B0006B05181619061CF461E08CE004C0892B08
:1046C00021F061E08DE00E94660E8FB7F894809033
:1046D0003E0290903F02A0904002B09041028FBFF6
:1046E00066E9E62E65E0F62E0EE815E0D8012C917D
:1046F000222309F44CC01D968D919D910D90BC9183
:10470000A02DB501A401481B590B6A0B7B0BF801C6
:1047100081819281A381B481481759076A077B0779
:1047200000F1213019F0223031F011C00184F285FE
:10473000E02D09950CC061E0F7018081811160E0F6
:10474000D7016C93F701319780810E94660EF801C2
:1047500085869686A786B08A818992890196928BF2
:10476000818BD80115968D919C91169797FD0FC05E
:1047700051962D913C9152972817390744F01C927D
:104780001B96ED91FC911C97309709F009950D5EF1
:104790001F4FB3E1EB0EF11CE6E00C341E0709F0ED
:1047A000A5CF0E94D20C0C94D11780919F049091B8
:1047B000A0040997099708F07ECD10925A02109232
:1047C00059022FEF3FEFA901209355023093560273
:1047D00040935702509358022CCE4081518146504D
:1047E00051094730510508F06BCD880F991FAA1F5A
:1047F000BB1F0CCE84E00C94C21A62E17AE780E021
:1048000090E0A50194010E94572D69017A0161E0B1
:10481000C61AD108E108F1088FEFC816D104E104E7
:10482000F104E1F0D8F021968CAD9DADAEADBFADF9
:104830002197FAE0B595A79597958795FA95D1F7C1
:104840006C017D01E1E0CE1AD108E108F1081123E5
:1048500011F40C948B1A87E00C94C21A86E00C9425
:10486000741A9FEFC916D104E104F10409F028F687
:1048700084E00C94741AEFEFCE16D104E104F10435
:10488000E1F0D8F062E17AE780E090E0A5019401E0
:104890000E94572D69017A01A1E0CA1AD108E108E6
:1048A000F108BFEFCB16D104E104F10419F010F0C8
:1048B0000C94771A84E00C948C1A83E00C948C1A74
:1048C00082E00C94C21A8091E8039091E90300976A
:1048D00011F00E943D308091E60387FD03C060E047
:1048E0000C94180F0895AF92BF92CF92DF92EF927F
:1048F000FF920F931F93CF93DF9310923A0310927E
:10490000390388EE93E0A0E0B0E080933B039093FE
:104910003C03A0933D03B0933E0385E391E0909365
:1049200038038093370385EC90E0909344038093A1
:10493000430384EC90E0909346038093450380EC1E
:1049400090E0909348038093470381EC90E090932C
:104950004A038093490382EC90E090934C03809348
:104960004B0386EC90E090934E0380934D0310929E
:10497000500310925103109252031092530325E4F6
:10498000A22E21E0B22EB0924F04A0924E04D4E0A9
:10499000D09350041092590410925A0410925B0460
:1049A00010925C0410925D0410925E0410925F04F9
:1049B00010926004109261041092620410926304D9
:1049C00010926404C12CD12C30E8E32E3FE3F32E87
:1049D000C0926504D0926604E0926704F092680485
:1049E0001092690410926A0410926B0410926C0485
:1049F000C0926D04D0926E04E0926F04F092700445
:104A00001092710410927204109273041092740444
:104A100001E010E010937A0400937904CFEFC09383
:104A20007C04109275041092760410927704109210
:104A3000780485E08093510489E08093520486E0F5
:104A4000809353048AE0809354041092810410925E
:104A500082041092830410928404109285041092B0
:104A60008604109287041092880410928904109290
:104A70008A0410928B0410928C04C0928D04D09200
:104A80008E04E0928F04F0929004109291041092A0
:104A900055041092560410925704109258048EE454
:104AA00094E00E94540FB701A6018EE494E00E94A6
:104AB000D910B0920B04A0920A04D0930C04109267
:104AC00015041092160410921704109218041092F4
:104AD000190410921A0410921B0410921C041092D4
:104AE0001D0410921E0410921F0410922004C09204
:104AF0002104D0922204E0922304F0922404109224
:104B00002504109226041092270410922804C092C3
:104B10002904D0922A04E0922B04F0922C041092E3
:104B20002D0410922E0410922F0410923004109332
:104B3000360400933504C093380410923104109267
:104B40003204109233041092340487E080930D04F1
:104B50008CE080930E0488E080930F048DE08093B6
:104B6000100410923D0410923E0410923F041092E3
:104B70004004109241041092420410924304109297
:104B80004404109245041092460410924704109277
:104B90004804C0924904D0924A04E0924B04F09237
:104BA0004C0410924D0410921104109212041092B1
:104BB0001304109214048AE094E00E94540FB70189
:104BC000A6018AE094E00E94D91010920904109284
:104BD000E1031092E7031092EE031092EF0310929C
:104BE000F0031092F10381E08093ED038093EA03D8
:104BF0001092EB0392E09093EC038093E00380E348
:104C000090E09093E5038093E4030E94A82F909393
:104C1000E9038093E803009761F020E3FC0111921F
:104C20002A95E9F780E190E09093E3038093E20313
:104C300008C01092E5031092E4031092E30310926F
:104C4000E20366E080EE93E00E94A7101092D70383
:104C50001092D60388EE93E0A0E0B0E08093D803F2
:104C60009093D903A093DA03B093DB038FE591E02F
:104C70009093D5038093D4038091BF06E4EBF6E0D4
:104C80008B3018F48F5F808301C01082319696E0DC
:104C9000EF3BF907A9F78093BF068FEF809393044A
:104CA000109295041092AA061092A9068FE691E040
:104CB0009093A8068093A7068FE38093AB0680E1CC
:104CC0008093B00682E08093B10680E88093B206BC
:104CD000C4E0D0E0D0939D06C0939C0687E090E0AE
:104CE00090939F0680939E0688E090E09093A106A3
:104CF0008093A00681E090E09093A3068093A206A3
:104D000061E084E00E94180F61E080919E060E949D
:104D1000180F61E08091A0060E94180F61E0809159
:104D2000A0060E94660ED0939D06C0939C06ECE5FB
:104D3000F6E0119286E0EC39F807D9F7C0E0D0E050
:104D40008091A2069091A306C817D907ACF520E080
:104D50004FE0BE018CE496E00E940407D7FD0EC030
:104D60008091A2069091A306C817D9073CF427E0CA
:104D70004BE0BE018CE496E00E94040720E049E08D
:104D8000BE018CE496E00E940407BE018CE496E02C
:104D90000E948B07D7FD0EC08091A2069091A306BA
:104DA000C817D9073CF420E04CE0BE018CE496E043
:104DB0000E9404072196C4CFEEE8F5E010827396B6
:104DC00096E0EC34F907D1F7109270051092710556
:104DD0001092720510927305109275051092740569
:104DE00088E0E9E2F1E0A6E8B5E001900D928A954D
:104DF000E1F740E050E066E174E48EE494E00E9464
:104E00006E0540E050E068E473E48EE494E00E94B4
:104E1000D91040E050E066E174E48AE094E00E943A
:104E20006E0540E050E068E473E48AE094E00E949C
:104E3000D910E0910904EA3068F481E08E0F809384
:104E40000904F0E0EE0FFF1FEB50FC4F8EE494E0FE
:104E500091838083E0910904EA3068F481E08E0F49
:104E600080930904F0E0EE0FFF1FEB50FC4F8AE047
:104E700094E0918380838091E60387FD08C061E020
:104E80000E94180F60E08091E6030E94660E81E0A8
:104E90008093E10380936D0580936C0510926F05FC
:104EA00010926E0580E090EBACE5B6E480937E0551
:104EB00090937F05A0938005B093810583E29BEDDD
:104EC000A9EFBDE38093820590938305A0938405A9
:104ED000B0938505C6E8D5E08E0161E089910E9416
:104EE000180F60E0F80180810E94660EF5E0CE3870
:104EF000DF0791F7DF91CF911F910F91FF90EF9016
:104F0000DF90CF90BF90AF900895EF920F931F93D3
:104F1000CF93DF93E80147FD02C034E001C034E1E4
:104F2000E42F440FFF0BF7FF03C0F195E195F10962
:104F3000E32E022F2E2FAE010E942628CE01DF91F4
:104F4000CF911F910F91EF900895662777270C94CA
:104F5000B429FC0188279927E89421912032E9F3AC
:104F6000293010F02E30C8F32B3241F02D3239F4B5
:104F7000689404C00E940428820F911D219120533F
:104F80002A30C0F31EF4909581959F4F0895FA0141
:104F9000A191B081009719F41097E1F0CD01DC01E7
:104FA000CD010D90002011F4C00113C0FB0121912F
:104FB000222319F02015D9F7F3CFFB0121912015F9
:104FC00019F41E92119606C02223C1F70D900020FD
:104FD000A1F7D001FA01A193B0830895453251059C
:104FE00020F4423010F00C94F927FB011082CB0121
:104FF0000895BB274A3031F4992322F4BDE29095FD
:1050000081959F4F0C940D287AE0979F902D879F54
:10501000802D910D11240895BB27FB015527AA2748
:10502000880F991FAA1FA41710F0A41B8395505135
:10503000B9F7A05DAA3308F0A95DA193009779F7AD
:10504000B111B1931192CB010C940A2C4F925F9243
:105050006F927F929F92AF92BF92CF92DF92EF9228
:10506000FF920F931F93CF93DF93CDB7DEB72997AE
:105070000FB6F894DEBF0FBECDBF6A01122FB02E5F
:105080002BE3201720F0FF24F394F00E02C0BCE3C2
:10509000FB2E0F2D27E0AE014F5F5F4F0E94112BBB
:1050A000AC018981982F9970913031F0E1FC06C0F4
:1050B000E0FE06C090E205C09DE203C09BE201C095
:1050C00090E0EE2DE07183FF3CC0911102C083E0BF
:1050D00001C084E0811718F4212F281B01C020E0B3
:1050E000E1110BC0F601822F30E2882319F03193D1
:1050F0008150FBCFC20ED11C20E0992329F0D601AC
:105100009C93F60131966F01C6010396E2FE0AC038
:105110003EE4D6013C9341E411964C9311971296CC
:105120003C9306C03EE6F601308341E6418332837C
:10513000FC01322F40E2332309F442C04193315045
:10514000FACF82FF44C0911102C083E001C084E025
:10515000811718F4212F281B01C020E0E1110BC09A
:10516000F601822F30E2882319F031938150FBCF72
:10517000C20ED11C20E0992329F0D6019C93F601A0
:1051800031966F01C6010396E2FE0BC039E4D601E9
:105190003C933EE411963C93119736E412963C936F
:1051A00007C039E6F60130833EE6318336E63283C6
:1051B000FC01322F40E2332319F041933150FBCFF1
:1051C000FC01E20FF11D10828EEF9FEFB7C0F1E0FE
:1051D000911101C0F0E06F2F70E01416150624F451
:1051E0009A012F5F3F4F02C021E030E0260F371FAA
:1051F000BB2029F06B2D70E06F5F7F4F02C060E035
:1052000070E0260F371F612F70E0261737071CF458
:10521000121B212F01C020E03E2D387159F4D60118
:10522000322F60E2332319F06D933150FBCFC20E61
:10523000D11C20E0FF2331F0D6019C93B6016F5FB3
:105240007F4F6B01E1110BC0F601922F30E39923E0
:1052500019F031939150FBCFC20ED11C20E09F2D4D
:10526000940F3A81782F7071A72E84FF03C03133D9
:1052700009F49150191624F4993018F098E001C0FF
:1052800091E0E42F852F57FF02C0E0E080E06E2F11
:10529000782FE0E0F0E0AEE29A2E3A01691A710848
:1052A0002A01461A570A0B2D10E011950195110994
:1052B0006F3F8FEF780729F4D6019C92C6010196C3
:1052C0006C014617570784F0661677066CF47F0169
:1052D000E40CF51CA1E0B0E0AC0FBD1FEA0EFB1E14
:1052E000D7011196BC9002C090E3B92E61507109AC
:1052F0003196C60101967C016017710724F0D60132
:10530000BC926C01D5CF6417750741F4363320F495
:10531000353321F4A11002C081E3B82EF601B0822A
:10532000F701822F90E2882319F091938150FBCFEF
:10533000F701E20FF11D108280E090E029960FB690
:10534000F894DEBF0FBECDBFDF91CF911F910F91BB
:10535000FF90EF90DF90CF90BF90AF909F907F90A5
:105360006F905F904F900895A0E0B0E0EAEBF9E213
:105370000C94852DEC017B016115710519F0DB01A1
:105380008D939C938E010F5F1F4F7880872D90E047
:105390000E94E92B892B11F0E801F4CFBDE27B12CA
:1053A00005C00F5F1F4F7980C1E008C0EBE27E129D
:1053B00004C08E010E5F1F4F7980C0E06801F1E0EC
:1053C000CF1AD10843E050E060E970E0C6010E94C6
:1053D000F22B892BF1F4680122E0C20ED11C45E0CA
:1053E00050E06BE870E0C6010E94F22B892B21F49B
:1053F000680187E0C80ED11CE114F10419F0D7014F
:10540000CD92DC92C111FFC060E070E080E89FE7C0
:1054100003C143E050E068E870E0C6010E94F22B4F
:10542000892B51F4E114F10409F4F2C00E5F1F4F0F
:10543000F70111830083ECC0680160E070E0CB01EC
:1054400000E010E0F601D0EDD70DDA3058F52C2F42
:105450002260622E2C2F2870C2FF05C0211128C0A7
:105460000F5F1F4F25C0222311F001501109A5E045
:10547000B0E09B01AC010E94762D4B015C01880CD1
:10548000991CAA1CBB1CC501B4016D0F711D811DA7
:10549000911D6839A9E97A078A07A9E19A0740F0BE
:1054A000C66005C0DE3F51F4C3FD44C0C8606C2E29
:1054B000BFEFCB1ADB0A7080C62DC4CF2D2F2F7DF6
:1054C0002531C1F540814D3211F4C06106C04B3227
:1054D00021F0319621E030E006C03296D6011196D7
:1054E0004C9122E030E0A0EDA40FAA3018F0E21BAE
:1054F000F30B20C040E050E04038BCE05B075CF4B8
:105500009A01220F331F220F331F420F531F440FE4
:10551000551F4A0F511D3196DF0111972C91A0EDB7
:10552000A20FAA3048F3C4FF03C051954195510919
:10553000040F151FC1FF07C0E114F10421F03197DA
:10554000D701ED93FC930E941F2CC370C33019F058
:105550006B017C0106C06B017C01F7FAF094F7F84F
:10556000F09420E030E0A901C701B6010E941A2C96
:10557000882309F445C017FF06C01195019511094C
:10558000C7EAD0E002C0CFEBD0E05E01B8E1AB1AD1
:10559000B1084601BE2DAF2D90E2E92EF12C0E157B
:1055A0001F0584F0FE012591359145915491B40178
:1055B0008B2F9A2F0E94802C4B01B82FA92F0E19E8
:1055C0001F09EDCF2497F594E794CA15DB0539F749
:1055D0006401EB2EFA2E8E2D880F8F2D881F8F3FA2
:1055E00049F020E030E0A901C701B6010E941A2C61
:1055F000811106C082E290E09093C1068093C006BC
:10560000C701B60109C060E070E080E89FEF04C008
:1056100060E070E080EC9FE7CDB7DEB7EEE00C9481
:10562000A12D283008F027E03327DA01990F311D2A
:1056300087FD916000966105710539F432602E5F37
:105640003D9330E32A95E1F708959F3F30F080388D
:105650007105610509F03C5F3C5F3D93913008F0B6
:105660008068911DDF93CF931F930F93FF92EF926A
:10567000192F987F9695E92F96959695E90FFF2714
:10568000E35EFE4F99273327EE24FF24A701E701AD
:1056900005900894079428F4360FE71EF81E491F5A
:1056A000511D660F771F881F991F0694A1F705905B
:1056B000079428F4E70EF81E491F561FC11D770FE7
:1056C000881F991F661F0694A1F70590079428F478
:1056D000F80E491F561FC71FD11D880F991F661F3F
:1056E000771F0694A1F70590079420F4490F561FE1
:1056F000C71FD81F990F661F771F881F0694A9F729
:1057000084911095177041F0D695C7955795479598
:10571000F794E7941A95C1F7E3ECF0E068941590DC
:10572000159135916591959105907FE27395E118FA
:10573000F10A430B560BC90BD009C0F7E10CF11E5F
:10574000431F561FC91FD01D7EF4703311F48A9574
:10575000E6CFE894015030F0080F0AF40027021752
:1057600008F4202F2395022F7A3328F079E37D93D4
:105770002A95E9F710C07D932A9589F606949795A6
:105780006795379517951794E118F10A430B560B57
:10579000C90BD00998F023957E9173957A3308F060
:1057A00070E37C932013B8F77E9170617D9330F0A5
:1057B000839571E37D9370E32A95E1F71124EF90CF
:1057C000FF900F911F91CF91DF91992787FD9095C1
:1057D000089591110C94ED2C803219F08950855068
:1057E000C8F70895FB01DC014150504088F08D91CD
:1057F00081341CF08B350CF4805E659161341CF0B3
:105800006B350CF4605E861B611171F3990B089582
:10581000881BFCCFDC01FC01672F71917723E1F736
:10582000329704C07C916D9370836291AE17BF076D
:10583000C8F308950E945C2C08F481E00895E89470
:1058400009C097FB3EF490958095709561957F4FC8
:105850008F4F9F4F9923A9F0F92F96E9BB27939576
:10586000F695879577956795B795F111F8CFFAF486
:10587000BB0F11F460FF1BC06F5F7F4F8F4F9F4FB7
:1058800016C0882311F096E911C0772321F09EE815
:10589000872F762F05C0662371F096E8862F70E07B
:1058A00060E02AF09A95660F771F881FDAF7880F55
:1058B0009695879597F90895990F0008550FAA0BAB
:1058C000E0E8FEEF16161706E807F907C0F0121613
:1058D0001306E407F50798F0621B730B840B950B16
:1058E00039F40A2661F0232B242B252B21F408956B
:1058F0000A2609F4A140A6958FEF811D811D089508
:105900000E94932C0C94072D0E94F92C38F00E94D1
:10591000002D20F0952311F00C94F02C0C94F62C13
:1059200011240C943B2D0E94182D70F3959FC1F308
:10593000950F50E0551F629FF001729FBB27F00D3D
:10594000B11D639FAA27F00DB11DAA1F649F662792
:10595000B00DA11D661F829F2227B00DA11D621FE1
:10596000739FB00DA11D621F839FA00D611D221F9B
:10597000749F3327A00D611D231F849F600D211D7F
:10598000822F762F6A2F11249F5750409AF0F1F002
:1059900088234AF0EE0FFF1FBB1F661F771F881F6B
:1059A00091505040A9F79E3F510580F00C94F02C87
:1059B0000C943B2D5F3FE4F3983ED4F386957795A6
:1059C0006795B795F795E7959F5FC1F7FE2B880F11
:1059D000911D9695879597F9089599278827089599
:1059E00097F99F6780E870E060E008959FEF80EC92
:1059F000089500240A941616170618060906089535
:105A000000240A9412161306140605060895092E9A
:105A10000394000C11F4882352F0BB0F40F4BF2B09
:105A200011F460FF04C06F5F7F4F8F4F9F4F089549
:105A300057FD9058440F551F59F05F3F71F047953F
:105A4000880F97FB991F61F09F3F79F08795089524
:105A5000121613061406551FF2CF4695F1DF08C043
:105A6000161617061806991FF1CF86957105610560
:105A700008940895E894BB2766277727CB0197F908
:105A80000895F999FECF92BD81BDF89A992780B506
:105A90000895262FF999FECF1FBA92BD81BD20BD72
:105AA0000FB6F894FA9AF99A0FBE01960895052E4A
:105AB00097FB1EF400940E946E2D57FD07D00E94A4
:105AC000B82D07FC03D04EF40C946E2D50954095E4
:105AD000309521953F4F4F4F5F4F0895909580959A
